{
  "_format": "hh-sol-artifact-1",
  "contractName": "BaseV1Pair",
  "sourceName": "contracts/BaseV1-core.sol",
  "abi": [
    {
      "inputs": [],
      "stateMutability": "nonpayable",
      "type": "constructor"
    },
    {
      "anonymous": false,
      "inputs": [
        {
          "indexed": true,
          "internalType": "address",
          "name": "owner",
          "type": "address"
        },
        {
          "indexed": true,
          "internalType": "address",
          "name": "spender",
          "type": "address"
        },
        {
          "indexed": false,
          "internalType": "uint256",
          "name": "amount",
          "type": "uint256"
        }
      ],
      "name": "Approval",
      "type": "event"
    },
    {
      "anonymous": false,
      "inputs": [
        {
          "indexed": true,
          "internalType": "address",
          "name": "sender",
          "type": "address"
        },
        {
          "indexed": false,
          "internalType": "uint256",
          "name": "amount0",
          "type": "uint256"
        },
        {
          "indexed": false,
          "internalType": "uint256",
          "name": "amount1",
          "type": "uint256"
        },
        {
          "indexed": true,
          "internalType": "address",
          "name": "to",
          "type": "address"
        }
      ],
      "name": "Burn",
      "type": "event"
    },
    {
      "anonymous": false,
      "inputs": [
        {
          "indexed": true,
          "internalType": "address",
          "name": "sender",
          "type": "address"
        },
        {
          "indexed": true,
          "internalType": "address",
          "name": "recipient",
          "type": "address"
        },
        {
          "indexed": false,
          "internalType": "uint256",
          "name": "amount0",
          "type": "uint256"
        },
        {
          "indexed": false,
          "internalType": "uint256",
          "name": "amount1",
          "type": "uint256"
        }
      ],
      "name": "Claim",
      "type": "event"
    },
    {
      "anonymous": false,
      "inputs": [
        {
          "indexed": true,
          "internalType": "address",
          "name": "sender",
          "type": "address"
        },
        {
          "indexed": false,
          "internalType": "uint256",
          "name": "amount0",
          "type": "uint256"
        },
        {
          "indexed": false,
          "internalType": "uint256",
          "name": "amount1",
          "type": "uint256"
        }
      ],
      "name": "Fees",
      "type": "event"
    },
    {
      "anonymous": false,
      "inputs": [
        {
          "indexed": true,
          "internalType": "address",
          "name": "sender",
          "type": "address"
        },
        {
          "indexed": false,
          "internalType": "uint256",
          "name": "amount0",
          "type": "uint256"
        },
        {
          "indexed": false,
          "internalType": "uint256",
          "name": "amount1",
          "type": "uint256"
        }
      ],
      "name": "Mint",
      "type": "event"
    },
    {
      "anonymous": false,
      "inputs": [
        {
          "indexed": true,
          "internalType": "address",
          "name": "sender",
          "type": "address"
        },
        {
          "indexed": false,
          "internalType": "uint256",
          "name": "amount0In",
          "type": "uint256"
        },
        {
          "indexed": false,
          "internalType": "uint256",
          "name": "amount1In",
          "type": "uint256"
        },
        {
          "indexed": false,
          "internalType": "uint256",
          "name": "amount0Out",
          "type": "uint256"
        },
        {
          "indexed": false,
          "internalType": "uint256",
          "name": "amount1Out",
          "type": "uint256"
        },
        {
          "indexed": true,
          "internalType": "address",
          "name": "to",
          "type": "address"
        }
      ],
      "name": "Swap",
      "type": "event"
    },
    {
      "anonymous": false,
      "inputs": [
        {
          "indexed": false,
          "internalType": "uint256",
          "name": "reserve0",
          "type": "uint256"
        },
        {
          "indexed": false,
          "internalType": "uint256",
          "name": "reserve1",
          "type": "uint256"
        }
      ],
      "name": "Sync",
      "type": "event"
    },
    {
      "anonymous": false,
      "inputs": [
        {
          "indexed": true,
          "internalType": "address",
          "name": "from",
          "type": "address"
        },
        {
          "indexed": true,
          "internalType": "address",
          "name": "to",
          "type": "address"
        },
        {
          "indexed": false,
          "internalType": "uint256",
          "name": "amount",
          "type": "uint256"
        }
      ],
      "name": "Transfer",
      "type": "event"
    },
    {
      "inputs": [
        {
          "internalType": "address",
          "name": "",
          "type": "address"
        },
        {
          "internalType": "address",
          "name": "",
          "type": "address"
        }
      ],
      "name": "allowance",
      "outputs": [
        {
          "internalType": "uint256",
          "name": "",
          "type": "uint256"
        }
      ],
      "stateMutability": "view",
      "type": "function"
    },
    {
      "inputs": [
        {
          "internalType": "address",
          "name": "spender",
          "type": "address"
        },
        {
          "internalType": "uint256",
          "name": "amount",
          "type": "uint256"
        }
      ],
      "name": "approve",
      "outputs": [
        {
          "internalType": "bool",
          "name": "",
          "type": "bool"
        }
      ],
      "stateMutability": "nonpayable",
      "type": "function"
    },
    {
      "inputs": [
        {
          "internalType": "address",
          "name": "",
          "type": "address"
        }
      ],
      "name": "balanceOf",
      "outputs": [
        {
          "internalType": "uint256",
          "name": "",
          "type": "uint256"
        }
      ],
      "stateMutability": "view",
      "type": "function"
    },
    {
      "inputs": [],
      "name": "blockTimestampLast",
      "outputs": [
        {
          "internalType": "uint256",
          "name": "",
          "type": "uint256"
        }
      ],
      "stateMutability": "view",
      "type": "function"
    },
    {
      "inputs": [
        {
          "internalType": "address",
          "name": "to",
          "type": "address"
        }
      ],
      "name": "burn",
      "outputs": [
        {
          "internalType": "uint256",
          "name": "amount0",
          "type": "uint256"
        },
        {
          "internalType": "uint256",
          "name": "amount1",
          "type": "uint256"
        }
      ],
      "stateMutability": "nonpayable",
      "type": "function"
    },
    {
      "inputs": [],
      "name": "claimFees",
      "outputs": [
        {
          "internalType": "uint256",
          "name": "claimed0",
          "type": "uint256"
        },
        {
          "internalType": "uint256",
          "name": "claimed1",
          "type": "uint256"
        }
      ],
      "stateMutability": "nonpayable",
      "type": "function"
    },
    {
      "inputs": [
        {
          "internalType": "address",
          "name": "",
          "type": "address"
        }
      ],
      "name": "claimable0",
      "outputs": [
        {
          "internalType": "uint256",
          "name": "",
          "type": "uint256"
        }
      ],
      "stateMutability": "view",
      "type": "function"
    },
    {
      "inputs": [
        {
          "internalType": "address",
          "name": "",
          "type": "address"
        }
      ],
      "name": "claimable1",
      "outputs": [
        {
          "internalType": "uint256",
          "name": "",
          "type": "uint256"
        }
      ],
      "stateMutability": "view",
      "type": "function"
    },
    {
      "inputs": [
        {
          "internalType": "address",
          "name": "tokenIn",
          "type": "address"
        },
        {
          "internalType": "uint256",
          "name": "amountIn",
          "type": "uint256"
        }
      ],
      "name": "current",
      "outputs": [
        {
          "internalType": "uint256",
          "name": "amountOut",
          "type": "uint256"
        }
      ],
      "stateMutability": "view",
      "type": "function"
    },
    {
      "inputs": [],
      "name": "currentCumulativePrices",
      "outputs": [
        {
          "internalType": "uint256",
          "name": "reserve0Cumulative",
          "type": "uint256"
        },
        {
          "internalType": "uint256",
          "name": "reserve1Cumulative",
          "type": "uint256"
        },
        {
          "internalType": "uint256",
          "name": "blockTimestamp",
          "type": "uint256"
        }
      ],
      "stateMutability": "view",
      "type": "function"
    },
    {
      "inputs": [],
      "name": "decimals",
      "outputs": [
        {
          "internalType": "uint8",
          "name": "",
          "type": "uint8"
        }
      ],
      "stateMutability": "view",
      "type": "function"
    },
    {
      "inputs": [],
      "name": "fees",
      "outputs": [
        {
          "internalType": "address",
          "name": "",
          "type": "address"
        }
      ],
      "stateMutability": "view",
      "type": "function"
    },
    {
      "inputs": [
        {
          "internalType": "uint256",
          "name": "amountIn",
          "type": "uint256"
        },
        {
          "internalType": "address",
          "name": "tokenIn",
          "type": "address"
        }
      ],
      "name": "getAmountOut",
      "outputs": [
        {
          "internalType": "uint256",
          "name": "",
          "type": "uint256"
        }
      ],
      "stateMutability": "view",
      "type": "function"
    },
    {
      "inputs": [],
      "name": "getReserves",
      "outputs": [
        {
          "internalType": "uint256",
          "name": "_reserve0",
          "type": "uint256"
        },
        {
          "internalType": "uint256",
          "name": "_reserve1",
          "type": "uint256"
        },
        {
          "internalType": "uint256",
          "name": "_blockTimestampLast",
          "type": "uint256"
        }
      ],
      "stateMutability": "view",
      "type": "function"
    },
    {
      "inputs": [],
      "name": "index0",
      "outputs": [
        {
          "internalType": "uint256",
          "name": "",
          "type": "uint256"
        }
      ],
      "stateMutability": "view",
      "type": "function"
    },
    {
      "inputs": [],
      "name": "index1",
      "outputs": [
        {
          "internalType": "uint256",
          "name": "",
          "type": "uint256"
        }
      ],
      "stateMutability": "view",
      "type": "function"
    },
    {
      "inputs": [],
      "name": "lastObservation",
      "outputs": [
        {
          "components": [
            {
              "internalType": "uint256",
              "name": "timestamp",
              "type": "uint256"
            },
            {
              "internalType": "uint256",
              "name": "reserve0Cumulative",
              "type": "uint256"
            },
            {
              "internalType": "uint256",
              "name": "reserve1Cumulative",
              "type": "uint256"
            }
          ],
          "internalType": "struct BaseV1Pair.Observation",
          "name": "",
          "type": "tuple"
        }
      ],
      "stateMutability": "view",
      "type": "function"
    },
    {
      "inputs": [],
      "name": "metadata",
      "outputs": [
        {
          "internalType": "uint256",
          "name": "dec0",
          "type": "uint256"
        },
        {
          "internalType": "uint256",
          "name": "dec1",
          "type": "uint256"
        },
        {
          "internalType": "uint256",
          "name": "r0",
          "type": "uint256"
        },
        {
          "internalType": "uint256",
          "name": "r1",
          "type": "uint256"
        },
        {
          "internalType": "bool",
          "name": "st",
          "type": "bool"
        },
        {
          "internalType": "address",
          "name": "t0",
          "type": "address"
        },
        {
          "internalType": "address",
          "name": "t1",
          "type": "address"
        }
      ],
      "stateMutability": "view",
      "type": "function"
    },
    {
      "inputs": [
        {
          "internalType": "address",
          "name": "to",
          "type": "address"
        }
      ],
      "name": "mint",
      "outputs": [
        {
          "internalType": "uint256",
          "name": "liquidity",
          "type": "uint256"
        }
      ],
      "stateMutability": "nonpayable",
      "type": "function"
    },
    {
      "inputs": [],
      "name": "name",
      "outputs": [
        {
          "internalType": "string",
          "name": "",
          "type": "string"
        }
      ],
      "stateMutability": "view",
      "type": "function"
    },
    {
      "inputs": [
        {
          "internalType": "address",
          "name": "",
          "type": "address"
        }
      ],
      "name": "nonces",
      "outputs": [
        {
          "internalType": "uint256",
          "name": "",
          "type": "uint256"
        }
      ],
      "stateMutability": "view",
      "type": "function"
    },
    {
      "inputs": [],
      "name": "observationLength",
      "outputs": [
        {
          "internalType": "uint256",
          "name": "",
          "type": "uint256"
        }
      ],
      "stateMutability": "view",
      "type": "function"
    },
    {
      "inputs": [
        {
          "internalType": "uint256",
          "name": "",
          "type": "uint256"
        }
      ],
      "name": "observations",
      "outputs": [
        {
          "internalType": "uint256",
          "name": "timestamp",
          "type": "uint256"
        },
        {
          "internalType": "uint256",
          "name": "reserve0Cumulative",
          "type": "uint256"
        },
        {
          "internalType": "uint256",
          "name": "reserve1Cumulative",
          "type": "uint256"
        }
      ],
      "stateMutability": "view",
      "type": "function"
    },
    {
      "inputs": [
        {
          "internalType": "address",
          "name": "owner",
          "type": "address"
        },
        {
          "internalType": "address",
          "name": "spender",
          "type": "address"
        },
        {
          "internalType": "uint256",
          "name": "value",
          "type": "uint256"
        },
        {
          "internalType": "uint256",
          "name": "deadline",
          "type": "uint256"
        },
        {
          "internalType": "uint8",
          "name": "v",
          "type": "uint8"
        },
        {
          "internalType": "bytes32",
          "name": "r",
          "type": "bytes32"
        },
        {
          "internalType": "bytes32",
          "name": "s",
          "type": "bytes32"
        }
      ],
      "name": "permit",
      "outputs": [],
      "stateMutability": "nonpayable",
      "type": "function"
    },
    {
      "inputs": [
        {
          "internalType": "address",
          "name": "tokenIn",
          "type": "address"
        },
        {
          "internalType": "uint256",
          "name": "amountIn",
          "type": "uint256"
        },
        {
          "internalType": "uint256",
          "name": "points",
          "type": "uint256"
        }
      ],
      "name": "prices",
      "outputs": [
        {
          "internalType": "uint256[]",
          "name": "",
          "type": "uint256[]"
        }
      ],
      "stateMutability": "view",
      "type": "function"
    },
    {
      "inputs": [
        {
          "internalType": "address",
          "name": "tokenIn",
          "type": "address"
        },
        {
          "internalType": "uint256",
          "name": "amountIn",
          "type": "uint256"
        },
        {
          "internalType": "uint256",
          "name": "granularity",
          "type": "uint256"
        }
      ],
      "name": "quote",
      "outputs": [
        {
          "internalType": "uint256",
          "name": "amountOut",
          "type": "uint256"
        }
      ],
      "stateMutability": "view",
      "type": "function"
    },
    {
      "inputs": [],
      "name": "reserve0",
      "outputs": [
        {
          "internalType": "uint256",
          "name": "",
          "type": "uint256"
        }
      ],
      "stateMutability": "view",
      "type": "function"
    },
    {
      "inputs": [],
      "name": "reserve0CumulativeLast",
      "outputs": [
        {
          "internalType": "uint256",
          "name": "",
          "type": "uint256"
        }
      ],
      "stateMutability": "view",
      "type": "function"
    },
    {
      "inputs": [],
      "name": "reserve1",
      "outputs": [
        {
          "internalType": "uint256",
          "name": "",
          "type": "uint256"
        }
      ],
      "stateMutability": "view",
      "type": "function"
    },
    {
      "inputs": [],
      "name": "reserve1CumulativeLast",
      "outputs": [
        {
          "internalType": "uint256",
          "name": "",
          "type": "uint256"
        }
      ],
      "stateMutability": "view",
      "type": "function"
    },
    {
      "inputs": [
        {
          "internalType": "address",
          "name": "tokenIn",
          "type": "address"
        },
        {
          "internalType": "uint256",
          "name": "amountIn",
          "type": "uint256"
        },
        {
          "internalType": "uint256",
          "name": "points",
          "type": "uint256"
        },
        {
          "internalType": "uint256",
          "name": "window",
          "type": "uint256"
        }
      ],
      "name": "sample",
      "outputs": [
        {
          "internalType": "uint256[]",
          "name": "",
          "type": "uint256[]"
        }
      ],
      "stateMutability": "view",
      "type": "function"
    },
    {
      "inputs": [
        {
          "internalType": "address",
          "name": "to",
          "type": "address"
        }
      ],
      "name": "skim",
      "outputs": [],
      "stateMutability": "nonpayable",
      "type": "function"
    },
    {
      "inputs": [],
      "name": "stable",
      "outputs": [
        {
          "internalType": "bool",
          "name": "",
          "type": "bool"
        }
      ],
      "stateMutability": "view",
      "type": "function"
    },
    {
      "inputs": [
        {
          "internalType": "address",
          "name": "",
          "type": "address"
        }
      ],
      "name": "supplyIndex0",
      "outputs": [
        {
          "internalType": "uint256",
          "name": "",
          "type": "uint256"
        }
      ],
      "stateMutability": "view",
      "type": "function"
    },
    {
      "inputs": [
        {
          "internalType": "address",
          "name": "",
          "type": "address"
        }
      ],
      "name": "supplyIndex1",
      "outputs": [
        {
          "internalType": "uint256",
          "name": "",
          "type": "uint256"
        }
      ],
      "stateMutability": "view",
      "type": "function"
    },
    {
      "inputs": [
        {
          "internalType": "uint256",
          "name": "amount0Out",
          "type": "uint256"
        },
        {
          "internalType": "uint256",
          "name": "amount1Out",
          "type": "uint256"
        },
        {
          "internalType": "address",
          "name": "to",
          "type": "address"
        },
        {
          "internalType": "bytes",
          "name": "data",
          "type": "bytes"
        }
      ],
      "name": "swap",
      "outputs": [],
      "stateMutability": "nonpayable",
      "type": "function"
    },
    {
      "inputs": [],
      "name": "symbol",
      "outputs": [
        {
          "internalType": "string",
          "name": "",
          "type": "string"
        }
      ],
      "stateMutability": "view",
      "type": "function"
    },
    {
      "inputs": [],
      "name": "sync",
      "outputs": [],
      "stateMutability": "nonpayable",
      "type": "function"
    },
    {
      "inputs": [],
      "name": "token0",
      "outputs": [
        {
          "internalType": "address",
          "name": "",
          "type": "address"
        }
      ],
      "stateMutability": "view",
      "type": "function"
    },
    {
      "inputs": [],
      "name": "token1",
      "outputs": [
        {
          "internalType": "address",
          "name": "",
          "type": "address"
        }
      ],
      "stateMutability": "view",
      "type": "function"
    },
    {
      "inputs": [],
      "name": "tokens",
      "outputs": [
        {
          "internalType": "address",
          "name": "",
          "type": "address"
        },
        {
          "internalType": "address",
          "name": "",
          "type": "address"
        }
      ],
      "stateMutability": "view",
      "type": "function"
    },
    {
      "inputs": [],
      "name": "totalSupply",
      "outputs": [
        {
          "internalType": "uint256",
          "name": "",
          "type": "uint256"
        }
      ],
      "stateMutability": "view",
      "type": "function"
    },
    {
      "inputs": [
        {
          "internalType": "address",
          "name": "dst",
          "type": "address"
        },
        {
          "internalType": "uint256",
          "name": "amount",
          "type": "uint256"
        }
      ],
      "name": "transfer",
      "outputs": [
        {
          "internalType": "bool",
          "name": "",
          "type": "bool"
        }
      ],
      "stateMutability": "nonpayable",
      "type": "function"
    },
    {
      "inputs": [
        {
          "internalType": "address",
          "name": "src",
          "type": "address"
        },
        {
          "internalType": "address",
          "name": "dst",
          "type": "address"
        },
        {
          "internalType": "uint256",
          "name": "amount",
          "type": "uint256"
        }
      ],
      "name": "transferFrom",
      "outputs": [
        {
          "internalType": "bool",
          "name": "",
          "type": "bool"
        }
      ],
      "stateMutability": "nonpayable",
      "type": "function"
    }
  ],
  "bytecode": "0x61016060405260006002556000600d556000600e5560016013553480156200002657600080fd5b50336001600160a01b0316610100816001600160a01b0316815250506000806000336001600160a01b031663eb13c4cf6040518163ffffffff1660e01b8152600401606060405180830381865afa15801562000086573d6000803e3d6000fd5b505050506040513d601f19601f82011682018060405250810190620000ac9190620007c8565b8015156080526001600160a01b0380831660c052831660a052604051929550909350915083908390620000df90620006f7565b6001600160a01b03928316815291166020820152604001604051809103906000f08015801562000113573d6000803e3d6000fd5b506001600160a01b031660e05280156200034557826001600160a01b03166395d89b416040518163ffffffff1660e01b8152600401600060405180830381865afa15801562000166573d6000803e3d6000fd5b505050506040513d6000823e601f3d908101601f1916820160405262000190919081019062000863565b826001600160a01b03166395d89b416040518163ffffffff1660e01b8152600401600060405180830381865afa158015620001cf573d6000803e3d6000fd5b505050506040513d6000823e601f3d908101601f19168201604052620001f9919081019062000863565b6040516020016200020c9291906200091b565b604051602081830303815290604052600090805190602001906200023292919062000705565b50826001600160a01b03166395d89b416040518163ffffffff1660e01b8152600401600060405180830381865afa15801562000272573d6000803e3d6000fd5b505050506040513d6000823e601f3d908101601f191682016040526200029c919081019062000863565b826001600160a01b03166395d89b416040518163ffffffff1660e01b8152600401600060405180830381865afa158015620002db573d6000803e3d6000fd5b505050506040513d6000823e601f3d908101601f1916820160405262000305919081019062000863565b6040516020016200031892919062000976565b604051602081830303815290604052600190805190602001906200033e92919062000705565b506200055e565b826001600160a01b03166395d89b416040518163ffffffff1660e01b8152600401600060405180830381865afa15801562000384573d6000803e3d6000fd5b505050506040513d6000823e601f3d908101601f19168201604052620003ae919081019062000863565b826001600160a01b03166395d89b416040518163ffffffff1660e01b8152600401600060405180830381865afa158015620003ed573d6000803e3d6000fd5b505050506040513d6000823e601f3d908101601f1916820160405262000417919081019062000863565b6040516020016200042a929190620009c7565b604051602081830303815290604052600090805190602001906200045092919062000705565b50826001600160a01b03166395d89b416040518163ffffffff1660e01b8152600401600060405180830381865afa15801562000490573d6000803e3d6000fd5b505050506040513d6000823e601f3d908101601f19168201604052620004ba919081019062000863565b826001600160a01b03166395d89b416040518163ffffffff1660e01b8152600401600060405180830381865afa158015620004f9573d6000803e3d6000fd5b505050506040513d6000823e601f3d908101601f1916820160405262000523919081019062000863565b6040516020016200053692919062000a24565b604051602081830303815290604052600190805190602001906200055c92919062000705565b505b826001600160a01b031663313ce5676040518163ffffffff1660e01b8152600401602060405180830381865afa1580156200059d573d6000803e3d6000fd5b505050506040513d601f19601f82011682018060405250810190620005c3919062000a46565b620005d090600a62000b87565b6101208181525050816001600160a01b031663313ce5676040518163ffffffff1660e01b8152600401602060405180830381865afa15801562000617573d6000803e3d6000fd5b505050506040513d601f19601f820116820180604052508101906200063d919062000a46565b6200064a90600a62000b87565b6101405250506040805160608101825242815260006020820181815292820181815260078054600181018255925291517fa66cc928b5edb82af9bd49922954155ab7b0942694bea4ce44661d9a8736c68860039092029182015591517fa66cc928b5edb82af9bd49922954155ab7b0942694bea4ce44661d9a8736c689830155517fa66cc928b5edb82af9bd49922954155ab7b0942694bea4ce44661d9a8736c68a909101555062000bd5565b610370806200410c83390190565b828054620007139062000b98565b90600052602060002090601f01602090048101928262000737576000855562000782565b82601f106200075257805160ff191683800117855562000782565b8280016001018555821562000782579182015b828111156200078257825182559160200191906001019062000765565b506200079092915062000794565b5090565b5b8082111562000790576000815560010162000795565b80516001600160a01b0381168114620007c357600080fd5b919050565b600080600060608486031215620007de57600080fd5b620007e984620007ab565b9250620007f960208501620007ab565b9150604084015180151581146200080f57600080fd5b809150509250925092565b634e487b7160e01b600052604160045260246000fd5b60005b838110156200084d57818101518382015260200162000833565b838111156200085d576000848401525b50505050565b6000602082840312156200087657600080fd5b81516001600160401b03808211156200088e57600080fd5b818401915084601f830112620008a357600080fd5b815181811115620008b857620008b86200081a565b604051601f8201601f19908116603f01168101908382118183101715620008e357620008e36200081a565b81604052828152876020848701011115620008fd57600080fd5b6200091083602083016020880162000830565b979650505050505050565b6e029ba30b13632ab189020a6a690169608d1b8152600083516200094781600f85016020880162000830565b602f60f81b600f9184019182015283516200096a81601084016020880162000830565b01601001949350505050565b6473414d4d2d60d81b8152600083516200099881600585016020880162000830565b602f60f81b6005918401918201528351620009bb81600684016020880162000830565b01600601949350505050565b7002b37b630ba34b632ab189020a6a690169607d1b815260008351620009f581601185016020880162000830565b602f60f81b601191840191820152835162000a1881601284016020880162000830565b01601201949350505050565b6476414d4d2d60d81b8152600083516200099881600585016020880162000830565b60006020828403121562000a5957600080fd5b815160ff8116811462000a6b57600080fd5b9392505050565b634e487b7160e01b600052601160045260246000fd5b600181815b8085111562000ac957816000190482111562000aad5762000aad62000a72565b8085161562000abb57918102915b93841c939080029062000a8d565b509250929050565b60008262000ae25750600162000b81565b8162000af15750600062000b81565b816001811462000b0a576002811462000b155762000b35565b600191505062000b81565b60ff84111562000b295762000b2962000a72565b50506001821b62000b81565b5060208310610133831016604e8410600b841016171562000b5a575081810a62000b81565b62000b66838362000a88565b806000190482111562000b7d5762000b7d62000a72565b0290505b92915050565b600062000a6b60ff84168362000ad1565b600181811c9082168062000bad57607f821691505b6020821081141562000bcf57634e487b7160e01b600052602260045260246000fd5b50919050565b60805160a05160c05160e0516101005161012051610140516133e062000d2c6000396000818161043101528181612308015281816125f2015281816126b401526127bf01526000818161040e015281816122c7015281816125b3015281816126f60152612799015260006107b80152600081816105f201528181611b150152818161212e01526121fb0152600081816104bb0152818161064701528181610714015281816108f301528181610b9b015281816113ae01528181611595015281816119bc01528181611f9401526121da0152600081816102f90152818161049301528181610622015281816108d201528181610b7a01528181611318015281816115730152818161199a01528181611f0c0152818161210d015281816126340152818161267b015281816127600152612803015260008181610397015281816104630152818161229f015261257f01526133e06000f3fe608060405234801561001057600080fd5b50600436106102745760003560e01c80637ecebe0011610151578063bda39cad116100c3578063d294f09311610087578063d294f09314610736578063d505accf1461073e578063dd62ed3e14610751578063ebeb31db1461077c578063f140a35a14610784578063fff6cae91461079757600080fd5b8063bda39cad146106eb578063bf944dbc146106f4578063c245febc146106fd578063c5700a0214610706578063d21220a71461070f57600080fd5b80639d63848a116101155780639d63848a146106145780639e8cc04b146106725780639f767c8814610685578063a1ac4d13146106a5578063a9059cbb146106c5578063bc25cf77146106d857600080fd5b80637ecebe001461057357806389afcb44146105935780638a7b8cf2146105bb57806395d89b41146105e55780639af1d35a146105ed57600080fd5b8063252c09d7116101ea5780634d5a9f8a116101ae5780634d5a9f8a146104f1578063517b3f82146105115780635881c475146105245780635a76f25e146105375780636a6278421461054057806370a082311461055357600080fd5b8063252c09d7146103cc578063313ce567146103df57806332c0defd146103f9578063392f37e914610402578063443cb4bc146104e857600080fd5b806313345fe11161023c57806313345fe11461033357806318160ddd146103535780631df8c7171461036a578063205aabf11461037257806322be3de11461039257806323b872dd146103b957600080fd5b8063022c0d9f1461027957806306fdde031461028e5780630902f1ac146102ac578063095ea7b3146102d15780630dfe1681146102f4575b600080fd5b61028c610287366004612e5f565b61079f565b005b610296610d7e565b6040516102a39190612f23565b60405180910390f35b600854600954600a545b604080519384526020840192909252908201526060016102a3565b6102e46102df366004612f56565b610e0c565b60405190151581526020016102a3565b61031b7f000000000000000000000000000000000000000000000000000000000000000081565b6040516001600160a01b0390911681526020016102a3565b610346610341366004612f80565b610e79565b6040516102a39190612fb9565b61035c60025481565b6040519081526020016102a3565b6102b6611081565b61035c610380366004612ffd565b60106020526000908152604090205481565b6102e47f000000000000000000000000000000000000000000000000000000000000000081565b6102e46103c7366004613018565b6110f0565b6102b66103da366004613054565b6111b9565b6103e7601281565b60405160ff90911681526020016102a3565b61035c600d5481565b600854600954604080517f000000000000000000000000000000000000000000000000000000000000000081527f000000000000000000000000000000000000000000000000000000000000000060208201529081019290925260608201527f0000000000000000000000000000000000000000000000000000000000000000151560808201526001600160a01b037f0000000000000000000000000000000000000000000000000000000000000000811660a08301527f00000000000000000000000000000000000000000000000000000000000000001660c082015260e0016102a3565b61035c60085481565b61035c6104ff366004612ffd565b60116020526000908152604090205481565b61035c61051f366004612f56565b6111ec565b61034661053236600461306d565b6112d5565b61035c60095481565b61035c61054e366004612ffd565b6112e4565b61035c610561366004612ffd565b60046020526000908152604090205481565b61035c610581366004612ffd565b60066020526000908152604090205481565b6105a66105a1366004612ffd565b611541565b604080519283526020830191909152016102a3565b6105c361185e565b60408051825181526020808401519082015291810151908201526060016102a3565b6102966118de565b61031b7f000000000000000000000000000000000000000000000000000000000000000081565b604080516001600160a01b037f0000000000000000000000000000000000000000000000000000000000000000811682527f0000000000000000000000000000000000000000000000000000000000000000166020820152016102a3565b61035c61068036600461306d565b6118eb565b61035c610693366004612ffd565b600f6020526000908152604090205481565b61035c6106b3366004612ffd565b60126020526000908152604090205481565b6102e46106d3366004612f56565b611958565b61028c6106e6366004612ffd565b61196e565b61035c600e5481565b61035c600b5481565b61035c600c5481565b61035c600a5481565b61031b7f000000000000000000000000000000000000000000000000000000000000000081565b6105a6611a8c565b61028c61074c3660046130a0565b611bb3565b61035c61075f366004613113565b600360209081526000928352604080842090915290825290205481565b60075461035c565b61035c610792366004613146565b611ea8565b61028c611edf565b6013546001146107ae57600080fd5b60026013819055507f00000000000000000000000000000000000000000000000000000000000000006001600160a01b031663b187bd266040518163ffffffff1660e01b8152600401602060405180830381865afa158015610814573d6000803e3d6000fd5b505050506040513d601f19601f820116820180604052508101906108389190613169565b1561084257600080fd5b60008511806108515750600084115b6108885760405162461bcd60e51b8152602060048201526003602482015262494f4160e81b60448201526064015b60405180910390fd5b600854600954818710801561089c57508086105b6108cd5760405162461bcd60e51b8152602060048201526002602482015261125360f21b604482015260640161087f565b6000807f00000000000000000000000000000000000000000000000000000000000000007f00000000000000000000000000000000000000000000000000000000000000006001600160a01b03898116908316148015906109405750806001600160a01b0316896001600160a01b031614155b6109715760405162461bcd60e51b8152602060048201526002602482015261125560f21b604482015260640161087f565b8a1561098257610982828a8d612019565b891561099357610993818a8c612019565b8615610a0057604051639a7bff7960e01b81526001600160a01b038a1690639a7bff79906109cd9033908f908f908e908e9060040161318b565b600060405180830381600087803b1580156109e757600080fd5b505af11580156109fb573d6000803e3d6000fd5b505050505b6040516370a0823160e01b81523060048201526001600160a01b038316906370a0823190602401602060405180830381865afa158015610a44573d6000803e3d6000fd5b505050506040513d601f19601f82011682018060405250810190610a6891906131d7565b6040516370a0823160e01b81523060048201529094506001600160a01b038216906370a0823190602401602060405180830381865afa158015610aaf573d6000803e3d6000fd5b505050506040513d601f19601f82011682018060405250810190610ad391906131d7565b9250505060008985610ae59190613206565b8311610af2576000610b06565b610afc8a86613206565b610b069084613206565b90506000610b148a86613206565b8311610b21576000610b35565b610b2b8a86613206565b610b359084613206565b90506000821180610b465750600081115b610b785760405162461bcd60e51b815260206004820152600360248201526249494160e81b604482015260640161087f565b7f00000000000000000000000000000000000000000000000000000000000000007f00000000000000000000000000000000000000000000000000000000000000008315610bd457610bd4610bcf6127108661321d565b612108565b8215610bee57610bee610be96127108561321d565b6121d5565b6040516370a0823160e01b81523060048201526001600160a01b038316906370a0823190602401602060405180830381865afa158015610c32573d6000803e3d6000fd5b505050506040513d601f19601f82011682018060405250810190610c5691906131d7565b6040516370a0823160e01b81523060048201529096506001600160a01b038216906370a0823190602401602060405180830381865afa158015610c9d573d6000803e3d6000fd5b505050506040513d601f19601f82011682018060405250810190610cc191906131d7565b9450610ccd888861229b565b610cd7878761229b565b1015610d095760405162461bcd60e51b81526020600482015260016024820152604b60f81b604482015260640161087f565b5050610d17848488886123e7565b60408051838152602081018390529081018c9052606081018b90526001600160a01b038a169033907fd78ad95fa46c994b6551d0da85fc275fe613ce37657fb8d5e3d130840159d8229060800160405180910390a350506001601355505050505050505050565b60008054610d8b9061323f565b80601f0160208091040260200160405190810160405280929190818152602001828054610db79061323f565b8015610e045780601f10610dd957610100808354040283529160200191610e04565b820191906000526020600020905b815481529060010190602001808311610de757829003601f168201915b505050505081565b3360008181526003602090815260408083206001600160a01b038716808552925280832085905551919290917f8c5be1e5ebec7d5bd14f71427d1e84f3dd0314c0f7b2291e5b200ac8c7c3b92590610e679086815260200190565b60405180910390a35060015b92915050565b606060008367ffffffffffffffff811115610e9657610e96613274565b604051908082528060200260200182016040528015610ebf578160200160208202803683370190505b50600754909150600090610ed590600190613206565b90506000610ee3858761328a565b610eed9083613206565b90506000805b8383101561107157610f0587846132a9565b9150600060078481548110610f1c57610f1c6132c1565b90600052602060002090600302016000015460078481548110610f4157610f416132c1565b906000526020600020906003020160000154610f5d9190613206565b905060008160078681548110610f7557610f756132c1565b90600052602060002090600302016001015460078681548110610f9a57610f9a6132c1565b906000526020600020906003020160010154610fb69190613206565b610fc0919061321d565b905060008260078781548110610fd857610fd86132c1565b90600052602060002090600302016002015460078781548110610ffd57610ffd6132c1565b9060005260206000209060030201600201546110199190613206565b611023919061321d565b90506110318c8e848461257b565b888581518110611043576110436132c1565b60209081029190910101526110598460016132a9565b9350505050868361106a91906132a9565b9250610ef3565b509293505050505b949350505050565b600b54600c54426000808061109f600854600954600a549192909190565b9250925092508381146110e85760006110b88286613206565b90506110c4818561328a565b6110ce90886132a9565b96506110da818461328a565b6110e490876132a9565b9550505b505050909192565b6001600160a01b03831660008181526003602090815260408083203380855292528220549192909190821480159061112a57506000198114155b156111a057600061113b8583613206565b6001600160a01b038881166000818152600360209081526040808320948916808452948252918290208590559051848152939450919290917f8c5be1e5ebec7d5bd14f71427d1e84f3dd0314c0f7b2291e5b200ac8c7c3b925910160405180910390a3505b6111ab868686612870565b6001925050505b9392505050565b600781815481106111c957600080fd5b600091825260209091206003909102018054600182015460029092015490925083565b6000806111f761185e565b9050600080611204611081565b508451919350915042141561126d576007805461122390600290613206565b81548110611233576112336132c1565b9060005260206000209060030201604051806060016040529081600082015481526020016001820154815260200160028201548152505092505b825160009061127c9042613206565b90506000818560200151856112919190613206565b61129b919061321d565b90506000828660400151856112b09190613206565b6112ba919061321d565b90506112c8888a848461257b565b9998505050505050505050565b60606110798484846001610e79565b60006013546001146112f557600080fd5b60026013556008546009546040516370a0823160e01b81523060048201526000907f00000000000000000000000000000000000000000000000000000000000000006001600160a01b0316906370a0823190602401602060405180830381865afa158015611367573d6000803e3d6000fd5b505050506040513d601f19601f8201168201806040525081019061138b91906131d7565b6040516370a0823160e01b81523060048201529091506000906001600160a01b037f000000000000000000000000000000000000000000000000000000000000000016906370a0823190602401602060405180830381865afa1580156113f5573d6000803e3d6000fd5b505050506040513d601f19601f8201168201806040525081019061141991906131d7565b905060006114278584613206565b905060006114358584613206565b60025490915080611473576103e8611455611450848661328a565b612930565b61145f9190613206565b975061146e60006103e86129a0565b6114a8565b6114a587611481838661328a565b61148b919061321d565b87611496848661328a565b6114a0919061321d565b612a33565b97505b600088116114de5760405162461bcd60e51b8152602060048201526003602482015262494c4d60e81b604482015260640161087f565b6114e889896129a0565b6114f4858589896123e7565b604080518481526020810184905233917f4c209b5fc8ad50758f13e2e1088ba56a560dff690a1c6fef26394f4c03821c4f910160405180910390a250506001601355509395945050505050565b60008060135460011461155357600080fd5b60026013556008546009546040516370a0823160e01b81523060048201527f0000000000000000000000000000000000000000000000000000000000000000907f0000000000000000000000000000000000000000000000000000000000000000906000906001600160a01b038416906370a0823190602401602060405180830381865afa1580156115e9573d6000803e3d6000fd5b505050506040513d601f19601f8201168201806040525081019061160d91906131d7565b6040516370a0823160e01b81523060048201529091506000906001600160a01b038416906370a0823190602401602060405180830381865afa158015611657573d6000803e3d6000fd5b505050506040513d601f19601f8201168201806040525081019061167b91906131d7565b30600090815260046020526040902054600254919250908061169d858461328a565b6116a7919061321d565b9950806116b4848461328a565b6116be919061321d565b985060008a1180156116d05750600089115b6117025760405162461bcd60e51b815260206004820152600360248201526224a62160e91b604482015260640161087f565b61170c3083612a49565b611717868c8c612019565b611722858c8b612019565b6040516370a0823160e01b81523060048201526001600160a01b038716906370a0823190602401602060405180830381865afa158015611766573d6000803e3d6000fd5b505050506040513d601f19601f8201168201806040525081019061178a91906131d7565b6040516370a0823160e01b81523060048201529094506001600160a01b038616906370a0823190602401602060405180830381865afa1580156117d1573d6000803e3d6000fd5b505050506040513d601f19601f820116820180604052508101906117f591906131d7565b925061180384848a8a6123e7565b604080518b8152602081018b90526001600160a01b038d169133917fdccd412f0b1252819cb1fd330b93224ca42612892bb3f4f789976e6d81936496910160405180910390a350505050505050506001601381905550915091565b61188260405180606001604052806000815260200160008152602001600081525090565b6007805461189290600190613206565b815481106118a2576118a26132c1565b90600052602060002090600302016040518060600160405290816000820154815260200160018201548152602001600282015481525050905090565b60018054610d8b9061323f565b6000806118fb8585856001610e79565b90506000805b82518110156119435782818151811061191c5761191c6132c1565b60200260200101518261192f91906132a9565b91508061193b816132d7565b915050611901565b5061194e848261321d565b9695505050505050565b6000611965338484612870565b50600192915050565b60135460011461197d57600080fd5b60026013556008546040516370a0823160e01b81523060048201527f0000000000000000000000000000000000000000000000000000000000000000917f000000000000000000000000000000000000000000000000000000000000000091611a4a9184918691906001600160a01b038416906370a08231906024015b602060405180830381865afa158015611a17573d6000803e3d6000fd5b505050506040513d601f19601f82011682018060405250810190611a3b91906131d7565b611a459190613206565b612019565b6009546040516370a0823160e01b8152306004820152611a829183918691906001600160a01b038416906370a08231906024016119fa565b5050600160135550565b600080611a9833612ad4565b50503360009081526011602090815260408083205460129092529091205481151580611ac45750600081115b15611baf573360008181526011602090815260408083208390556012909152808220919091555163299e7ae760e11b8152600481019190915260248101839052604481018290526001600160a01b037f0000000000000000000000000000000000000000000000000000000000000000169063533cf5ce90606401600060405180830381600087803b158015611b5957600080fd5b505af1158015611b6d573d6000803e3d6000fd5b505060408051858152602081018590523393508392507f865ca08d59f5cb456e85cd2f7ef63664ea4f73327414e9d8152c4158b0e94645910160405180910390a35b9091565b42841015611bf55760405162461bcd60e51b815260206004820152600f60248201526e10985cd9558c4e8811561412549151608a1b604482015260640161087f565b7f8b73c3c69bb8fe3d512ecc4cf759cc79239f7b179b0ffacaa9a75d522b39400f6000604051611c2591906132f2565b6040805191829003822060208301939093528101919091527fc89efdaa54c0f20c7adf612882df0950f5a951637e0307cdcb4c672f298b8bc660608201524660808201523060a082015260c00160408051601f19818403018152918152815160209283012060058190556001600160a01b038a166000908152600690935290822080547f6e71edae12b1b97f4d1f60370fef10105fa2faae0126114a169c64845d6126c9918b918b918b919087611cdb836132d7565b909155506040805160208101969096526001600160a01b0394851690860152929091166060840152608083015260a082015260c0810187905260e00160405160208183030381529060405280519060200120604051602001611d5492919061190160f01b81526002810192909252602282015260420190565b60408051601f198184030181528282528051602091820120600080855291840180845281905260ff88169284019290925260608301869052608083018590529092509060019060a0016020604051602081039080840390855afa158015611dbf573d6000803e3d6000fd5b5050604051601f1901519150506001600160a01b03811615801590611df55750886001600160a01b0316816001600160a01b0316145b611e415760405162461bcd60e51b815260206004820152601960248201527f4261736556313a20494e56414c49445f5349474e415455524500000000000000604482015260640161087f565b6001600160a01b038981166000818152600360209081526040808320948d16808452948252918290208b905590518a81527f8c5be1e5ebec7d5bd14f71427d1e84f3dd0314c0f7b2291e5b200ac8c7c3b925910160405180910390a3505050505050505050565b60085460095460009190611ebe6127108661321d565b611ec89086613206565b9450611ed68585848461257b565b95945050505050565b601354600114611eee57600080fd5b60026013556040516370a0823160e01b8152306004820152612012907f00000000000000000000000000000000000000000000000000000000000000006001600160a01b0316906370a0823190602401602060405180830381865afa158015611f5b573d6000803e3d6000fd5b505050506040513d601f19601f82011682018060405250810190611f7f91906131d7565b6040516370a0823160e01b81523060048201527f00000000000000000000000000000000000000000000000000000000000000006001600160a01b0316906370a0823190602401602060405180830381865afa158015611fe3573d6000803e3d6000fd5b505050506040513d601f19601f8201168201806040525081019061200791906131d7565b6008546009546123e7565b6001601355565b6000836001600160a01b03163b1161203057600080fd5b604080516001600160a01b038481166024830152604480830185905283518084039091018152606490920183526020820180516001600160e01b031663a9059cbb60e01b179052915160009283929087169161208c919061338e565b6000604051808303816000865af19150503d80600081146120c9576040519150601f19603f3d011682016040523d82523d6000602084013e6120ce565b606091505b50915091508180156120f85750805115806120f85750808060200190518101906120f89190613169565b61210157600080fd5b5050505050565b6121537f00000000000000000000000000000000000000000000000000000000000000007f000000000000000000000000000000000000000000000000000000000000000083612019565b60025460009061216b83670de0b6b3a764000061328a565b612175919061321d565b905080156121955780600d600082825461218f91906132a9565b90915550505b604080518381526000602082015233917f112c256902bf554b6ed882d2936687aaeb4225e8cd5b51303c90ca6cf43a860291015b60405180910390a25050565b6122207f00000000000000000000000000000000000000000000000000000000000000007f000000000000000000000000000000000000000000000000000000000000000083612019565b60025460009061223883670de0b6b3a764000061328a565b612242919061321d565b905080156122625780600e600082825461225c91906132a9565b90915550505b60408051600081526020810184905233917f112c256902bf554b6ed882d2936687aaeb4225e8cd5b51303c90ca6cf43a860291016121c9565b60007f0000000000000000000000000000000000000000000000000000000000000000156123d65760007f00000000000000000000000000000000000000000000000000000000000000006122f885670de0b6b3a764000061328a565b612302919061321d565b905060007f000000000000000000000000000000000000000000000000000000000000000061233985670de0b6b3a764000061328a565b612343919061321d565b90506000670de0b6b3a764000061235a838561328a565b612364919061321d565b90506000670de0b6b3a764000061237b848061328a565b612385919061321d565b670de0b6b3a7640000612398868061328a565b6123a2919061321d565b6123ac91906132a9565b9050670de0b6b3a76400006123c1828461328a565b6123cb919061321d565b945050505050610e73565b6123e0828461328a565b9050610e73565b600a5442906000906123f99083613206565b905060008111801561240a57508315155b801561241557508215155b1561245c57612424818561328a565b600b600082825461243591906132a9565b909155506124459050818461328a565b600c600082825461245691906132a9565b90915550505b600061246661185e565b80519091506124759084613206565b915061070882111561252a5760408051606081018252848152600b5460208201908152600c549282019283526007805460018101825560009190915291517fa66cc928b5edb82af9bd49922954155ab7b0942694bea4ce44661d9a8736c688600390930292830155517fa66cc928b5edb82af9bd49922954155ab7b0942694bea4ce44661d9a8736c68982015590517fa66cc928b5edb82af9bd49922954155ab7b0942694bea4ce44661d9a8736c68a909101555b60088790556009869055600a83905560408051888152602081018890527fcf2aa50876cdfbb541206f89af0ee78d44a2abf8d328e37fa4917f982149848a910160405180910390a150505050505050565b60007f0000000000000000000000000000000000000000000000000000000000000000156127fe5760006125af848461229b565b90507f00000000000000000000000000000000000000000000000000000000000000006125e485670de0b6b3a764000061328a565b6125ee919061321d565b93507f000000000000000000000000000000000000000000000000000000000000000061262384670de0b6b3a764000061328a565b61262d919061321d565b92506000807f00000000000000000000000000000000000000000000000000000000000000006001600160a01b0316876001600160a01b031614612672578486612675565b85855b915091507f00000000000000000000000000000000000000000000000000000000000000006001600160a01b0316876001600160a01b0316146126f4577f00000000000000000000000000000000000000000000000000000000000000006126e589670de0b6b3a764000061328a565b6126ef919061321d565b612731565b7f000000000000000000000000000000000000000000000000000000000000000061272789670de0b6b3a764000061328a565b612731919061321d565b97506000612749612742848b6132a9565b8584612c34565b6127539083613206565b9050670de0b6b3a76400007f00000000000000000000000000000000000000000000000000000000000000006001600160a01b0316896001600160a01b0316146127bd577f00000000000000000000000000000000000000000000000000000000000000006127df565b7f00000000000000000000000000000000000000000000000000000000000000005b6127e9908361328a565b6127f3919061321d565b945050505050611079565b6000807f00000000000000000000000000000000000000000000000000000000000000006001600160a01b0316866001600160a01b031614612841578385612844565b84845b909250905061285387836132a9565b61285d828961328a565b612867919061321d565b92505050611079565b61287983612ad4565b61288282612ad4565b6001600160a01b038316600090815260046020526040812080548392906128aa908490613206565b90915550506001600160a01b038216600090815260046020526040812080548392906128d79084906132a9565b92505081905550816001600160a01b0316836001600160a01b03167fddf252ad1be2c89b69c2b068fc378daa952ba7f163c4a11628f55a4df523b3ef8360405161292391815260200190565b60405180910390a3505050565b60006003821115612991575080600061294a60028361321d565b6129559060016132a9565b90505b8181101561298b57905080600281612970818661321d565b61297a91906132a9565b612984919061321d565b9050612958565b50919050565b811561299b575060015b919050565b6129a982612ad4565b80600260008282546129bb91906132a9565b90915550506001600160a01b038216600090815260046020526040812080548392906129e89084906132a9565b90915550506040518181526001600160a01b038316906000907fddf252ad1be2c89b69c2b068fc378daa952ba7f163c4a11628f55a4df523b3ef906020015b60405180910390a35050565b6000818310612a4257816111b2565b5090919050565b612a5282612ad4565b8060026000828254612a649190613206565b90915550506001600160a01b03821660009081526004602052604081208054839290612a91908490613206565b90915550506040518181526000906001600160a01b038416907fddf252ad1be2c89b69c2b068fc378daa952ba7f163c4a11628f55a4df523b3ef90602001612a27565b6001600160a01b0381166000908152600460205260409020548015612c02576001600160a01b0382166000908152600f60209081526040808320805460108085529285208054600d54600e54948190559490955282905593612b368584613206565b90506000612b448584613206565b90508115612b9f576000670de0b6b3a7640000612b61848a61328a565b612b6b919061321d565b6001600160a01b038a16600090815260116020526040812080549293508392909190612b989084906132a9565b9091555050505b8015612bf8576000670de0b6b3a7640000612bba838a61328a565b612bc4919061321d565b6001600160a01b038a16600090815260126020526040812080549293508392909190612bf19084906132a9565b9091555050505b5050505050505050565b600d546001600160a01b0383166000908152600f6020908152604080832093909355600e546010909152919020555050565b6000805b60ff811015612d3a57826000612c4e8783612d43565b905085811015612c9e576000612c648887612de0565b612c6e8389613206565b612c8090670de0b6b3a764000061328a565b612c8a919061321d565b9050612c9681876132a9565b955050612ce0565b6000612caa8887612de0565b612cb48884613206565b612cc690670de0b6b3a764000061328a565b612cd0919061321d565b9050612cdc8187613206565b9550505b81851115612d09576001612cf48387613206565b11612d04578493505050506111b2565b612d25565b6001612d158684613206565b11612d25578493505050506111b2565b50508080612d32906132d7565b915050612c38565b50909392505050565b6000670de0b6b3a764000082818581612d5c828061328a565b612d66919061321d565b612d70919061328a565b612d7a919061321d565b612d84919061328a565b612d8e919061321d565b670de0b6b3a7640000808481612da4828061328a565b612dae919061321d565b612db8919061328a565b612dc2919061321d565b612dcc908661328a565b612dd6919061321d565b6111b291906132a9565b6000670de0b6b3a76400008381612df7828061328a565b612e01919061321d565b612e0b919061328a565b612e15919061321d565b670de0b6b3a764000080612e29858061328a565b612e33919061321d565b612e3e86600361328a565b612dcc919061328a565b80356001600160a01b038116811461299b57600080fd5b600080600080600060808688031215612e7757600080fd5b8535945060208601359350612e8e60408701612e48565b9250606086013567ffffffffffffffff80821115612eab57600080fd5b818801915088601f830112612ebf57600080fd5b813581811115612ece57600080fd5b896020828501011115612ee057600080fd5b9699959850939650602001949392505050565b60005b83811015612f0e578181015183820152602001612ef6565b83811115612f1d576000848401525b50505050565b6020815260008251806020840152612f42816040850160208701612ef3565b601f01601f19169190910160400192915050565b60008060408385031215612f6957600080fd5b612f7283612e48565b946020939093013593505050565b60008060008060808587031215612f9657600080fd5b612f9f85612e48565b966020860135965060408601359560600135945092505050565b6020808252825182820181905260009190848201906040850190845b81811015612ff157835183529284019291840191600101612fd5565b50909695505050505050565b60006020828403121561300f57600080fd5b6111b282612e48565b60008060006060848603121561302d57600080fd5b61303684612e48565b925061304460208501612e48565b9150604084013590509250925092565b60006020828403121561306657600080fd5b5035919050565b60008060006060848603121561308257600080fd5b61308b84612e48565b95602085013595506040909401359392505050565b600080600080600080600060e0888a0312156130bb57600080fd5b6130c488612e48565b96506130d260208901612e48565b95506040880135945060608801359350608088013560ff811681146130f657600080fd5b9699959850939692959460a0840135945060c09093013592915050565b6000806040838503121561312657600080fd5b61312f83612e48565b915061313d60208401612e48565b90509250929050565b6000806040838503121561315957600080fd5b8235915061313d60208401612e48565b60006020828403121561317b57600080fd5b815180151581146111b257600080fd5b60018060a01b038616815284602082015283604082015260806060820152816080820152818360a0830137600081830160a090810191909152601f909201601f19160101949350505050565b6000602082840312156131e957600080fd5b5051919050565b634e487b7160e01b600052601160045260246000fd5b600082821015613218576132186131f0565b500390565b60008261323a57634e487b7160e01b600052601260045260246000fd5b500490565b600181811c9082168061325357607f821691505b6020821081141561298b57634e487b7160e01b600052602260045260246000fd5b634e487b7160e01b600052604160045260246000fd5b60008160001904831182151516156132a4576132a46131f0565b500290565b600082198211156132bc576132bc6131f0565b500190565b634e487b7160e01b600052603260045260246000fd5b60006000198214156132eb576132eb6131f0565b5060010190565b600080835481600182811c91508083168061330e57607f831692505b602080841082141561332e57634e487b7160e01b86526022600452602486fd5b818015613342576001811461335357613380565b60ff19861689528489019650613380565b60008a81526020902060005b868110156133785781548b82015290850190830161335f565b505084890196505b509498975050505050505050565b600082516133a0818460208701612ef3565b919091019291505056fea2646970667358221220f314672291582c01ac3fd198c9bf4b4fe7b9a0bf209a81771450cf445721a02964736f6c634300080b003360e060405234801561001057600080fd5b5060405161037038038061037083398101604081905261002f91610066565b336080526001600160a01b0391821660a0521660c052610099565b80516001600160a01b038116811461006157600080fd5b919050565b6000806040838503121561007957600080fd5b6100828361004a565b91506100906020840161004a565b90509250929050565b60805160a05160c0516102ab6100c5600039600060b601526000608501526000605001526102ab6000f3fe608060405234801561001057600080fd5b506004361061002b5760003560e01c8063533cf5ce14610030575b600080fd5b61004361003e3660046101d0565b610045565b005b336001600160a01b037f0000000000000000000000000000000000000000000000000000000000000000161461007a57600080fd5b81156100ab576100ab7f000000000000000000000000000000000000000000000000000000000000000084846100e1565b80156100dc576100dc7f000000000000000000000000000000000000000000000000000000000000000084836100e1565b505050565b6000836001600160a01b03163b116100f857600080fd5b604080516001600160a01b038481166024830152604480830185905283518084039091018152606490920183526020820180516001600160e01b031663a9059cbb60e01b17905291516000928392908716916101549190610211565b6000604051808303816000865af19150503d8060008114610191576040519150601f19603f3d011682016040523d82523d6000602084013e610196565b606091505b50915091508180156101c05750805115806101c05750808060200190518101906101c0919061024c565b6101c957600080fd5b5050505050565b6000806000606084860312156101e557600080fd5b83356001600160a01b03811681146101fc57600080fd5b95602085013595506040909401359392505050565b6000825160005b818110156102325760208186018101518583015201610218565b81811115610241576000828501525b509190910192915050565b60006020828403121561025e57600080fd5b8151801515811461026e57600080fd5b939250505056fea264697066735822122010171b5283f346c0409f9a33f60ff5c4a9145ae3ddf67b954c51dc183d5261e664736f6c634300080b0033",
  "linkReferences": {},
  "deployedLinkReferences": {}
}