{
  "contracts/test/calculations.sol": {
    "roots": {
      "abi": [
        {
          "inputs": [
            {
              "internalType": "uint256",
              "name": "_dec0",
              "type": "uint256"
            },
            {
              "internalType": "uint256",
              "name": "_dec1",
              "type": "uint256"
            },
            {
              "internalType": "bool",
              "name": "_stable",
              "type": "bool"
            },
            {
              "internalType": "address",
              "name": "_t0",
              "type": "address"
            },
            {
              "internalType": "address",
              "name": "_t1",
              "type": "address"
            }
          ],
          "stateMutability": "nonpayable",
          "type": "constructor"
        },
        {
          "inputs": [
            {
              "internalType": "uint256",
              "name": "amountIn",
              "type": "uint256"
            },
            {
              "internalType": "address",
              "name": "tokenIn",
              "type": "address"
            },
            {
              "internalType": "uint256",
              "name": "_reserve0",
              "type": "uint256"
            },
            {
              "internalType": "uint256",
              "name": "_reserve1",
              "type": "uint256"
            }
          ],
          "name": "getAmountOutClosedForm",
          "outputs": [
            {
              "internalType": "uint256",
              "name": "",
              "type": "uint256"
            }
          ],
          "stateMutability": "view",
          "type": "function"
        },
        {
          "inputs": [
            {
              "internalType": "uint256",
              "name": "amountIn",
              "type": "uint256"
            },
            {
              "internalType": "address",
              "name": "tokenIn",
              "type": "address"
            },
            {
              "internalType": "uint256",
              "name": "_reserve0",
              "type": "uint256"
            },
            {
              "internalType": "uint256",
              "name": "_reserve1",
              "type": "uint256"
            }
          ],
          "name": "getAmountOutNewton",
          "outputs": [
            {
              "internalType": "uint256",
              "name": "",
              "type": "uint256"
            }
          ],
          "stateMutability": "view",
          "type": "function"
        }
      ],
      "evm": {
        "bytecode": {
          "linkReferences": {},
          "object": "61012060405234801561001157600080fd5b5060405161105938038061105983398101604081905261003091610075565b60809490945260a092909252151560c0526001600160a01b0390811660e05216610100526100d3565b80516001600160a01b038116811461007057600080fd5b919050565b600080600080600060a0868803121561008d57600080fd5b8551945060208601519350604086015180151581146100ab57600080fd5b92506100b960608701610059565b91506100c760808701610059565b90509295509295909350565b60805160a05160c05160e05161010051610ebb61019e60003960005050600081816101440152818161018b0152818161027001528181610313015281816104470152818161048e0152610560015260008181608f015281816103a00152610601015260008181610102015281816101c4015281816102cf01528181610405015281816104c7015281816105bf015261066a01526000818160c301528181610206015281816102a9015281816103c6015281816105090152818161059901526106290152610ebb6000f3fe608060405234801561001057600080fd5b50600436106100365760003560e01c80632919ece81461003b578063c5a2b9d514610060575b600080fd5b61004e610049366004610d85565b610073565b60405190815260200160405180910390f35b61004e61006e366004610d85565b610384565b600061008161271086610dfa565b61008b9086610e1c565b94507f00000000000000000000000000000000000000000000000000000000000000001561030e5760006100bf84846105fd565b90507f00000000000000000000000000000000000000000000000000000000000000006100f485670de0b6b3a7640000610e33565b6100fe9190610dfa565b93507f000000000000000000000000000000000000000000000000000000000000000061013384670de0b6b3a7640000610e33565b61013d9190610dfa565b92506000807f00000000000000000000000000000000000000000000000000000000000000006001600160a01b0316876001600160a01b031614610182578486610185565b85855b915091507f00000000000000000000000000000000000000000000000000000000000000006001600160a01b0316876001600160a01b031614610204577f00000000000000000000000000000000000000000000000000000000000000006101f589670de0b6b3a7640000610e33565b6101ff9190610dfa565b610241565b7f000000000000000000000000000000000000000000000000000000000000000061023789670de0b6b3a7640000610e33565b6102419190610dfa565b97506000610259610252848b610e52565b858461074b565b6102639083610e1c565b9050670de0b6b3a76400007f00000000000000000000000000000000000000000000000000000000000000006001600160a01b0316896001600160a01b0316146102cd577f00000000000000000000000000000000000000000000000000000000000000006102ef565b7f00000000000000000000000000000000000000000000000000000000000000005b6102f99083610e33565b6103039190610dfa565b94505050505061037c565b6000807f00000000000000000000000000000000000000000000000000000000000000006001600160a01b0316866001600160a01b031614610351578385610354565b84845b90925090506103638783610e52565b61036d8289610e33565b6103779190610dfa565b925050505b949350505050565b600061039261271086610dfa565b61039c9086610e1c565b94507f00000000000000000000000000000000000000000000000000000000000000001561030e577f00000000000000000000000000000000000000000000000000000000000000006103f784670de0b6b3a7640000610e33565b6104019190610dfa565b92507f000000000000000000000000000000000000000000000000000000000000000061043683670de0b6b3a7640000610e33565b6104409190610dfa565b91506000807f00000000000000000000000000000000000000000000000000000000000000006001600160a01b0316866001600160a01b031614610485578385610488565b84845b915091507f00000000000000000000000000000000000000000000000000000000000000006001600160a01b0316866001600160a01b031614610507577f00000000000000000000000000000000000000000000000000000000000000006104f888670de0b6b3a7640000610e33565b6105029190610dfa565b610544565b7f000000000000000000000000000000000000000000000000000000000000000061053a88670de0b6b3a7640000610e33565b6105449190610dfa565b965060006105538884846107f8565b9050670de0b6b3a76400007f00000000000000000000000000000000000000000000000000000000000000006001600160a01b0316886001600160a01b0316146105bd577f00000000000000000000000000000000000000000000000000000000000000006105df565b7f00000000000000000000000000000000000000000000000000000000000000005b6105e99083610e33565b6105f39190610dfa565b935050505061037c565b60007f0000000000000000000000000000000000000000000000000000000000000000156107385760007f000000000000000000000000000000000000000000000000000000000000000061065a85670de0b6b3a7640000610e33565b6106649190610dfa565b905060007f000000000000000000000000000000000000000000000000000000000000000061069b85670de0b6b3a7640000610e33565b6106a59190610dfa565b90506000670de0b6b3a76400006106bc8385610e33565b6106c69190610dfa565b90506000670de0b6b3a76400006106dd8480610e33565b6106e79190610dfa565b670de0b6b3a76400006106fa8680610e33565b6107049190610dfa565b61070e9190610e52565b9050670de0b6b3a76400006107238284610e33565b61072d9190610dfa565b945050505050610745565b6107428284610e33565b90505b92915050565b6000805b60ff8110156107ec5782610763868261093a565b61076e8787876109b6565b61078090670de0b6b3a7640000610e33565b61078a9190610dfa565b6107949085610e1c565b9350808411156107be5760016107aa8286610e1c565b116107b95783925050506107f1565b6107d9565b60016107ca8583610e1c565b116107d95783925050506107f1565b50806107e481610e6a565b91505061074f565b508190505b9392505050565b6000806108058486610e52565b9050600080600080610818888887610a5e565b90506108248582610b81565b9350610847610842856ec097ce7bc90715b34b9f1000000000610e33565b610bc9565b61085990670de0b6b3a7640000610e33565b9350670de0b6b3a764000085670de0b6b3a764000061088a6f29c30f1029939b146664242d97d9f64960371b610bc9565b61089c906729a2241af62c0000610e33565b6108a69190610dfa565b6108b09190610e33565b6108ba9190610dfa565b92506108c585610c1b565b6108e16f29c30f1029939b146664242d97d9f64960371b610bc9565b6108eb9190610e33565b6108fd90670de0b6b3a7640000610e33565b91506000905061090d8483610dfa565b6109178486610dfa565b6109219190610e1c565b905061092d8188610e1c565b9998505050505050505050565b6000670de0b6b3a764000083816109518280610e33565b61095b9190610dfa565b6109659190610e33565b61096f9190610dfa565b670de0b6b3a7640000806109838580610e33565b61098d9190610dfa565b610998866003610e33565b6109a29190610e33565b6109ac9190610dfa565b6107429190610e52565b600082670de0b6b3a7640000838187816109d08280610e33565b6109da9190610dfa565b6109e49190610e33565b6109ee9190610dfa565b6109f89190610e33565b610a029190610dfa565b670de0b6b3a7640000808581610a188280610e33565b610a229190610dfa565b610a2c9190610e33565b610a369190610dfa565b610a409088610e33565b610a4a9190610dfa565b610a549190610e52565b61037c9190610e1c565b600080670de0b6b3a76400008481610a768280610e33565b610a809190610dfa565b610a8a9190610e33565b610a949190610dfa565b90506000670de0b6b3a76400008681610aad8280610e33565b610ab79190610dfa565b610ac19190610e33565b610acb9190610dfa565b90506000670de0b6b3a7640000610ae28680610e33565b610aec9190610dfa565b9050670de0b6b3a7640000818185610b058b601b610e33565b610b0f9190610e33565b610b199190610dfa565b610b239190610e33565b610b2d9190610dfa565b670de0b6b3a7640000828189610b4487601b610e33565b610b4e9190610e33565b610b589190610dfa565b610b629190610e33565b610b6c9190610dfa565b610b769190610e52565b979650505050505050565b600080610b8d84610c50565b905082610bbf610ba6836805dacd13ca9e300000610e33565b610bb08680610e33565b610bba9190610e52565b610c97565b61037c9190610e52565b600080600160ff1b5b8015610c1457600191821b9182810183026003020180828681610bf757610bf7610dce565b0410610c0b57808202850394506001830192505b5060031c610bd2565b5092915050565b6000670de0b6b3a76400008281610c328280610e33565b610c3c9190610dfa565b610c469190610e33565b6107459190610dfa565b6000670de0b6b3a764000082670de0b6b3a764000084670de0b6b3a764000086610c7988610d07565b610c839190610e33565b610c8d9190610dfa565b610c329190610e33565b60006003821115610cf85750806000610cb1600283610dfa565b610cbc906001610e52565b90505b81811015610cf257905080600281610cd78186610dfa565b610ce19190610e52565b610ceb9190610dfa565b9050610cbf565b50919050565b8115610d02575060015b919050565b6000670de0b6b3a764000082670de0b6b3a764000084670de0b6b3a764000086670de0b6b3a764000088670de0b6b3a76400008a610d448c610d6c565b610d4e9190610e33565b610d589190610dfa565b610d629190610e33565b610c799190610dfa565b6000670de0b6b3a764000082818181610c838280610e33565b60008060008060808587031215610d9b57600080fd5b8435935060208501356001600160a01b0381168114610db957600080fd5b93969395505050506040820135916060013590565b634e487b7160e01b600052601260045260246000fd5b634e487b7160e01b600052601160045260246000fd5b600082610e1757634e487b7160e01b600052601260045260246000fd5b500490565b600082821015610e2e57610e2e610de4565b500390565b6000816000190483118215151615610e4d57610e4d610de4565b500290565b60008219821115610e6557610e65610de4565b500190565b6000600019821415610e7e57610e7e610de4565b506001019056fea2646970667358221220f3ddcbcf98617273fe14541f113d87b68db557642150fc5caea8a390f8b9d2b564736f6c634300080b0033",
          "opcodes": "PUSH2 0x120 PUSH1 0x40 MSTORE CALLVALUE DUP1 ISZERO PUSH2 0x11 JUMPI PUSH1 0x0 DUP1 REVERT JUMPDEST POP PUSH1 0x40 MLOAD PUSH2 0x1059 CODESIZE SUB DUP1 PUSH2 0x1059 DUP4 CODECOPY DUP2 ADD PUSH1 0x40 DUP2 SWAP1 MSTORE PUSH2 0x30 SWAP2 PUSH2 0x75 JUMP JUMPDEST PUSH1 0x80 SWAP5 SWAP1 SWAP5 MSTORE PUSH1 0xA0 SWAP3 SWAP1 SWAP3 MSTORE ISZERO ISZERO PUSH1 0xC0 MSTORE PUSH1 0x1 PUSH1 0x1 PUSH1 0xA0 SHL SUB SWAP1 DUP2 AND PUSH1 0xE0 MSTORE AND PUSH2 0x100 MSTORE PUSH2 0xD3 JUMP JUMPDEST DUP1 MLOAD PUSH1 0x1 PUSH1 0x1 PUSH1 0xA0 SHL SUB DUP2 AND DUP2 EQ PUSH2 0x70 JUMPI PUSH1 0x0 DUP1 REVERT JUMPDEST SWAP2 SWAP1 POP JUMP JUMPDEST PUSH1 0x0 DUP1 PUSH1 0x0 DUP1 PUSH1 0x0 PUSH1 0xA0 DUP7 DUP9 SUB SLT ISZERO PUSH2 0x8D JUMPI PUSH1 0x0 DUP1 REVERT JUMPDEST DUP6 MLOAD SWAP5 POP PUSH1 0x20 DUP7 ADD MLOAD SWAP4 POP PUSH1 0x40 DUP7 ADD MLOAD DUP1 ISZERO ISZERO DUP2 EQ PUSH2 0xAB JUMPI PUSH1 0x0 DUP1 REVERT JUMPDEST SWAP3 POP PUSH2 0xB9 PUSH1 0x60 DUP8 ADD PUSH2 0x59 JUMP JUMPDEST SWAP2 POP PUSH2 0xC7 PUSH1 0x80 DUP8 ADD PUSH2 0x59 JUMP JUMPDEST SWAP1 POP SWAP3 SWAP6 POP SWAP3 SWAP6 SWAP1 SWAP4 POP JUMP JUMPDEST PUSH1 0x80 MLOAD PUSH1 0xA0 MLOAD PUSH1 0xC0 MLOAD PUSH1 0xE0 MLOAD PUSH2 0x100 MLOAD PUSH2 0xEBB PUSH2 0x19E PUSH1 0x0 CODECOPY PUSH1 0x0 POP POP PUSH1 0x0 DUP2 DUP2 PUSH2 0x144 ADD MSTORE DUP2 DUP2 PUSH2 0x18B ADD MSTORE DUP2 DUP2 PUSH2 0x270 ADD MSTORE DUP2 DUP2 PUSH2 0x313 ADD MSTORE DUP2 DUP2 PUSH2 0x447 ADD MSTORE DUP2 DUP2 PUSH2 0x48E ADD MSTORE PUSH2 0x560 ADD MSTORE PUSH1 0x0 DUP2 DUP2 PUSH1 0x8F ADD MSTORE DUP2 DUP2 PUSH2 0x3A0 ADD MSTORE PUSH2 0x601 ADD MSTORE PUSH1 0x0 DUP2 DUP2 PUSH2 0x102 ADD MSTORE DUP2 DUP2 PUSH2 0x1C4 ADD MSTORE DUP2 DUP2 PUSH2 0x2CF ADD MSTORE DUP2 DUP2 PUSH2 0x405 ADD MSTORE DUP2 DUP2 PUSH2 0x4C7 ADD MSTORE DUP2 DUP2 PUSH2 0x5BF ADD MSTORE PUSH2 0x66A ADD MSTORE PUSH1 0x0 DUP2 DUP2 PUSH1 0xC3 ADD MSTORE DUP2 DUP2 PUSH2 0x206 ADD MSTORE DUP2 DUP2 PUSH2 0x2A9 ADD MSTORE DUP2 DUP2 PUSH2 0x3C6 ADD MSTORE DUP2 DUP2 PUSH2 0x509 ADD MSTORE DUP2 DUP2 PUSH2 0x599 ADD MSTORE PUSH2 0x629 ADD MSTORE PUSH2 0xEBB PUSH1 0x0 RETURN INVALID PUSH1 0x80 PUSH1 0x40 MSTORE CALLVALUE DUP1 ISZERO PUSH2 0x10 JUMPI PUSH1 0x0 DUP1 REVERT JUMPDEST POP PUSH1 0x4 CALLDATASIZE LT PUSH2 0x36 JUMPI PUSH1 0x0 CALLDATALOAD PUSH1 0xE0 SHR DUP1 PUSH4 0x2919ECE8 EQ PUSH2 0x3B JUMPI DUP1 PUSH4 0xC5A2B9D5 EQ PUSH2 0x60 JUMPI JUMPDEST PUSH1 0x0 DUP1 REVERT JUMPDEST PUSH2 0x4E PUSH2 0x49 CALLDATASIZE PUSH1 0x4 PUSH2 0xD85 JUMP JUMPDEST PUSH2 0x73 JUMP JUMPDEST PUSH1 0x40 MLOAD SWAP1 DUP2 MSTORE PUSH1 0x20 ADD PUSH1 0x40 MLOAD DUP1 SWAP2 SUB SWAP1 RETURN JUMPDEST PUSH2 0x4E PUSH2 0x6E CALLDATASIZE PUSH1 0x4 PUSH2 0xD85 JUMP JUMPDEST PUSH2 0x384 JUMP JUMPDEST PUSH1 0x0 PUSH2 0x81 PUSH2 0x2710 DUP7 PUSH2 0xDFA JUMP JUMPDEST PUSH2 0x8B SWAP1 DUP7 PUSH2 0xE1C JUMP JUMPDEST SWAP5 POP PUSH32 0x0 ISZERO PUSH2 0x30E JUMPI PUSH1 0x0 PUSH2 0xBF DUP5 DUP5 PUSH2 0x5FD JUMP JUMPDEST SWAP1 POP PUSH32 0x0 PUSH2 0xF4 DUP6 PUSH8 0xDE0B6B3A7640000 PUSH2 0xE33 JUMP JUMPDEST PUSH2 0xFE SWAP2 SWAP1 PUSH2 0xDFA JUMP JUMPDEST SWAP4 POP PUSH32 0x0 PUSH2 0x133 DUP5 PUSH8 0xDE0B6B3A7640000 PUSH2 0xE33 JUMP JUMPDEST PUSH2 0x13D SWAP2 SWAP1 PUSH2 0xDFA JUMP JUMPDEST SWAP3 POP PUSH1 0x0 DUP1 PUSH32 0x0 PUSH1 0x1 PUSH1 0x1 PUSH1 0xA0 SHL SUB AND DUP8 PUSH1 0x1 PUSH1 0x1 PUSH1 0xA0 SHL SUB AND EQ PUSH2 0x182 JUMPI DUP5 DUP7 PUSH2 0x185 JUMP JUMPDEST DUP6 DUP6 JUMPDEST SWAP2 POP SWAP2 POP PUSH32 0x0 PUSH1 0x1 PUSH1 0x1 PUSH1 0xA0 SHL SUB AND DUP8 PUSH1 0x1 PUSH1 0x1 PUSH1 0xA0 SHL SUB AND EQ PUSH2 0x204 JUMPI PUSH32 0x0 PUSH2 0x1F5 DUP10 PUSH8 0xDE0B6B3A7640000 PUSH2 0xE33 JUMP JUMPDEST PUSH2 0x1FF SWAP2 SWAP1 PUSH2 0xDFA JUMP JUMPDEST PUSH2 0x241 JUMP JUMPDEST PUSH32 0x0 PUSH2 0x237 DUP10 PUSH8 0xDE0B6B3A7640000 PUSH2 0xE33 JUMP JUMPDEST PUSH2 0x241 SWAP2 SWAP1 PUSH2 0xDFA JUMP JUMPDEST SWAP8 POP PUSH1 0x0 PUSH2 0x259 PUSH2 0x252 DUP5 DUP12 PUSH2 0xE52 JUMP JUMPDEST DUP6 DUP5 PUSH2 0x74B JUMP JUMPDEST PUSH2 0x263 SWAP1 DUP4 PUSH2 0xE1C JUMP JUMPDEST SWAP1 POP PUSH8 0xDE0B6B3A7640000 PUSH32 0x0 PUSH1 0x1 PUSH1 0x1 PUSH1 0xA0 SHL SUB AND DUP10 PUSH1 0x1 PUSH1 0x1 PUSH1 0xA0 SHL SUB AND EQ PUSH2 0x2CD JUMPI PUSH32 0x0 PUSH2 0x2EF JUMP JUMPDEST PUSH32 0x0 JUMPDEST PUSH2 0x2F9 SWAP1 DUP4 PUSH2 0xE33 JUMP JUMPDEST PUSH2 0x303 SWAP2 SWAP1 PUSH2 0xDFA JUMP JUMPDEST SWAP5 POP POP POP POP POP PUSH2 0x37C JUMP JUMPDEST PUSH1 0x0 DUP1 PUSH32 0x0 PUSH1 0x1 PUSH1 0x1 PUSH1 0xA0 SHL SUB AND DUP7 PUSH1 0x1 PUSH1 0x1 PUSH1 0xA0 SHL SUB AND EQ PUSH2 0x351 JUMPI DUP4 DUP6 PUSH2 0x354 JUMP JUMPDEST DUP5 DUP5 JUMPDEST SWAP1 SWAP3 POP SWAP1 POP PUSH2 0x363 DUP8 DUP4 PUSH2 0xE52 JUMP JUMPDEST PUSH2 0x36D DUP3 DUP10 PUSH2 0xE33 JUMP JUMPDEST PUSH2 0x377 SWAP2 SWAP1 PUSH2 0xDFA JUMP JUMPDEST SWAP3 POP POP POP JUMPDEST SWAP5 SWAP4 POP POP POP POP JUMP JUMPDEST PUSH1 0x0 PUSH2 0x392 PUSH2 0x2710 DUP7 PUSH2 0xDFA JUMP JUMPDEST PUSH2 0x39C SWAP1 DUP7 PUSH2 0xE1C JUMP JUMPDEST SWAP5 POP PUSH32 0x0 ISZERO PUSH2 0x30E JUMPI PUSH32 0x0 PUSH2 0x3F7 DUP5 PUSH8 0xDE0B6B3A7640000 PUSH2 0xE33 JUMP JUMPDEST PUSH2 0x401 SWAP2 SWAP1 PUSH2 0xDFA JUMP JUMPDEST SWAP3 POP PUSH32 0x0 PUSH2 0x436 DUP4 PUSH8 0xDE0B6B3A7640000 PUSH2 0xE33 JUMP JUMPDEST PUSH2 0x440 SWAP2 SWAP1 PUSH2 0xDFA JUMP JUMPDEST SWAP2 POP PUSH1 0x0 DUP1 PUSH32 0x0 PUSH1 0x1 PUSH1 0x1 PUSH1 0xA0 SHL SUB AND DUP7 PUSH1 0x1 PUSH1 0x1 PUSH1 0xA0 SHL SUB AND EQ PUSH2 0x485 JUMPI DUP4 DUP6 PUSH2 0x488 JUMP JUMPDEST DUP5 DUP5 JUMPDEST SWAP2 POP SWAP2 POP PUSH32 0x0 PUSH1 0x1 PUSH1 0x1 PUSH1 0xA0 SHL SUB AND DUP7 PUSH1 0x1 PUSH1 0x1 PUSH1 0xA0 SHL SUB AND EQ PUSH2 0x507 JUMPI PUSH32 0x0 PUSH2 0x4F8 DUP9 PUSH8 0xDE0B6B3A7640000 PUSH2 0xE33 JUMP JUMPDEST PUSH2 0x502 SWAP2 SWAP1 PUSH2 0xDFA JUMP JUMPDEST PUSH2 0x544 JUMP JUMPDEST PUSH32 0x0 PUSH2 0x53A DUP9 PUSH8 0xDE0B6B3A7640000 PUSH2 0xE33 JUMP JUMPDEST PUSH2 0x544 SWAP2 SWAP1 PUSH2 0xDFA JUMP JUMPDEST SWAP7 POP PUSH1 0x0 PUSH2 0x553 DUP9 DUP5 DUP5 PUSH2 0x7F8 JUMP JUMPDEST SWAP1 POP PUSH8 0xDE0B6B3A7640000 PUSH32 0x0 PUSH1 0x1 PUSH1 0x1 PUSH1 0xA0 SHL SUB AND DUP9 PUSH1 0x1 PUSH1 0x1 PUSH1 0xA0 SHL SUB AND EQ PUSH2 0x5BD JUMPI PUSH32 0x0 PUSH2 0x5DF JUMP JUMPDEST PUSH32 0x0 JUMPDEST PUSH2 0x5E9 SWAP1 DUP4 PUSH2 0xE33 JUMP JUMPDEST PUSH2 0x5F3 SWAP2 SWAP1 PUSH2 0xDFA JUMP JUMPDEST SWAP4 POP POP POP POP PUSH2 0x37C JUMP JUMPDEST PUSH1 0x0 PUSH32 0x0 ISZERO PUSH2 0x738 JUMPI PUSH1 0x0 PUSH32 0x0 PUSH2 0x65A DUP6 PUSH8 0xDE0B6B3A7640000 PUSH2 0xE33 JUMP JUMPDEST PUSH2 0x664 SWAP2 SWAP1 PUSH2 0xDFA JUMP JUMPDEST SWAP1 POP PUSH1 0x0 PUSH32 0x0 PUSH2 0x69B DUP6 PUSH8 0xDE0B6B3A7640000 PUSH2 0xE33 JUMP JUMPDEST PUSH2 0x6A5 SWAP2 SWAP1 PUSH2 0xDFA JUMP JUMPDEST SWAP1 POP PUSH1 0x0 PUSH8 0xDE0B6B3A7640000 PUSH2 0x6BC DUP4 DUP6 PUSH2 0xE33 JUMP JUMPDEST PUSH2 0x6C6 SWAP2 SWAP1 PUSH2 0xDFA JUMP JUMPDEST SWAP1 POP PUSH1 0x0 PUSH8 0xDE0B6B3A7640000 PUSH2 0x6DD DUP5 DUP1 PUSH2 0xE33 JUMP JUMPDEST PUSH2 0x6E7 SWAP2 SWAP1 PUSH2 0xDFA JUMP JUMPDEST PUSH8 0xDE0B6B3A7640000 PUSH2 0x6FA DUP7 DUP1 PUSH2 0xE33 JUMP JUMPDEST PUSH2 0x704 SWAP2 SWAP1 PUSH2 0xDFA JUMP JUMPDEST PUSH2 0x70E SWAP2 SWAP1 PUSH2 0xE52 JUMP JUMPDEST SWAP1 POP PUSH8 0xDE0B6B3A7640000 PUSH2 0x723 DUP3 DUP5 PUSH2 0xE33 JUMP JUMPDEST PUSH2 0x72D SWAP2 SWAP1 PUSH2 0xDFA JUMP JUMPDEST SWAP5 POP POP POP POP POP PUSH2 0x745 JUMP JUMPDEST PUSH2 0x742 DUP3 DUP5 PUSH2 0xE33 JUMP JUMPDEST SWAP1 POP JUMPDEST SWAP3 SWAP2 POP POP JUMP JUMPDEST PUSH1 0x0 DUP1 JUMPDEST PUSH1 0xFF DUP2 LT ISZERO PUSH2 0x7EC JUMPI DUP3 PUSH2 0x763 DUP7 DUP3 PUSH2 0x93A JUMP JUMPDEST PUSH2 0x76E DUP8 DUP8 DUP8 PUSH2 0x9B6 JUMP JUMPDEST PUSH2 0x780 SWAP1 PUSH8 0xDE0B6B3A7640000 PUSH2 0xE33 JUMP JUMPDEST PUSH2 0x78A SWAP2 SWAP1 PUSH2 0xDFA JUMP JUMPDEST PUSH2 0x794 SWAP1 DUP6 PUSH2 0xE1C JUMP JUMPDEST SWAP4 POP DUP1 DUP5 GT ISZERO PUSH2 0x7BE JUMPI PUSH1 0x1 PUSH2 0x7AA DUP3 DUP7 PUSH2 0xE1C JUMP JUMPDEST GT PUSH2 0x7B9 JUMPI DUP4 SWAP3 POP POP POP PUSH2 0x7F1 JUMP JUMPDEST PUSH2 0x7D9 JUMP JUMPDEST PUSH1 0x1 PUSH2 0x7CA DUP6 DUP4 PUSH2 0xE1C JUMP JUMPDEST GT PUSH2 0x7D9 JUMPI DUP4 SWAP3 POP POP POP PUSH2 0x7F1 JUMP JUMPDEST POP DUP1 PUSH2 0x7E4 DUP2 PUSH2 0xE6A JUMP JUMPDEST SWAP2 POP POP PUSH2 0x74F JUMP JUMPDEST POP DUP2 SWAP1 POP JUMPDEST SWAP4 SWAP3 POP POP POP JUMP JUMPDEST PUSH1 0x0 DUP1 PUSH2 0x805 DUP5 DUP7 PUSH2 0xE52 JUMP JUMPDEST SWAP1 POP PUSH1 0x0 DUP1 PUSH1 0x0 DUP1 PUSH2 0x818 DUP9 DUP9 DUP8 PUSH2 0xA5E JUMP JUMPDEST SWAP1 POP PUSH2 0x824 DUP6 DUP3 PUSH2 0xB81 JUMP JUMPDEST SWAP4 POP PUSH2 0x847 PUSH2 0x842 DUP6 PUSH15 0xC097CE7BC90715B34B9F1000000000 PUSH2 0xE33 JUMP JUMPDEST PUSH2 0xBC9 JUMP JUMPDEST PUSH2 0x859 SWAP1 PUSH8 0xDE0B6B3A7640000 PUSH2 0xE33 JUMP JUMPDEST SWAP4 POP PUSH8 0xDE0B6B3A7640000 DUP6 PUSH8 0xDE0B6B3A7640000 PUSH2 0x88A PUSH16 0x29C30F1029939B146664242D97D9F649 PUSH1 0x37 SHL PUSH2 0xBC9 JUMP JUMPDEST PUSH2 0x89C SWAP1 PUSH8 0x29A2241AF62C0000 PUSH2 0xE33 JUMP JUMPDEST PUSH2 0x8A6 SWAP2 SWAP1 PUSH2 0xDFA JUMP JUMPDEST PUSH2 0x8B0 SWAP2 SWAP1 PUSH2 0xE33 JUMP JUMPDEST PUSH2 0x8BA SWAP2 SWAP1 PUSH2 0xDFA JUMP JUMPDEST SWAP3 POP PUSH2 0x8C5 DUP6 PUSH2 0xC1B JUMP JUMPDEST PUSH2 0x8E1 PUSH16 0x29C30F1029939B146664242D97D9F649 PUSH1 0x37 SHL PUSH2 0xBC9 JUMP JUMPDEST PUSH2 0x8EB SWAP2 SWAP1 PUSH2 0xE33 JUMP JUMPDEST PUSH2 0x8FD SWAP1 PUSH8 0xDE0B6B3A7640000 PUSH2 0xE33 JUMP JUMPDEST SWAP2 POP PUSH1 0x0 SWAP1 POP PUSH2 0x90D DUP5 DUP4 PUSH2 0xDFA JUMP JUMPDEST PUSH2 0x917 DUP5 DUP7 PUSH2 0xDFA JUMP JUMPDEST PUSH2 0x921 SWAP2 SWAP1 PUSH2 0xE1C JUMP JUMPDEST SWAP1 POP PUSH2 0x92D DUP2 DUP9 PUSH2 0xE1C JUMP JUMPDEST SWAP10 SWAP9 POP POP POP POP POP POP POP POP POP JUMP JUMPDEST PUSH1 0x0 PUSH8 0xDE0B6B3A7640000 DUP4 DUP2 PUSH2 0x951 DUP3 DUP1 PUSH2 0xE33 JUMP JUMPDEST PUSH2 0x95B SWAP2 SWAP1 PUSH2 0xDFA JUMP JUMPDEST PUSH2 0x965 SWAP2 SWAP1 PUSH2 0xE33 JUMP JUMPDEST PUSH2 0x96F SWAP2 SWAP1 PUSH2 0xDFA JUMP JUMPDEST PUSH8 0xDE0B6B3A7640000 DUP1 PUSH2 0x983 DUP6 DUP1 PUSH2 0xE33 JUMP JUMPDEST PUSH2 0x98D SWAP2 SWAP1 PUSH2 0xDFA JUMP JUMPDEST PUSH2 0x998 DUP7 PUSH1 0x3 PUSH2 0xE33 JUMP JUMPDEST PUSH2 0x9A2 SWAP2 SWAP1 PUSH2 0xE33 JUMP JUMPDEST PUSH2 0x9AC SWAP2 SWAP1 PUSH2 0xDFA JUMP JUMPDEST PUSH2 0x742 SWAP2 SWAP1 PUSH2 0xE52 JUMP JUMPDEST PUSH1 0x0 DUP3 PUSH8 0xDE0B6B3A7640000 DUP4 DUP2 DUP8 DUP2 PUSH2 0x9D0 DUP3 DUP1 PUSH2 0xE33 JUMP JUMPDEST PUSH2 0x9DA SWAP2 SWAP1 PUSH2 0xDFA JUMP JUMPDEST PUSH2 0x9E4 SWAP2 SWAP1 PUSH2 0xE33 JUMP JUMPDEST PUSH2 0x9EE SWAP2 SWAP1 PUSH2 0xDFA JUMP JUMPDEST PUSH2 0x9F8 SWAP2 SWAP1 PUSH2 0xE33 JUMP JUMPDEST PUSH2 0xA02 SWAP2 SWAP1 PUSH2 0xDFA JUMP JUMPDEST PUSH8 0xDE0B6B3A7640000 DUP1 DUP6 DUP2 PUSH2 0xA18 DUP3 DUP1 PUSH2 0xE33 JUMP JUMPDEST PUSH2 0xA22 SWAP2 SWAP1 PUSH2 0xDFA JUMP JUMPDEST PUSH2 0xA2C SWAP2 SWAP1 PUSH2 0xE33 JUMP JUMPDEST PUSH2 0xA36 SWAP2 SWAP1 PUSH2 0xDFA JUMP JUMPDEST PUSH2 0xA40 SWAP1 DUP9 PUSH2 0xE33 JUMP JUMPDEST PUSH2 0xA4A SWAP2 SWAP1 PUSH2 0xDFA JUMP JUMPDEST PUSH2 0xA54 SWAP2 SWAP1 PUSH2 0xE52 JUMP JUMPDEST PUSH2 0x37C SWAP2 SWAP1 PUSH2 0xE1C JUMP JUMPDEST PUSH1 0x0 DUP1 PUSH8 0xDE0B6B3A7640000 DUP5 DUP2 PUSH2 0xA76 DUP3 DUP1 PUSH2 0xE33 JUMP JUMPDEST PUSH2 0xA80 SWAP2 SWAP1 PUSH2 0xDFA JUMP JUMPDEST PUSH2 0xA8A SWAP2 SWAP1 PUSH2 0xE33 JUMP JUMPDEST PUSH2 0xA94 SWAP2 SWAP1 PUSH2 0xDFA JUMP JUMPDEST SWAP1 POP PUSH1 0x0 PUSH8 0xDE0B6B3A7640000 DUP7 DUP2 PUSH2 0xAAD DUP3 DUP1 PUSH2 0xE33 JUMP JUMPDEST PUSH2 0xAB7 SWAP2 SWAP1 PUSH2 0xDFA JUMP JUMPDEST PUSH2 0xAC1 SWAP2 SWAP1 PUSH2 0xE33 JUMP JUMPDEST PUSH2 0xACB SWAP2 SWAP1 PUSH2 0xDFA JUMP JUMPDEST SWAP1 POP PUSH1 0x0 PUSH8 0xDE0B6B3A7640000 PUSH2 0xAE2 DUP7 DUP1 PUSH2 0xE33 JUMP JUMPDEST PUSH2 0xAEC SWAP2 SWAP1 PUSH2 0xDFA JUMP JUMPDEST SWAP1 POP PUSH8 0xDE0B6B3A7640000 DUP2 DUP2 DUP6 PUSH2 0xB05 DUP12 PUSH1 0x1B PUSH2 0xE33 JUMP JUMPDEST PUSH2 0xB0F SWAP2 SWAP1 PUSH2 0xE33 JUMP JUMPDEST PUSH2 0xB19 SWAP2 SWAP1 PUSH2 0xDFA JUMP JUMPDEST PUSH2 0xB23 SWAP2 SWAP1 PUSH2 0xE33 JUMP JUMPDEST PUSH2 0xB2D SWAP2 SWAP1 PUSH2 0xDFA JUMP JUMPDEST PUSH8 0xDE0B6B3A7640000 DUP3 DUP2 DUP10 PUSH2 0xB44 DUP8 PUSH1 0x1B PUSH2 0xE33 JUMP JUMPDEST PUSH2 0xB4E SWAP2 SWAP1 PUSH2 0xE33 JUMP JUMPDEST PUSH2 0xB58 SWAP2 SWAP1 PUSH2 0xDFA JUMP JUMPDEST PUSH2 0xB62 SWAP2 SWAP1 PUSH2 0xE33 JUMP JUMPDEST PUSH2 0xB6C SWAP2 SWAP1 PUSH2 0xDFA JUMP JUMPDEST PUSH2 0xB76 SWAP2 SWAP1 PUSH2 0xE52 JUMP JUMPDEST SWAP8 SWAP7 POP POP POP POP POP POP POP JUMP JUMPDEST PUSH1 0x0 DUP1 PUSH2 0xB8D DUP5 PUSH2 0xC50 JUMP JUMPDEST SWAP1 POP DUP3 PUSH2 0xBBF PUSH2 0xBA6 DUP4 PUSH9 0x5DACD13CA9E300000 PUSH2 0xE33 JUMP JUMPDEST PUSH2 0xBB0 DUP7 DUP1 PUSH2 0xE33 JUMP JUMPDEST PUSH2 0xBBA SWAP2 SWAP1 PUSH2 0xE52 JUMP JUMPDEST PUSH2 0xC97 JUMP JUMPDEST PUSH2 0x37C SWAP2 SWAP1 PUSH2 0xE52 JUMP JUMPDEST PUSH1 0x0 DUP1 PUSH1 0x1 PUSH1 0xFF SHL JUMPDEST DUP1 ISZERO PUSH2 0xC14 JUMPI PUSH1 0x1 SWAP2 DUP3 SHL SWAP2 DUP3 DUP2 ADD DUP4 MUL PUSH1 0x3 MUL ADD DUP1 DUP3 DUP7 DUP2 PUSH2 0xBF7 JUMPI PUSH2 0xBF7 PUSH2 0xDCE JUMP JUMPDEST DIV LT PUSH2 0xC0B JUMPI DUP1 DUP3 MUL DUP6 SUB SWAP5 POP PUSH1 0x1 DUP4 ADD SWAP3 POP JUMPDEST POP PUSH1 0x3 SHR PUSH2 0xBD2 JUMP JUMPDEST POP SWAP3 SWAP2 POP POP JUMP JUMPDEST PUSH1 0x0 PUSH8 0xDE0B6B3A7640000 DUP3 DUP2 PUSH2 0xC32 DUP3 DUP1 PUSH2 0xE33 JUMP JUMPDEST PUSH2 0xC3C SWAP2 SWAP1 PUSH2 0xDFA JUMP JUMPDEST PUSH2 0xC46 SWAP2 SWAP1 PUSH2 0xE33 JUMP JUMPDEST PUSH2 0x745 SWAP2 SWAP1 PUSH2 0xDFA JUMP JUMPDEST PUSH1 0x0 PUSH8 0xDE0B6B3A7640000 DUP3 PUSH8 0xDE0B6B3A7640000 DUP5 PUSH8 0xDE0B6B3A7640000 DUP7 PUSH2 0xC79 DUP9 PUSH2 0xD07 JUMP JUMPDEST PUSH2 0xC83 SWAP2 SWAP1 PUSH2 0xE33 JUMP JUMPDEST PUSH2 0xC8D SWAP2 SWAP1 PUSH2 0xDFA JUMP JUMPDEST PUSH2 0xC32 SWAP2 SWAP1 PUSH2 0xE33 JUMP JUMPDEST PUSH1 0x0 PUSH1 0x3 DUP3 GT ISZERO PUSH2 0xCF8 JUMPI POP DUP1 PUSH1 0x0 PUSH2 0xCB1 PUSH1 0x2 DUP4 PUSH2 0xDFA JUMP JUMPDEST PUSH2 0xCBC SWAP1 PUSH1 0x1 PUSH2 0xE52 JUMP JUMPDEST SWAP1 POP JUMPDEST DUP2 DUP2 LT ISZERO PUSH2 0xCF2 JUMPI SWAP1 POP DUP1 PUSH1 0x2 DUP2 PUSH2 0xCD7 DUP2 DUP7 PUSH2 0xDFA JUMP JUMPDEST PUSH2 0xCE1 SWAP2 SWAP1 PUSH2 0xE52 JUMP JUMPDEST PUSH2 0xCEB SWAP2 SWAP1 PUSH2 0xDFA JUMP JUMPDEST SWAP1 POP PUSH2 0xCBF JUMP JUMPDEST POP SWAP2 SWAP1 POP JUMP JUMPDEST DUP2 ISZERO PUSH2 0xD02 JUMPI POP PUSH1 0x1 JUMPDEST SWAP2 SWAP1 POP JUMP JUMPDEST PUSH1 0x0 PUSH8 0xDE0B6B3A7640000 DUP3 PUSH8 0xDE0B6B3A7640000 DUP5 PUSH8 0xDE0B6B3A7640000 DUP7 PUSH8 0xDE0B6B3A7640000 DUP9 PUSH8 0xDE0B6B3A7640000 DUP11 PUSH2 0xD44 DUP13 PUSH2 0xD6C JUMP JUMPDEST PUSH2 0xD4E SWAP2 SWAP1 PUSH2 0xE33 JUMP JUMPDEST PUSH2 0xD58 SWAP2 SWAP1 PUSH2 0xDFA JUMP JUMPDEST PUSH2 0xD62 SWAP2 SWAP1 PUSH2 0xE33 JUMP JUMPDEST PUSH2 0xC79 SWAP2 SWAP1 PUSH2 0xDFA JUMP JUMPDEST PUSH1 0x0 PUSH8 0xDE0B6B3A7640000 DUP3 DUP2 DUP2 DUP2 PUSH2 0xC83 DUP3 DUP1 PUSH2 0xE33 JUMP JUMPDEST PUSH1 0x0 DUP1 PUSH1 0x0 DUP1 PUSH1 0x80 DUP6 DUP8 SUB SLT ISZERO PUSH2 0xD9B JUMPI PUSH1 0x0 DUP1 REVERT JUMPDEST DUP5 CALLDATALOAD SWAP4 POP PUSH1 0x20 DUP6 ADD CALLDATALOAD PUSH1 0x1 PUSH1 0x1 PUSH1 0xA0 SHL SUB DUP2 AND DUP2 EQ PUSH2 0xDB9 JUMPI PUSH1 0x0 DUP1 REVERT JUMPDEST SWAP4 SWAP7 SWAP4 SWAP6 POP POP POP POP PUSH1 0x40 DUP3 ADD CALLDATALOAD SWAP2 PUSH1 0x60 ADD CALLDATALOAD SWAP1 JUMP JUMPDEST PUSH4 0x4E487B71 PUSH1 0xE0 SHL PUSH1 0x0 MSTORE PUSH1 0x12 PUSH1 0x4 MSTORE PUSH1 0x24 PUSH1 0x0 REVERT JUMPDEST PUSH4 0x4E487B71 PUSH1 0xE0 SHL PUSH1 0x0 MSTORE PUSH1 0x11 PUSH1 0x4 MSTORE PUSH1 0x24 PUSH1 0x0 REVERT JUMPDEST PUSH1 0x0 DUP3 PUSH2 0xE17 JUMPI PUSH4 0x4E487B71 PUSH1 0xE0 SHL PUSH1 0x0 MSTORE PUSH1 0x12 PUSH1 0x4 MSTORE PUSH1 0x24 PUSH1 0x0 REVERT JUMPDEST POP DIV SWAP1 JUMP JUMPDEST PUSH1 0x0 DUP3 DUP3 LT ISZERO PUSH2 0xE2E JUMPI PUSH2 0xE2E PUSH2 0xDE4 JUMP JUMPDEST POP SUB SWAP1 JUMP JUMPDEST PUSH1 0x0 DUP2 PUSH1 0x0 NOT DIV DUP4 GT DUP3 ISZERO ISZERO AND ISZERO PUSH2 0xE4D JUMPI PUSH2 0xE4D PUSH2 0xDE4 JUMP JUMPDEST POP MUL SWAP1 JUMP JUMPDEST PUSH1 0x0 DUP3 NOT DUP3 GT ISZERO PUSH2 0xE65 JUMPI PUSH2 0xE65 PUSH2 0xDE4 JUMP JUMPDEST POP ADD SWAP1 JUMP JUMPDEST PUSH1 0x0 PUSH1 0x0 NOT DUP3 EQ ISZERO PUSH2 0xE7E JUMPI PUSH2 0xE7E PUSH2 0xDE4 JUMP JUMPDEST POP PUSH1 0x1 ADD SWAP1 JUMP INVALID LOG2 PUSH5 0x6970667358 0x22 SLT KECCAK256 RETURN 0xDD 0xCB 0xCF SWAP9 PUSH2 0x7273 INVALID EQ SLOAD 0x1F GT RETURNDATASIZE DUP8 0xB6 DUP14 0xB5 JUMPI PUSH5 0x2150FC5CAE 0xA8 LOG3 SWAP1 0xF8 0xB9 0xD2 0xB5 PUSH5 0x736F6C6343 STOP ADDMOD SIGNEXTEND STOP CALLER "
        },
        "methodIdentifiers": {
          "getAmountOutClosedForm(uint256,address,uint256,uint256)": "c5a2b9d5",
          "getAmountOutNewton(uint256,address,uint256,uint256)": "2919ece8"
        }
      },
      "storageLayout": {
        "storage": [],
        "types": null
      }
    }
  }
}