{
  "contracts/test/Token.sol": {
    "Token": {
      "abi": [
        {
          "inputs": [
            {
              "internalType": "string",
              "name": "_name",
              "type": "string"
            },
            {
              "internalType": "string",
              "name": "_symbol",
              "type": "string"
            },
            {
              "internalType": "uint256",
              "name": "_decimals",
              "type": "uint256"
            },
            {
              "internalType": "address",
              "name": "_anyswapRouter",
              "type": "address"
            }
          ],
          "stateMutability": "nonpayable",
          "type": "constructor"
        },
        {
          "anonymous": false,
          "inputs": [
            {
              "indexed": false,
              "internalType": "address",
              "name": "owner",
              "type": "address"
            },
            {
              "indexed": false,
              "internalType": "address",
              "name": "spender",
              "type": "address"
            },
            {
              "indexed": false,
              "internalType": "uint256",
              "name": "value",
              "type": "uint256"
            }
          ],
          "name": "Approval",
          "type": "event"
        },
        {
          "anonymous": false,
          "inputs": [
            {
              "indexed": true,
              "internalType": "address",
              "name": "oldVault",
              "type": "address"
            },
            {
              "indexed": true,
              "internalType": "address",
              "name": "newVault",
              "type": "address"
            },
            {
              "indexed": true,
              "internalType": "uint256",
              "name": "effectiveTime",
              "type": "uint256"
            }
          ],
          "name": "LogChangeVault",
          "type": "event"
        },
        {
          "anonymous": false,
          "inputs": [
            {
              "indexed": false,
              "internalType": "address",
              "name": "from",
              "type": "address"
            },
            {
              "indexed": false,
              "internalType": "address",
              "name": "to",
              "type": "address"
            },
            {
              "indexed": false,
              "internalType": "uint256",
              "name": "value",
              "type": "uint256"
            }
          ],
          "name": "Transfer",
          "type": "event"
        },
        {
          "inputs": [],
          "name": "DOMAIN_SEPARATOR",
          "outputs": [
            {
              "internalType": "bytes32",
              "name": "",
              "type": "bytes32"
            }
          ],
          "stateMutability": "view",
          "type": "function"
        },
        {
          "inputs": [],
          "name": "PERMIT_TYPEHASH",
          "outputs": [
            {
              "internalType": "bytes32",
              "name": "",
              "type": "bytes32"
            }
          ],
          "stateMutability": "view",
          "type": "function"
        },
        {
          "inputs": [
            {
              "internalType": "address",
              "name": "",
              "type": "address"
            },
            {
              "internalType": "address",
              "name": "",
              "type": "address"
            }
          ],
          "name": "allowance",
          "outputs": [
            {
              "internalType": "uint256",
              "name": "",
              "type": "uint256"
            }
          ],
          "stateMutability": "view",
          "type": "function"
        },
        {
          "inputs": [],
          "name": "anyswapRouter",
          "outputs": [
            {
              "internalType": "address",
              "name": "",
              "type": "address"
            }
          ],
          "stateMutability": "view",
          "type": "function"
        },
        {
          "inputs": [
            {
              "internalType": "address",
              "name": "_spender",
              "type": "address"
            },
            {
              "internalType": "uint256",
              "name": "_value",
              "type": "uint256"
            }
          ],
          "name": "approve",
          "outputs": [
            {
              "internalType": "bool",
              "name": "",
              "type": "bool"
            }
          ],
          "stateMutability": "nonpayable",
          "type": "function"
        },
        {
          "inputs": [
            {
              "internalType": "address",
              "name": "account",
              "type": "address"
            }
          ],
          "name": "balance",
          "outputs": [
            {
              "internalType": "uint256",
              "name": "",
              "type": "uint256"
            }
          ],
          "stateMutability": "view",
          "type": "function"
        },
        {
          "inputs": [
            {
              "internalType": "address",
              "name": "",
              "type": "address"
            }
          ],
          "name": "balanceOf",
          "outputs": [
            {
              "internalType": "uint256",
              "name": "",
              "type": "uint256"
            }
          ],
          "stateMutability": "view",
          "type": "function"
        },
        {
          "inputs": [
            {
              "internalType": "address",
              "name": "account",
              "type": "address"
            },
            {
              "internalType": "uint256",
              "name": "amount",
              "type": "uint256"
            }
          ],
          "name": "burn",
          "outputs": [
            {
              "internalType": "bool",
              "name": "",
              "type": "bool"
            }
          ],
          "stateMutability": "nonpayable",
          "type": "function"
        },
        {
          "inputs": [
            {
              "internalType": "address",
              "name": "_pendingRouter",
              "type": "address"
            }
          ],
          "name": "changeVault",
          "outputs": [
            {
              "internalType": "bool",
              "name": "",
              "type": "bool"
            }
          ],
          "stateMutability": "nonpayable",
          "type": "function"
        },
        {
          "inputs": [],
          "name": "claimFees",
          "outputs": [
            {
              "internalType": "uint256",
              "name": "",
              "type": "uint256"
            },
            {
              "internalType": "uint256",
              "name": "",
              "type": "uint256"
            }
          ],
          "stateMutability": "nonpayable",
          "type": "function"
        },
        {
          "inputs": [],
          "name": "decimals",
          "outputs": [
            {
              "internalType": "uint256",
              "name": "",
              "type": "uint256"
            }
          ],
          "stateMutability": "view",
          "type": "function"
        },
        {
          "inputs": [
            {
              "internalType": "address",
              "name": "account",
              "type": "address"
            },
            {
              "internalType": "uint256",
              "name": "amount",
              "type": "uint256"
            }
          ],
          "name": "mint",
          "outputs": [
            {
              "internalType": "bool",
              "name": "",
              "type": "bool"
            }
          ],
          "stateMutability": "nonpayable",
          "type": "function"
        },
        {
          "inputs": [],
          "name": "name",
          "outputs": [
            {
              "internalType": "string",
              "name": "",
              "type": "string"
            }
          ],
          "stateMutability": "view",
          "type": "function"
        },
        {
          "inputs": [
            {
              "internalType": "address",
              "name": "",
              "type": "address"
            }
          ],
          "name": "nonces",
          "outputs": [
            {
              "internalType": "uint256",
              "name": "",
              "type": "uint256"
            }
          ],
          "stateMutability": "view",
          "type": "function"
        },
        {
          "inputs": [],
          "name": "pendingAnyswapRouter",
          "outputs": [
            {
              "internalType": "address",
              "name": "",
              "type": "address"
            }
          ],
          "stateMutability": "view",
          "type": "function"
        },
        {
          "inputs": [],
          "name": "pendingRouterDelay",
          "outputs": [
            {
              "internalType": "uint256",
              "name": "",
              "type": "uint256"
            }
          ],
          "stateMutability": "view",
          "type": "function"
        },
        {
          "inputs": [
            {
              "internalType": "address",
              "name": "owner",
              "type": "address"
            },
            {
              "internalType": "address",
              "name": "spender",
              "type": "address"
            },
            {
              "internalType": "uint256",
              "name": "value",
              "type": "uint256"
            },
            {
              "internalType": "uint256",
              "name": "deadline",
              "type": "uint256"
            },
            {
              "internalType": "uint8",
              "name": "v",
              "type": "uint8"
            },
            {
              "internalType": "bytes32",
              "name": "r",
              "type": "bytes32"
            },
            {
              "internalType": "bytes32",
              "name": "s",
              "type": "bytes32"
            }
          ],
          "name": "permit",
          "outputs": [],
          "stateMutability": "nonpayable",
          "type": "function"
        },
        {
          "inputs": [],
          "name": "symbol",
          "outputs": [
            {
              "internalType": "string",
              "name": "",
              "type": "string"
            }
          ],
          "stateMutability": "view",
          "type": "function"
        },
        {
          "inputs": [],
          "name": "token",
          "outputs": [
            {
              "internalType": "address",
              "name": "",
              "type": "address"
            }
          ],
          "stateMutability": "view",
          "type": "function"
        },
        {
          "inputs": [],
          "name": "totalSupply",
          "outputs": [
            {
              "internalType": "uint256",
              "name": "",
              "type": "uint256"
            }
          ],
          "stateMutability": "view",
          "type": "function"
        },
        {
          "inputs": [
            {
              "internalType": "address",
              "name": "_to",
              "type": "address"
            },
            {
              "internalType": "uint256",
              "name": "_value",
              "type": "uint256"
            }
          ],
          "name": "transfer",
          "outputs": [
            {
              "internalType": "bool",
              "name": "",
              "type": "bool"
            }
          ],
          "stateMutability": "nonpayable",
          "type": "function"
        },
        {
          "inputs": [
            {
              "internalType": "address",
              "name": "_from",
              "type": "address"
            },
            {
              "internalType": "address",
              "name": "_to",
              "type": "address"
            },
            {
              "internalType": "uint256",
              "name": "_value",
              "type": "uint256"
            }
          ],
          "name": "transferFrom",
          "outputs": [
            {
              "internalType": "bool",
              "name": "",
              "type": "bool"
            }
          ],
          "stateMutability": "nonpayable",
          "type": "function"
        }
      ],
      "evm": {
        "bytecode": {
          "linkReferences": {},
          "object": "608060405260006003553480156200001657600080fd5b50604051620011ff380380620011ff833981016040819052620000399162000363565b600880546001600160a01b0319166001600160a01b038316179055835162000069906001906020870190620001f0565b5082516200007f906000906020860190620001f0565b50600282905560405146907f8b73c3c69bb8fe3d512ecc4cf759cc79239f7b179b0ffacaa9a75d522b39400f90620000ba9060019062000435565b60408051918290038220828201825260018352603160f81b6020938401528151928301939093528101919091527fc89efdaa54c0f20c7adf612882df0950f5a951637e0307cdcb4c672f298b8bc66060820152608081018290523060a082015260c00160408051601f1981840301815291905280516020909101206006556200014533600062000151565b50505050505062000500565b6001600160a01b0382166000908152600460205260408120805483919083906200017d908490620004d9565b925050819055508160036000828254620001989190620004d9565b909155505060408051600081526001600160a01b03851660208201529081018390527fddf252ad1be2c89b69c2b068fc378daa952ba7f163c4a11628f55a4df523b3ef9060600160405180910390a150600192915050565b828054620001fe90620003f8565b90600052602060002090601f0160209004810192826200022257600085556200026d565b82601f106200023d57805160ff19168380011785556200026d565b828001600101855582156200026d579182015b828111156200026d57825182559160200191906001019062000250565b506200027b9291506200027f565b5090565b5b808211156200027b576000815560010162000280565b634e487b7160e01b600052604160045260246000fd5b600082601f830112620002be57600080fd5b81516001600160401b0380821115620002db57620002db62000296565b604051601f8301601f19908116603f0116810190828211818310171562000306576200030662000296565b816040528381526020925086838588010111156200032357600080fd5b600091505b8382101562000347578582018301518183018401529082019062000328565b83821115620003595760008385830101525b9695505050505050565b600080600080608085870312156200037a57600080fd5b84516001600160401b03808211156200039257600080fd5b620003a088838901620002ac565b95506020870151915080821115620003b757600080fd5b50620003c687828801620002ac565b60408701516060880151919550935090506001600160a01b0381168114620003ed57600080fd5b939692955090935050565b600181811c908216806200040d57607f821691505b602082108114156200042f57634e487b7160e01b600052602260045260246000fd5b50919050565b600080835481600182811c9150808316806200045257607f831692505b60208084108214156200047357634e487b7160e01b86526022600452602486fd5b8180156200048a57600181146200049c57620004cb565b60ff19861689528489019650620004cb565b60008a81526020902060005b86811015620004c35781548b820152908501908301620004a8565b505084890196505b509498975050505050505050565b60008219821115620004fb57634e487b7160e01b600052601160045260246000fd5b500190565b610cef80620005106000396000f3fe608060405234801561001057600080fd5b50600436106101425760003560e01c80637ecebe00116100b8578063d294f0931161007c578063d294f093146102bd578063d505accf146102d1578063db5de796146102e6578063dd62ed3e146102ef578063e3d670d71461031a578063fc0c546a1461034357600080fd5b80637ecebe001461025c57806395d89b411461027c5780639a3eb6e9146102845780639dc29fac14610297578063a9059cbb146102aa57600080fd5b806330adf81f1161010a57806330adf81f146101dd578063313ce567146102045780633644e5151461020d57806340c10f191461021657806360e232a91461022957806370a082311461023c57600080fd5b806306fdde0314610147578063095ea7b3146101655780630ed1713a1461018857806318160ddd146101b357806323b872dd146101ca575b600080fd5b61014f610349565b60405161015c9190610a62565b60405180910390f35b610178610173366004610ad3565b6103d7565b604051901515815260200161015c565b60095461019b906001600160a01b031681565b6040516001600160a01b03909116815260200161015c565b6101bc60035481565b60405190815260200161015c565b6101786101d8366004610afd565b610442565b6101bc7f6e71edae12b1b97f4d1f60370fef10105fa2faae0126114a169c64845d6126c981565b6101bc60025481565b6101bc60065481565b610178610224366004610ad3565b6104bc565b610178610237366004610b39565b6104d2565b6101bc61024a366004610b39565b60046020526000908152604090205481565b6101bc61026a366004610b39565b60076020526000908152604090205481565b61014f6105c3565b60085461019b906001600160a01b031681565b6101786102a5366004610ad3565b6105d0565b6101786102b8366004610ad3565b610670565b60408051600080825260208201520161015c565b6102e46102df366004610b54565b610684565b005b6101bc600a5481565b6101bc6102fd366004610bc7565b600560209081526000928352604080842090915290825290205481565b6101bc610328366004610b39565b6001600160a01b031660009081526004602052604090205490565b3061019b565b6001805461035690610bfa565b80601f016020809104026020016040519081016040528092919081815260200182805461038290610bfa565b80156103cf5780601f106103a4576101008083540402835291602001916103cf565b820191906000526020600020905b8154815290600101906020018083116103b257829003601f168201915b505050505081565b3360008181526005602090815260408083206001600160a01b03871684529091528082208490555190917f8c5be1e5ebec7d5bd14f71427d1e84f3dd0314c0f7b2291e5b200ac8c7c3b92591610431919086908690610c35565b60405180910390a150600192915050565b6001600160a01b038316600090815260056020908152604080832033845290915281205460001981146104a8576001600160a01b0385166000908152600560209081526040808320338452909152812080548592906104a2908490610c6f565b90915550505b6104b38585856108f0565b95945050505050565b60006104c88383610992565b5060019392505050565b60006104dc610a0f565b6001600160a01b0316336001600160a01b0316146104f957600080fd5b6001600160a01b0382166105545760405162461bcd60e51b815260206004820152601d60248201527f416e797377617056334945524332303a2061646472657373283078302900000060448201526064015b60405180910390fd5b600980546001600160a01b0319166001600160a01b03841617905561057c4262015180610c86565b600a8190556008546040516001600160a01b038086169216907f5c364079e7102c27c608f9b237c735a1b7bfa0b67f27c2ad26bad447bf965cac90600090a4506001919050565b6000805461035690610bfa565b60006105da610a0f565b6001600160a01b0316336001600160a01b0316146105f757600080fd5b81600360008282546106099190610c6f565b90915550506001600160a01b03831660009081526004602052604081208054849290610636908490610c6f565b90915550506040517fddf252ad1be2c89b69c2b068fc378daa952ba7f163c4a11628f55a4df523b3ef906104319085906000908690610c35565b600061067d3384846108f0565b9392505050565b428410156106c85760405162461bcd60e51b815260206004820152601160248201527014dd18589b19558c4e8811561412549151607a1b604482015260640161054b565b6006546001600160a01b038816600090815260076020526040812080549192917f6e71edae12b1b97f4d1f60370fef10105fa2faae0126114a169c64845d6126c9918b918b918b91908761071b83610c9e565b909155506040805160208101969096526001600160a01b0394851690860152929091166060840152608083015260a082015260c0810187905260e0016040516020818303038152906040528051906020012060405160200161079492919061190160f01b81526002810192909252602282015260420190565b60408051601f198184030181528282528051602091820120600080855291840180845281905260ff88169284019290925260608301869052608083018590529092509060019060a0016020604051602081039080840390855afa1580156107ff573d6000803e3d6000fd5b5050604051601f1901519150506001600160a01b038116158015906108355750886001600160a01b0316816001600160a01b0316145b6108815760405162461bcd60e51b815260206004820152601b60248201527f537461626c6556313a20494e56414c49445f5349474e41545552450000000000604482015260640161054b565b6001600160a01b03808a166000908152600560209081526040808320938c168352929052819020889055517f8c5be1e5ebec7d5bd14f71427d1e84f3dd0314c0f7b2291e5b200ac8c7c3b925906108dd908b908b908b90610c35565b60405180910390a1505050505050505050565b6001600160a01b03831660009081526004602052604081208054839190839061091a908490610c6f565b90915550506001600160a01b03831660009081526004602052604081208054849290610947908490610c86565b90915550506040517fddf252ad1be2c89b69c2b068fc378daa952ba7f163c4a11628f55a4df523b3ef9061098090869086908690610c35565b60405180910390a15060019392505050565b6001600160a01b0382166000908152600460205260408120805483919083906109bc908490610c86565b9250508190555081600360008282546109d59190610c86565b90915550506040517fddf252ad1be2c89b69c2b068fc378daa952ba7f163c4a11628f55a4df523b3ef906104319060009086908690610c35565b6000600a54600014158015610a25575042600a54105b15610a5257600954600880546001600160a01b0319166001600160a01b039092169190911790556000600a555b506008546001600160a01b031690565b600060208083528351808285015260005b81811015610a8f57858101830151858201604001528201610a73565b81811115610aa1576000604083870101525b50601f01601f1916929092016040019392505050565b80356001600160a01b0381168114610ace57600080fd5b919050565b60008060408385031215610ae657600080fd5b610aef83610ab7565b946020939093013593505050565b600080600060608486031215610b1257600080fd5b610b1b84610ab7565b9250610b2960208501610ab7565b9150604084013590509250925092565b600060208284031215610b4b57600080fd5b61067d82610ab7565b600080600080600080600060e0888a031215610b6f57600080fd5b610b7888610ab7565b9650610b8660208901610ab7565b95506040880135945060608801359350608088013560ff81168114610baa57600080fd5b9699959850939692959460a0840135945060c09093013592915050565b60008060408385031215610bda57600080fd5b610be383610ab7565b9150610bf160208401610ab7565b90509250929050565b600181811c90821680610c0e57607f821691505b60208210811415610c2f57634e487b7160e01b600052602260045260246000fd5b50919050565b6001600160a01b039384168152919092166020820152604081019190915260600190565b634e487b7160e01b600052601160045260246000fd5b600082821015610c8157610c81610c59565b500390565b60008219821115610c9957610c99610c59565b500190565b6000600019821415610cb257610cb2610c59565b506001019056fea2646970667358221220a7714b8729dde042f762a811d5b9632c28e508df395e3c4e64596538a7d6efd364736f6c634300080b0033",
          "opcodes": "PUSH1 0x80 PUSH1 0x40 MSTORE PUSH1 0x0 PUSH1 0x3 SSTORE CALLVALUE DUP1 ISZERO PUSH3 0x16 JUMPI PUSH1 0x0 DUP1 REVERT JUMPDEST POP PUSH1 0x40 MLOAD PUSH3 0x11FF CODESIZE SUB DUP1 PUSH3 0x11FF DUP4 CODECOPY DUP2 ADD PUSH1 0x40 DUP2 SWAP1 MSTORE PUSH3 0x39 SWAP2 PUSH3 0x363 JUMP JUMPDEST PUSH1 0x8 DUP1 SLOAD PUSH1 0x1 PUSH1 0x1 PUSH1 0xA0 SHL SUB NOT AND PUSH1 0x1 PUSH1 0x1 PUSH1 0xA0 SHL SUB DUP4 AND OR SWAP1 SSTORE DUP4 MLOAD PUSH3 0x69 SWAP1 PUSH1 0x1 SWAP1 PUSH1 0x20 DUP8 ADD SWAP1 PUSH3 0x1F0 JUMP JUMPDEST POP DUP3 MLOAD PUSH3 0x7F SWAP1 PUSH1 0x0 SWAP1 PUSH1 0x20 DUP7 ADD SWAP1 PUSH3 0x1F0 JUMP JUMPDEST POP PUSH1 0x2 DUP3 SWAP1 SSTORE PUSH1 0x40 MLOAD CHAINID SWAP1 PUSH32 0x8B73C3C69BB8FE3D512ECC4CF759CC79239F7B179B0FFACAA9A75D522B39400F SWAP1 PUSH3 0xBA SWAP1 PUSH1 0x1 SWAP1 PUSH3 0x435 JUMP JUMPDEST PUSH1 0x40 DUP1 MLOAD SWAP2 DUP3 SWAP1 SUB DUP3 KECCAK256 DUP3 DUP3 ADD DUP3 MSTORE PUSH1 0x1 DUP4 MSTORE PUSH1 0x31 PUSH1 0xF8 SHL PUSH1 0x20 SWAP4 DUP5 ADD MSTORE DUP2 MLOAD SWAP3 DUP4 ADD SWAP4 SWAP1 SWAP4 MSTORE DUP2 ADD SWAP2 SWAP1 SWAP2 MSTORE PUSH32 0xC89EFDAA54C0F20C7ADF612882DF0950F5A951637E0307CDCB4C672F298B8BC6 PUSH1 0x60 DUP3 ADD MSTORE PUSH1 0x80 DUP2 ADD DUP3 SWAP1 MSTORE ADDRESS PUSH1 0xA0 DUP3 ADD MSTORE PUSH1 0xC0 ADD PUSH1 0x40 DUP1 MLOAD PUSH1 0x1F NOT DUP2 DUP5 SUB ADD DUP2 MSTORE SWAP2 SWAP1 MSTORE DUP1 MLOAD PUSH1 0x20 SWAP1 SWAP2 ADD KECCAK256 PUSH1 0x6 SSTORE PUSH3 0x145 CALLER PUSH1 0x0 PUSH3 0x151 JUMP JUMPDEST POP POP POP POP POP POP PUSH3 0x500 JUMP JUMPDEST PUSH1 0x1 PUSH1 0x1 PUSH1 0xA0 SHL SUB DUP3 AND PUSH1 0x0 SWAP1 DUP2 MSTORE PUSH1 0x4 PUSH1 0x20 MSTORE PUSH1 0x40 DUP2 KECCAK256 DUP1 SLOAD DUP4 SWAP2 SWAP1 DUP4 SWAP1 PUSH3 0x17D SWAP1 DUP5 SWAP1 PUSH3 0x4D9 JUMP JUMPDEST SWAP3 POP POP DUP2 SWAP1 SSTORE POP DUP2 PUSH1 0x3 PUSH1 0x0 DUP3 DUP3 SLOAD PUSH3 0x198 SWAP2 SWAP1 PUSH3 0x4D9 JUMP JUMPDEST SWAP1 SWAP2 SSTORE POP POP PUSH1 0x40 DUP1 MLOAD PUSH1 0x0 DUP2 MSTORE PUSH1 0x1 PUSH1 0x1 PUSH1 0xA0 SHL SUB DUP6 AND PUSH1 0x20 DUP3 ADD MSTORE SWAP1 DUP2 ADD DUP4 SWAP1 MSTORE PUSH32 0xDDF252AD1BE2C89B69C2B068FC378DAA952BA7F163C4A11628F55A4DF523B3EF SWAP1 PUSH1 0x60 ADD PUSH1 0x40 MLOAD DUP1 SWAP2 SUB SWAP1 LOG1 POP PUSH1 0x1 SWAP3 SWAP2 POP POP JUMP JUMPDEST DUP3 DUP1 SLOAD PUSH3 0x1FE SWAP1 PUSH3 0x3F8 JUMP JUMPDEST SWAP1 PUSH1 0x0 MSTORE PUSH1 0x20 PUSH1 0x0 KECCAK256 SWAP1 PUSH1 0x1F ADD PUSH1 0x20 SWAP1 DIV DUP2 ADD SWAP3 DUP3 PUSH3 0x222 JUMPI PUSH1 0x0 DUP6 SSTORE PUSH3 0x26D JUMP JUMPDEST DUP3 PUSH1 0x1F LT PUSH3 0x23D JUMPI DUP1 MLOAD PUSH1 0xFF NOT AND DUP4 DUP1 ADD OR DUP6 SSTORE PUSH3 0x26D JUMP JUMPDEST DUP3 DUP1 ADD PUSH1 0x1 ADD DUP6 SSTORE DUP3 ISZERO PUSH3 0x26D JUMPI SWAP2 DUP3 ADD JUMPDEST DUP3 DUP2 GT ISZERO PUSH3 0x26D JUMPI DUP3 MLOAD DUP3 SSTORE SWAP2 PUSH1 0x20 ADD SWAP2 SWAP1 PUSH1 0x1 ADD SWAP1 PUSH3 0x250 JUMP JUMPDEST POP PUSH3 0x27B SWAP3 SWAP2 POP PUSH3 0x27F JUMP JUMPDEST POP SWAP1 JUMP JUMPDEST JUMPDEST DUP1 DUP3 GT ISZERO PUSH3 0x27B JUMPI PUSH1 0x0 DUP2 SSTORE PUSH1 0x1 ADD PUSH3 0x280 JUMP JUMPDEST PUSH4 0x4E487B71 PUSH1 0xE0 SHL PUSH1 0x0 MSTORE PUSH1 0x41 PUSH1 0x4 MSTORE PUSH1 0x24 PUSH1 0x0 REVERT JUMPDEST PUSH1 0x0 DUP3 PUSH1 0x1F DUP4 ADD SLT PUSH3 0x2BE JUMPI PUSH1 0x0 DUP1 REVERT JUMPDEST DUP2 MLOAD PUSH1 0x1 PUSH1 0x1 PUSH1 0x40 SHL SUB DUP1 DUP3 GT ISZERO PUSH3 0x2DB JUMPI PUSH3 0x2DB PUSH3 0x296 JUMP JUMPDEST PUSH1 0x40 MLOAD PUSH1 0x1F DUP4 ADD PUSH1 0x1F NOT SWAP1 DUP2 AND PUSH1 0x3F ADD AND DUP2 ADD SWAP1 DUP3 DUP3 GT DUP2 DUP4 LT OR ISZERO PUSH3 0x306 JUMPI PUSH3 0x306 PUSH3 0x296 JUMP JUMPDEST DUP2 PUSH1 0x40 MSTORE DUP4 DUP2 MSTORE PUSH1 0x20 SWAP3 POP DUP7 DUP4 DUP6 DUP9 ADD ADD GT ISZERO PUSH3 0x323 JUMPI PUSH1 0x0 DUP1 REVERT JUMPDEST PUSH1 0x0 SWAP2 POP JUMPDEST DUP4 DUP3 LT ISZERO PUSH3 0x347 JUMPI DUP6 DUP3 ADD DUP4 ADD MLOAD DUP2 DUP4 ADD DUP5 ADD MSTORE SWAP1 DUP3 ADD SWAP1 PUSH3 0x328 JUMP JUMPDEST DUP4 DUP3 GT ISZERO PUSH3 0x359 JUMPI PUSH1 0x0 DUP4 DUP6 DUP4 ADD ADD MSTORE JUMPDEST SWAP7 SWAP6 POP POP POP POP POP POP JUMP JUMPDEST PUSH1 0x0 DUP1 PUSH1 0x0 DUP1 PUSH1 0x80 DUP6 DUP8 SUB SLT ISZERO PUSH3 0x37A JUMPI PUSH1 0x0 DUP1 REVERT JUMPDEST DUP5 MLOAD PUSH1 0x1 PUSH1 0x1 PUSH1 0x40 SHL SUB DUP1 DUP3 GT ISZERO PUSH3 0x392 JUMPI PUSH1 0x0 DUP1 REVERT JUMPDEST PUSH3 0x3A0 DUP9 DUP4 DUP10 ADD PUSH3 0x2AC JUMP JUMPDEST SWAP6 POP PUSH1 0x20 DUP8 ADD MLOAD SWAP2 POP DUP1 DUP3 GT ISZERO PUSH3 0x3B7 JUMPI PUSH1 0x0 DUP1 REVERT JUMPDEST POP PUSH3 0x3C6 DUP8 DUP3 DUP9 ADD PUSH3 0x2AC JUMP JUMPDEST PUSH1 0x40 DUP8 ADD MLOAD PUSH1 0x60 DUP9 ADD MLOAD SWAP2 SWAP6 POP SWAP4 POP SWAP1 POP PUSH1 0x1 PUSH1 0x1 PUSH1 0xA0 SHL SUB DUP2 AND DUP2 EQ PUSH3 0x3ED JUMPI PUSH1 0x0 DUP1 REVERT JUMPDEST SWAP4 SWAP7 SWAP3 SWAP6 POP SWAP1 SWAP4 POP POP JUMP JUMPDEST PUSH1 0x1 DUP2 DUP2 SHR SWAP1 DUP3 AND DUP1 PUSH3 0x40D JUMPI PUSH1 0x7F DUP3 AND SWAP2 POP JUMPDEST PUSH1 0x20 DUP3 LT DUP2 EQ ISZERO PUSH3 0x42F JUMPI PUSH4 0x4E487B71 PUSH1 0xE0 SHL PUSH1 0x0 MSTORE PUSH1 0x22 PUSH1 0x4 MSTORE PUSH1 0x24 PUSH1 0x0 REVERT JUMPDEST POP SWAP2 SWAP1 POP JUMP JUMPDEST PUSH1 0x0 DUP1 DUP4 SLOAD DUP2 PUSH1 0x1 DUP3 DUP2 SHR SWAP2 POP DUP1 DUP4 AND DUP1 PUSH3 0x452 JUMPI PUSH1 0x7F DUP4 AND SWAP3 POP JUMPDEST PUSH1 0x20 DUP1 DUP5 LT DUP3 EQ ISZERO PUSH3 0x473 JUMPI PUSH4 0x4E487B71 PUSH1 0xE0 SHL DUP7 MSTORE PUSH1 0x22 PUSH1 0x4 MSTORE PUSH1 0x24 DUP7 REVERT JUMPDEST DUP2 DUP1 ISZERO PUSH3 0x48A JUMPI PUSH1 0x1 DUP2 EQ PUSH3 0x49C JUMPI PUSH3 0x4CB JUMP JUMPDEST PUSH1 0xFF NOT DUP7 AND DUP10 MSTORE DUP5 DUP10 ADD SWAP7 POP PUSH3 0x4CB JUMP JUMPDEST PUSH1 0x0 DUP11 DUP2 MSTORE PUSH1 0x20 SWAP1 KECCAK256 PUSH1 0x0 JUMPDEST DUP7 DUP2 LT ISZERO PUSH3 0x4C3 JUMPI DUP2 SLOAD DUP12 DUP3 ADD MSTORE SWAP1 DUP6 ADD SWAP1 DUP4 ADD PUSH3 0x4A8 JUMP JUMPDEST POP POP DUP5 DUP10 ADD SWAP7 POP JUMPDEST POP SWAP5 SWAP9 SWAP8 POP POP POP POP POP POP POP POP JUMP JUMPDEST PUSH1 0x0 DUP3 NOT DUP3 GT ISZERO PUSH3 0x4FB JUMPI PUSH4 0x4E487B71 PUSH1 0xE0 SHL PUSH1 0x0 MSTORE PUSH1 0x11 PUSH1 0x4 MSTORE PUSH1 0x24 PUSH1 0x0 REVERT JUMPDEST POP ADD SWAP1 JUMP JUMPDEST PUSH2 0xCEF DUP1 PUSH3 0x510 PUSH1 0x0 CODECOPY PUSH1 0x0 RETURN INVALID PUSH1 0x80 PUSH1 0x40 MSTORE CALLVALUE DUP1 ISZERO PUSH2 0x10 JUMPI PUSH1 0x0 DUP1 REVERT JUMPDEST POP PUSH1 0x4 CALLDATASIZE LT PUSH2 0x142 JUMPI PUSH1 0x0 CALLDATALOAD PUSH1 0xE0 SHR DUP1 PUSH4 0x7ECEBE00 GT PUSH2 0xB8 JUMPI DUP1 PUSH4 0xD294F093 GT PUSH2 0x7C JUMPI DUP1 PUSH4 0xD294F093 EQ PUSH2 0x2BD JUMPI DUP1 PUSH4 0xD505ACCF EQ PUSH2 0x2D1 JUMPI DUP1 PUSH4 0xDB5DE796 EQ PUSH2 0x2E6 JUMPI DUP1 PUSH4 0xDD62ED3E EQ PUSH2 0x2EF JUMPI DUP1 PUSH4 0xE3D670D7 EQ PUSH2 0x31A JUMPI DUP1 PUSH4 0xFC0C546A EQ PUSH2 0x343 JUMPI PUSH1 0x0 DUP1 REVERT JUMPDEST DUP1 PUSH4 0x7ECEBE00 EQ PUSH2 0x25C JUMPI DUP1 PUSH4 0x95D89B41 EQ PUSH2 0x27C JUMPI DUP1 PUSH4 0x9A3EB6E9 EQ PUSH2 0x284 JUMPI DUP1 PUSH4 0x9DC29FAC EQ PUSH2 0x297 JUMPI DUP1 PUSH4 0xA9059CBB EQ PUSH2 0x2AA JUMPI PUSH1 0x0 DUP1 REVERT JUMPDEST DUP1 PUSH4 0x30ADF81F GT PUSH2 0x10A JUMPI DUP1 PUSH4 0x30ADF81F EQ PUSH2 0x1DD JUMPI DUP1 PUSH4 0x313CE567 EQ PUSH2 0x204 JUMPI DUP1 PUSH4 0x3644E515 EQ PUSH2 0x20D JUMPI DUP1 PUSH4 0x40C10F19 EQ PUSH2 0x216 JUMPI DUP1 PUSH4 0x60E232A9 EQ PUSH2 0x229 JUMPI DUP1 PUSH4 0x70A08231 EQ PUSH2 0x23C JUMPI PUSH1 0x0 DUP1 REVERT JUMPDEST DUP1 PUSH4 0x6FDDE03 EQ PUSH2 0x147 JUMPI DUP1 PUSH4 0x95EA7B3 EQ PUSH2 0x165 JUMPI DUP1 PUSH4 0xED1713A EQ PUSH2 0x188 JUMPI DUP1 PUSH4 0x18160DDD EQ PUSH2 0x1B3 JUMPI DUP1 PUSH4 0x23B872DD EQ PUSH2 0x1CA JUMPI JUMPDEST PUSH1 0x0 DUP1 REVERT JUMPDEST PUSH2 0x14F PUSH2 0x349 JUMP JUMPDEST PUSH1 0x40 MLOAD PUSH2 0x15C SWAP2 SWAP1 PUSH2 0xA62 JUMP JUMPDEST PUSH1 0x40 MLOAD DUP1 SWAP2 SUB SWAP1 RETURN JUMPDEST PUSH2 0x178 PUSH2 0x173 CALLDATASIZE PUSH1 0x4 PUSH2 0xAD3 JUMP JUMPDEST PUSH2 0x3D7 JUMP JUMPDEST PUSH1 0x40 MLOAD SWAP1 ISZERO ISZERO DUP2 MSTORE PUSH1 0x20 ADD PUSH2 0x15C JUMP JUMPDEST PUSH1 0x9 SLOAD PUSH2 0x19B SWAP1 PUSH1 0x1 PUSH1 0x1 PUSH1 0xA0 SHL SUB AND DUP2 JUMP JUMPDEST PUSH1 0x40 MLOAD PUSH1 0x1 PUSH1 0x1 PUSH1 0xA0 SHL SUB SWAP1 SWAP2 AND DUP2 MSTORE PUSH1 0x20 ADD PUSH2 0x15C JUMP JUMPDEST PUSH2 0x1BC PUSH1 0x3 SLOAD DUP2 JUMP JUMPDEST PUSH1 0x40 MLOAD SWAP1 DUP2 MSTORE PUSH1 0x20 ADD PUSH2 0x15C JUMP JUMPDEST PUSH2 0x178 PUSH2 0x1D8 CALLDATASIZE PUSH1 0x4 PUSH2 0xAFD JUMP JUMPDEST PUSH2 0x442 JUMP JUMPDEST PUSH2 0x1BC PUSH32 0x6E71EDAE12B1B97F4D1F60370FEF10105FA2FAAE0126114A169C64845D6126C9 DUP2 JUMP JUMPDEST PUSH2 0x1BC PUSH1 0x2 SLOAD DUP2 JUMP JUMPDEST PUSH2 0x1BC PUSH1 0x6 SLOAD DUP2 JUMP JUMPDEST PUSH2 0x178 PUSH2 0x224 CALLDATASIZE PUSH1 0x4 PUSH2 0xAD3 JUMP JUMPDEST PUSH2 0x4BC JUMP JUMPDEST PUSH2 0x178 PUSH2 0x237 CALLDATASIZE PUSH1 0x4 PUSH2 0xB39 JUMP JUMPDEST PUSH2 0x4D2 JUMP JUMPDEST PUSH2 0x1BC PUSH2 0x24A CALLDATASIZE PUSH1 0x4 PUSH2 0xB39 JUMP JUMPDEST PUSH1 0x4 PUSH1 0x20 MSTORE PUSH1 0x0 SWAP1 DUP2 MSTORE PUSH1 0x40 SWAP1 KECCAK256 SLOAD DUP2 JUMP JUMPDEST PUSH2 0x1BC PUSH2 0x26A CALLDATASIZE PUSH1 0x4 PUSH2 0xB39 JUMP JUMPDEST PUSH1 0x7 PUSH1 0x20 MSTORE PUSH1 0x0 SWAP1 DUP2 MSTORE PUSH1 0x40 SWAP1 KECCAK256 SLOAD DUP2 JUMP JUMPDEST PUSH2 0x14F PUSH2 0x5C3 JUMP JUMPDEST PUSH1 0x8 SLOAD PUSH2 0x19B SWAP1 PUSH1 0x1 PUSH1 0x1 PUSH1 0xA0 SHL SUB AND DUP2 JUMP JUMPDEST PUSH2 0x178 PUSH2 0x2A5 CALLDATASIZE PUSH1 0x4 PUSH2 0xAD3 JUMP JUMPDEST PUSH2 0x5D0 JUMP JUMPDEST PUSH2 0x178 PUSH2 0x2B8 CALLDATASIZE PUSH1 0x4 PUSH2 0xAD3 JUMP JUMPDEST PUSH2 0x670 JUMP JUMPDEST PUSH1 0x40 DUP1 MLOAD PUSH1 0x0 DUP1 DUP3 MSTORE PUSH1 0x20 DUP3 ADD MSTORE ADD PUSH2 0x15C JUMP JUMPDEST PUSH2 0x2E4 PUSH2 0x2DF CALLDATASIZE PUSH1 0x4 PUSH2 0xB54 JUMP JUMPDEST PUSH2 0x684 JUMP JUMPDEST STOP JUMPDEST PUSH2 0x1BC PUSH1 0xA SLOAD DUP2 JUMP JUMPDEST PUSH2 0x1BC PUSH2 0x2FD CALLDATASIZE PUSH1 0x4 PUSH2 0xBC7 JUMP JUMPDEST PUSH1 0x5 PUSH1 0x20 SWAP1 DUP2 MSTORE PUSH1 0x0 SWAP3 DUP4 MSTORE PUSH1 0x40 DUP1 DUP5 KECCAK256 SWAP1 SWAP2 MSTORE SWAP1 DUP3 MSTORE SWAP1 KECCAK256 SLOAD DUP2 JUMP JUMPDEST PUSH2 0x1BC PUSH2 0x328 CALLDATASIZE PUSH1 0x4 PUSH2 0xB39 JUMP JUMPDEST PUSH1 0x1 PUSH1 0x1 PUSH1 0xA0 SHL SUB AND PUSH1 0x0 SWAP1 DUP2 MSTORE PUSH1 0x4 PUSH1 0x20 MSTORE PUSH1 0x40 SWAP1 KECCAK256 SLOAD SWAP1 JUMP JUMPDEST ADDRESS PUSH2 0x19B JUMP JUMPDEST PUSH1 0x1 DUP1 SLOAD PUSH2 0x356 SWAP1 PUSH2 0xBFA JUMP JUMPDEST DUP1 PUSH1 0x1F ADD PUSH1 0x20 DUP1 SWAP2 DIV MUL PUSH1 0x20 ADD PUSH1 0x40 MLOAD SWAP1 DUP2 ADD PUSH1 0x40 MSTORE DUP1 SWAP3 SWAP2 SWAP1 DUP2 DUP2 MSTORE PUSH1 0x20 ADD DUP3 DUP1 SLOAD PUSH2 0x382 SWAP1 PUSH2 0xBFA JUMP JUMPDEST DUP1 ISZERO PUSH2 0x3CF JUMPI DUP1 PUSH1 0x1F LT PUSH2 0x3A4 JUMPI PUSH2 0x100 DUP1 DUP4 SLOAD DIV MUL DUP4 MSTORE SWAP2 PUSH1 0x20 ADD SWAP2 PUSH2 0x3CF JUMP JUMPDEST DUP3 ADD SWAP2 SWAP1 PUSH1 0x0 MSTORE PUSH1 0x20 PUSH1 0x0 KECCAK256 SWAP1 JUMPDEST DUP2 SLOAD DUP2 MSTORE SWAP1 PUSH1 0x1 ADD SWAP1 PUSH1 0x20 ADD DUP1 DUP4 GT PUSH2 0x3B2 JUMPI DUP3 SWAP1 SUB PUSH1 0x1F AND DUP3 ADD SWAP2 JUMPDEST POP POP POP POP POP DUP2 JUMP JUMPDEST CALLER PUSH1 0x0 DUP2 DUP2 MSTORE PUSH1 0x5 PUSH1 0x20 SWAP1 DUP2 MSTORE PUSH1 0x40 DUP1 DUP4 KECCAK256 PUSH1 0x1 PUSH1 0x1 PUSH1 0xA0 SHL SUB DUP8 AND DUP5 MSTORE SWAP1 SWAP2 MSTORE DUP1 DUP3 KECCAK256 DUP5 SWAP1 SSTORE MLOAD SWAP1 SWAP2 PUSH32 0x8C5BE1E5EBEC7D5BD14F71427D1E84F3DD0314C0F7B2291E5B200AC8C7C3B925 SWAP2 PUSH2 0x431 SWAP2 SWAP1 DUP7 SWAP1 DUP7 SWAP1 PUSH2 0xC35 JUMP JUMPDEST PUSH1 0x40 MLOAD DUP1 SWAP2 SUB SWAP1 LOG1 POP PUSH1 0x1 SWAP3 SWAP2 POP POP JUMP JUMPDEST PUSH1 0x1 PUSH1 0x1 PUSH1 0xA0 SHL SUB DUP4 AND PUSH1 0x0 SWAP1 DUP2 MSTORE PUSH1 0x5 PUSH1 0x20 SWAP1 DUP2 MSTORE PUSH1 0x40 DUP1 DUP4 KECCAK256 CALLER DUP5 MSTORE SWAP1 SWAP2 MSTORE DUP2 KECCAK256 SLOAD PUSH1 0x0 NOT DUP2 EQ PUSH2 0x4A8 JUMPI PUSH1 0x1 PUSH1 0x1 PUSH1 0xA0 SHL SUB DUP6 AND PUSH1 0x0 SWAP1 DUP2 MSTORE PUSH1 0x5 PUSH1 0x20 SWAP1 DUP2 MSTORE PUSH1 0x40 DUP1 DUP4 KECCAK256 CALLER DUP5 MSTORE SWAP1 SWAP2 MSTORE DUP2 KECCAK256 DUP1 SLOAD DUP6 SWAP3 SWAP1 PUSH2 0x4A2 SWAP1 DUP5 SWAP1 PUSH2 0xC6F JUMP JUMPDEST SWAP1 SWAP2 SSTORE POP POP JUMPDEST PUSH2 0x4B3 DUP6 DUP6 DUP6 PUSH2 0x8F0 JUMP JUMPDEST SWAP6 SWAP5 POP POP POP POP POP JUMP JUMPDEST PUSH1 0x0 PUSH2 0x4C8 DUP4 DUP4 PUSH2 0x992 JUMP JUMPDEST POP PUSH1 0x1 SWAP4 SWAP3 POP POP POP JUMP JUMPDEST PUSH1 0x0 PUSH2 0x4DC PUSH2 0xA0F JUMP JUMPDEST PUSH1 0x1 PUSH1 0x1 PUSH1 0xA0 SHL SUB AND CALLER PUSH1 0x1 PUSH1 0x1 PUSH1 0xA0 SHL SUB AND EQ PUSH2 0x4F9 JUMPI PUSH1 0x0 DUP1 REVERT JUMPDEST PUSH1 0x1 PUSH1 0x1 PUSH1 0xA0 SHL SUB DUP3 AND PUSH2 0x554 JUMPI PUSH1 0x40 MLOAD PUSH3 0x461BCD PUSH1 0xE5 SHL DUP2 MSTORE PUSH1 0x20 PUSH1 0x4 DUP3 ADD MSTORE PUSH1 0x1D PUSH1 0x24 DUP3 ADD MSTORE PUSH32 0x416E797377617056334945524332303A20616464726573732830783029000000 PUSH1 0x44 DUP3 ADD MSTORE PUSH1 0x64 ADD JUMPDEST PUSH1 0x40 MLOAD DUP1 SWAP2 SUB SWAP1 REVERT JUMPDEST PUSH1 0x9 DUP1 SLOAD PUSH1 0x1 PUSH1 0x1 PUSH1 0xA0 SHL SUB NOT AND PUSH1 0x1 PUSH1 0x1 PUSH1 0xA0 SHL SUB DUP5 AND OR SWAP1 SSTORE PUSH2 0x57C TIMESTAMP PUSH3 0x15180 PUSH2 0xC86 JUMP JUMPDEST PUSH1 0xA DUP2 SWAP1 SSTORE PUSH1 0x8 SLOAD PUSH1 0x40 MLOAD PUSH1 0x1 PUSH1 0x1 PUSH1 0xA0 SHL SUB DUP1 DUP7 AND SWAP3 AND SWAP1 PUSH32 0x5C364079E7102C27C608F9B237C735A1B7BFA0B67F27C2AD26BAD447BF965CAC SWAP1 PUSH1 0x0 SWAP1 LOG4 POP PUSH1 0x1 SWAP2 SWAP1 POP JUMP JUMPDEST PUSH1 0x0 DUP1 SLOAD PUSH2 0x356 SWAP1 PUSH2 0xBFA JUMP JUMPDEST PUSH1 0x0 PUSH2 0x5DA PUSH2 0xA0F JUMP JUMPDEST PUSH1 0x1 PUSH1 0x1 PUSH1 0xA0 SHL SUB AND CALLER PUSH1 0x1 PUSH1 0x1 PUSH1 0xA0 SHL SUB AND EQ PUSH2 0x5F7 JUMPI PUSH1 0x0 DUP1 REVERT JUMPDEST DUP2 PUSH1 0x3 PUSH1 0x0 DUP3 DUP3 SLOAD PUSH2 0x609 SWAP2 SWAP1 PUSH2 0xC6F JUMP JUMPDEST SWAP1 SWAP2 SSTORE POP POP PUSH1 0x1 PUSH1 0x1 PUSH1 0xA0 SHL SUB DUP4 AND PUSH1 0x0 SWAP1 DUP2 MSTORE PUSH1 0x4 PUSH1 0x20 MSTORE PUSH1 0x40 DUP2 KECCAK256 DUP1 SLOAD DUP5 SWAP3 SWAP1 PUSH2 0x636 SWAP1 DUP5 SWAP1 PUSH2 0xC6F JUMP JUMPDEST SWAP1 SWAP2 SSTORE POP POP PUSH1 0x40 MLOAD PUSH32 0xDDF252AD1BE2C89B69C2B068FC378DAA952BA7F163C4A11628F55A4DF523B3EF SWAP1 PUSH2 0x431 SWAP1 DUP6 SWAP1 PUSH1 0x0 SWAP1 DUP7 SWAP1 PUSH2 0xC35 JUMP JUMPDEST PUSH1 0x0 PUSH2 0x67D CALLER DUP5 DUP5 PUSH2 0x8F0 JUMP JUMPDEST SWAP4 SWAP3 POP POP POP JUMP JUMPDEST TIMESTAMP DUP5 LT ISZERO PUSH2 0x6C8 JUMPI PUSH1 0x40 MLOAD PUSH3 0x461BCD PUSH1 0xE5 SHL DUP2 MSTORE PUSH1 0x20 PUSH1 0x4 DUP3 ADD MSTORE PUSH1 0x11 PUSH1 0x24 DUP3 ADD MSTORE PUSH17 0x14DD18589B19558C4E8811561412549151 PUSH1 0x7A SHL PUSH1 0x44 DUP3 ADD MSTORE PUSH1 0x64 ADD PUSH2 0x54B JUMP JUMPDEST PUSH1 0x6 SLOAD PUSH1 0x1 PUSH1 0x1 PUSH1 0xA0 SHL SUB DUP9 AND PUSH1 0x0 SWAP1 DUP2 MSTORE PUSH1 0x7 PUSH1 0x20 MSTORE PUSH1 0x40 DUP2 KECCAK256 DUP1 SLOAD SWAP2 SWAP3 SWAP2 PUSH32 0x6E71EDAE12B1B97F4D1F60370FEF10105FA2FAAE0126114A169C64845D6126C9 SWAP2 DUP12 SWAP2 DUP12 SWAP2 DUP12 SWAP2 SWAP1 DUP8 PUSH2 0x71B DUP4 PUSH2 0xC9E JUMP JUMPDEST SWAP1 SWAP2 SSTORE POP PUSH1 0x40 DUP1 MLOAD PUSH1 0x20 DUP2 ADD SWAP7 SWAP1 SWAP7 MSTORE PUSH1 0x1 PUSH1 0x1 PUSH1 0xA0 SHL SUB SWAP5 DUP6 AND SWAP1 DUP7 ADD MSTORE SWAP3 SWAP1 SWAP2 AND PUSH1 0x60 DUP5 ADD MSTORE PUSH1 0x80 DUP4 ADD MSTORE PUSH1 0xA0 DUP3 ADD MSTORE PUSH1 0xC0 DUP2 ADD DUP8 SWAP1 MSTORE PUSH1 0xE0 ADD PUSH1 0x40 MLOAD PUSH1 0x20 DUP2 DUP4 SUB SUB DUP2 MSTORE SWAP1 PUSH1 0x40 MSTORE DUP1 MLOAD SWAP1 PUSH1 0x20 ADD KECCAK256 PUSH1 0x40 MLOAD PUSH1 0x20 ADD PUSH2 0x794 SWAP3 SWAP2 SWAP1 PUSH2 0x1901 PUSH1 0xF0 SHL DUP2 MSTORE PUSH1 0x2 DUP2 ADD SWAP3 SWAP1 SWAP3 MSTORE PUSH1 0x22 DUP3 ADD MSTORE PUSH1 0x42 ADD SWAP1 JUMP JUMPDEST PUSH1 0x40 DUP1 MLOAD PUSH1 0x1F NOT DUP2 DUP5 SUB ADD DUP2 MSTORE DUP3 DUP3 MSTORE DUP1 MLOAD PUSH1 0x20 SWAP2 DUP3 ADD KECCAK256 PUSH1 0x0 DUP1 DUP6 MSTORE SWAP2 DUP5 ADD DUP1 DUP5 MSTORE DUP2 SWAP1 MSTORE PUSH1 0xFF DUP9 AND SWAP3 DUP5 ADD SWAP3 SWAP1 SWAP3 MSTORE PUSH1 0x60 DUP4 ADD DUP7 SWAP1 MSTORE PUSH1 0x80 DUP4 ADD DUP6 SWAP1 MSTORE SWAP1 SWAP3 POP SWAP1 PUSH1 0x1 SWAP1 PUSH1 0xA0 ADD PUSH1 0x20 PUSH1 0x40 MLOAD PUSH1 0x20 DUP2 SUB SWAP1 DUP1 DUP5 SUB SWAP1 DUP6 GAS STATICCALL ISZERO DUP1 ISZERO PUSH2 0x7FF JUMPI RETURNDATASIZE PUSH1 0x0 DUP1 RETURNDATACOPY RETURNDATASIZE PUSH1 0x0 REVERT JUMPDEST POP POP PUSH1 0x40 MLOAD PUSH1 0x1F NOT ADD MLOAD SWAP2 POP POP PUSH1 0x1 PUSH1 0x1 PUSH1 0xA0 SHL SUB DUP2 AND ISZERO DUP1 ISZERO SWAP1 PUSH2 0x835 JUMPI POP DUP9 PUSH1 0x1 PUSH1 0x1 PUSH1 0xA0 SHL SUB AND DUP2 PUSH1 0x1 PUSH1 0x1 PUSH1 0xA0 SHL SUB AND EQ JUMPDEST PUSH2 0x881 JUMPI PUSH1 0x40 MLOAD PUSH3 0x461BCD PUSH1 0xE5 SHL DUP2 MSTORE PUSH1 0x20 PUSH1 0x4 DUP3 ADD MSTORE PUSH1 0x1B PUSH1 0x24 DUP3 ADD MSTORE PUSH32 0x537461626C6556313A20494E56414C49445F5349474E41545552450000000000 PUSH1 0x44 DUP3 ADD MSTORE PUSH1 0x64 ADD PUSH2 0x54B JUMP JUMPDEST PUSH1 0x1 PUSH1 0x1 PUSH1 0xA0 SHL SUB DUP1 DUP11 AND PUSH1 0x0 SWAP1 DUP2 MSTORE PUSH1 0x5 PUSH1 0x20 SWAP1 DUP2 MSTORE PUSH1 0x40 DUP1 DUP4 KECCAK256 SWAP4 DUP13 AND DUP4 MSTORE SWAP3 SWAP1 MSTORE DUP2 SWAP1 KECCAK256 DUP9 SWAP1 SSTORE MLOAD PUSH32 0x8C5BE1E5EBEC7D5BD14F71427D1E84F3DD0314C0F7B2291E5B200AC8C7C3B925 SWAP1 PUSH2 0x8DD SWAP1 DUP12 SWAP1 DUP12 SWAP1 DUP12 SWAP1 PUSH2 0xC35 JUMP JUMPDEST PUSH1 0x40 MLOAD DUP1 SWAP2 SUB SWAP1 LOG1 POP POP POP POP POP POP POP POP POP JUMP JUMPDEST PUSH1 0x1 PUSH1 0x1 PUSH1 0xA0 SHL SUB DUP4 AND PUSH1 0x0 SWAP1 DUP2 MSTORE PUSH1 0x4 PUSH1 0x20 MSTORE PUSH1 0x40 DUP2 KECCAK256 DUP1 SLOAD DUP4 SWAP2 SWAP1 DUP4 SWAP1 PUSH2 0x91A SWAP1 DUP5 SWAP1 PUSH2 0xC6F JUMP JUMPDEST SWAP1 SWAP2 SSTORE POP POP PUSH1 0x1 PUSH1 0x1 PUSH1 0xA0 SHL SUB DUP4 AND PUSH1 0x0 SWAP1 DUP2 MSTORE PUSH1 0x4 PUSH1 0x20 MSTORE PUSH1 0x40 DUP2 KECCAK256 DUP1 SLOAD DUP5 SWAP3 SWAP1 PUSH2 0x947 SWAP1 DUP5 SWAP1 PUSH2 0xC86 JUMP JUMPDEST SWAP1 SWAP2 SSTORE POP POP PUSH1 0x40 MLOAD PUSH32 0xDDF252AD1BE2C89B69C2B068FC378DAA952BA7F163C4A11628F55A4DF523B3EF SWAP1 PUSH2 0x980 SWAP1 DUP7 SWAP1 DUP7 SWAP1 DUP7 SWAP1 PUSH2 0xC35 JUMP JUMPDEST PUSH1 0x40 MLOAD DUP1 SWAP2 SUB SWAP1 LOG1 POP PUSH1 0x1 SWAP4 SWAP3 POP POP POP JUMP JUMPDEST PUSH1 0x1 PUSH1 0x1 PUSH1 0xA0 SHL SUB DUP3 AND PUSH1 0x0 SWAP1 DUP2 MSTORE PUSH1 0x4 PUSH1 0x20 MSTORE PUSH1 0x40 DUP2 KECCAK256 DUP1 SLOAD DUP4 SWAP2 SWAP1 DUP4 SWAP1 PUSH2 0x9BC SWAP1 DUP5 SWAP1 PUSH2 0xC86 JUMP JUMPDEST SWAP3 POP POP DUP2 SWAP1 SSTORE POP DUP2 PUSH1 0x3 PUSH1 0x0 DUP3 DUP3 SLOAD PUSH2 0x9D5 SWAP2 SWAP1 PUSH2 0xC86 JUMP JUMPDEST SWAP1 SWAP2 SSTORE POP POP PUSH1 0x40 MLOAD PUSH32 0xDDF252AD1BE2C89B69C2B068FC378DAA952BA7F163C4A11628F55A4DF523B3EF SWAP1 PUSH2 0x431 SWAP1 PUSH1 0x0 SWAP1 DUP7 SWAP1 DUP7 SWAP1 PUSH2 0xC35 JUMP JUMPDEST PUSH1 0x0 PUSH1 0xA SLOAD PUSH1 0x0 EQ ISZERO DUP1 ISZERO PUSH2 0xA25 JUMPI POP TIMESTAMP PUSH1 0xA SLOAD LT JUMPDEST ISZERO PUSH2 0xA52 JUMPI PUSH1 0x9 SLOAD PUSH1 0x8 DUP1 SLOAD PUSH1 0x1 PUSH1 0x1 PUSH1 0xA0 SHL SUB NOT AND PUSH1 0x1 PUSH1 0x1 PUSH1 0xA0 SHL SUB SWAP1 SWAP3 AND SWAP2 SWAP1 SWAP2 OR SWAP1 SSTORE PUSH1 0x0 PUSH1 0xA SSTORE JUMPDEST POP PUSH1 0x8 SLOAD PUSH1 0x1 PUSH1 0x1 PUSH1 0xA0 SHL SUB AND SWAP1 JUMP JUMPDEST PUSH1 0x0 PUSH1 0x20 DUP1 DUP4 MSTORE DUP4 MLOAD DUP1 DUP3 DUP6 ADD MSTORE PUSH1 0x0 JUMPDEST DUP2 DUP2 LT ISZERO PUSH2 0xA8F JUMPI DUP6 DUP2 ADD DUP4 ADD MLOAD DUP6 DUP3 ADD PUSH1 0x40 ADD MSTORE DUP3 ADD PUSH2 0xA73 JUMP JUMPDEST DUP2 DUP2 GT ISZERO PUSH2 0xAA1 JUMPI PUSH1 0x0 PUSH1 0x40 DUP4 DUP8 ADD ADD MSTORE JUMPDEST POP PUSH1 0x1F ADD PUSH1 0x1F NOT AND SWAP3 SWAP1 SWAP3 ADD PUSH1 0x40 ADD SWAP4 SWAP3 POP POP POP JUMP JUMPDEST DUP1 CALLDATALOAD PUSH1 0x1 PUSH1 0x1 PUSH1 0xA0 SHL SUB DUP2 AND DUP2 EQ PUSH2 0xACE JUMPI PUSH1 0x0 DUP1 REVERT JUMPDEST SWAP2 SWAP1 POP JUMP JUMPDEST PUSH1 0x0 DUP1 PUSH1 0x40 DUP4 DUP6 SUB SLT ISZERO PUSH2 0xAE6 JUMPI PUSH1 0x0 DUP1 REVERT JUMPDEST PUSH2 0xAEF DUP4 PUSH2 0xAB7 JUMP JUMPDEST SWAP5 PUSH1 0x20 SWAP4 SWAP1 SWAP4 ADD CALLDATALOAD SWAP4 POP POP POP JUMP JUMPDEST PUSH1 0x0 DUP1 PUSH1 0x0 PUSH1 0x60 DUP5 DUP7 SUB SLT ISZERO PUSH2 0xB12 JUMPI PUSH1 0x0 DUP1 REVERT JUMPDEST PUSH2 0xB1B DUP5 PUSH2 0xAB7 JUMP JUMPDEST SWAP3 POP PUSH2 0xB29 PUSH1 0x20 DUP6 ADD PUSH2 0xAB7 JUMP JUMPDEST SWAP2 POP PUSH1 0x40 DUP5 ADD CALLDATALOAD SWAP1 POP SWAP3 POP SWAP3 POP SWAP3 JUMP JUMPDEST PUSH1 0x0 PUSH1 0x20 DUP3 DUP5 SUB SLT ISZERO PUSH2 0xB4B JUMPI PUSH1 0x0 DUP1 REVERT JUMPDEST PUSH2 0x67D DUP3 PUSH2 0xAB7 JUMP JUMPDEST PUSH1 0x0 DUP1 PUSH1 0x0 DUP1 PUSH1 0x0 DUP1 PUSH1 0x0 PUSH1 0xE0 DUP9 DUP11 SUB SLT ISZERO PUSH2 0xB6F JUMPI PUSH1 0x0 DUP1 REVERT JUMPDEST PUSH2 0xB78 DUP9 PUSH2 0xAB7 JUMP JUMPDEST SWAP7 POP PUSH2 0xB86 PUSH1 0x20 DUP10 ADD PUSH2 0xAB7 JUMP JUMPDEST SWAP6 POP PUSH1 0x40 DUP9 ADD CALLDATALOAD SWAP5 POP PUSH1 0x60 DUP9 ADD CALLDATALOAD SWAP4 POP PUSH1 0x80 DUP9 ADD CALLDATALOAD PUSH1 0xFF DUP2 AND DUP2 EQ PUSH2 0xBAA JUMPI PUSH1 0x0 DUP1 REVERT JUMPDEST SWAP7 SWAP10 SWAP6 SWAP9 POP SWAP4 SWAP7 SWAP3 SWAP6 SWAP5 PUSH1 0xA0 DUP5 ADD CALLDATALOAD SWAP5 POP PUSH1 0xC0 SWAP1 SWAP4 ADD CALLDATALOAD SWAP3 SWAP2 POP POP JUMP JUMPDEST PUSH1 0x0 DUP1 PUSH1 0x40 DUP4 DUP6 SUB SLT ISZERO PUSH2 0xBDA JUMPI PUSH1 0x0 DUP1 REVERT JUMPDEST PUSH2 0xBE3 DUP4 PUSH2 0xAB7 JUMP JUMPDEST SWAP2 POP PUSH2 0xBF1 PUSH1 0x20 DUP5 ADD PUSH2 0xAB7 JUMP JUMPDEST SWAP1 POP SWAP3 POP SWAP3 SWAP1 POP JUMP JUMPDEST PUSH1 0x1 DUP2 DUP2 SHR SWAP1 DUP3 AND DUP1 PUSH2 0xC0E JUMPI PUSH1 0x7F DUP3 AND SWAP2 POP JUMPDEST PUSH1 0x20 DUP3 LT DUP2 EQ ISZERO PUSH2 0xC2F JUMPI PUSH4 0x4E487B71 PUSH1 0xE0 SHL PUSH1 0x0 MSTORE PUSH1 0x22 PUSH1 0x4 MSTORE PUSH1 0x24 PUSH1 0x0 REVERT JUMPDEST POP SWAP2 SWAP1 POP JUMP JUMPDEST PUSH1 0x1 PUSH1 0x1 PUSH1 0xA0 SHL SUB SWAP4 DUP5 AND DUP2 MSTORE SWAP2 SWAP1 SWAP3 AND PUSH1 0x20 DUP3 ADD MSTORE PUSH1 0x40 DUP2 ADD SWAP2 SWAP1 SWAP2 MSTORE PUSH1 0x60 ADD SWAP1 JUMP JUMPDEST PUSH4 0x4E487B71 PUSH1 0xE0 SHL PUSH1 0x0 MSTORE PUSH1 0x11 PUSH1 0x4 MSTORE PUSH1 0x24 PUSH1 0x0 REVERT JUMPDEST PUSH1 0x0 DUP3 DUP3 LT ISZERO PUSH2 0xC81 JUMPI PUSH2 0xC81 PUSH2 0xC59 JUMP JUMPDEST POP SUB SWAP1 JUMP JUMPDEST PUSH1 0x0 DUP3 NOT DUP3 GT ISZERO PUSH2 0xC99 JUMPI PUSH2 0xC99 PUSH2 0xC59 JUMP JUMPDEST POP ADD SWAP1 JUMP JUMPDEST PUSH1 0x0 PUSH1 0x0 NOT DUP3 EQ ISZERO PUSH2 0xCB2 JUMPI PUSH2 0xCB2 PUSH2 0xC59 JUMP JUMPDEST POP PUSH1 0x1 ADD SWAP1 JUMP INVALID LOG2 PUSH5 0x6970667358 0x22 SLT KECCAK256 0xA7 PUSH18 0x4B8729DDE042F762A811D5B9632C28E508DF CODECOPY 0x5E EXTCODECOPY 0x4E PUSH5 0x596538A7D6 0xEF 0xD3 PUSH5 0x736F6C6343 STOP ADDMOD SIGNEXTEND STOP CALLER "
        },
        "methodIdentifiers": {
          "DOMAIN_SEPARATOR()": "3644e515",
          "PERMIT_TYPEHASH()": "30adf81f",
          "allowance(address,address)": "dd62ed3e",
          "anyswapRouter()": "9a3eb6e9",
          "approve(address,uint256)": "095ea7b3",
          "balance(address)": "e3d670d7",
          "balanceOf(address)": "70a08231",
          "burn(address,uint256)": "9dc29fac",
          "changeVault(address)": "60e232a9",
          "claimFees()": "d294f093",
          "decimals()": "313ce567",
          "mint(address,uint256)": "40c10f19",
          "name()": "06fdde03",
          "nonces(address)": "7ecebe00",
          "pendingAnyswapRouter()": "0ed1713a",
          "pendingRouterDelay()": "db5de796",
          "permit(address,address,uint256,uint256,uint8,bytes32,bytes32)": "d505accf",
          "symbol()": "95d89b41",
          "token()": "fc0c546a",
          "totalSupply()": "18160ddd",
          "transfer(address,uint256)": "a9059cbb",
          "transferFrom(address,address,uint256)": "23b872dd"
        }
      },
      "storageLayout": {
        "storage": [
          {
            "astId": 3,
            "contract": "contracts/test/Token.sol:Token",
            "label": "symbol",
            "offset": 0,
            "slot": "0",
            "type": "t_string_storage"
          },
          {
            "astId": 5,
            "contract": "contracts/test/Token.sol:Token",
            "label": "name",
            "offset": 0,
            "slot": "1",
            "type": "t_string_storage"
          },
          {
            "astId": 7,
            "contract": "contracts/test/Token.sol:Token",
            "label": "decimals",
            "offset": 0,
            "slot": "2",
            "type": "t_uint256"
          },
          {
            "astId": 10,
            "contract": "contracts/test/Token.sol:Token",
            "label": "totalSupply",
            "offset": 0,
            "slot": "3",
            "type": "t_uint256"
          },
          {
            "astId": 14,
            "contract": "contracts/test/Token.sol:Token",
            "label": "balanceOf",
            "offset": 0,
            "slot": "4",
            "type": "t_mapping(t_address,t_uint256)"
          },
          {
            "astId": 20,
            "contract": "contracts/test/Token.sol:Token",
            "label": "allowance",
            "offset": 0,
            "slot": "5",
            "type": "t_mapping(t_address,t_mapping(t_address,t_uint256))"
          },
          {
            "astId": 46,
            "contract": "contracts/test/Token.sol:Token",
            "label": "DOMAIN_SEPARATOR",
            "offset": 0,
            "slot": "6",
            "type": "t_bytes32"
          },
          {
            "astId": 53,
            "contract": "contracts/test/Token.sol:Token",
            "label": "nonces",
            "offset": 0,
            "slot": "7",
            "type": "t_mapping(t_address,t_uint256)"
          },
          {
            "astId": 55,
            "contract": "contracts/test/Token.sol:Token",
            "label": "anyswapRouter",
            "offset": 0,
            "slot": "8",
            "type": "t_address"
          },
          {
            "astId": 57,
            "contract": "contracts/test/Token.sol:Token",
            "label": "pendingAnyswapRouter",
            "offset": 0,
            "slot": "9",
            "type": "t_address"
          },
          {
            "astId": 59,
            "contract": "contracts/test/Token.sol:Token",
            "label": "pendingRouterDelay",
            "offset": 0,
            "slot": "10",
            "type": "t_uint256"
          }
        ],
        "types": {
          "t_address": {
            "encoding": "inplace",
            "label": "address",
            "numberOfBytes": "20"
          },
          "t_bytes32": {
            "encoding": "inplace",
            "label": "bytes32",
            "numberOfBytes": "32"
          },
          "t_mapping(t_address,t_mapping(t_address,t_uint256))": {
            "encoding": "mapping",
            "key": "t_address",
            "label": "mapping(address => mapping(address => uint256))",
            "numberOfBytes": "32",
            "value": "t_mapping(t_address,t_uint256)"
          },
          "t_mapping(t_address,t_uint256)": {
            "encoding": "mapping",
            "key": "t_address",
            "label": "mapping(address => uint256)",
            "numberOfBytes": "32",
            "value": "t_uint256"
          },
          "t_string_storage": {
            "encoding": "bytes",
            "label": "string",
            "numberOfBytes": "32"
          },
          "t_uint256": {
            "encoding": "inplace",
            "label": "uint256",
            "numberOfBytes": "32"
          }
        }
      }
    }
  }
}