{
  "contracts/test/ve_dist_test.sol": {
    "ve_dist_test": {
      "abi": [
        {
          "inputs": [],
          "name": "checkpoint_token",
          "outputs": [],
          "stateMutability": "nonpayable",
          "type": "function"
        },
        {
          "inputs": [],
          "name": "checkpoint_total_supply",
          "outputs": [],
          "stateMutability": "nonpayable",
          "type": "function"
        }
      ],
      "evm": {
        "bytecode": {
          "linkReferences": {},
          "object": "6080604052348015600f57600080fd5b50606f80601d6000396000f3fe6080604052348015600f57600080fd5b506004361060325760003560e01c8063811a40fe146037578063b21ed502146037575b600080fd5b00fea26469706673582212202b7085cbac36be262acfe680f2762e51e374a1bfd7a79ba96eb53c9787ff060364736f6c634300080b0033",
          "opcodes": "PUSH1 0x80 PUSH1 0x40 MSTORE CALLVALUE DUP1 ISZERO PUSH1 0xF JUMPI PUSH1 0x0 DUP1 REVERT JUMPDEST POP PUSH1 0x6F DUP1 PUSH1 0x1D PUSH1 0x0 CODECOPY PUSH1 0x0 RETURN INVALID PUSH1 0x80 PUSH1 0x40 MSTORE CALLVALUE DUP1 ISZERO PUSH1 0xF JUMPI PUSH1 0x0 DUP1 REVERT JUMPDEST POP PUSH1 0x4 CALLDATASIZE LT PUSH1 0x32 JUMPI PUSH1 0x0 CALLDATALOAD PUSH1 0xE0 SHR DUP1 PUSH4 0x811A40FE EQ PUSH1 0x37 JUMPI DUP1 PUSH4 0xB21ED502 EQ PUSH1 0x37 JUMPI JUMPDEST PUSH1 0x0 DUP1 REVERT JUMPDEST STOP INVALID LOG2 PUSH5 0x6970667358 0x22 SLT KECCAK256 0x2B PUSH17 0x85CBAC36BE262ACFE680F2762E51E374A1 0xBF 0xD7 0xA7 SWAP12 0xA9 PUSH15 0xB53C9787FF060364736F6C63430008 SIGNEXTEND STOP CALLER "
        },
        "methodIdentifiers": {
          "checkpoint_token()": "811a40fe",
          "checkpoint_total_supply()": "b21ed502"
        }
      },
      "storageLayout": {
        "storage": [],
        "types": null
      }
    }
  }
}