{
  "contracts/test/ve_test.sol": {
    "ve_test": {
      "abi": [
        {
          "inputs": [
            {
              "internalType": "address",
              "name": "_token",
              "type": "address"
            }
          ],
          "stateMutability": "nonpayable",
          "type": "constructor"
        },
        {
          "inputs": [
            {
              "internalType": "uint256",
              "name": "tokenId",
              "type": "uint256"
            }
          ],
          "name": "balanceOfNFT",
          "outputs": [
            {
              "internalType": "uint256",
              "name": "",
              "type": "uint256"
            }
          ],
          "stateMutability": "view",
          "type": "function"
        },
        {
          "inputs": [
            {
              "internalType": "uint256",
              "name": "amount",
              "type": "uint256"
            },
            {
              "internalType": "uint256",
              "name": "duration",
              "type": "uint256"
            }
          ],
          "name": "create_lock",
          "outputs": [],
          "stateMutability": "nonpayable",
          "type": "function"
        },
        {
          "inputs": [
            {
              "internalType": "address",
              "name": "owner",
              "type": "address"
            },
            {
              "internalType": "uint256",
              "name": "_tokenId",
              "type": "uint256"
            }
          ],
          "name": "isApprovedOrOwner",
          "outputs": [
            {
              "internalType": "bool",
              "name": "",
              "type": "bool"
            }
          ],
          "stateMutability": "view",
          "type": "function"
        },
        {
          "inputs": [],
          "name": "owner",
          "outputs": [
            {
              "internalType": "address",
              "name": "",
              "type": "address"
            }
          ],
          "stateMutability": "view",
          "type": "function"
        },
        {
          "inputs": [
            {
              "internalType": "uint256",
              "name": "",
              "type": "uint256"
            }
          ],
          "name": "ownerOf",
          "outputs": [
            {
              "internalType": "address",
              "name": "",
              "type": "address"
            }
          ],
          "stateMutability": "view",
          "type": "function"
        },
        {
          "inputs": [],
          "name": "token",
          "outputs": [
            {
              "internalType": "address",
              "name": "",
              "type": "address"
            }
          ],
          "stateMutability": "view",
          "type": "function"
        },
        {
          "inputs": [],
          "name": "totalSupply",
          "outputs": [
            {
              "internalType": "uint256",
              "name": "",
              "type": "uint256"
            }
          ],
          "stateMutability": "view",
          "type": "function"
        }
      ],
      "evm": {
        "bytecode": {
          "linkReferences": {},
          "object": "60c060405260008055600060035534801561001957600080fd5b5060405161037a38038061037a8339810160408190526100389161004d565b6001600160a01b03166080523360a05261007d565b60006020828403121561005f57600080fd5b81516001600160a01b038116811461007657600080fd5b9392505050565b60805160a0516102d86100a2600039600061011f0152600061015b01526102d86000f3fe608060405234801561001057600080fd5b506004361061007d5760003560e01c806365fc38731161005b57806365fc3873146101055780638da5cb5b1461011a578063e7e242d414610141578063fc0c546a1461015657600080fd5b806318160ddd14610082578063430c20811461009e5780636352211e146100c4575b600080fd5b61008b60005481565b6040519081526020015b60405180910390f35b6100b46100ac3660046101e6565b600192915050565b6040519015158152602001610095565b6100ed6100d236600461021e565b6002602052600090815260409020546001600160a01b031681565b6040516001600160a01b039091168152602001610095565b610118610113366004610237565b61017d565b005b6100ed7f000000000000000000000000000000000000000000000000000000000000000081565b61008b61014f36600461021e565b5060005490565b6100ed7f000000000000000000000000000000000000000000000000000000000000000081565b81600160006003600081546101919061026f565b91829055508152602080820192909252604090810160009081209390935560035483526002909152812080546001600160a01b03191633179055805483919081906101dd90849061028a565b90915550505050565b600080604083850312156101f957600080fd5b82356001600160a01b038116811461021057600080fd5b946020939093013593505050565b60006020828403121561023057600080fd5b5035919050565b6000806040838503121561024a57600080fd5b50508035926020909101359150565b634e487b7160e01b600052601160045260246000fd5b600060001982141561028357610283610259565b5060010190565b6000821982111561029d5761029d610259565b50019056fea264697066735822122017d8ebbcba3d592f4e3ba2a6dde26e7e007b686fe7d7aaeecd9ee355b11f04b564736f6c634300080b0033",
          "opcodes": "PUSH1 0xC0 PUSH1 0x40 MSTORE PUSH1 0x0 DUP1 SSTORE PUSH1 0x0 PUSH1 0x3 SSTORE CALLVALUE DUP1 ISZERO PUSH2 0x19 JUMPI PUSH1 0x0 DUP1 REVERT JUMPDEST POP PUSH1 0x40 MLOAD PUSH2 0x37A CODESIZE SUB DUP1 PUSH2 0x37A DUP4 CODECOPY DUP2 ADD PUSH1 0x40 DUP2 SWAP1 MSTORE PUSH2 0x38 SWAP2 PUSH2 0x4D JUMP JUMPDEST PUSH1 0x1 PUSH1 0x1 PUSH1 0xA0 SHL SUB AND PUSH1 0x80 MSTORE CALLER PUSH1 0xA0 MSTORE PUSH2 0x7D JUMP JUMPDEST PUSH1 0x0 PUSH1 0x20 DUP3 DUP5 SUB SLT ISZERO PUSH2 0x5F JUMPI PUSH1 0x0 DUP1 REVERT JUMPDEST DUP2 MLOAD PUSH1 0x1 PUSH1 0x1 PUSH1 0xA0 SHL SUB DUP2 AND DUP2 EQ PUSH2 0x76 JUMPI PUSH1 0x0 DUP1 REVERT JUMPDEST SWAP4 SWAP3 POP POP POP JUMP JUMPDEST PUSH1 0x80 MLOAD PUSH1 0xA0 MLOAD PUSH2 0x2D8 PUSH2 0xA2 PUSH1 0x0 CODECOPY PUSH1 0x0 PUSH2 0x11F ADD MSTORE PUSH1 0x0 PUSH2 0x15B ADD MSTORE PUSH2 0x2D8 PUSH1 0x0 RETURN INVALID PUSH1 0x80 PUSH1 0x40 MSTORE CALLVALUE DUP1 ISZERO PUSH2 0x10 JUMPI PUSH1 0x0 DUP1 REVERT JUMPDEST POP PUSH1 0x4 CALLDATASIZE LT PUSH2 0x7D JUMPI PUSH1 0x0 CALLDATALOAD PUSH1 0xE0 SHR DUP1 PUSH4 0x65FC3873 GT PUSH2 0x5B JUMPI DUP1 PUSH4 0x65FC3873 EQ PUSH2 0x105 JUMPI DUP1 PUSH4 0x8DA5CB5B EQ PUSH2 0x11A JUMPI DUP1 PUSH4 0xE7E242D4 EQ PUSH2 0x141 JUMPI DUP1 PUSH4 0xFC0C546A EQ PUSH2 0x156 JUMPI PUSH1 0x0 DUP1 REVERT JUMPDEST DUP1 PUSH4 0x18160DDD EQ PUSH2 0x82 JUMPI DUP1 PUSH4 0x430C2081 EQ PUSH2 0x9E JUMPI DUP1 PUSH4 0x6352211E EQ PUSH2 0xC4 JUMPI JUMPDEST PUSH1 0x0 DUP1 REVERT JUMPDEST PUSH2 0x8B PUSH1 0x0 SLOAD DUP2 JUMP JUMPDEST PUSH1 0x40 MLOAD SWAP1 DUP2 MSTORE PUSH1 0x20 ADD JUMPDEST PUSH1 0x40 MLOAD DUP1 SWAP2 SUB SWAP1 RETURN JUMPDEST PUSH2 0xB4 PUSH2 0xAC CALLDATASIZE PUSH1 0x4 PUSH2 0x1E6 JUMP JUMPDEST PUSH1 0x1 SWAP3 SWAP2 POP POP JUMP JUMPDEST PUSH1 0x40 MLOAD SWAP1 ISZERO ISZERO DUP2 MSTORE PUSH1 0x20 ADD PUSH2 0x95 JUMP JUMPDEST PUSH2 0xED PUSH2 0xD2 CALLDATASIZE PUSH1 0x4 PUSH2 0x21E JUMP JUMPDEST PUSH1 0x2 PUSH1 0x20 MSTORE PUSH1 0x0 SWAP1 DUP2 MSTORE PUSH1 0x40 SWAP1 KECCAK256 SLOAD PUSH1 0x1 PUSH1 0x1 PUSH1 0xA0 SHL SUB AND DUP2 JUMP JUMPDEST PUSH1 0x40 MLOAD PUSH1 0x1 PUSH1 0x1 PUSH1 0xA0 SHL SUB SWAP1 SWAP2 AND DUP2 MSTORE PUSH1 0x20 ADD PUSH2 0x95 JUMP JUMPDEST PUSH2 0x118 PUSH2 0x113 CALLDATASIZE PUSH1 0x4 PUSH2 0x237 JUMP JUMPDEST PUSH2 0x17D JUMP JUMPDEST STOP JUMPDEST PUSH2 0xED PUSH32 0x0 DUP2 JUMP JUMPDEST PUSH2 0x8B PUSH2 0x14F CALLDATASIZE PUSH1 0x4 PUSH2 0x21E JUMP JUMPDEST POP PUSH1 0x0 SLOAD SWAP1 JUMP JUMPDEST PUSH2 0xED PUSH32 0x0 DUP2 JUMP JUMPDEST DUP2 PUSH1 0x1 PUSH1 0x0 PUSH1 0x3 PUSH1 0x0 DUP2 SLOAD PUSH2 0x191 SWAP1 PUSH2 0x26F JUMP JUMPDEST SWAP2 DUP3 SWAP1 SSTORE POP DUP2 MSTORE PUSH1 0x20 DUP1 DUP3 ADD SWAP3 SWAP1 SWAP3 MSTORE PUSH1 0x40 SWAP1 DUP2 ADD PUSH1 0x0 SWAP1 DUP2 KECCAK256 SWAP4 SWAP1 SWAP4 SSTORE PUSH1 0x3 SLOAD DUP4 MSTORE PUSH1 0x2 SWAP1 SWAP2 MSTORE DUP2 KECCAK256 DUP1 SLOAD PUSH1 0x1 PUSH1 0x1 PUSH1 0xA0 SHL SUB NOT AND CALLER OR SWAP1 SSTORE DUP1 SLOAD DUP4 SWAP2 SWAP1 DUP2 SWAP1 PUSH2 0x1DD SWAP1 DUP5 SWAP1 PUSH2 0x28A JUMP JUMPDEST SWAP1 SWAP2 SSTORE POP POP POP POP JUMP JUMPDEST PUSH1 0x0 DUP1 PUSH1 0x40 DUP4 DUP6 SUB SLT ISZERO PUSH2 0x1F9 JUMPI PUSH1 0x0 DUP1 REVERT JUMPDEST DUP3 CALLDATALOAD PUSH1 0x1 PUSH1 0x1 PUSH1 0xA0 SHL SUB DUP2 AND DUP2 EQ PUSH2 0x210 JUMPI PUSH1 0x0 DUP1 REVERT JUMPDEST SWAP5 PUSH1 0x20 SWAP4 SWAP1 SWAP4 ADD CALLDATALOAD SWAP4 POP POP POP JUMP JUMPDEST PUSH1 0x0 PUSH1 0x20 DUP3 DUP5 SUB SLT ISZERO PUSH2 0x230 JUMPI PUSH1 0x0 DUP1 REVERT JUMPDEST POP CALLDATALOAD SWAP2 SWAP1 POP JUMP JUMPDEST PUSH1 0x0 DUP1 PUSH1 0x40 DUP4 DUP6 SUB SLT ISZERO PUSH2 0x24A JUMPI PUSH1 0x0 DUP1 REVERT JUMPDEST POP POP DUP1 CALLDATALOAD SWAP3 PUSH1 0x20 SWAP1 SWAP2 ADD CALLDATALOAD SWAP2 POP JUMP JUMPDEST PUSH4 0x4E487B71 PUSH1 0xE0 SHL PUSH1 0x0 MSTORE PUSH1 0x11 PUSH1 0x4 MSTORE PUSH1 0x24 PUSH1 0x0 REVERT JUMPDEST PUSH1 0x0 PUSH1 0x0 NOT DUP3 EQ ISZERO PUSH2 0x283 JUMPI PUSH2 0x283 PUSH2 0x259 JUMP JUMPDEST POP PUSH1 0x1 ADD SWAP1 JUMP JUMPDEST PUSH1 0x0 DUP3 NOT DUP3 GT ISZERO PUSH2 0x29D JUMPI PUSH2 0x29D PUSH2 0x259 JUMP JUMPDEST POP ADD SWAP1 JUMP INVALID LOG2 PUSH5 0x6970667358 0x22 SLT KECCAK256 OR 0xD8 0xEB 0xBC 0xBA RETURNDATASIZE MSIZE 0x2F 0x4E EXTCODESIZE LOG2 0xA6 0xDD 0xE2 PUSH15 0x7E007B686FE7D7AAEECD9EE355B11F DIV 0xB5 PUSH5 0x736F6C6343 STOP ADDMOD SIGNEXTEND STOP CALLER "
        },
        "methodIdentifiers": {
          "balanceOfNFT(uint256)": "e7e242d4",
          "create_lock(uint256,uint256)": "65fc3873",
          "isApprovedOrOwner(address,uint256)": "430c2081",
          "owner()": "8da5cb5b",
          "ownerOf(uint256)": "6352211e",
          "token()": "fc0c546a",
          "totalSupply()": "18160ddd"
        }
      },
      "storageLayout": {
        "storage": [
          {
            "astId": 4,
            "contract": "contracts/test/ve_test.sol:ve_test",
            "label": "totalSupply",
            "offset": 0,
            "slot": "0",
            "type": "t_uint256"
          },
          {
            "astId": 12,
            "contract": "contracts/test/ve_test.sol:ve_test",
            "label": "balances",
            "offset": 0,
            "slot": "1",
            "type": "t_mapping(t_uint256,t_uint256)"
          },
          {
            "astId": 16,
            "contract": "contracts/test/ve_test.sol:ve_test",
            "label": "ownerOf",
            "offset": 0,
            "slot": "2",
            "type": "t_mapping(t_uint256,t_address)"
          },
          {
            "astId": 34,
            "contract": "contracts/test/ve_test.sol:ve_test",
            "label": "tokenId",
            "offset": 0,
            "slot": "3",
            "type": "t_uint256"
          }
        ],
        "types": {
          "t_address": {
            "encoding": "inplace",
            "label": "address",
            "numberOfBytes": "20"
          },
          "t_mapping(t_uint256,t_address)": {
            "encoding": "mapping",
            "key": "t_uint256",
            "label": "mapping(uint256 => address)",
            "numberOfBytes": "32",
            "value": "t_address"
          },
          "t_mapping(t_uint256,t_uint256)": {
            "encoding": "mapping",
            "key": "t_uint256",
            "label": "mapping(uint256 => uint256)",
            "numberOfBytes": "32",
            "value": "t_uint256"
          },
          "t_uint256": {
            "encoding": "inplace",
            "label": "uint256",
            "numberOfBytes": "32"
          }
        }
      }
    }
  }
}