{
  "contracts/lib/SolidlyLibrary.sol": {
    "SolidlyLibrary": {
      "abi": [
        {
          "inputs": [
            {
              "internalType": "address",
              "name": "_router",
              "type": "address"
            }
          ],
          "stateMutability": "nonpayable",
          "type": "constructor"
        },
        {
          "inputs": [
            {
              "internalType": "uint256",
              "name": "amountIn",
              "type": "uint256"
            },
            {
              "internalType": "address",
              "name": "tokenIn",
              "type": "address"
            },
            {
              "internalType": "address",
              "name": "tokenOut",
              "type": "address"
            },
            {
              "internalType": "bool",
              "name": "stable",
              "type": "bool"
            }
          ],
          "name": "getAmountOut",
          "outputs": [
            {
              "internalType": "uint256",
              "name": "",
              "type": "uint256"
            }
          ],
          "stateMutability": "view",
          "type": "function"
        },
        {
          "inputs": [
            {
              "internalType": "address",
              "name": "tokenIn",
              "type": "address"
            },
            {
              "internalType": "address",
              "name": "tokenOut",
              "type": "address"
            },
            {
              "internalType": "bool",
              "name": "stable",
              "type": "bool"
            }
          ],
          "name": "getMinimumValue",
          "outputs": [
            {
              "internalType": "uint256",
              "name": "",
              "type": "uint256"
            },
            {
              "internalType": "uint256",
              "name": "",
              "type": "uint256"
            },
            {
              "internalType": "uint256",
              "name": "",
              "type": "uint256"
            }
          ],
          "stateMutability": "view",
          "type": "function"
        },
        {
          "inputs": [
            {
              "internalType": "address",
              "name": "tokenIn",
              "type": "address"
            },
            {
              "internalType": "address",
              "name": "tokenOut",
              "type": "address"
            },
            {
              "internalType": "bool",
              "name": "stable",
              "type": "bool"
            }
          ],
          "name": "getSample",
          "outputs": [
            {
              "internalType": "uint256",
              "name": "",
              "type": "uint256"
            }
          ],
          "stateMutability": "view",
          "type": "function"
        },
        {
          "inputs": [
            {
              "internalType": "uint256",
              "name": "amountIn",
              "type": "uint256"
            },
            {
              "internalType": "address",
              "name": "tokenIn",
              "type": "address"
            },
            {
              "internalType": "address",
              "name": "tokenOut",
              "type": "address"
            },
            {
              "internalType": "bool",
              "name": "stable",
              "type": "bool"
            }
          ],
          "name": "getTradeDiff",
          "outputs": [
            {
              "internalType": "uint256",
              "name": "a",
              "type": "uint256"
            },
            {
              "internalType": "uint256",
              "name": "b",
              "type": "uint256"
            }
          ],
          "stateMutability": "view",
          "type": "function"
        },
        {
          "inputs": [
            {
              "internalType": "uint256",
              "name": "amountIn",
              "type": "uint256"
            },
            {
              "internalType": "address",
              "name": "tokenIn",
              "type": "address"
            },
            {
              "internalType": "address",
              "name": "pair",
              "type": "address"
            }
          ],
          "name": "getTradeDiff",
          "outputs": [
            {
              "internalType": "uint256",
              "name": "a",
              "type": "uint256"
            },
            {
              "internalType": "uint256",
              "name": "b",
              "type": "uint256"
            }
          ],
          "stateMutability": "view",
          "type": "function"
        }
      ],
      "evm": {
        "bytecode": {
          "linkReferences": {},
          "object": "608060405234801561001057600080fd5b50604051610f8d380380610f8d83398101604081905261002f91610054565b600080546001600160a01b0319166001600160a01b0392909216919091179055610084565b60006020828403121561006657600080fd5b81516001600160a01b038116811461007d57600080fd5b9392505050565b610efa806100936000396000f3fe608060405234801561001057600080fd5b50600436106100575760003560e01c8063525007331461005c578063865db5e21461008f578063be3b428e146100b7578063da214231146100d8578063ec323c00146100eb575b600080fd5b61006f61006a366004610c99565b6100fe565b604080519384526020840192909252908201526060015b60405180910390f35b6100a261009d366004610ce4565b61024a565b60408051928352602083019190915201610086565b6100ca6100c5366004610c99565b6103f4565b604051908152602001610086565b6100ca6100e6366004610ce4565b61056e565b6100a26100f9366004610d37565b61069a565b6000805460405163260f701f60e11b815282918291829182918291829182916001600160a01b031690634c1ee03e9061013f908e908e908e90600401610d6e565b602060405180830381865afa15801561015c573d6000803e3d6000fd5b505050506040513d601f19601f820116820180604052508101906101809190610d92565b6001600160a01b031663392f37e96040518163ffffffff1660e01b815260040160e060405180830381865afa1580156101bd573d6000803e3d6000fd5b505050506040513d601f19601f820116820180604052508101906101e19190610daf565b5095505094509450945094506000816001600160a01b03168c6001600160a01b03161461022257836102138785610e39565b61021d9190610e58565b610237565b8261022d8686610e39565b6102379190610e58565b9c939b5091995091975050505050505050565b6000805460405163260f701f60e11b815282918291829182918291829182916001600160a01b031690634c1ee03e9061028b908e908e908e90600401610d6e565b602060405180830381865afa1580156102a8573d6000803e3d6000fd5b505050506040513d601f19601f820116820180604052508101906102cc9190610d92565b6001600160a01b031663392f37e96040518163ffffffff1660e01b815260040160e060405180830381865afa158015610309573d6000803e3d6000fd5b505050506040513d601f19601f8201168201806040525081019061032d9190610daf565b509550955095509550955095506000816001600160a01b03168c6001600160a01b03161461036f57846103608886610e39565b61036a9190610e58565b610384565b8361037a8787610e39565b6103849190610e58565b905080610397828e8888878d8d8b6107ce565b6103a990670de0b6b3a7640000610e39565b6103b39190610e58565b98508c6103c68e8e8888878d8d8b6107ce565b6103d890670de0b6b3a7640000610e39565b6103e29190610e58565b97505050505050505094509492505050565b6000805460405163260f701f60e11b81528291829182918291829182916001600160a01b0390911690634c1ee03e90610435908d908d908d90600401610d6e565b602060405180830381865afa158015610452573d6000803e3d6000fd5b505050506040513d601f19601f820116820180604052508101906104769190610d92565b6001600160a01b031663392f37e96040518163ffffffff1660e01b815260040160e060405180830381865afa1580156104b3573d6000803e3d6000fd5b505050506040513d601f19601f820116820180604052508101906104d79190610daf565b509550955095509550955095506000816001600160a01b03168b6001600160a01b031614610519578461050a8886610e39565b6105149190610e58565b61052e565b836105248787610e39565b61052e9190610e58565b905080610541828d8888878d8d8b6107ce565b61055390670de0b6b3a7640000610e39565b61055d9190610e58565b9750505050505050505b9392505050565b6000805460405163260f701f60e11b81528291829182918291829182916001600160a01b0390911690634c1ee03e906105af908d908d908d90600401610d6e565b602060405180830381865afa1580156105cc573d6000803e3d6000fd5b505050506040513d601f19601f820116820180604052508101906105f09190610d92565b6001600160a01b031663392f37e96040518163ffffffff1660e01b815260040160e060405180830381865afa15801561062d573d6000803e3d6000fd5b505050506040513d601f19601f820116820180604052508101906106519190610daf565b509550955095509550955095508a61066f8c8c8787868c8c8a6107ce565b61068190670de0b6b3a7640000610e39565b61068b9190610e58565b9b9a5050505050505050505050565b600080600080600080600080886001600160a01b031663392f37e96040518163ffffffff1660e01b815260040160e060405180830381865afa1580156106e4573d6000803e3d6000fd5b505050506040513d601f19601f820116820180604052508101906107089190610daf565b509550955095509550955095506000816001600160a01b03168b6001600160a01b03161461074a578461073b8886610e39565b6107459190610e58565b61075f565b836107558787610e39565b61075f9190610e58565b905080610772828d8888878d8d8b6107ce565b61078490670de0b6b3a7640000610e39565b61078e9190610e58565b98508b6107a18d8d8888878d8d8b6107ce565b6107b390670de0b6b3a7640000610e39565b6107bd9190610e58565b975050505050505050935093915050565b600081156109145760006107e5888885888861096e565b9050846107fa89670de0b6b3a7640000610e39565b6108049190610e58565b97508361081988670de0b6b3a7640000610e39565b6108239190610e58565b9650600080876001600160a01b03168b6001600160a01b03161461084857888a61084b565b89895b91509150876001600160a01b03168b6001600160a01b03161461088a578561087b8d670de0b6b3a7640000610e39565b6108859190610e58565b6108a7565b8661089d8d670de0b6b3a7640000610e39565b6108a79190610e58565b9b5060006108bf6108b8848f610e7a565b8584610a5f565b6108c99083610e92565b9050670de0b6b3a7640000896001600160a01b03168d6001600160a01b0316146108f357886108f5565b875b6108ff9083610e39565b6109099190610e58565b945050505050610962565b600080866001600160a01b03168a6001600160a01b03161461093757878961093a565b88885b90925090506109498b83610e7a565b610953828d610e39565b61095d9190610e58565b925050505b98975050505050505050565b60008315610a495760008361098b88670de0b6b3a7640000610e39565b6109959190610e58565b90506000836109ac88670de0b6b3a7640000610e39565b6109b69190610e58565b90506000670de0b6b3a76400006109cd8385610e39565b6109d79190610e58565b90506000670de0b6b3a76400006109ee8480610e39565b6109f89190610e58565b670de0b6b3a7640000610a0b8680610e39565b610a159190610e58565b610a1f9190610e7a565b9050670de0b6b3a7640000610a348284610e39565b610a3e9190610e58565b945050505050610a56565b610a538587610e39565b90505b95945050505050565b6000805b60ff811015610b6557826000610a798783610b6e565b905085811015610ac9576000610a8f8887610c0b565b610a998389610e92565b610aab90670de0b6b3a7640000610e39565b610ab59190610e58565b9050610ac18187610e7a565b955050610b0b565b6000610ad58887610c0b565b610adf8884610e92565b610af190670de0b6b3a7640000610e39565b610afb9190610e58565b9050610b078187610e92565b9550505b81851115610b34576001610b1f8387610e92565b11610b2f57849350505050610567565b610b50565b6001610b408684610e92565b11610b5057849350505050610567565b50508080610b5d90610ea9565b915050610a63565b50909392505050565b6000670de0b6b3a764000082818581610b878280610e39565b610b919190610e58565b610b9b9190610e39565b610ba59190610e58565b610baf9190610e39565b610bb99190610e58565b670de0b6b3a7640000808481610bcf8280610e39565b610bd99190610e58565b610be39190610e39565b610bed9190610e58565b610bf79086610e39565b610c019190610e58565b6105679190610e7a565b6000670de0b6b3a76400008381610c228280610e39565b610c2c9190610e58565b610c369190610e39565b610c409190610e58565b670de0b6b3a764000080610c548580610e39565b610c5e9190610e58565b610c69866003610e39565b610bf79190610e39565b6001600160a01b0381168114610c8857600080fd5b50565b8015158114610c8857600080fd5b600080600060608486031215610cae57600080fd5b8335610cb981610c73565b92506020840135610cc981610c73565b91506040840135610cd981610c8b565b809150509250925092565b60008060008060808587031215610cfa57600080fd5b843593506020850135610d0c81610c73565b92506040850135610d1c81610c73565b91506060850135610d2c81610c8b565b939692955090935050565b600080600060608486031215610d4c57600080fd5b833592506020840135610d5e81610c73565b91506040840135610cd981610c73565b6001600160a01b039384168152919092166020820152901515604082015260600190565b600060208284031215610da457600080fd5b815161056781610c73565b600080600080600080600060e0888a031215610dca57600080fd5b875196506020880151955060408801519450606088015193506080880151610df181610c8b565b60a0890151909350610e0281610c73565b60c0890151909250610e1381610c73565b8091505092959891949750929550565b634e487b7160e01b600052601160045260246000fd5b6000816000190483118215151615610e5357610e53610e23565b500290565b600082610e7557634e487b7160e01b600052601260045260246000fd5b500490565b60008219821115610e8d57610e8d610e23565b500190565b600082821015610ea457610ea4610e23565b500390565b6000600019821415610ebd57610ebd610e23565b506001019056fea26469706673582212205c272deaa2660f37bc845f91372c883ae15764e34aa136b339da18f2643c14ea64736f6c634300080b0033",
          "opcodes": "PUSH1 0x80 PUSH1 0x40 MSTORE CALLVALUE DUP1 ISZERO PUSH2 0x10 JUMPI PUSH1 0x0 DUP1 REVERT JUMPDEST POP PUSH1 0x40 MLOAD PUSH2 0xF8D CODESIZE SUB DUP1 PUSH2 0xF8D DUP4 CODECOPY DUP2 ADD PUSH1 0x40 DUP2 SWAP1 MSTORE PUSH2 0x2F SWAP2 PUSH2 0x54 JUMP JUMPDEST PUSH1 0x0 DUP1 SLOAD PUSH1 0x1 PUSH1 0x1 PUSH1 0xA0 SHL SUB NOT AND PUSH1 0x1 PUSH1 0x1 PUSH1 0xA0 SHL SUB SWAP3 SWAP1 SWAP3 AND SWAP2 SWAP1 SWAP2 OR SWAP1 SSTORE PUSH2 0x84 JUMP JUMPDEST PUSH1 0x0 PUSH1 0x20 DUP3 DUP5 SUB SLT ISZERO PUSH2 0x66 JUMPI PUSH1 0x0 DUP1 REVERT JUMPDEST DUP2 MLOAD PUSH1 0x1 PUSH1 0x1 PUSH1 0xA0 SHL SUB DUP2 AND DUP2 EQ PUSH2 0x7D JUMPI PUSH1 0x0 DUP1 REVERT JUMPDEST SWAP4 SWAP3 POP POP POP JUMP JUMPDEST PUSH2 0xEFA DUP1 PUSH2 0x93 PUSH1 0x0 CODECOPY PUSH1 0x0 RETURN INVALID PUSH1 0x80 PUSH1 0x40 MSTORE CALLVALUE DUP1 ISZERO PUSH2 0x10 JUMPI PUSH1 0x0 DUP1 REVERT JUMPDEST POP PUSH1 0x4 CALLDATASIZE LT PUSH2 0x57 JUMPI PUSH1 0x0 CALLDATALOAD PUSH1 0xE0 SHR DUP1 PUSH4 0x52500733 EQ PUSH2 0x5C JUMPI DUP1 PUSH4 0x865DB5E2 EQ PUSH2 0x8F JUMPI DUP1 PUSH4 0xBE3B428E EQ PUSH2 0xB7 JUMPI DUP1 PUSH4 0xDA214231 EQ PUSH2 0xD8 JUMPI DUP1 PUSH4 0xEC323C00 EQ PUSH2 0xEB JUMPI JUMPDEST PUSH1 0x0 DUP1 REVERT JUMPDEST PUSH2 0x6F PUSH2 0x6A CALLDATASIZE PUSH1 0x4 PUSH2 0xC99 JUMP JUMPDEST PUSH2 0xFE JUMP JUMPDEST PUSH1 0x40 DUP1 MLOAD SWAP4 DUP5 MSTORE PUSH1 0x20 DUP5 ADD SWAP3 SWAP1 SWAP3 MSTORE SWAP1 DUP3 ADD MSTORE PUSH1 0x60 ADD JUMPDEST PUSH1 0x40 MLOAD DUP1 SWAP2 SUB SWAP1 RETURN JUMPDEST PUSH2 0xA2 PUSH2 0x9D CALLDATASIZE PUSH1 0x4 PUSH2 0xCE4 JUMP JUMPDEST PUSH2 0x24A JUMP JUMPDEST PUSH1 0x40 DUP1 MLOAD SWAP3 DUP4 MSTORE PUSH1 0x20 DUP4 ADD SWAP2 SWAP1 SWAP2 MSTORE ADD PUSH2 0x86 JUMP JUMPDEST PUSH2 0xCA PUSH2 0xC5 CALLDATASIZE PUSH1 0x4 PUSH2 0xC99 JUMP JUMPDEST PUSH2 0x3F4 JUMP JUMPDEST PUSH1 0x40 MLOAD SWAP1 DUP2 MSTORE PUSH1 0x20 ADD PUSH2 0x86 JUMP JUMPDEST PUSH2 0xCA PUSH2 0xE6 CALLDATASIZE PUSH1 0x4 PUSH2 0xCE4 JUMP JUMPDEST PUSH2 0x56E JUMP JUMPDEST PUSH2 0xA2 PUSH2 0xF9 CALLDATASIZE PUSH1 0x4 PUSH2 0xD37 JUMP JUMPDEST PUSH2 0x69A JUMP JUMPDEST PUSH1 0x0 DUP1 SLOAD PUSH1 0x40 MLOAD PUSH4 0x260F701F PUSH1 0xE1 SHL DUP2 MSTORE DUP3 SWAP2 DUP3 SWAP2 DUP3 SWAP2 DUP3 SWAP2 DUP3 SWAP2 DUP3 SWAP2 DUP3 SWAP2 PUSH1 0x1 PUSH1 0x1 PUSH1 0xA0 SHL SUB AND SWAP1 PUSH4 0x4C1EE03E SWAP1 PUSH2 0x13F SWAP1 DUP15 SWAP1 DUP15 SWAP1 DUP15 SWAP1 PUSH1 0x4 ADD PUSH2 0xD6E JUMP JUMPDEST PUSH1 0x20 PUSH1 0x40 MLOAD DUP1 DUP4 SUB DUP2 DUP7 GAS STATICCALL ISZERO DUP1 ISZERO PUSH2 0x15C JUMPI RETURNDATASIZE PUSH1 0x0 DUP1 RETURNDATACOPY RETURNDATASIZE PUSH1 0x0 REVERT JUMPDEST POP POP POP POP PUSH1 0x40 MLOAD RETURNDATASIZE PUSH1 0x1F NOT PUSH1 0x1F DUP3 ADD AND DUP3 ADD DUP1 PUSH1 0x40 MSTORE POP DUP2 ADD SWAP1 PUSH2 0x180 SWAP2 SWAP1 PUSH2 0xD92 JUMP JUMPDEST PUSH1 0x1 PUSH1 0x1 PUSH1 0xA0 SHL SUB AND PUSH4 0x392F37E9 PUSH1 0x40 MLOAD DUP2 PUSH4 0xFFFFFFFF AND PUSH1 0xE0 SHL DUP2 MSTORE PUSH1 0x4 ADD PUSH1 0xE0 PUSH1 0x40 MLOAD DUP1 DUP4 SUB DUP2 DUP7 GAS STATICCALL ISZERO DUP1 ISZERO PUSH2 0x1BD JUMPI RETURNDATASIZE PUSH1 0x0 DUP1 RETURNDATACOPY RETURNDATASIZE PUSH1 0x0 REVERT JUMPDEST POP POP POP POP PUSH1 0x40 MLOAD RETURNDATASIZE PUSH1 0x1F NOT PUSH1 0x1F DUP3 ADD AND DUP3 ADD DUP1 PUSH1 0x40 MSTORE POP DUP2 ADD SWAP1 PUSH2 0x1E1 SWAP2 SWAP1 PUSH2 0xDAF JUMP JUMPDEST POP SWAP6 POP POP SWAP5 POP SWAP5 POP SWAP5 POP SWAP5 POP PUSH1 0x0 DUP2 PUSH1 0x1 PUSH1 0x1 PUSH1 0xA0 SHL SUB AND DUP13 PUSH1 0x1 PUSH1 0x1 PUSH1 0xA0 SHL SUB AND EQ PUSH2 0x222 JUMPI DUP4 PUSH2 0x213 DUP8 DUP6 PUSH2 0xE39 JUMP JUMPDEST PUSH2 0x21D SWAP2 SWAP1 PUSH2 0xE58 JUMP JUMPDEST PUSH2 0x237 JUMP JUMPDEST DUP3 PUSH2 0x22D DUP7 DUP7 PUSH2 0xE39 JUMP JUMPDEST PUSH2 0x237 SWAP2 SWAP1 PUSH2 0xE58 JUMP JUMPDEST SWAP13 SWAP4 SWAP12 POP SWAP2 SWAP10 POP SWAP2 SWAP8 POP POP POP POP POP POP POP POP JUMP JUMPDEST PUSH1 0x0 DUP1 SLOAD PUSH1 0x40 MLOAD PUSH4 0x260F701F PUSH1 0xE1 SHL DUP2 MSTORE DUP3 SWAP2 DUP3 SWAP2 DUP3 SWAP2 DUP3 SWAP2 DUP3 SWAP2 DUP3 SWAP2 DUP3 SWAP2 PUSH1 0x1 PUSH1 0x1 PUSH1 0xA0 SHL SUB AND SWAP1 PUSH4 0x4C1EE03E SWAP1 PUSH2 0x28B SWAP1 DUP15 SWAP1 DUP15 SWAP1 DUP15 SWAP1 PUSH1 0x4 ADD PUSH2 0xD6E JUMP JUMPDEST PUSH1 0x20 PUSH1 0x40 MLOAD DUP1 DUP4 SUB DUP2 DUP7 GAS STATICCALL ISZERO DUP1 ISZERO PUSH2 0x2A8 JUMPI RETURNDATASIZE PUSH1 0x0 DUP1 RETURNDATACOPY RETURNDATASIZE PUSH1 0x0 REVERT JUMPDEST POP POP POP POP PUSH1 0x40 MLOAD RETURNDATASIZE PUSH1 0x1F NOT PUSH1 0x1F DUP3 ADD AND DUP3 ADD DUP1 PUSH1 0x40 MSTORE POP DUP2 ADD SWAP1 PUSH2 0x2CC SWAP2 SWAP1 PUSH2 0xD92 JUMP JUMPDEST PUSH1 0x1 PUSH1 0x1 PUSH1 0xA0 SHL SUB AND PUSH4 0x392F37E9 PUSH1 0x40 MLOAD DUP2 PUSH4 0xFFFFFFFF AND PUSH1 0xE0 SHL DUP2 MSTORE PUSH1 0x4 ADD PUSH1 0xE0 PUSH1 0x40 MLOAD DUP1 DUP4 SUB DUP2 DUP7 GAS STATICCALL ISZERO DUP1 ISZERO PUSH2 0x309 JUMPI RETURNDATASIZE PUSH1 0x0 DUP1 RETURNDATACOPY RETURNDATASIZE PUSH1 0x0 REVERT JUMPDEST POP POP POP POP PUSH1 0x40 MLOAD RETURNDATASIZE PUSH1 0x1F NOT PUSH1 0x1F DUP3 ADD AND DUP3 ADD DUP1 PUSH1 0x40 MSTORE POP DUP2 ADD SWAP1 PUSH2 0x32D SWAP2 SWAP1 PUSH2 0xDAF JUMP JUMPDEST POP SWAP6 POP SWAP6 POP SWAP6 POP SWAP6 POP SWAP6 POP SWAP6 POP PUSH1 0x0 DUP2 PUSH1 0x1 PUSH1 0x1 PUSH1 0xA0 SHL SUB AND DUP13 PUSH1 0x1 PUSH1 0x1 PUSH1 0xA0 SHL SUB AND EQ PUSH2 0x36F JUMPI DUP5 PUSH2 0x360 DUP9 DUP7 PUSH2 0xE39 JUMP JUMPDEST PUSH2 0x36A SWAP2 SWAP1 PUSH2 0xE58 JUMP JUMPDEST PUSH2 0x384 JUMP JUMPDEST DUP4 PUSH2 0x37A DUP8 DUP8 PUSH2 0xE39 JUMP JUMPDEST PUSH2 0x384 SWAP2 SWAP1 PUSH2 0xE58 JUMP JUMPDEST SWAP1 POP DUP1 PUSH2 0x397 DUP3 DUP15 DUP9 DUP9 DUP8 DUP14 DUP14 DUP12 PUSH2 0x7CE JUMP JUMPDEST PUSH2 0x3A9 SWAP1 PUSH8 0xDE0B6B3A7640000 PUSH2 0xE39 JUMP JUMPDEST PUSH2 0x3B3 SWAP2 SWAP1 PUSH2 0xE58 JUMP JUMPDEST SWAP9 POP DUP13 PUSH2 0x3C6 DUP15 DUP15 DUP9 DUP9 DUP8 DUP14 DUP14 DUP12 PUSH2 0x7CE JUMP JUMPDEST PUSH2 0x3D8 SWAP1 PUSH8 0xDE0B6B3A7640000 PUSH2 0xE39 JUMP JUMPDEST PUSH2 0x3E2 SWAP2 SWAP1 PUSH2 0xE58 JUMP JUMPDEST SWAP8 POP POP POP POP POP POP POP POP SWAP5 POP SWAP5 SWAP3 POP POP POP JUMP JUMPDEST PUSH1 0x0 DUP1 SLOAD PUSH1 0x40 MLOAD PUSH4 0x260F701F PUSH1 0xE1 SHL DUP2 MSTORE DUP3 SWAP2 DUP3 SWAP2 DUP3 SWAP2 DUP3 SWAP2 DUP3 SWAP2 DUP3 SWAP2 PUSH1 0x1 PUSH1 0x1 PUSH1 0xA0 SHL SUB SWAP1 SWAP2 AND SWAP1 PUSH4 0x4C1EE03E SWAP1 PUSH2 0x435 SWAP1 DUP14 SWAP1 DUP14 SWAP1 DUP14 SWAP1 PUSH1 0x4 ADD PUSH2 0xD6E JUMP JUMPDEST PUSH1 0x20 PUSH1 0x40 MLOAD DUP1 DUP4 SUB DUP2 DUP7 GAS STATICCALL ISZERO DUP1 ISZERO PUSH2 0x452 JUMPI RETURNDATASIZE PUSH1 0x0 DUP1 RETURNDATACOPY RETURNDATASIZE PUSH1 0x0 REVERT JUMPDEST POP POP POP POP PUSH1 0x40 MLOAD RETURNDATASIZE PUSH1 0x1F NOT PUSH1 0x1F DUP3 ADD AND DUP3 ADD DUP1 PUSH1 0x40 MSTORE POP DUP2 ADD SWAP1 PUSH2 0x476 SWAP2 SWAP1 PUSH2 0xD92 JUMP JUMPDEST PUSH1 0x1 PUSH1 0x1 PUSH1 0xA0 SHL SUB AND PUSH4 0x392F37E9 PUSH1 0x40 MLOAD DUP2 PUSH4 0xFFFFFFFF AND PUSH1 0xE0 SHL DUP2 MSTORE PUSH1 0x4 ADD PUSH1 0xE0 PUSH1 0x40 MLOAD DUP1 DUP4 SUB DUP2 DUP7 GAS STATICCALL ISZERO DUP1 ISZERO PUSH2 0x4B3 JUMPI RETURNDATASIZE PUSH1 0x0 DUP1 RETURNDATACOPY RETURNDATASIZE PUSH1 0x0 REVERT JUMPDEST POP POP POP POP PUSH1 0x40 MLOAD RETURNDATASIZE PUSH1 0x1F NOT PUSH1 0x1F DUP3 ADD AND DUP3 ADD DUP1 PUSH1 0x40 MSTORE POP DUP2 ADD SWAP1 PUSH2 0x4D7 SWAP2 SWAP1 PUSH2 0xDAF JUMP JUMPDEST POP SWAP6 POP SWAP6 POP SWAP6 POP SWAP6 POP SWAP6 POP SWAP6 POP PUSH1 0x0 DUP2 PUSH1 0x1 PUSH1 0x1 PUSH1 0xA0 SHL SUB AND DUP12 PUSH1 0x1 PUSH1 0x1 PUSH1 0xA0 SHL SUB AND EQ PUSH2 0x519 JUMPI DUP5 PUSH2 0x50A DUP9 DUP7 PUSH2 0xE39 JUMP JUMPDEST PUSH2 0x514 SWAP2 SWAP1 PUSH2 0xE58 JUMP JUMPDEST PUSH2 0x52E JUMP JUMPDEST DUP4 PUSH2 0x524 DUP8 DUP8 PUSH2 0xE39 JUMP JUMPDEST PUSH2 0x52E SWAP2 SWAP1 PUSH2 0xE58 JUMP JUMPDEST SWAP1 POP DUP1 PUSH2 0x541 DUP3 DUP14 DUP9 DUP9 DUP8 DUP14 DUP14 DUP12 PUSH2 0x7CE JUMP JUMPDEST PUSH2 0x553 SWAP1 PUSH8 0xDE0B6B3A7640000 PUSH2 0xE39 JUMP JUMPDEST PUSH2 0x55D SWAP2 SWAP1 PUSH2 0xE58 JUMP JUMPDEST SWAP8 POP POP POP POP POP POP POP POP JUMPDEST SWAP4 SWAP3 POP POP POP JUMP JUMPDEST PUSH1 0x0 DUP1 SLOAD PUSH1 0x40 MLOAD PUSH4 0x260F701F PUSH1 0xE1 SHL DUP2 MSTORE DUP3 SWAP2 DUP3 SWAP2 DUP3 SWAP2 DUP3 SWAP2 DUP3 SWAP2 DUP3 SWAP2 PUSH1 0x1 PUSH1 0x1 PUSH1 0xA0 SHL SUB SWAP1 SWAP2 AND SWAP1 PUSH4 0x4C1EE03E SWAP1 PUSH2 0x5AF SWAP1 DUP14 SWAP1 DUP14 SWAP1 DUP14 SWAP1 PUSH1 0x4 ADD PUSH2 0xD6E JUMP JUMPDEST PUSH1 0x20 PUSH1 0x40 MLOAD DUP1 DUP4 SUB DUP2 DUP7 GAS STATICCALL ISZERO DUP1 ISZERO PUSH2 0x5CC JUMPI RETURNDATASIZE PUSH1 0x0 DUP1 RETURNDATACOPY RETURNDATASIZE PUSH1 0x0 REVERT JUMPDEST POP POP POP POP PUSH1 0x40 MLOAD RETURNDATASIZE PUSH1 0x1F NOT PUSH1 0x1F DUP3 ADD AND DUP3 ADD DUP1 PUSH1 0x40 MSTORE POP DUP2 ADD SWAP1 PUSH2 0x5F0 SWAP2 SWAP1 PUSH2 0xD92 JUMP JUMPDEST PUSH1 0x1 PUSH1 0x1 PUSH1 0xA0 SHL SUB AND PUSH4 0x392F37E9 PUSH1 0x40 MLOAD DUP2 PUSH4 0xFFFFFFFF AND PUSH1 0xE0 SHL DUP2 MSTORE PUSH1 0x4 ADD PUSH1 0xE0 PUSH1 0x40 MLOAD DUP1 DUP4 SUB DUP2 DUP7 GAS STATICCALL ISZERO DUP1 ISZERO PUSH2 0x62D JUMPI RETURNDATASIZE PUSH1 0x0 DUP1 RETURNDATACOPY RETURNDATASIZE PUSH1 0x0 REVERT JUMPDEST POP POP POP POP PUSH1 0x40 MLOAD RETURNDATASIZE PUSH1 0x1F NOT PUSH1 0x1F DUP3 ADD AND DUP3 ADD DUP1 PUSH1 0x40 MSTORE POP DUP2 ADD SWAP1 PUSH2 0x651 SWAP2 SWAP1 PUSH2 0xDAF JUMP JUMPDEST POP SWAP6 POP SWAP6 POP SWAP6 POP SWAP6 POP SWAP6 POP SWAP6 POP DUP11 PUSH2 0x66F DUP13 DUP13 DUP8 DUP8 DUP7 DUP13 DUP13 DUP11 PUSH2 0x7CE JUMP JUMPDEST PUSH2 0x681 SWAP1 PUSH8 0xDE0B6B3A7640000 PUSH2 0xE39 JUMP JUMPDEST PUSH2 0x68B SWAP2 SWAP1 PUSH2 0xE58 JUMP JUMPDEST SWAP12 SWAP11 POP POP POP POP POP POP POP POP POP POP POP JUMP JUMPDEST PUSH1 0x0 DUP1 PUSH1 0x0 DUP1 PUSH1 0x0 DUP1 PUSH1 0x0 DUP1 DUP9 PUSH1 0x1 PUSH1 0x1 PUSH1 0xA0 SHL SUB AND PUSH4 0x392F37E9 PUSH1 0x40 MLOAD DUP2 PUSH4 0xFFFFFFFF AND PUSH1 0xE0 SHL DUP2 MSTORE PUSH1 0x4 ADD PUSH1 0xE0 PUSH1 0x40 MLOAD DUP1 DUP4 SUB DUP2 DUP7 GAS STATICCALL ISZERO DUP1 ISZERO PUSH2 0x6E4 JUMPI RETURNDATASIZE PUSH1 0x0 DUP1 RETURNDATACOPY RETURNDATASIZE PUSH1 0x0 REVERT JUMPDEST POP POP POP POP PUSH1 0x40 MLOAD RETURNDATASIZE PUSH1 0x1F NOT PUSH1 0x1F DUP3 ADD AND DUP3 ADD DUP1 PUSH1 0x40 MSTORE POP DUP2 ADD SWAP1 PUSH2 0x708 SWAP2 SWAP1 PUSH2 0xDAF JUMP JUMPDEST POP SWAP6 POP SWAP6 POP SWAP6 POP SWAP6 POP SWAP6 POP SWAP6 POP PUSH1 0x0 DUP2 PUSH1 0x1 PUSH1 0x1 PUSH1 0xA0 SHL SUB AND DUP12 PUSH1 0x1 PUSH1 0x1 PUSH1 0xA0 SHL SUB AND EQ PUSH2 0x74A JUMPI DUP5 PUSH2 0x73B DUP9 DUP7 PUSH2 0xE39 JUMP JUMPDEST PUSH2 0x745 SWAP2 SWAP1 PUSH2 0xE58 JUMP JUMPDEST PUSH2 0x75F JUMP JUMPDEST DUP4 PUSH2 0x755 DUP8 DUP8 PUSH2 0xE39 JUMP JUMPDEST PUSH2 0x75F SWAP2 SWAP1 PUSH2 0xE58 JUMP JUMPDEST SWAP1 POP DUP1 PUSH2 0x772 DUP3 DUP14 DUP9 DUP9 DUP8 DUP14 DUP14 DUP12 PUSH2 0x7CE JUMP JUMPDEST PUSH2 0x784 SWAP1 PUSH8 0xDE0B6B3A7640000 PUSH2 0xE39 JUMP JUMPDEST PUSH2 0x78E SWAP2 SWAP1 PUSH2 0xE58 JUMP JUMPDEST SWAP9 POP DUP12 PUSH2 0x7A1 DUP14 DUP14 DUP9 DUP9 DUP8 DUP14 DUP14 DUP12 PUSH2 0x7CE JUMP JUMPDEST PUSH2 0x7B3 SWAP1 PUSH8 0xDE0B6B3A7640000 PUSH2 0xE39 JUMP JUMPDEST PUSH2 0x7BD SWAP2 SWAP1 PUSH2 0xE58 JUMP JUMPDEST SWAP8 POP POP POP POP POP POP POP POP SWAP4 POP SWAP4 SWAP2 POP POP JUMP JUMPDEST PUSH1 0x0 DUP2 ISZERO PUSH2 0x914 JUMPI PUSH1 0x0 PUSH2 0x7E5 DUP9 DUP9 DUP6 DUP9 DUP9 PUSH2 0x96E JUMP JUMPDEST SWAP1 POP DUP5 PUSH2 0x7FA DUP10 PUSH8 0xDE0B6B3A7640000 PUSH2 0xE39 JUMP JUMPDEST PUSH2 0x804 SWAP2 SWAP1 PUSH2 0xE58 JUMP JUMPDEST SWAP8 POP DUP4 PUSH2 0x819 DUP9 PUSH8 0xDE0B6B3A7640000 PUSH2 0xE39 JUMP JUMPDEST PUSH2 0x823 SWAP2 SWAP1 PUSH2 0xE58 JUMP JUMPDEST SWAP7 POP PUSH1 0x0 DUP1 DUP8 PUSH1 0x1 PUSH1 0x1 PUSH1 0xA0 SHL SUB AND DUP12 PUSH1 0x1 PUSH1 0x1 PUSH1 0xA0 SHL SUB AND EQ PUSH2 0x848 JUMPI DUP9 DUP11 PUSH2 0x84B JUMP JUMPDEST DUP10 DUP10 JUMPDEST SWAP2 POP SWAP2 POP DUP8 PUSH1 0x1 PUSH1 0x1 PUSH1 0xA0 SHL SUB AND DUP12 PUSH1 0x1 PUSH1 0x1 PUSH1 0xA0 SHL SUB AND EQ PUSH2 0x88A JUMPI DUP6 PUSH2 0x87B DUP14 PUSH8 0xDE0B6B3A7640000 PUSH2 0xE39 JUMP JUMPDEST PUSH2 0x885 SWAP2 SWAP1 PUSH2 0xE58 JUMP JUMPDEST PUSH2 0x8A7 JUMP JUMPDEST DUP7 PUSH2 0x89D DUP14 PUSH8 0xDE0B6B3A7640000 PUSH2 0xE39 JUMP JUMPDEST PUSH2 0x8A7 SWAP2 SWAP1 PUSH2 0xE58 JUMP JUMPDEST SWAP12 POP PUSH1 0x0 PUSH2 0x8BF PUSH2 0x8B8 DUP5 DUP16 PUSH2 0xE7A JUMP JUMPDEST DUP6 DUP5 PUSH2 0xA5F JUMP JUMPDEST PUSH2 0x8C9 SWAP1 DUP4 PUSH2 0xE92 JUMP JUMPDEST SWAP1 POP PUSH8 0xDE0B6B3A7640000 DUP10 PUSH1 0x1 PUSH1 0x1 PUSH1 0xA0 SHL SUB AND DUP14 PUSH1 0x1 PUSH1 0x1 PUSH1 0xA0 SHL SUB AND EQ PUSH2 0x8F3 JUMPI DUP9 PUSH2 0x8F5 JUMP JUMPDEST DUP8 JUMPDEST PUSH2 0x8FF SWAP1 DUP4 PUSH2 0xE39 JUMP JUMPDEST PUSH2 0x909 SWAP2 SWAP1 PUSH2 0xE58 JUMP JUMPDEST SWAP5 POP POP POP POP POP PUSH2 0x962 JUMP JUMPDEST PUSH1 0x0 DUP1 DUP7 PUSH1 0x1 PUSH1 0x1 PUSH1 0xA0 SHL SUB AND DUP11 PUSH1 0x1 PUSH1 0x1 PUSH1 0xA0 SHL SUB AND EQ PUSH2 0x937 JUMPI DUP8 DUP10 PUSH2 0x93A JUMP JUMPDEST DUP9 DUP9 JUMPDEST SWAP1 SWAP3 POP SWAP1 POP PUSH2 0x949 DUP12 DUP4 PUSH2 0xE7A JUMP JUMPDEST PUSH2 0x953 DUP3 DUP14 PUSH2 0xE39 JUMP JUMPDEST PUSH2 0x95D SWAP2 SWAP1 PUSH2 0xE58 JUMP JUMPDEST SWAP3 POP POP POP JUMPDEST SWAP9 SWAP8 POP POP POP POP POP POP POP POP JUMP JUMPDEST PUSH1 0x0 DUP4 ISZERO PUSH2 0xA49 JUMPI PUSH1 0x0 DUP4 PUSH2 0x98B DUP9 PUSH8 0xDE0B6B3A7640000 PUSH2 0xE39 JUMP JUMPDEST PUSH2 0x995 SWAP2 SWAP1 PUSH2 0xE58 JUMP JUMPDEST SWAP1 POP PUSH1 0x0 DUP4 PUSH2 0x9AC DUP9 PUSH8 0xDE0B6B3A7640000 PUSH2 0xE39 JUMP JUMPDEST PUSH2 0x9B6 SWAP2 SWAP1 PUSH2 0xE58 JUMP JUMPDEST SWAP1 POP PUSH1 0x0 PUSH8 0xDE0B6B3A7640000 PUSH2 0x9CD DUP4 DUP6 PUSH2 0xE39 JUMP JUMPDEST PUSH2 0x9D7 SWAP2 SWAP1 PUSH2 0xE58 JUMP JUMPDEST SWAP1 POP PUSH1 0x0 PUSH8 0xDE0B6B3A7640000 PUSH2 0x9EE DUP5 DUP1 PUSH2 0xE39 JUMP JUMPDEST PUSH2 0x9F8 SWAP2 SWAP1 PUSH2 0xE58 JUMP JUMPDEST PUSH8 0xDE0B6B3A7640000 PUSH2 0xA0B DUP7 DUP1 PUSH2 0xE39 JUMP JUMPDEST PUSH2 0xA15 SWAP2 SWAP1 PUSH2 0xE58 JUMP JUMPDEST PUSH2 0xA1F SWAP2 SWAP1 PUSH2 0xE7A JUMP JUMPDEST SWAP1 POP PUSH8 0xDE0B6B3A7640000 PUSH2 0xA34 DUP3 DUP5 PUSH2 0xE39 JUMP JUMPDEST PUSH2 0xA3E SWAP2 SWAP1 PUSH2 0xE58 JUMP JUMPDEST SWAP5 POP POP POP POP POP PUSH2 0xA56 JUMP JUMPDEST PUSH2 0xA53 DUP6 DUP8 PUSH2 0xE39 JUMP JUMPDEST SWAP1 POP JUMPDEST SWAP6 SWAP5 POP POP POP POP POP JUMP JUMPDEST PUSH1 0x0 DUP1 JUMPDEST PUSH1 0xFF DUP2 LT ISZERO PUSH2 0xB65 JUMPI DUP3 PUSH1 0x0 PUSH2 0xA79 DUP8 DUP4 PUSH2 0xB6E JUMP JUMPDEST SWAP1 POP DUP6 DUP2 LT ISZERO PUSH2 0xAC9 JUMPI PUSH1 0x0 PUSH2 0xA8F DUP9 DUP8 PUSH2 0xC0B JUMP JUMPDEST PUSH2 0xA99 DUP4 DUP10 PUSH2 0xE92 JUMP JUMPDEST PUSH2 0xAAB SWAP1 PUSH8 0xDE0B6B3A7640000 PUSH2 0xE39 JUMP JUMPDEST PUSH2 0xAB5 SWAP2 SWAP1 PUSH2 0xE58 JUMP JUMPDEST SWAP1 POP PUSH2 0xAC1 DUP2 DUP8 PUSH2 0xE7A JUMP JUMPDEST SWAP6 POP POP PUSH2 0xB0B JUMP JUMPDEST PUSH1 0x0 PUSH2 0xAD5 DUP9 DUP8 PUSH2 0xC0B JUMP JUMPDEST PUSH2 0xADF DUP9 DUP5 PUSH2 0xE92 JUMP JUMPDEST PUSH2 0xAF1 SWAP1 PUSH8 0xDE0B6B3A7640000 PUSH2 0xE39 JUMP JUMPDEST PUSH2 0xAFB SWAP2 SWAP1 PUSH2 0xE58 JUMP JUMPDEST SWAP1 POP PUSH2 0xB07 DUP2 DUP8 PUSH2 0xE92 JUMP JUMPDEST SWAP6 POP POP JUMPDEST DUP2 DUP6 GT ISZERO PUSH2 0xB34 JUMPI PUSH1 0x1 PUSH2 0xB1F DUP4 DUP8 PUSH2 0xE92 JUMP JUMPDEST GT PUSH2 0xB2F JUMPI DUP5 SWAP4 POP POP POP POP PUSH2 0x567 JUMP JUMPDEST PUSH2 0xB50 JUMP JUMPDEST PUSH1 0x1 PUSH2 0xB40 DUP7 DUP5 PUSH2 0xE92 JUMP JUMPDEST GT PUSH2 0xB50 JUMPI DUP5 SWAP4 POP POP POP POP PUSH2 0x567 JUMP JUMPDEST POP POP DUP1 DUP1 PUSH2 0xB5D SWAP1 PUSH2 0xEA9 JUMP JUMPDEST SWAP2 POP POP PUSH2 0xA63 JUMP JUMPDEST POP SWAP1 SWAP4 SWAP3 POP POP POP JUMP JUMPDEST PUSH1 0x0 PUSH8 0xDE0B6B3A7640000 DUP3 DUP2 DUP6 DUP2 PUSH2 0xB87 DUP3 DUP1 PUSH2 0xE39 JUMP JUMPDEST PUSH2 0xB91 SWAP2 SWAP1 PUSH2 0xE58 JUMP JUMPDEST PUSH2 0xB9B SWAP2 SWAP1 PUSH2 0xE39 JUMP JUMPDEST PUSH2 0xBA5 SWAP2 SWAP1 PUSH2 0xE58 JUMP JUMPDEST PUSH2 0xBAF SWAP2 SWAP1 PUSH2 0xE39 JUMP JUMPDEST PUSH2 0xBB9 SWAP2 SWAP1 PUSH2 0xE58 JUMP JUMPDEST PUSH8 0xDE0B6B3A7640000 DUP1 DUP5 DUP2 PUSH2 0xBCF DUP3 DUP1 PUSH2 0xE39 JUMP JUMPDEST PUSH2 0xBD9 SWAP2 SWAP1 PUSH2 0xE58 JUMP JUMPDEST PUSH2 0xBE3 SWAP2 SWAP1 PUSH2 0xE39 JUMP JUMPDEST PUSH2 0xBED SWAP2 SWAP1 PUSH2 0xE58 JUMP JUMPDEST PUSH2 0xBF7 SWAP1 DUP7 PUSH2 0xE39 JUMP JUMPDEST PUSH2 0xC01 SWAP2 SWAP1 PUSH2 0xE58 JUMP JUMPDEST PUSH2 0x567 SWAP2 SWAP1 PUSH2 0xE7A JUMP JUMPDEST PUSH1 0x0 PUSH8 0xDE0B6B3A7640000 DUP4 DUP2 PUSH2 0xC22 DUP3 DUP1 PUSH2 0xE39 JUMP JUMPDEST PUSH2 0xC2C SWAP2 SWAP1 PUSH2 0xE58 JUMP JUMPDEST PUSH2 0xC36 SWAP2 SWAP1 PUSH2 0xE39 JUMP JUMPDEST PUSH2 0xC40 SWAP2 SWAP1 PUSH2 0xE58 JUMP JUMPDEST PUSH8 0xDE0B6B3A7640000 DUP1 PUSH2 0xC54 DUP6 DUP1 PUSH2 0xE39 JUMP JUMPDEST PUSH2 0xC5E SWAP2 SWAP1 PUSH2 0xE58 JUMP JUMPDEST PUSH2 0xC69 DUP7 PUSH1 0x3 PUSH2 0xE39 JUMP JUMPDEST PUSH2 0xBF7 SWAP2 SWAP1 PUSH2 0xE39 JUMP JUMPDEST PUSH1 0x1 PUSH1 0x1 PUSH1 0xA0 SHL SUB DUP2 AND DUP2 EQ PUSH2 0xC88 JUMPI PUSH1 0x0 DUP1 REVERT JUMPDEST POP JUMP JUMPDEST DUP1 ISZERO ISZERO DUP2 EQ PUSH2 0xC88 JUMPI PUSH1 0x0 DUP1 REVERT JUMPDEST PUSH1 0x0 DUP1 PUSH1 0x0 PUSH1 0x60 DUP5 DUP7 SUB SLT ISZERO PUSH2 0xCAE JUMPI PUSH1 0x0 DUP1 REVERT JUMPDEST DUP4 CALLDATALOAD PUSH2 0xCB9 DUP2 PUSH2 0xC73 JUMP JUMPDEST SWAP3 POP PUSH1 0x20 DUP5 ADD CALLDATALOAD PUSH2 0xCC9 DUP2 PUSH2 0xC73 JUMP JUMPDEST SWAP2 POP PUSH1 0x40 DUP5 ADD CALLDATALOAD PUSH2 0xCD9 DUP2 PUSH2 0xC8B JUMP JUMPDEST DUP1 SWAP2 POP POP SWAP3 POP SWAP3 POP SWAP3 JUMP JUMPDEST PUSH1 0x0 DUP1 PUSH1 0x0 DUP1 PUSH1 0x80 DUP6 DUP8 SUB SLT ISZERO PUSH2 0xCFA JUMPI PUSH1 0x0 DUP1 REVERT JUMPDEST DUP5 CALLDATALOAD SWAP4 POP PUSH1 0x20 DUP6 ADD CALLDATALOAD PUSH2 0xD0C DUP2 PUSH2 0xC73 JUMP JUMPDEST SWAP3 POP PUSH1 0x40 DUP6 ADD CALLDATALOAD PUSH2 0xD1C DUP2 PUSH2 0xC73 JUMP JUMPDEST SWAP2 POP PUSH1 0x60 DUP6 ADD CALLDATALOAD PUSH2 0xD2C DUP2 PUSH2 0xC8B JUMP JUMPDEST SWAP4 SWAP7 SWAP3 SWAP6 POP SWAP1 SWAP4 POP POP JUMP JUMPDEST PUSH1 0x0 DUP1 PUSH1 0x0 PUSH1 0x60 DUP5 DUP7 SUB SLT ISZERO PUSH2 0xD4C JUMPI PUSH1 0x0 DUP1 REVERT JUMPDEST DUP4 CALLDATALOAD SWAP3 POP PUSH1 0x20 DUP5 ADD CALLDATALOAD PUSH2 0xD5E DUP2 PUSH2 0xC73 JUMP JUMPDEST SWAP2 POP PUSH1 0x40 DUP5 ADD CALLDATALOAD PUSH2 0xCD9 DUP2 PUSH2 0xC73 JUMP JUMPDEST PUSH1 0x1 PUSH1 0x1 PUSH1 0xA0 SHL SUB SWAP4 DUP5 AND DUP2 MSTORE SWAP2 SWAP1 SWAP3 AND PUSH1 0x20 DUP3 ADD MSTORE SWAP1 ISZERO ISZERO PUSH1 0x40 DUP3 ADD MSTORE PUSH1 0x60 ADD SWAP1 JUMP JUMPDEST PUSH1 0x0 PUSH1 0x20 DUP3 DUP5 SUB SLT ISZERO PUSH2 0xDA4 JUMPI PUSH1 0x0 DUP1 REVERT JUMPDEST DUP2 MLOAD PUSH2 0x567 DUP2 PUSH2 0xC73 JUMP JUMPDEST PUSH1 0x0 DUP1 PUSH1 0x0 DUP1 PUSH1 0x0 DUP1 PUSH1 0x0 PUSH1 0xE0 DUP9 DUP11 SUB SLT ISZERO PUSH2 0xDCA JUMPI PUSH1 0x0 DUP1 REVERT JUMPDEST DUP8 MLOAD SWAP7 POP PUSH1 0x20 DUP9 ADD MLOAD SWAP6 POP PUSH1 0x40 DUP9 ADD MLOAD SWAP5 POP PUSH1 0x60 DUP9 ADD MLOAD SWAP4 POP PUSH1 0x80 DUP9 ADD MLOAD PUSH2 0xDF1 DUP2 PUSH2 0xC8B JUMP JUMPDEST PUSH1 0xA0 DUP10 ADD MLOAD SWAP1 SWAP4 POP PUSH2 0xE02 DUP2 PUSH2 0xC73 JUMP JUMPDEST PUSH1 0xC0 DUP10 ADD MLOAD SWAP1 SWAP3 POP PUSH2 0xE13 DUP2 PUSH2 0xC73 JUMP JUMPDEST DUP1 SWAP2 POP POP SWAP3 SWAP6 SWAP9 SWAP2 SWAP5 SWAP8 POP SWAP3 SWAP6 POP JUMP JUMPDEST PUSH4 0x4E487B71 PUSH1 0xE0 SHL PUSH1 0x0 MSTORE PUSH1 0x11 PUSH1 0x4 MSTORE PUSH1 0x24 PUSH1 0x0 REVERT JUMPDEST PUSH1 0x0 DUP2 PUSH1 0x0 NOT DIV DUP4 GT DUP3 ISZERO ISZERO AND ISZERO PUSH2 0xE53 JUMPI PUSH2 0xE53 PUSH2 0xE23 JUMP JUMPDEST POP MUL SWAP1 JUMP JUMPDEST PUSH1 0x0 DUP3 PUSH2 0xE75 JUMPI PUSH4 0x4E487B71 PUSH1 0xE0 SHL PUSH1 0x0 MSTORE PUSH1 0x12 PUSH1 0x4 MSTORE PUSH1 0x24 PUSH1 0x0 REVERT JUMPDEST POP DIV SWAP1 JUMP JUMPDEST PUSH1 0x0 DUP3 NOT DUP3 GT ISZERO PUSH2 0xE8D JUMPI PUSH2 0xE8D PUSH2 0xE23 JUMP JUMPDEST POP ADD SWAP1 JUMP JUMPDEST PUSH1 0x0 DUP3 DUP3 LT ISZERO PUSH2 0xEA4 JUMPI PUSH2 0xEA4 PUSH2 0xE23 JUMP JUMPDEST POP SUB SWAP1 JUMP JUMPDEST PUSH1 0x0 PUSH1 0x0 NOT DUP3 EQ ISZERO PUSH2 0xEBD JUMPI PUSH2 0xEBD PUSH2 0xE23 JUMP JUMPDEST POP PUSH1 0x1 ADD SWAP1 JUMP INVALID LOG2 PUSH5 0x6970667358 0x22 SLT KECCAK256 0x5C 0x27 0x2D 0xEA LOG2 PUSH7 0xF37BC845F9137 0x2C DUP9 GASPRICE 0xE1 JUMPI PUSH5 0xE34AA136B3 CODECOPY 0xDA XOR CALLCODE PUSH5 0x3C14EA6473 PUSH16 0x6C634300080B00330000000000000000 "
        },
        "methodIdentifiers": {
          "getAmountOut(uint256,address,address,bool)": "da214231",
          "getMinimumValue(address,address,bool)": "52500733",
          "getSample(address,address,bool)": "be3b428e",
          "getTradeDiff(uint256,address,address)": "ec323c00",
          "getTradeDiff(uint256,address,address,bool)": "865db5e2"
        }
      },
      "storageLayout": {
        "storage": [
          {
            "astId": 34,
            "contract": "contracts/lib/SolidlyLibrary.sol:SolidlyLibrary",
            "label": "router",
            "offset": 0,
            "slot": "0",
            "type": "t_contract(solidly_router)31"
          }
        ],
        "types": {
          "t_contract(solidly_router)31": {
            "encoding": "inplace",
            "label": "contract solidly_router",
            "numberOfBytes": "20"
          }
        }
      }
    }
  }
}