{
  "contracts/test/voter_test.sol": {
    "voter_test": {
      "abi": [
        {
          "inputs": [
            {
              "internalType": "uint256",
              "name": "tokenId",
              "type": "uint256"
            },
            {
              "internalType": "address",
              "name": "account",
              "type": "address"
            }
          ],
          "name": "attachTokenToGauge",
          "outputs": [],
          "stateMutability": "nonpayable",
          "type": "function"
        },
        {
          "inputs": [
            {
              "internalType": "uint256",
              "name": "tokenId",
              "type": "uint256"
            },
            {
              "internalType": "address",
              "name": "account",
              "type": "address"
            }
          ],
          "name": "detachTokenFromGauge",
          "outputs": [],
          "stateMutability": "nonpayable",
          "type": "function"
        },
        {
          "inputs": [
            {
              "internalType": "address",
              "name": "_gauge",
              "type": "address"
            }
          ],
          "name": "distribute",
          "outputs": [],
          "stateMutability": "nonpayable",
          "type": "function"
        },
        {
          "inputs": [
            {
              "internalType": "uint256",
              "name": "tokenId",
              "type": "uint256"
            },
            {
              "internalType": "address",
              "name": "account",
              "type": "address"
            },
            {
              "internalType": "uint256",
              "name": "amount",
              "type": "uint256"
            }
          ],
          "name": "emitDeposit",
          "outputs": [],
          "stateMutability": "nonpayable",
          "type": "function"
        },
        {
          "inputs": [
            {
              "internalType": "uint256",
              "name": "tokenId",
              "type": "uint256"
            },
            {
              "internalType": "address",
              "name": "account",
              "type": "address"
            },
            {
              "internalType": "uint256",
              "name": "amount",
              "type": "uint256"
            }
          ],
          "name": "emitWithdraw",
          "outputs": [],
          "stateMutability": "nonpayable",
          "type": "function"
        }
      ],
      "evm": {
        "bytecode": {
          "linkReferences": {},
          "object": "608060405234801561001057600080fd5b50610169806100206000396000f3fe608060405234801561001057600080fd5b50600436106100575760003560e01c8063411b1f771461005c57806363453ae114610070578063698473e31461005c578063a61c713a14610081578063ea94ee4414610081575b600080fd5b61006e61006a3660046100b0565b5050565b005b61006e61007e3660046100dc565b50565b61006e61008f3660046100fe565b505050565b80356001600160a01b03811681146100ab57600080fd5b919050565b600080604083850312156100c357600080fd5b823591506100d360208401610094565b90509250929050565b6000602082840312156100ee57600080fd5b6100f782610094565b9392505050565b60008060006060848603121561011357600080fd5b8335925061012360208501610094565b915060408401359050925092509256fea26469706673582212200cfa6b78f43943c2d7112522cd07bf9f21021f8aaea440a105c52a475b4c1d0464736f6c634300080b0033",
          "opcodes": "PUSH1 0x80 PUSH1 0x40 MSTORE CALLVALUE DUP1 ISZERO PUSH2 0x10 JUMPI PUSH1 0x0 DUP1 REVERT JUMPDEST POP PUSH2 0x169 DUP1 PUSH2 0x20 PUSH1 0x0 CODECOPY PUSH1 0x0 RETURN INVALID PUSH1 0x80 PUSH1 0x40 MSTORE CALLVALUE DUP1 ISZERO PUSH2 0x10 JUMPI PUSH1 0x0 DUP1 REVERT JUMPDEST POP PUSH1 0x4 CALLDATASIZE LT PUSH2 0x57 JUMPI PUSH1 0x0 CALLDATALOAD PUSH1 0xE0 SHR DUP1 PUSH4 0x411B1F77 EQ PUSH2 0x5C JUMPI DUP1 PUSH4 0x63453AE1 EQ PUSH2 0x70 JUMPI DUP1 PUSH4 0x698473E3 EQ PUSH2 0x5C JUMPI DUP1 PUSH4 0xA61C713A EQ PUSH2 0x81 JUMPI DUP1 PUSH4 0xEA94EE44 EQ PUSH2 0x81 JUMPI JUMPDEST PUSH1 0x0 DUP1 REVERT JUMPDEST PUSH2 0x6E PUSH2 0x6A CALLDATASIZE PUSH1 0x4 PUSH2 0xB0 JUMP JUMPDEST POP POP JUMP JUMPDEST STOP JUMPDEST PUSH2 0x6E PUSH2 0x7E CALLDATASIZE PUSH1 0x4 PUSH2 0xDC JUMP JUMPDEST POP JUMP JUMPDEST PUSH2 0x6E PUSH2 0x8F CALLDATASIZE PUSH1 0x4 PUSH2 0xFE JUMP JUMPDEST POP POP POP JUMP JUMPDEST DUP1 CALLDATALOAD PUSH1 0x1 PUSH1 0x1 PUSH1 0xA0 SHL SUB DUP2 AND DUP2 EQ PUSH2 0xAB JUMPI PUSH1 0x0 DUP1 REVERT JUMPDEST SWAP2 SWAP1 POP JUMP JUMPDEST PUSH1 0x0 DUP1 PUSH1 0x40 DUP4 DUP6 SUB SLT ISZERO PUSH2 0xC3 JUMPI PUSH1 0x0 DUP1 REVERT JUMPDEST DUP3 CALLDATALOAD SWAP2 POP PUSH2 0xD3 PUSH1 0x20 DUP5 ADD PUSH2 0x94 JUMP JUMPDEST SWAP1 POP SWAP3 POP SWAP3 SWAP1 POP JUMP JUMPDEST PUSH1 0x0 PUSH1 0x20 DUP3 DUP5 SUB SLT ISZERO PUSH2 0xEE JUMPI PUSH1 0x0 DUP1 REVERT JUMPDEST PUSH2 0xF7 DUP3 PUSH2 0x94 JUMP JUMPDEST SWAP4 SWAP3 POP POP POP JUMP JUMPDEST PUSH1 0x0 DUP1 PUSH1 0x0 PUSH1 0x60 DUP5 DUP7 SUB SLT ISZERO PUSH2 0x113 JUMPI PUSH1 0x0 DUP1 REVERT JUMPDEST DUP4 CALLDATALOAD SWAP3 POP PUSH2 0x123 PUSH1 0x20 DUP6 ADD PUSH2 0x94 JUMP JUMPDEST SWAP2 POP PUSH1 0x40 DUP5 ADD CALLDATALOAD SWAP1 POP SWAP3 POP SWAP3 POP SWAP3 JUMP INVALID LOG2 PUSH5 0x6970667358 0x22 SLT KECCAK256 0xC STATICCALL PUSH12 0x78F43943C2D7112522CD07BF SWAP16 0x21 MUL 0x1F DUP11 0xAE LOG4 BLOCKHASH LOG1 SDIV 0xC5 0x2A SELFBALANCE JUMPDEST 0x4C SAR DIV PUSH5 0x736F6C6343 STOP ADDMOD SIGNEXTEND STOP CALLER "
        },
        "methodIdentifiers": {
          "attachTokenToGauge(uint256,address)": "698473e3",
          "detachTokenFromGauge(uint256,address)": "411b1f77",
          "distribute(address)": "63453ae1",
          "emitDeposit(uint256,address,uint256)": "a61c713a",
          "emitWithdraw(uint256,address,uint256)": "ea94ee44"
        }
      },
      "storageLayout": {
        "storage": [],
        "types": null
      }
    }
  }
}