{
  "_format": "hh-sol-artifact-1",
  "contractName": "MultiRewardsPoolMock",
  "sourceName": "contracts/test/MultiRewardsPoolMock.sol",
  "abi": [
    {
      "inputs": [
        {
          "internalType": "address",
          "name": "_stake",
          "type": "address"
        },
        {
          "internalType": "address",
          "name": "_operator",
          "type": "address"
        },
        {
          "internalType": "address[]",
          "name": "_rewards",
          "type": "address[]"
        }
      ],
      "stateMutability": "nonpayable",
      "type": "constructor"
    },
    {
      "anonymous": false,
      "inputs": [
        {
          "indexed": true,
          "internalType": "address",
          "name": "from",
          "type": "address"
        },
        {
          "indexed": true,
          "internalType": "address",
          "name": "reward",
          "type": "address"
        },
        {
          "indexed": false,
          "internalType": "uint256",
          "name": "amount",
          "type": "uint256"
        },
        {
          "indexed": false,
          "internalType": "address",
          "name": "recepient",
          "type": "address"
        }
      ],
      "name": "ClaimRewards",
      "type": "event"
    },
    {
      "anonymous": false,
      "inputs": [
        {
          "indexed": true,
          "internalType": "address",
          "name": "from",
          "type": "address"
        },
        {
          "indexed": false,
          "internalType": "uint256",
          "name": "amount",
          "type": "uint256"
        }
      ],
      "name": "Deposit",
      "type": "event"
    },
    {
      "anonymous": false,
      "inputs": [
        {
          "indexed": true,
          "internalType": "address",
          "name": "from",
          "type": "address"
        },
        {
          "indexed": true,
          "internalType": "address",
          "name": "reward",
          "type": "address"
        },
        {
          "indexed": false,
          "internalType": "uint256",
          "name": "amount",
          "type": "uint256"
        }
      ],
      "name": "NotifyReward",
      "type": "event"
    },
    {
      "anonymous": false,
      "inputs": [
        {
          "indexed": true,
          "internalType": "address",
          "name": "from",
          "type": "address"
        },
        {
          "indexed": false,
          "internalType": "uint256",
          "name": "amount",
          "type": "uint256"
        }
      ],
      "name": "Withdraw",
      "type": "event"
    },
    {
      "inputs": [
        {
          "internalType": "address",
          "name": "",
          "type": "address"
        }
      ],
      "name": "balanceOf",
      "outputs": [
        {
          "internalType": "uint256",
          "name": "",
          "type": "uint256"
        }
      ],
      "stateMutability": "view",
      "type": "function"
    },
    {
      "inputs": [
        {
          "internalType": "address",
          "name": "token",
          "type": "address"
        },
        {
          "internalType": "uint256",
          "name": "maxRuns",
          "type": "uint256"
        }
      ],
      "name": "batchUpdateRewardPerToken",
      "outputs": [],
      "stateMutability": "nonpayable",
      "type": "function"
    },
    {
      "inputs": [
        {
          "internalType": "address",
          "name": "",
          "type": "address"
        },
        {
          "internalType": "uint256",
          "name": "",
          "type": "uint256"
        }
      ],
      "name": "checkpoints",
      "outputs": [
        {
          "internalType": "uint256",
          "name": "timestamp",
          "type": "uint256"
        },
        {
          "internalType": "uint256",
          "name": "value",
          "type": "uint256"
        }
      ],
      "stateMutability": "view",
      "type": "function"
    },
    {
      "inputs": [
        {
          "internalType": "uint256",
          "name": "amount",
          "type": "uint256"
        }
      ],
      "name": "deposit",
      "outputs": [],
      "stateMutability": "nonpayable",
      "type": "function"
    },
    {
      "inputs": [
        {
          "internalType": "address",
          "name": "account",
          "type": "address"
        }
      ],
      "name": "derivedBalance",
      "outputs": [
        {
          "internalType": "uint256",
          "name": "",
          "type": "uint256"
        }
      ],
      "stateMutability": "view",
      "type": "function"
    },
    {
      "inputs": [
        {
          "internalType": "address",
          "name": "",
          "type": "address"
        }
      ],
      "name": "derivedBalances",
      "outputs": [
        {
          "internalType": "uint256",
          "name": "",
          "type": "uint256"
        }
      ],
      "stateMutability": "view",
      "type": "function"
    },
    {
      "inputs": [],
      "name": "derivedSupply",
      "outputs": [
        {
          "internalType": "uint256",
          "name": "",
          "type": "uint256"
        }
      ],
      "stateMutability": "view",
      "type": "function"
    },
    {
      "inputs": [
        {
          "internalType": "address",
          "name": "token",
          "type": "address"
        },
        {
          "internalType": "address",
          "name": "account",
          "type": "address"
        }
      ],
      "name": "earned",
      "outputs": [
        {
          "internalType": "uint256",
          "name": "",
          "type": "uint256"
        }
      ],
      "stateMutability": "view",
      "type": "function"
    },
    {
      "inputs": [
        {
          "internalType": "address",
          "name": "account",
          "type": "address"
        },
        {
          "internalType": "uint256",
          "name": "timestamp",
          "type": "uint256"
        }
      ],
      "name": "getPriorBalanceIndex",
      "outputs": [
        {
          "internalType": "uint256",
          "name": "",
          "type": "uint256"
        }
      ],
      "stateMutability": "view",
      "type": "function"
    },
    {
      "inputs": [
        {
          "internalType": "address",
          "name": "token",
          "type": "address"
        },
        {
          "internalType": "uint256",
          "name": "timestamp",
          "type": "uint256"
        }
      ],
      "name": "getPriorRewardPerToken",
      "outputs": [
        {
          "internalType": "uint256",
          "name": "",
          "type": "uint256"
        },
        {
          "internalType": "uint256",
          "name": "",
          "type": "uint256"
        }
      ],
      "stateMutability": "view",
      "type": "function"
    },
    {
      "inputs": [
        {
          "internalType": "uint256",
          "name": "timestamp",
          "type": "uint256"
        }
      ],
      "name": "getPriorSupplyIndex",
      "outputs": [
        {
          "internalType": "uint256",
          "name": "",
          "type": "uint256"
        }
      ],
      "stateMutability": "view",
      "type": "function"
    },
    {
      "inputs": [
        {
          "internalType": "address",
          "name": "account",
          "type": "address"
        },
        {
          "internalType": "address[]",
          "name": "tokens",
          "type": "address[]"
        }
      ],
      "name": "getReward",
      "outputs": [],
      "stateMutability": "nonpayable",
      "type": "function"
    },
    {
      "inputs": [
        {
          "internalType": "address",
          "name": "",
          "type": "address"
        }
      ],
      "name": "isRewardToken",
      "outputs": [
        {
          "internalType": "bool",
          "name": "",
          "type": "bool"
        }
      ],
      "stateMutability": "view",
      "type": "function"
    },
    {
      "inputs": [
        {
          "internalType": "address",
          "name": "",
          "type": "address"
        },
        {
          "internalType": "address",
          "name": "",
          "type": "address"
        }
      ],
      "name": "lastEarn",
      "outputs": [
        {
          "internalType": "uint256",
          "name": "",
          "type": "uint256"
        }
      ],
      "stateMutability": "view",
      "type": "function"
    },
    {
      "inputs": [
        {
          "internalType": "address",
          "name": "",
          "type": "address"
        }
      ],
      "name": "lastUpdateTime",
      "outputs": [
        {
          "internalType": "uint256",
          "name": "",
          "type": "uint256"
        }
      ],
      "stateMutability": "view",
      "type": "function"
    },
    {
      "inputs": [
        {
          "internalType": "address",
          "name": "token",
          "type": "address"
        }
      ],
      "name": "left",
      "outputs": [
        {
          "internalType": "uint256",
          "name": "",
          "type": "uint256"
        }
      ],
      "stateMutability": "view",
      "type": "function"
    },
    {
      "inputs": [
        {
          "internalType": "address",
          "name": "token",
          "type": "address"
        },
        {
          "internalType": "uint256",
          "name": "amount",
          "type": "uint256"
        }
      ],
      "name": "notifyRewardAmount",
      "outputs": [],
      "stateMutability": "nonpayable",
      "type": "function"
    },
    {
      "inputs": [
        {
          "internalType": "address",
          "name": "",
          "type": "address"
        }
      ],
      "name": "numCheckpoints",
      "outputs": [
        {
          "internalType": "uint256",
          "name": "",
          "type": "uint256"
        }
      ],
      "stateMutability": "view",
      "type": "function"
    },
    {
      "inputs": [],
      "name": "operator",
      "outputs": [
        {
          "internalType": "address",
          "name": "",
          "type": "address"
        }
      ],
      "stateMutability": "view",
      "type": "function"
    },
    {
      "inputs": [
        {
          "internalType": "address",
          "name": "",
          "type": "address"
        }
      ],
      "name": "periodFinish",
      "outputs": [
        {
          "internalType": "uint256",
          "name": "",
          "type": "uint256"
        }
      ],
      "stateMutability": "view",
      "type": "function"
    },
    {
      "inputs": [
        {
          "internalType": "address",
          "name": "token",
          "type": "address"
        }
      ],
      "name": "registerRewardToken",
      "outputs": [],
      "stateMutability": "nonpayable",
      "type": "function"
    },
    {
      "inputs": [
        {
          "internalType": "address",
          "name": "token",
          "type": "address"
        }
      ],
      "name": "removeRewardToken",
      "outputs": [],
      "stateMutability": "nonpayable",
      "type": "function"
    },
    {
      "inputs": [
        {
          "internalType": "address",
          "name": "token",
          "type": "address"
        }
      ],
      "name": "rewardPerToken",
      "outputs": [
        {
          "internalType": "uint256",
          "name": "",
          "type": "uint256"
        }
      ],
      "stateMutability": "view",
      "type": "function"
    },
    {
      "inputs": [
        {
          "internalType": "address",
          "name": "",
          "type": "address"
        },
        {
          "internalType": "uint256",
          "name": "",
          "type": "uint256"
        }
      ],
      "name": "rewardPerTokenCheckpoints",
      "outputs": [
        {
          "internalType": "uint256",
          "name": "timestamp",
          "type": "uint256"
        },
        {
          "internalType": "uint256",
          "name": "value",
          "type": "uint256"
        }
      ],
      "stateMutability": "view",
      "type": "function"
    },
    {
      "inputs": [
        {
          "internalType": "address",
          "name": "",
          "type": "address"
        }
      ],
      "name": "rewardPerTokenNumCheckpoints",
      "outputs": [
        {
          "internalType": "uint256",
          "name": "",
          "type": "uint256"
        }
      ],
      "stateMutability": "view",
      "type": "function"
    },
    {
      "inputs": [
        {
          "internalType": "address",
          "name": "",
          "type": "address"
        }
      ],
      "name": "rewardPerTokenStored",
      "outputs": [
        {
          "internalType": "uint256",
          "name": "",
          "type": "uint256"
        }
      ],
      "stateMutability": "view",
      "type": "function"
    },
    {
      "inputs": [
        {
          "internalType": "address",
          "name": "",
          "type": "address"
        }
      ],
      "name": "rewardRate",
      "outputs": [
        {
          "internalType": "uint256",
          "name": "",
          "type": "uint256"
        }
      ],
      "stateMutability": "view",
      "type": "function"
    },
    {
      "inputs": [
        {
          "internalType": "uint256",
          "name": "",
          "type": "uint256"
        }
      ],
      "name": "rewardTokens",
      "outputs": [
        {
          "internalType": "address",
          "name": "",
          "type": "address"
        }
      ],
      "stateMutability": "view",
      "type": "function"
    },
    {
      "inputs": [],
      "name": "rewardTokensLength",
      "outputs": [
        {
          "internalType": "uint256",
          "name": "",
          "type": "uint256"
        }
      ],
      "stateMutability": "view",
      "type": "function"
    },
    {
      "inputs": [
        {
          "internalType": "uint256",
          "name": "",
          "type": "uint256"
        }
      ],
      "name": "supplyCheckpoints",
      "outputs": [
        {
          "internalType": "uint256",
          "name": "timestamp",
          "type": "uint256"
        },
        {
          "internalType": "uint256",
          "name": "value",
          "type": "uint256"
        }
      ],
      "stateMutability": "view",
      "type": "function"
    },
    {
      "inputs": [],
      "name": "supplyNumCheckpoints",
      "outputs": [
        {
          "internalType": "uint256",
          "name": "",
          "type": "uint256"
        }
      ],
      "stateMutability": "view",
      "type": "function"
    },
    {
      "inputs": [
        {
          "internalType": "uint256",
          "name": "amount",
          "type": "uint256"
        }
      ],
      "name": "testDoubleDeposit",
      "outputs": [],
      "stateMutability": "nonpayable",
      "type": "function"
    },
    {
      "inputs": [
        {
          "internalType": "uint256",
          "name": "amount",
          "type": "uint256"
        }
      ],
      "name": "testDoubleWithdraw",
      "outputs": [],
      "stateMutability": "nonpayable",
      "type": "function"
    },
    {
      "inputs": [],
      "name": "totalSupply",
      "outputs": [
        {
          "internalType": "uint256",
          "name": "",
          "type": "uint256"
        }
      ],
      "stateMutability": "view",
      "type": "function"
    },
    {
      "inputs": [],
      "name": "underlying",
      "outputs": [
        {
          "internalType": "address",
          "name": "",
          "type": "address"
        }
      ],
      "stateMutability": "view",
      "type": "function"
    },
    {
      "inputs": [
        {
          "internalType": "address",
          "name": "",
          "type": "address"
        },
        {
          "internalType": "address",
          "name": "",
          "type": "address"
        }
      ],
      "name": "userRewardPerTokenStored",
      "outputs": [
        {
          "internalType": "uint256",
          "name": "",
          "type": "uint256"
        }
      ],
      "stateMutability": "view",
      "type": "function"
    },
    {
      "inputs": [
        {
          "internalType": "uint256",
          "name": "amount",
          "type": "uint256"
        }
      ],
      "name": "withdraw",
      "outputs": [],
      "stateMutability": "nonpayable",
      "type": "function"
    }
  ],
  "bytecode": "0x60a060405260016000553480156200001657600080fd5b5060405162002a7038038062002a70833981016040819052620000399162000245565b6001600160a01b03838116608052600180546001600160a01b03191691841691909117905582828260005b8151811015620000e75760006001600160a01b03168282815181106200008e576200008e6200033f565b60200260200101516001600160a01b031614620000d257620000d2828281518110620000be57620000be6200033f565b6020026020010151620000f460201b60201c565b80620000de8162000355565b91505062000064565b505050505050506200037d565b600c54600a116200014c5760405162461bcd60e51b815260206004820152601660248201527f546f6f206d616e792072657761726420746f6b656e730000000000000000000060448201526064015b60405180910390fd5b6001600160a01b0381166000908152600d602052604090205460ff1615620001ac5760405162461bcd60e51b8152602060048201526012602482015271105b1c9958591e481c9959da5cdd195c995960721b604482015260640162000143565b6001600160a01b03166000818152600d60205260408120805460ff19166001908117909155600c805491820181559091527fdf6966c971051c3d54ec59162606531493a51404a002842f56009d7e5cf4a8c70180546001600160a01b0319169091179055565b80516001600160a01b03811681146200022a57600080fd5b919050565b634e487b7160e01b600052604160045260246000fd5b6000806000606084860312156200025b57600080fd5b620002668462000212565b925060206200027781860162000212565b60408601519093506001600160401b03808211156200029557600080fd5b818701915087601f830112620002aa57600080fd5b815181811115620002bf57620002bf6200022f565b8060051b604051601f19603f83011681018181108582111715620002e757620002e76200022f565b60405291825284820192508381018501918a8311156200030657600080fd5b938501935b828510156200032f576200031f8562000212565b845293850193928501926200030b565b8096505050505050509250925092565b634e487b7160e01b600052603260045260246000fd5b6000600182016200037657634e487b7160e01b600052601160045260246000fd5b5060010190565b6080516126c2620003ae6000396000818161041601528181610e9b01528181610f7901526114ef01526126c26000f3fe608060405234801561001057600080fd5b50600436106102275760003560e01c806370a0823111610130578063b6b55f25116100b8578063e46dbc981161007c578063e46dbc98146105b9578063e8111a12146105cc578063f1229777146105d5578063f7412baf146105e8578063fd3140981461060f57600080fd5b8063b6b55f2514610562578063bf199e6214610575578063d35e25441461057d578063d7da4bb014610590578063da09d19d1461059957600080fd5b80639ce43f90116100ff5780639ce43f90146104b1578063a495e5b5146104d1578063aa479652146104fc578063b5fd73f81461051c578063b66503cf1461054f57600080fd5b806370a082311461045857806376f4be36146104785780637bb7bed11461048b57806399bcc0521461049e57600080fd5b806331279d3d116101b35780635944a194116101825780635944a194146103cb57806363fb415b146103de57806368fcee1a146103fe5780636f307dc3146104115780636fcfff451461043857600080fd5b806331279d3d1461034f5780633ca068b6146103625780633d509c971461038d578063570ca735146103a057600080fd5b8063211dc32d116101fa578063211dc32d146102d4578063221ca18c146102e75780632ce9aead146103075780632e1a7d4d1461032757806330b138b71461033c57600080fd5b806301316ddf1461022c5780630cdfebfa14610278578063115c6f39146102aa57806318160ddd146102cb575b600080fd5b61025e61023a36600461237d565b60126020908152600092835260408084209091529082529020805460019091015482565b604080519283526020830191909152015b60405180910390f35b61025e61028636600461237d565b600e6020908152600092835260408084209091529082529020805460019091015482565b6102bd6102b836600461237d565b610622565b60405190815260200161026f565b6102bd600a5481565b6102bd6102e23660046123a7565b610637565b6102bd6102f53660046123da565b60046020526000908152604090205481565b6102bd6103153660046123da565b60066020526000908152604090205481565b61033a6103353660046123f5565b610643565b005b61033a61034a3660046123f5565b61064f565b61033a61035d366004612424565b610683565b6102bd6103703660046123a7565b600960209081526000928352604080842090915290825290205481565b61033a61039b3660046123da565b6106db565b6001546103b3906001600160a01b031681565b6040516001600160a01b03909116815260200161026f565b61033a6103d93660046123f5565b6109b6565b6102bd6103ec3660046123da565b60036020526000908152604090205481565b61033a61040c36600461237d565b6109e5565b6103b37f000000000000000000000000000000000000000000000000000000000000000081565b6102bd6104463660046123da565b600f6020526000908152604090205481565b6102bd6104663660046123da565b600b6020526000908152604090205481565b6102bd6104863660046123f5565b610a1f565b6103b36104993660046123f5565b610a2a565b6102bd6104ac3660046123da565b610a54565b6102bd6104bf3660046123da565b60076020526000908152604090205481565b6102bd6104df3660046123a7565b600860209081526000928352604080842090915290825290205481565b6102bd61050a3660046123da565b60136020526000908152604090205481565b61053f61052a3660046123da565b600d6020526000908152604090205460ff1681565b604051901515815260200161026f565b61033a61055d36600461237d565b610ae0565b61033a6105703660046123f5565b610aea565b600c546102bd565b6102bd61058b3660046123da565b610af3565b6102bd60025481565b6102bd6105a73660046123da565b60056020526000908152604090205481565b61033a6105c73660046123da565b610b11565b6102bd60115481565b6102bd6105e33660046123da565b610b63565b61025e6105f63660046123f5565b6010602052600090815260409020805460019091015482565b61025e61061d36600461237d565b610b6e565b600061062e8383610b87565b90505b92915050565b600061062e8383610bdc565b61064c81610e5d565b50565b600061065c600283612512565b9050600061066a8284612534565b905061067582610f00565b61067e81610f00565b505050565b336001600160a01b038316146106cc5760405162461bcd60e51b81526020600482015260096024820152682337b93134b23232b760b91b60448201526064015b60405180910390fd5b6106d7828284610fd3565b5050565b6001546001600160a01b031633146107245760405162461bcd60e51b815260206004820152600c60248201526b2737ba1037b832b930ba37b960a11b60448201526064016106c3565b6001600160a01b038116600090815260056020526040902054421161077f5760405162461bcd60e51b815260206004820152601160248201527014995dd85c991cc81b9bdd08195b991959607a1b60448201526064016106c3565b6001600160a01b0381166000908152600d602052604090205460ff166107da5760405162461bcd60e51b815260206004820152601060248201526f2737ba103932bbb0b932103a37b5b2b760811b60448201526064016106c3565b6001600160a01b0381166000908152600d60205260409020805460ff19169055600c54600381116108595760405162461bcd60e51b8152602060048201526024808201527f4669727374203320746f6b656e732073686f756c64206e6f742062652072656d6044820152631bdd995960e21b60648201526084016106c3565b600360005b828210156108b9576000600c838154811061087b5761087b61254b565b6000918252602090912001546001600160a01b039081169150851681036108a65760019150506108b9565b50816108b181612561565b92505061085e565b806109065760405162461bcd60e51b815260206004820181905260248201527f466972737420746f6b656e7320666f7262696464656e20746f2072656d6f766560448201526064016106c3565b600c610913600185612534565b815481106109235761092361254b565b600091825260209091200154600c80546001600160a01b03909216918490811061094f5761094f61254b565b9060005260206000200160006101000a8154816001600160a01b0302191690836001600160a01b03160217905550600c80548061098e5761098e61257a565b600082815260209020810160001990810180546001600160a01b031916905501905550505050565b60006109c3600283612512565b905060006109d18284612534565b90506109dc82610e5d565b61067e81610e5d565b6109f1828260006112ac565b6001600160a01b03909316600090815260076020908152604080832060069092529091209390935590915550565b60006106318261149c565b600c8181548110610a3a57600080fd5b6000918252602090912001546001600160a01b0316905081565b6001600160a01b0381166000908152600560205260408120544210610a7b57506000919050565b6001600160a01b038216600090815260056020526040812054610a9f904290612534565b6001600160a01b038416600090815260046020526040902054909150670de0b6b3a764000090610acf9083612590565b610ad99190612512565b9392505050565b6106d782826114be565b61064c81610f00565b6001600160a01b0381166000908152600b6020526040812054610631565b6001546001600160a01b03163314610b5a5760405162461bcd60e51b815260206004820152600c60248201526b2737ba1037b832b930ba37b960a11b60448201526064016106c3565b61064c8161184c565b60006106318261195b565b600080610b7b8484611a06565b915091505b9250929050565b6001600160a01b0382166000908152600f6020526040812054808203610bb1576000915050610631565b6001600160a01b0384166000908152600e60205260409020610bd4908285611a90565b949350505050565b6001600160a01b0381166000908152600f60205260408120548103610c0357506000610631565b6001600160a01b03808416600081815260086020908152604080832094871683529381528382205492825260128152838220828052905291822054610c489190611bd6565b90506000610c568483610b87565b6001600160a01b0385166000908152600f602052604081205491925090610c7f90600190612534565b905060008115610d9157825b610c96600184612534565b8111610d8f576001600160a01b0387166000818152600e602081815260408084208685528083528185208251808401909352805483526001908101548385015295855292909152928290610ceb9086906125af565b81526020019081526020016000206040518060400160405290816000820154815260200160018201548152505090506000610d2a8b8460000151611a06565b5090506000610d3d8c8460000151611a06565b509050670de0b6b3a7640000610d538383612534565b8560200151610d629190612590565b610d6c9190612512565b610d7690876125af565b9550505050508080610d8790612561565b915050610c8b565b505b6001600160a01b0386166000908152600e60209081526040808320858452825280832081518083019092528054808352600190910154928201929092529190610ddb908a90611a06565b506001600160a01b03808b166000908152600960209081526040808320938d1683529290522054909150670de0b6b3a764000090610e1a908390611bd6565b610e238b61195b565b610e2d9190612534565b8360200151610e3c9190612590565b610e469190612512565b610e5090846125af565b9998505050505050505050565b600054600114610e7f5760405162461bcd60e51b81526004016106c3906125c7565b6002600055610e8e3382611bed565b610ec26001600160a01b037f0000000000000000000000000000000000000000000000000000000000000000163383611c43565b60405181815233907f884edad9ce6fa2440d8a54cc123490eb96d2768479d49ff9c7366125a9424364906020015b60405180910390a2506001600055565b600054600114610f225760405162461bcd60e51b81526004016106c3906125c7565b600260005580610f625760405162461bcd60e51b815260206004820152600b60248201526a16995c9bc8185b5bdd5b9d60aa1b60448201526064016106c3565b610f6c3382611ca6565b610fa16001600160a01b037f000000000000000000000000000000000000000000000000000000000000000016333084611ced565b60405181815233907fe1fffcc4923d04b559f4d29a8bfc6cda04eb5b0d3c460751c2402c5c5cc9109c90602001610ef0565b600054600114610ff55760405162461bcd60e51b81526004016106c3906125c7565b600260009081555b82518110156112985761102d83828151811061101b5761101b61254b565b602002602001015160001960016112ac565b600760008685815181106110435761104361254b565b60200260200101516001600160a01b03166001600160a01b031681526020019081526020016000206000600660008887815181106110835761108361254b565b60200260200101516001600160a01b03166001600160a01b03168152602001908152602001600020600084919050558391905055505060006110de8483815181106110d0576110d061254b565b602002602001015186610bdc565b905042600860008685815181106110f7576110f761254b565b60200260200101516001600160a01b03166001600160a01b031681526020019081526020016000206000876001600160a01b03166001600160a01b03168152602001908152602001600020819055506007600085848151811061115c5761115c61254b565b60200260200101516001600160a01b03166001600160a01b03168152602001908152602001600020546009600086858151811061119b5761119b61254b565b6020908102919091018101516001600160a01b0390811683528282019390935260409182016000908120938a168152929052902055801561120d5761120d83828685815181106111ed576111ed61254b565b60200260200101516001600160a01b0316611c439092919063ffffffff16565b83828151811061121f5761121f61254b565b60200260200101516001600160a01b0316336001600160a01b03167fe4394b3c25e336e9d6b7fcefab7e3234f1c6b373f13655dc3920664b080b098d838660405161127d9291909182526001600160a01b0316602082015260400190565b60405180910390a3508061129081612561565b915050610ffd565b506112a283611d2b565b5050600160005550565b6001600160a01b03831660009081526006602090815260408083205460079092528220546011548392919083036112e65792509050611494565b6001600160a01b03871660009081526004602052604081205490036113115792504291506114949050565b600061131c8361149c565b9050600061133860016011546113329190612534565b89611dae565b9050801561141157815b61134d600183612534565b811161140f5760008181526010602090815260409182902082518084019093528054835260010154908201819052156113fc5760006010816113908560016125af565b81526020019081526020016000206040518060400160405290816000820154815260200160018201548152505090506000806113db8e8460000151866000015187602001518d611dbd565b90925090506113ea82896125af565b97506113f78e8983611e41565b975050505b508061140781612561565b915050611342565b505b861561148b57600081815260106020908152604091829020825180840190935280548352600101549082018190521561148957600061146a8b6114538d611f49565b845161145f908a611bd6565b85602001518a611dbd565b50905061147781866125af565b94506114848b8642611e41565b429550505b505b50909350909150505b935093915050565b6011546000908082036114b25750600092915050565b610ad960108285611a90565b6000546001146114e05760405162461bcd60e51b81526004016106c3906125c7565b60026000556001600160a01b037f00000000000000000000000000000000000000000000000000000000000000008116908316036115605760405162461bcd60e51b815260206004820152601760248201527f57726f6e6720746f6b656e20666f72207265776172647300000000000000000060448201526064016106c3565b6000811161159e5760405162461bcd60e51b815260206004820152600b60248201526a16995c9bc8185b5bdd5b9d60aa1b60448201526064016106c3565b6001600160a01b0382166000908152600d602052604090205460ff166115fa5760405162461bcd60e51b8152602060048201526011602482015270151bdad95b881b9bdd08185b1b1bddd959607a1b60448201526064016106c3565b6001600160a01b03821660009081526004602052604081205490036116255761162582600042611e41565b6116338260001960016112ac565b6001600160a01b03841660009081526007602090815260408083206006835281842094909455939092556005909152205442106116bd5761167f6001600160a01b038316333084611ced565b62093a80611695670de0b6b3a764000083612590565b61169f9190612512565b6001600160a01b0383166000908152600460205260409020556117dd565b6001600160a01b0382166000908152600560205260408120546116e1904290612534565b6001600160a01b038416600090815260046020526040812054919250906117089083612590565b905061171c670de0b6b3a764000082612512565b83116117815760405162461bcd60e51b815260206004820152602e60248201527f416d6f756e742073686f756c6420626520686967686572207468616e2072656d60448201526d61696e696e67207265776172647360901b60648201526084016106c3565b6117966001600160a01b038516333086611ced565b62093a80816117ad670de0b6b3a764000086612590565b6117b791906125af565b6117c19190612512565b6001600160a01b03851660009081526004602052604090205550505b6117ea62093a80426125af565b6001600160a01b0383166000818152600560205260409081902092909255905133907ff70d5c697de7ea828df48e5c4573cb2194c659f1901f70110c52b066dcf508269061183b9085815260200190565b60405180910390a350506001600055565b600c54600a116118975760405162461bcd60e51b8152602060048201526016602482015275546f6f206d616e792072657761726420746f6b656e7360501b60448201526064016106c3565b6001600160a01b0381166000908152600d602052604090205460ff16156118f55760405162461bcd60e51b8152602060048201526012602482015271105b1c9958591e481c9959da5cdd195c995960721b60448201526064016106c3565b6001600160a01b03166000818152600d60205260408120805460ff19166001908117909155600c805491820181559091527fdf6966c971051c3d54ec59162606531493a51404a002842f56009d7e5cf4a8c70180546001600160a01b0319169091179055565b600060025460000361198357506001600160a01b031660009081526007602052604090205490565b6002546001600160a01b038316600090815260046020908152604080832054600683528184205460059093529220546119bc9190611dae565b6119c585611f49565b6119cf9190612534565b6119d99190612590565b6119e39190612512565b6001600160a01b03831660009081526007602052604090205461063191906125af565b6001600160a01b0382166000908152601360205260408120548190808203611a35576000809250925050610b80565b6001600160a01b038516600090815260126020526040812090611a59828488611a90565b6000908152602092835260409081902081518083019092528054808352600190910154919093018190529791965090945050505050565b600082600003611ad65760405162461bcd60e51b8152602060048201526011602482015270456d70747920636865636b706f696e747360781b60448201526064016106c3565b81846000611ae5600187612534565b81526020019081526020016000206000015411611b0e57611b07600184612534565b9050610ad9565b600080805260208590526040902054821015611b2c57506000610ad9565b600080611b3a600186612534565b90505b81811115611bcd5760006002611b538484612534565b611b5d9190612512565b611b679083612534565b60008181526020898152604091829020825180840190935280548084526001909101549183019190915291925090869003611ba757509250610ad9915050565b8051861115611bb857819350611bc6565b611bc3600183612534565b92505b5050611b3d565b50949350505050565b600081831015611be6578161062e565b5090919050565b611bf5611f6d565b80600a6000828254611c079190612534565b90915550506001600160a01b0382166000908152600b602052604081208054839290611c34908490612534565b909155506106d7905082611d2b565b6040516001600160a01b03831660248201526044810182905261067e90849063a9059cbb60e01b906064015b60408051601f198184030181529190526020810180516001600160e01b03166001600160e01b031990931692909217909152611ff1565b611cae611f6d565b80600a6000828254611cc091906125af565b90915550506001600160a01b0382166000908152600b602052604081208054839290611c349084906125af565b6040516001600160a01b0380851660248301528316604482015260648101829052611d259085906323b872dd60e01b90608401611c6f565b50505050565b6001600160a01b0381166000908152600360205260408120546002805491928392611d57908490612534565b9091555050506001600160a01b0381166000908152600b6020908152604080832054600390925282208190556002805491928392611d969084906125af565b90915550611da6905082826120c3565b6106d76121b4565b6000818310611be6578161062e565b6000806000611dcc8785611bd6565b6001600160a01b038916600090815260056020908152604080832054600490925290912054919250908690611e0a611e048a89611bd6565b84611dae565b611e148585611dae565b611e1e9190612534565b611e289190612590565b611e329190612512565b99919850909650505050505050565b6001600160a01b0383166000908152601360205260409020548015801590611e9d57506001600160a01b03841660009081526012602052604081208391611e89600185612534565b815260200190815260200160002060000154145b15611ee0576001600160a01b03841660009081526012602052604081208491611ec7600185612534565b8152602081019190915260400160002060010155611d25565b60408051808201825283815260208082018681526001600160a01b038816600090815260128352848120868252909252929020905181559051600191820155611f2a9082906125af565b6001600160a01b03851660009081526013602052604090205550505050565b6001600160a01b038116600090815260056020526040812054610631904290611dae565b600c5460005b818110156106d7576000600c8281548110611f9057611f9061254b565b6000918252602090912001546001600160a01b03169050611fb58160001960016112ac565b6001600160a01b039092166000908152600760209081526040808320600690925290912092909255905580611fe981612561565b915050611f73565b6000612046826040518060400160405280602081526020017f5361666545524332303a206c6f772d6c6576656c2063616c6c206661696c6564815250856001600160a01b03166122589092919063ffffffff16565b80519091501561067e578080602001905181019061206491906125ef565b61067e5760405162461bcd60e51b815260206004820152602a60248201527f5361666545524332303a204552433230206f7065726174696f6e20646964206e6044820152691bdd081cdd58d8d9595960b21b60648201526084016106c3565b6001600160a01b0382166000908152600f60205260409020544290801580159061212157506001600160a01b0384166000908152600e60205260408120839161210d600185612534565b815260200190815260200160002060000154145b1561214b576001600160a01b0384166000908152600e602052604081208491611ec7600185612534565b60408051808201825283815260208082018681526001600160a01b0388166000908152600e83528481208682529092529290209051815590516001918201556121959082906125af565b6001600160a01b0385166000908152600f602052604090205550505050565b6011544281158015906121e6575080601060006121d2600186612534565b815260200190815260200160002060000154145b1561221557600254601060006121fd600186612534565b81526020810191909152604001600020600101555050565b604080518082018252828152600254602080830191825260008681526010909152929092209051815590516001918201556122519083906125af565b6011555050565b60606001600160a01b0384163b6122b15760405162461bcd60e51b815260206004820152601d60248201527f416464726573733a2063616c6c20746f206e6f6e2d636f6e747261637400000060448201526064016106c3565b600080856001600160a01b0316856040516122cc919061263d565b6000604051808303816000865af19150503d8060008114612309576040519150601f19603f3d011682016040523d82523d6000602084013e61230e565b606091505b509150915061231e828286612328565b9695505050505050565b60608315612337575081610ad9565b8251156123475782518084602001fd5b8160405162461bcd60e51b81526004016106c39190612659565b80356001600160a01b038116811461237857600080fd5b919050565b6000806040838503121561239057600080fd5b61239983612361565b946020939093013593505050565b600080604083850312156123ba57600080fd5b6123c383612361565b91506123d160208401612361565b90509250929050565b6000602082840312156123ec57600080fd5b61062e82612361565b60006020828403121561240757600080fd5b5035919050565b634e487b7160e01b600052604160045260246000fd5b6000806040838503121561243757600080fd5b61244083612361565b915060208084013567ffffffffffffffff8082111561245e57600080fd5b818601915086601f83011261247257600080fd5b8135818111156124845761248461240e565b8060051b604051601f19603f830116810181811085821117156124a9576124a961240e565b6040529182528482019250838101850191898311156124c757600080fd5b938501935b828510156124ec576124dd85612361565b845293850193928501926124cc565b8096505050505050509250929050565b634e487b7160e01b600052601160045260246000fd5b60008261252f57634e487b7160e01b600052601260045260246000fd5b500490565b600082821015612546576125466124fc565b500390565b634e487b7160e01b600052603260045260246000fd5b600060018201612573576125736124fc565b5060010190565b634e487b7160e01b600052603160045260246000fd5b60008160001904831182151516156125aa576125aa6124fc565b500290565b600082198211156125c2576125c26124fc565b500190565b6020808252600e908201526d1499595b9d1c985b9d0818d85b1b60921b604082015260600190565b60006020828403121561260157600080fd5b81518015158114610ad957600080fd5b60005b8381101561262c578181015183820152602001612614565b83811115611d255750506000910152565b6000825161264f818460208701612611565b9190910192915050565b6020815260008251806020840152612678816040850160208701612611565b601f01601f1916919091016040019291505056fea2646970667358221220826e925ec60069ed390a12334030337d7dd610633ac9088a713f4d52141019fc64736f6c634300080d0033",
  "linkReferences": {},
  "deployedLinkReferences": {}
}