{
  "_format": "hh-sol-artifact-1",
  "contractName": "DystMinter",
  "sourceName": "contracts/base/token/DystMinter.sol",
  "abi": [
    {
      "inputs": [
        {
          "internalType": "address",
          "name": "ve_",
          "type": "address"
        },
        {
          "internalType": "address",
          "name": "controller_",
          "type": "address"
        },
        {
          "internalType": "uint256",
          "name": "warmingUpPeriod",
          "type": "uint256"
        }
      ],
      "stateMutability": "nonpayable",
      "type": "constructor"
    },
    {
      "anonymous": false,
      "inputs": [
        {
          "indexed": true,
          "internalType": "address",
          "name": "sender",
          "type": "address"
        },
        {
          "indexed": false,
          "internalType": "uint256",
          "name": "weekly",
          "type": "uint256"
        },
        {
          "indexed": false,
          "internalType": "uint256",
          "name": "growth",
          "type": "uint256"
        },
        {
          "indexed": false,
          "internalType": "uint256",
          "name": "circulatingSupply",
          "type": "uint256"
        },
        {
          "indexed": false,
          "internalType": "uint256",
          "name": "circulatingEmission",
          "type": "uint256"
        }
      ],
      "name": "Mint",
      "type": "event"
    },
    {
      "inputs": [],
      "name": "activePeriod",
      "outputs": [
        {
          "internalType": "uint256",
          "name": "",
          "type": "uint256"
        }
      ],
      "stateMutability": "view",
      "type": "function"
    },
    {
      "inputs": [],
      "name": "baseWeeklyEmission",
      "outputs": [
        {
          "internalType": "uint256",
          "name": "",
          "type": "uint256"
        }
      ],
      "stateMutability": "view",
      "type": "function"
    },
    {
      "inputs": [],
      "name": "calculateEmission",
      "outputs": [
        {
          "internalType": "uint256",
          "name": "",
          "type": "uint256"
        }
      ],
      "stateMutability": "view",
      "type": "function"
    },
    {
      "inputs": [
        {
          "internalType": "uint256",
          "name": "_minted",
          "type": "uint256"
        }
      ],
      "name": "calculateGrowth",
      "outputs": [
        {
          "internalType": "uint256",
          "name": "",
          "type": "uint256"
        }
      ],
      "stateMutability": "view",
      "type": "function"
    },
    {
      "inputs": [],
      "name": "circulatingEmission",
      "outputs": [
        {
          "internalType": "uint256",
          "name": "",
          "type": "uint256"
        }
      ],
      "stateMutability": "view",
      "type": "function"
    },
    {
      "inputs": [],
      "name": "circulatingSupply",
      "outputs": [
        {
          "internalType": "uint256",
          "name": "",
          "type": "uint256"
        }
      ],
      "stateMutability": "view",
      "type": "function"
    },
    {
      "inputs": [],
      "name": "controller",
      "outputs": [
        {
          "internalType": "address",
          "name": "",
          "type": "address"
        }
      ],
      "stateMutability": "view",
      "type": "function"
    },
    {
      "inputs": [],
      "name": "initialStubCirculation",
      "outputs": [
        {
          "internalType": "uint256",
          "name": "",
          "type": "uint256"
        }
      ],
      "stateMutability": "view",
      "type": "function"
    },
    {
      "inputs": [
        {
          "internalType": "address[]",
          "name": "claimants",
          "type": "address[]"
        },
        {
          "internalType": "uint256[]",
          "name": "amounts",
          "type": "uint256[]"
        },
        {
          "internalType": "uint256",
          "name": "totalAmount",
          "type": "uint256"
        }
      ],
      "name": "initialize",
      "outputs": [],
      "stateMutability": "nonpayable",
      "type": "function"
    },
    {
      "inputs": [],
      "name": "token",
      "outputs": [
        {
          "internalType": "contract IUnderlying",
          "name": "",
          "type": "address"
        }
      ],
      "stateMutability": "view",
      "type": "function"
    },
    {
      "inputs": [],
      "name": "updatePeriod",
      "outputs": [
        {
          "internalType": "uint256",
          "name": "",
          "type": "uint256"
        }
      ],
      "stateMutability": "nonpayable",
      "type": "function"
    },
    {
      "inputs": [],
      "name": "ve",
      "outputs": [
        {
          "internalType": "contract IVe",
          "name": "",
          "type": "address"
        }
      ],
      "stateMutability": "view",
      "type": "function"
    },
    {
      "inputs": [],
      "name": "weeklyEmission",
      "outputs": [
        {
          "internalType": "uint256",
          "name": "",
          "type": "uint256"
        }
      ],
      "stateMutability": "view",
      "type": "function"
    }
  ],
  "bytecode": "0x60e06040526a108b2a2c280290940000006000553480156200002057600080fd5b50604051620017a1380380620017a1833981016040819052620000439162000139565b600380546001600160a01b0319163317905560408051637e062a3560e11b815290516001600160a01b0385169163fc0c546a9160048083019260209291908290030181865afa1580156200009b573d6000803e3d6000fd5b505050506040513d601f19601f82011682018060405250810190620000c191906200017a565b6001600160a01b0390811660805283811660a052821660c05262093a8080620000eb8184620001b5565b620000f79042620001d7565b620001039190620001f2565b6200010f9190620001b5565b6002555062000215915050565b80516001600160a01b03811681146200013457600080fd5b919050565b6000806000606084860312156200014f57600080fd5b6200015a846200011c565b92506200016a602085016200011c565b9150604084015190509250925092565b6000602082840312156200018d57600080fd5b62000198826200011c565b9392505050565b634e487b7160e01b600052601160045260246000fd5b6000816000190483118215151615620001d257620001d26200019f565b500290565b60008219821115620001ed57620001ed6200019f565b500190565b6000826200021057634e487b7160e01b600052601260045260246000fd5b500490565b60805160a05160c0516114e6620002bb6000396000818161018d01528181610d790152610e5401526000818160fe015281816102e30152818161039001528181610af20152610cd70152600081816101bd0152818161024c015281816103130152818161061f0152818161069e015281816107420152818161081f015281816109de01528181610a5301528181610b7401528181610c540152610eb401526114e66000f3fe608060405234801561001057600080fd5b50600436106100cf5760003560e01c8063aa8754e41161008c578063e4a091da11610066578063e4a091da14610175578063f77c479114610188578063f9d9e6fd146101af578063fc0c546a146101b857600080fd5b8063aa8754e41461015d578063d3b15c8c14610165578063d70142fb1461016d57600080fd5b806302c3b420146100d45780630a441f7b146100f05780631f850716146100f957806385170813146101385780639358928b1461014d578063a83627de14610155575b600080fd5b6100dd60005481565b6040519081526020015b60405180910390f35b6100dd60025481565b6101207f000000000000000000000000000000000000000000000000000000000000000081565b6040516001600160a01b0390911681526020016100e7565b61014b610146366004611240565b6101df565b005b6100dd61052b565b6100dd61053a565b6100dd610997565b6100dd6109a1565b6100dd6109ab565b6100dd61018336600461130b565b6109b5565b6101207f000000000000000000000000000000000000000000000000000000000000000081565b6100dd60015481565b6101207f000000000000000000000000000000000000000000000000000000000000000081565b6003546001600160a01b031633146102305760405162461bcd60e51b815260206004820152600f60248201526e2737ba1034b734ba34b0b634bd32b960891b60448201526064015b60405180910390fd5b6040516340c10f1960e01b8152306004820152602481018290527f00000000000000000000000000000000000000000000000000000000000000006001600160a01b0316906340c10f1990604401600060405180830381600087803b15801561029857600080fd5b505af11580156102ac573d6000803e3d6000fd5b505050506064600a826102bf919061133a565b6102c99190611359565b60015560405163095ea7b360e01b81526001600160a01b037f00000000000000000000000000000000000000000000000000000000000000008116600483015260001960248301527f0000000000000000000000000000000000000000000000000000000000000000169063095ea7b3906044016020604051808303816000875af115801561035c573d6000803e3d6000fd5b505050506040513d601f19601f82011682018060405250810190610380919061137b565b506000805b84518110156104ab577f00000000000000000000000000000000000000000000000000000000000000006001600160a01b031663ec32e6df8583815181106103cf576103cf61139d565b602002602001015163077f88008885815181106103ee576103ee61139d565b60200260200101516040518463ffffffff1660e01b815260040161042e9392919092835260208301919091526001600160a01b0316604082015260600190565b6020604051808303816000875af115801561044d573d6000803e3d6000fd5b505050506040513d601f19601f8201168201806040525081019061047191906113b3565b508381815181106104845761048461139d565b60200260200101518261049791906113cc565b9150806104a3816113e4565b915050610385565b508181146104ef5760405162461bcd60e51b815260206004820152601160248201527015dc9bdb99c81d1bdd185b105b5bdd5b9d607a1b6044820152606401610227565b600380546001600160a01b031916905562093a808061050e81426113cc565b6105189190611359565b610522919061133a565b60025550505050565b60006105356109c6565b905090565b60025460009061054d62093a80826113cc565b421015801561056557506003546001600160a01b0316155b156109925762093a806105788142611359565b610582919061133a565b600281905590506000610593610c12565b9050606460626000546105a6919061133a565b6105b09190611359565b6000556105bb610c2c565b60015411156105e357606460636001546105d5919061133a565b6105df9190611359565b6001555b60006105ee82610c4e565b905060006105fc83836113cc565b6040516370a0823160e01b81523060048201529091506000906001600160a01b037f000000000000000000000000000000000000000000000000000000000000000016906370a0823190602401602060405180830381865afa158015610666573d6000803e3d6000fd5b505050506040513d601f19601f8201168201806040525081019061068a91906113b3565b90508181101561072d576001600160a01b037f0000000000000000000000000000000000000000000000000000000000000000166340c10f19306106ce84866113fd565b6040516001600160e01b031960e085901b1681526001600160a01b0390921660048301526024820152604401600060405180830381600087803b15801561071457600080fd5b505af1158015610728573d6000803e3d6000fd5b505050505b610769610738610d75565b6001600160a01b037f0000000000000000000000000000000000000000000000000000000000000000169085610df9565b610771610d75565b6001600160a01b031663bee5dc326040518163ffffffff1660e01b8152600401600060405180830381600087803b1580156107ab57600080fd5b505af11580156107bf573d6000803e3d6000fd5b505050506107cb610d75565b6001600160a01b031663326a94076040518163ffffffff1660e01b8152600401600060405180830381600087803b15801561080557600080fd5b505af1158015610819573d6000803e3d6000fd5b505050507f00000000000000000000000000000000000000000000000000000000000000006001600160a01b031663095ea7b3610854610e50565b6040516001600160e01b031960e084901b1681526001600160a01b039091166004820152602481018790526044016020604051808303816000875af11580156108a1573d6000803e3d6000fd5b505050506040513d601f19601f820116820180604052508101906108c5919061137b565b506108ce610e50565b6001600160a01b0316633c6b16ab856040518263ffffffff1660e01b81526004016108fb91815260200190565b600060405180830381600087803b15801561091557600080fd5b505af1158015610929573d6000803e3d6000fd5b50505050336001600160a01b03167f94c792774c59479f7bd68442f3af3691c02123a5aabee8b6f9116d8af8aa666985856109626109c6565b61096a610c2c565b60408051948552602085019390935291830152606082015260800160405180910390a2505050505b919050565b6000610535610eb0565b6000610535610c2c565b6000610535610c12565b60006109c082610c4e565b92915050565b6040516370a0823160e01b81523060048201526000907f00000000000000000000000000000000000000000000000000000000000000006001600160a01b0316906370a0823190602401602060405180830381865afa158015610a2d573d6000803e3d6000fd5b505050506040513d601f19601f82011682018060405250810190610a5191906113b3565b7f00000000000000000000000000000000000000000000000000000000000000006001600160a01b03166370a08231610a88610d75565b6040516001600160e01b031960e084901b1681526001600160a01b039091166004820152602401602060405180830381865afa158015610acc573d6000803e3d6000fd5b505050506040513d601f19601f82011682018060405250810190610af091906113b3565b7f00000000000000000000000000000000000000000000000000000000000000006001600160a01b03166318160ddd6040518163ffffffff1660e01b8152600401602060405180830381865afa158015610b4e573d6000803e3d6000fd5b505050506040513d601f19601f82011682018060405250810190610b7291906113b3565b7f00000000000000000000000000000000000000000000000000000000000000006001600160a01b03166318160ddd6040518163ffffffff1660e01b8152600401602060405180830381865afa158015610bd0573d6000803e3d6000fd5b505050506040513d601f19601f82011682018060405250810190610bf491906113b3565b610bfe91906113fd565b610c0891906113fd565b61053591906113fd565b6000610535610c1f610eb0565b610c27610c2c565b610f49565b600060646001610c3a6109c6565b610c44919061133a565b6105359190611359565b6000600a7f00000000000000000000000000000000000000000000000000000000000000006001600160a01b03166318160ddd6040518163ffffffff1660e01b8152600401602060405180830381865afa158015610cb0573d6000803e3d6000fd5b505050506040513d601f19601f82011682018060405250810190610cd491906113b3565b837f00000000000000000000000000000000000000000000000000000000000000006001600160a01b03166318160ddd6040518163ffffffff1660e01b8152600401602060405180830381865afa158015610d33573d6000803e3d6000fd5b505050506040513d601f19601f82011682018060405250810190610d5791906113b3565b610d61919061133a565b610d6b9190611359565b6109c09190611359565b60007f00000000000000000000000000000000000000000000000000000000000000006001600160a01b031663c13270f16040518163ffffffff1660e01b8152600401602060405180830381865afa158015610dd5573d6000803e3d6000fd5b505050506040513d601f19601f820116820180604052508101906105359190611414565b604080516001600160a01b038416602482015260448082018490528251808303909101815260649091019091526020810180516001600160e01b031663a9059cbb60e01b179052610e4b908490610f62565b505050565b60007f00000000000000000000000000000000000000000000000000000000000000006001600160a01b03166346c96aac6040518163ffffffff1660e01b8152600401602060405180830381865afa158015610dd5573d6000803e3d6000fd5b60007f00000000000000000000000000000000000000000000000000000000000000006001600160a01b03166318160ddd6040518163ffffffff1660e01b8152600401602060405180830381865afa158015610f10573d6000803e3d6000fd5b505050506040513d601f19601f82011682018060405250810190610f3491906113b3565b610f3c611034565b600054610c44919061133a565b600081831015610f595781610f5b565b825b9392505050565b6000610fb7826040518060400160405280602081526020017f5361666545524332303a206c6f772d6c6576656c2063616c6c206661696c6564815250856001600160a01b03166110499092919063ffffffff16565b805190915015610e4b5780806020019051810190610fd5919061137b565b610e4b5760405162461bcd60e51b815260206004820152602a60248201527f5361666545524332303a204552433230206f7065726174696f6e20646964206e6044820152691bdd081cdd58d8d9595960b21b6064820152608401610227565b60006105356110416109c6565b600154610f49565b60606001600160a01b0384163b6110a25760405162461bcd60e51b815260206004820152601d60248201527f416464726573733a2063616c6c20746f206e6f6e2d636f6e74726163740000006044820152606401610227565b600080856001600160a01b0316856040516110bd9190611461565b6000604051808303816000865af19150503d80600081146110fa576040519150601f19603f3d011682016040523d82523d6000602084013e6110ff565b606091505b509150915061110f828286611119565b9695505050505050565b60608315611128575081610f5b565b8251156111385782518084602001fd5b8160405162461bcd60e51b8152600401610227919061147d565b634e487b7160e01b600052604160045260246000fd5b604051601f8201601f1916810167ffffffffffffffff8111828210171561119157611191611152565b604052919050565b600067ffffffffffffffff8211156111b3576111b3611152565b5060051b60200190565b6001600160a01b03811681146111d257600080fd5b50565b600082601f8301126111e657600080fd5b813560206111fb6111f683611199565b611168565b82815260059290921b8401810191818101908684111561121a57600080fd5b8286015b84811015611235578035835291830191830161121e565b509695505050505050565b60008060006060848603121561125557600080fd5b833567ffffffffffffffff8082111561126d57600080fd5b818601915086601f83011261128157600080fd5b813560206112916111f683611199565b82815260059290921b8401810191818101908a8411156112b057600080fd5b948201945b838610156112d75785356112c8816111bd565b825294820194908201906112b5565b975050870135925050808211156112ed57600080fd5b506112fa868287016111d5565b925050604084013590509250925092565b60006020828403121561131d57600080fd5b5035919050565b634e487b7160e01b600052601160045260246000fd5b600081600019048311821515161561135457611354611324565b500290565b60008261137657634e487b7160e01b600052601260045260246000fd5b500490565b60006020828403121561138d57600080fd5b81518015158114610f5b57600080fd5b634e487b7160e01b600052603260045260246000fd5b6000602082840312156113c557600080fd5b5051919050565b600082198211156113df576113df611324565b500190565b6000600182016113f6576113f6611324565b5060010190565b60008282101561140f5761140f611324565b500390565b60006020828403121561142657600080fd5b8151610f5b816111bd565b60005b8381101561144c578181015183820152602001611434565b8381111561145b576000848401525b50505050565b60008251611473818460208701611431565b9190910192915050565b602081526000825180602084015261149c816040850160208701611431565b601f01601f1916919091016040019291505056fea2646970667358221220447f937dcede9fd6ead182020131180a9da58e5088026d3234875147d45ff78964736f6c634300080d0033",
  "linkReferences": {},
  "deployedLinkReferences": {}
}