{
  "_format": "hh-sol-artifact-1",
  "contractName": "VeDistUpgradeable",
  "sourceName": "contracts/Upgradeable/VeDistUpgradeable.sol",
  "abi": [
    {
      "anonymous": false,
      "inputs": [
        {
          "indexed": false,
          "internalType": "uint256",
          "name": "time",
          "type": "uint256"
        },
        {
          "indexed": false,
          "internalType": "uint256",
          "name": "tokens",
          "type": "uint256"
        }
      ],
      "name": "CheckpointToken",
      "type": "event"
    },
    {
      "anonymous": false,
      "inputs": [
        {
          "indexed": false,
          "internalType": "uint256",
          "name": "tokenId",
          "type": "uint256"
        },
        {
          "indexed": false,
          "internalType": "uint256",
          "name": "amount",
          "type": "uint256"
        },
        {
          "indexed": false,
          "internalType": "uint256",
          "name": "claim_epoch",
          "type": "uint256"
        },
        {
          "indexed": false,
          "internalType": "uint256",
          "name": "max_epoch",
          "type": "uint256"
        }
      ],
      "name": "Claimed",
      "type": "event"
    },
    {
      "inputs": [],
      "name": "checkpoint_token",
      "outputs": [],
      "stateMutability": "nonpayable",
      "type": "function"
    },
    {
      "inputs": [],
      "name": "checkpoint_total_supply",
      "outputs": [],
      "stateMutability": "nonpayable",
      "type": "function"
    },
    {
      "inputs": [
        {
          "internalType": "uint256",
          "name": "_tokenId",
          "type": "uint256"
        }
      ],
      "name": "claim",
      "outputs": [
        {
          "internalType": "uint256",
          "name": "",
          "type": "uint256"
        }
      ],
      "stateMutability": "nonpayable",
      "type": "function"
    },
    {
      "inputs": [
        {
          "internalType": "uint256[]",
          "name": "_tokenIds",
          "type": "uint256[]"
        }
      ],
      "name": "claim_many",
      "outputs": [
        {
          "internalType": "bool",
          "name": "",
          "type": "bool"
        }
      ],
      "stateMutability": "nonpayable",
      "type": "function"
    },
    {
      "inputs": [
        {
          "internalType": "uint256",
          "name": "_tokenId",
          "type": "uint256"
        }
      ],
      "name": "claimable",
      "outputs": [
        {
          "internalType": "uint256",
          "name": "",
          "type": "uint256"
        }
      ],
      "stateMutability": "view",
      "type": "function"
    },
    {
      "inputs": [],
      "name": "depositor",
      "outputs": [
        {
          "internalType": "address",
          "name": "",
          "type": "address"
        }
      ],
      "stateMutability": "view",
      "type": "function"
    },
    {
      "inputs": [
        {
          "internalType": "address",
          "name": "_voting_escrow",
          "type": "address"
        },
        {
          "internalType": "address",
          "name": "admin",
          "type": "address"
        }
      ],
      "name": "initialize",
      "outputs": [],
      "stateMutability": "nonpayable",
      "type": "function"
    },
    {
      "inputs": [],
      "name": "last_token_time",
      "outputs": [
        {
          "internalType": "uint256",
          "name": "",
          "type": "uint256"
        }
      ],
      "stateMutability": "view",
      "type": "function"
    },
    {
      "inputs": [
        {
          "internalType": "address",
          "name": "_depositor",
          "type": "address"
        }
      ],
      "name": "setDepositor",
      "outputs": [],
      "stateMutability": "nonpayable",
      "type": "function"
    },
    {
      "inputs": [],
      "name": "start_time",
      "outputs": [
        {
          "internalType": "uint256",
          "name": "",
          "type": "uint256"
        }
      ],
      "stateMutability": "view",
      "type": "function"
    },
    {
      "inputs": [],
      "name": "time_cursor",
      "outputs": [
        {
          "internalType": "uint256",
          "name": "",
          "type": "uint256"
        }
      ],
      "stateMutability": "view",
      "type": "function"
    },
    {
      "inputs": [
        {
          "internalType": "uint256",
          "name": "",
          "type": "uint256"
        }
      ],
      "name": "time_cursor_of",
      "outputs": [
        {
          "internalType": "uint256",
          "name": "",
          "type": "uint256"
        }
      ],
      "stateMutability": "view",
      "type": "function"
    },
    {
      "inputs": [],
      "name": "timestamp",
      "outputs": [
        {
          "internalType": "uint256",
          "name": "",
          "type": "uint256"
        }
      ],
      "stateMutability": "view",
      "type": "function"
    },
    {
      "inputs": [],
      "name": "token",
      "outputs": [
        {
          "internalType": "address",
          "name": "",
          "type": "address"
        }
      ],
      "stateMutability": "view",
      "type": "function"
    },
    {
      "inputs": [],
      "name": "token_last_balance",
      "outputs": [
        {
          "internalType": "uint256",
          "name": "",
          "type": "uint256"
        }
      ],
      "stateMutability": "view",
      "type": "function"
    },
    {
      "inputs": [
        {
          "internalType": "uint256",
          "name": "",
          "type": "uint256"
        }
      ],
      "name": "tokens_per_week",
      "outputs": [
        {
          "internalType": "uint256",
          "name": "",
          "type": "uint256"
        }
      ],
      "stateMutability": "view",
      "type": "function"
    },
    {
      "inputs": [
        {
          "internalType": "uint256",
          "name": "",
          "type": "uint256"
        }
      ],
      "name": "user_epoch_of",
      "outputs": [
        {
          "internalType": "uint256",
          "name": "",
          "type": "uint256"
        }
      ],
      "stateMutability": "view",
      "type": "function"
    },
    {
      "inputs": [
        {
          "internalType": "uint256",
          "name": "_tokenId",
          "type": "uint256"
        },
        {
          "internalType": "uint256",
          "name": "_timestamp",
          "type": "uint256"
        }
      ],
      "name": "ve_for_at",
      "outputs": [
        {
          "internalType": "uint256",
          "name": "",
          "type": "uint256"
        }
      ],
      "stateMutability": "view",
      "type": "function"
    },
    {
      "inputs": [
        {
          "internalType": "uint256",
          "name": "",
          "type": "uint256"
        }
      ],
      "name": "ve_supply",
      "outputs": [
        {
          "internalType": "uint256",
          "name": "",
          "type": "uint256"
        }
      ],
      "stateMutability": "view",
      "type": "function"
    },
    {
      "inputs": [],
      "name": "voting_escrow",
      "outputs": [
        {
          "internalType": "address",
          "name": "",
          "type": "address"
        }
      ],
      "stateMutability": "view",
      "type": "function"
    }
  ],
  "bytecode": "0x608060405234801561001057600080fd5b50611b47806100206000396000f3fe608060405234801561001057600080fd5b506004361061012c5760003560e01c8063834ee417116100ad578063d4dafba811610071578063d4dafba814610268578063dfe050311461027b578063edf5999714610294578063f2c098b7146102a7578063fc0c546a146102ba57600080fd5b8063834ee4171461020b578063b21ed50214610214578063b80777ea1461021c578063c7c4ff4614610224578063d1d58b251461025557600080fd5b8063485cc955116100f4578063485cc955146101b2578063486d25fe146101c757806368809889146101e75780637f58e8f8146101fa578063811a40fe1461020357600080fd5b8063127dcbd31461013157806316aea5c01461014d5780631f1db0431461016d57806322b04bfc14610190578063379607f51461019f575b600080fd5b61013a60015481565b6040519081526020015b60405180910390f35b61013a61015b3660046116df565b60036020526000908152604090205481565b61018061017b36600461173f565b6102d3565b6040519015158152602001610144565b61013a66038d7ea4c680075481565b61013a6101ad3660046116df565b61041a565b6101c56101c03660046117fd565b610504565b005b61013a6101d53660046116df565b60026020526000908152604090205481565b61013a6101f5366004611836565b61065f565b61013a60045481565b6101c56107a2565b61013a60005481565b6101c56107cc565b61013a6107d4565b66071afd498d00085461023d906001600160a01b031681565b6040516001600160a01b039091168152602001610144565b61013a6102633660046116df565b6107f3565b61013a6102763660046116df565b610833565b66038d7ea4c680055461023d906001600160a01b031681565b61013a6102a23660046116df565b610856565b6101c56102b5366004611858565b61086c565b66038d7ea4c680065461023d906001600160a01b031681565b600060015442106102e6576102e66108b1565b600454620151806102f7818361188b565b61030191906118ad565b66038d7ea4c68005549091506001600160a01b03166000805b85518110156103ea576000868281518110610337576103376118cc565b60200260200101519050806000141561035057506103ea565b600061035d828688610a5a565b905080156103d557604051631dd33fc560e31b815260048101839052602481018290526001600160a01b0386169063ee99fe2890604401600060405180830381600087803b1580156103ae57600080fd5b505af11580156103c2573d6000803e3d6000fd5b5050505080846103d291906118e2565b93505b505080806103e2906118fa565b91505061031a565b50801561040f578066038d7ea4c6800760008282546104099190611915565b90915550505b506001949350505050565b6000600154421061042d5761042d6108b1565b6004546201518061043e818361188b565b61044891906118ad565b66038d7ea4c680055490915060009061046c9085906001600160a01b031684610a5a565b905080156104fd5766038d7ea4c6800554604051631dd33fc560e31b815260048101869052602481018390526001600160a01b039091169063ee99fe2890604401600060405180830381600087803b1580156104c757600080fd5b505af11580156104db573d6000803e3d6000fd5b505050508066038d7ea4c6800760008282546104f79190611915565b90915550505b9392505050565b600062015180610514814261188b565b61051e91906118ad565b90508060008190555080600481905550806001819055506000836001600160a01b031663fc0c546a6040518163ffffffff1660e01b8152600401602060405180830381865afa158015610575573d6000803e3d6000fd5b505050506040513d601f19601f82011682018060405250810190610599919061192c565b66038d7ea4c6800680546001600160a01b03199081166001600160a01b0384811691821790935566038d7ea4c680058054831689851690811790915566071afd498d000880549093169388169390931790915560405163095ea7b360e01b81526004810192909252600019602483015291925063095ea7b3906044016020604051808303816000875af1158015610634573d6000803e3d6000fd5b505050506040513d601f19601f820116820180604052508101906106589190611949565b5050505050565b66038d7ea4c680055460405163391044d760e21b8152600481018490526000916001600160a01b0316908290829063e441135c90602401602060405180830381865afa1580156106b3573d6000803e3d6000fd5b505050506040513d601f19601f820116820180604052508101906106d7919061196b565b905060006106e783878785610e76565b6040516309bb79ed60e11b815260048101889052602481018290529091506000906001600160a01b03851690631376f3da90604401608060405180830381865afa158015610739573d6000803e3d6000fd5b505050506040513d601f19601f8201168201806040525081019061075d919061199b565b90506107978160400151876107729190611915565b82602001516107819190611a0d565b825161078d9190611aab565b600f0b6000610f6e565b979650505050505050565b66071afd498d0008546001600160a01b031633146107c2576107c2611afb565b6107ca610f85565b565b6107ca6108b1565b6000620151806107e4814261188b565b6107ee91906118ad565b905090565b6000806201518080600454610808919061188b565b61081291906118ad565b66038d7ea4c68005549091506104fd9084906001600160a01b0316836111e2565b66038d7ea4c680088166038d7ea4c68000811061084f57600080fd5b0154905081565b60058166038d7ea4c68000811061084f57600080fd5b66071afd498d0008546001600160a01b0316331461088957600080fd5b66071afd498d000880546001600160a01b0319166001600160a01b0392909216919091179055565b66038d7ea4c68005546001546001600160a01b03909116906000620151806108d9814261188b565b6108e391906118ad565b9050826001600160a01b031663c2c4c5c16040518163ffffffff1660e01b8152600401600060405180830381600087803b15801561092057600080fd5b505af1158015610934573d6000803e3d6000fd5b5050505060005b6014811015610a52578183111561095157610a52565b600061095d8585611577565b60405163d1febfb960e01b8152600481018290529091506000906001600160a01b0387169063d1febfb990602401608060405180830381865afa1580156109a8573d6000803e3d6000fd5b505050506040513d601f19601f820116820180604052508101906109cc919061199b565b9050600081604001518611156109ee5760408201516109eb9087611915565b90505b610a0d818360200151610a019190611a0d565b835161078d9190611aab565b66038d7ea4c680088766038d7ea4c680008110610a2c57610a2c6118cc565b0155505050610a3e62015180846118e2565b925080610a4a816118fa565b91505061093b565b505060015550565b60405163391044d760e21b8152600481018490526000908190819081906001600160a01b0387169063e441135c90602401602060405180830381865afa158015610aa8573d6000803e3d6000fd5b505050506040513d601f19601f82011682018060405250810190610acc919061196b565b60005490915081610ae45760009450505050506104fd565b60008881526002602052604090205480610b0b57610b04888a8486610e76565b9450610b1d565b60008981526003602052604090205494505b84610b2757600194505b6040516309bb79ed60e11b8152600481018a9052602481018690526000906001600160a01b038a1690631376f3da90604401608060405180830381865afa158015610b76573d6000803e3d6000fd5b505050506040513d601f19601f82011682018060405250810190610b9a919061199b565b905081610bdc5762015180806001620151808460400151610bbb91906118e2565b610bc59190611915565b610bcf919061188b565b610bd991906118ad565b91505b6004548210610bf457600096505050505050506104fd565b82821015610c00578291505b6040805160808101825260008082526020820181905291810182905260608101829052905b6032811015610deb57898410610c3a57610deb565b82604001518410158015610c4e5750858811155b15610d1457610c5e6001896118e2565b975082915085881115610c9d5760405180608001604052806000600f0b81526020016000600f0b81526020016000815260200160008152509250610dd9565b6040516309bb79ed60e11b8152600481018d9052602481018990526001600160a01b038c1690631376f3da90604401608060405180830381865afa158015610ce9573d6000803e3d6000fd5b505050506040513d601f19601f82011682018060405250810190610d0d919061199b565b9250610dd9565b6000826040015185610d269190611915565b90506000610d49846020015183610d3d9190611a0d565b855161078d9190611aab565b905080158015610d585750878a115b15610d64575050610deb565b8015610dc75766038d7ea4c680088666038d7ea4c680008110610d8957610d896118cc565b015460058766038d7ea4c680008110610da457610da46118cc565b0154610db090836118ad565b610dba919061188b565b610dc4908a6118e2565b98505b610dd462015180876118e2565b955050505b80610de3816118fa565b915050610c25565b50610e0085610dfb60018a611915565b6116d0565b60008c8152600360209081526040808320849055600282529182902086905581518e8152908101899052908101829052606081018790529097507fcae2990aa9af8eb1c64713b7eddb3a80bf18e49a94a13fe0d0002b5d61d58f009060800160405180910390a150939998505050505050505050565b60008082815b6080811015610f6257818310610e9157610f62565b60006002610e9f84866118e2565b610eaa9060026118e2565b610eb4919061188b565b6040516309bb79ed60e11b8152600481018a9052602481018290529091506000906001600160a01b038b1690631376f3da90604401608060405180830381865afa158015610f06573d6000803e3d6000fd5b505050506040513d601f19601f82011682018060405250810190610f2a919061199b565b905087816040015111610f3f57819450610f4d565b610f4a600183611915565b93505b50508080610f5a906118fa565b915050610e7c565b50909695505050505050565b600081831015610f7e57816104fd565b5090919050565b66038d7ea4c68006546040516370a0823160e01b81523060048201526000916001600160a01b0316906370a0823190602401602060405180830381865afa158015610fd4573d6000803e3d6000fd5b505050506040513d601f19601f82011682018060405250810190610ff8919061196b565b9050600066038d7ea4c6800754826110109190611915565b66038d7ea4c68007839055600454909150600061102d8242611915565b426004559050600062015180611043818561188b565b61104d91906118ad565b90506000805b60148110156111a05761106962015180846118e2565b9150814210156110f2578315801561108057508442145b156110ba578560058466038d7ea4c68000811061109f5761109f6118cc565b0160008282546110af91906118e2565b909155506111a09050565b836110c58642611915565b6110cf90886118ad565b6110d9919061188b565b60058466038d7ea4c68000811061109f5761109f6118cc565b831580156110ff57508482145b15611139578560058466038d7ea4c68000811061111e5761111e6118cc565b01600082825461112e91906118e2565b909155506111879050565b836111448684611915565b61114e90886118ad565b611158919061188b565b60058466038d7ea4c680008110611171576111716118cc565b01600082825461118191906118e2565b90915550505b8194508192508080611198906118fa565b915050611053565b5060408051428152602081018790527fce749457b74e10f393f2c6b1ce4261b78791376db5a3f501477a809f03f500d6910160405180910390a1505050505050565b60405163391044d760e21b8152600481018490526000908190819081906001600160a01b0387169063e441135c90602401602060405180830381865afa158015611230573d6000803e3d6000fd5b505050506040513d601f19601f82011682018060405250810190611254919061196b565b6000549091508161126c5760009450505050506104fd565b600088815260026020526040902054806112935761128c888a8486610e76565b94506112a5565b60008981526003602052604090205494505b846112af57600194505b6040516309bb79ed60e11b8152600481018a9052602481018690526000906001600160a01b038a1690631376f3da90604401608060405180830381865afa1580156112fe573d6000803e3d6000fd5b505050506040513d601f19601f82011682018060405250810190611322919061199b565b905081611364576201518080600162015180846040015161134391906118e2565b61134d9190611915565b611357919061188b565b61136191906118ad565b91505b600454821061137c57600096505050505050506104fd565b82821015611388578291505b6040805160808101825260008082526020820181905291810182905260608101829052905b6032811015611567578984106113c257611567565b826040015184101580156113d65750858811155b1561149c576113e66001896118e2565b9750829150858811156114255760405180608001604052806000600f0b81526020016000600f0b81526020016000815260200160008152509250611555565b6040516309bb79ed60e11b8152600481018d9052602481018990526001600160a01b038c1690631376f3da90604401608060405180830381865afa158015611471573d6000803e3d6000fd5b505050506040513d601f19601f82011682018060405250810190611495919061199b565b9250611555565b60008260400151856114ae9190611915565b905060006114c5846020015183610d3d9190611a0d565b9050801580156114d45750878a115b156114e0575050611567565b80156115435766038d7ea4c680088666038d7ea4c680008110611505576115056118cc565b015460058766038d7ea4c680008110611520576115206118cc565b015461152c90836118ad565b611536919061188b565b611540908a6118e2565b98505b61155062015180876118e2565b955050505b8061155f816118fa565b9150506113ad565b50949a9950505050505050505050565b600080600090506000846001600160a01b031663900cf0cf6040518163ffffffff1660e01b8152600401602060405180830381865afa1580156115be573d6000803e3d6000fd5b505050506040513d601f19601f820116820180604052508101906115e2919061196b565b905060005b60808110156116c6578183106115fc576116c6565b6000600261160a84866118e2565b6116159060026118e2565b61161f919061188b565b60405163d1febfb960e01b8152600481018290529091506000906001600160a01b0389169063d1febfb990602401608060405180830381865afa15801561166a573d6000803e3d6000fd5b505050506040513d601f19601f8201168201806040525081019061168e919061199b565b9050868160400151116116a3578194506116b1565b6116ae600183611915565b93505b505080806116be906118fa565b9150506115e7565b5090949350505050565b6000818310610f7e57816104fd565b6000602082840312156116f157600080fd5b5035919050565b634e487b7160e01b600052604160045260246000fd5b604051601f8201601f1916810167ffffffffffffffff81118282101715611737576117376116f8565b604052919050565b6000602080838503121561175257600080fd5b823567ffffffffffffffff8082111561176a57600080fd5b818501915085601f83011261177e57600080fd5b813581811115611790576117906116f8565b8060051b91506117a184830161170e565b81815291830184019184810190888411156117bb57600080fd5b938501935b838510156117d9578435825293850193908501906117c0565b98975050505050505050565b6001600160a01b03811681146117fa57600080fd5b50565b6000806040838503121561181057600080fd5b823561181b816117e5565b9150602083013561182b816117e5565b809150509250929050565b6000806040838503121561184957600080fd5b50508035926020909101359150565b60006020828403121561186a57600080fd5b81356104fd816117e5565b634e487b7160e01b600052601160045260246000fd5b6000826118a857634e487b7160e01b600052601260045260246000fd5b500490565b60008160001904831182151516156118c7576118c7611875565b500290565b634e487b7160e01b600052603260045260246000fd5b600082198211156118f5576118f5611875565b500190565b600060001982141561190e5761190e611875565b5060010190565b60008282101561192757611927611875565b500390565b60006020828403121561193e57600080fd5b81516104fd816117e5565b60006020828403121561195b57600080fd5b815180151581146104fd57600080fd5b60006020828403121561197d57600080fd5b5051919050565b8051600f81900b811461199657600080fd5b919050565b6000608082840312156119ad57600080fd5b6040516080810181811067ffffffffffffffff821117156119d0576119d06116f8565b6040526119dc83611984565b81526119ea60208401611984565b602082015260408301516040820152606083015160608201528091505092915050565b600081600f0b83600f0b60016001607f1b03600082136000841383830485118282161615611a3d57611a3d611875565b6f7fffffffffffffffffffffffffffffff196000851282811687830587121615611a6957611a69611875565b60008712925085820587128484161615611a8557611a85611875565b85850587128184161615611a9b57611a9b611875565b5050509290910295945050505050565b600081600f0b83600f0b600081128160016001607f1b031901831281151615611ad657611ad6611875565b8160016001607f1b03018313811615611af157611af1611875565b5090039392505050565b634e487b7160e01b600052600160045260246000fdfea2646970667358221220687f1429478c3837b0379688b0dc1f9768ce1818515a68bf520b26799ccafc1b64736f6c634300080b0033",
  "linkReferences": {},
  "deployedLinkReferences": {}
}