{
  "_format": "hh-sol-artifact-1",
  "contractName": "voter_test",
  "sourceName": "contracts/test/voter_test.sol",
  "abi": [
    {
      "inputs": [
        {
          "internalType": "uint256",
          "name": "tokenId",
          "type": "uint256"
        },
        {
          "internalType": "address",
          "name": "account",
          "type": "address"
        }
      ],
      "name": "attachTokenToGauge",
      "outputs": [],
      "stateMutability": "nonpayable",
      "type": "function"
    },
    {
      "inputs": [
        {
          "internalType": "uint256",
          "name": "tokenId",
          "type": "uint256"
        },
        {
          "internalType": "address",
          "name": "account",
          "type": "address"
        }
      ],
      "name": "detachTokenFromGauge",
      "outputs": [],
      "stateMutability": "nonpayable",
      "type": "function"
    },
    {
      "inputs": [
        {
          "internalType": "address",
          "name": "_gauge",
          "type": "address"
        }
      ],
      "name": "distribute",
      "outputs": [],
      "stateMutability": "nonpayable",
      "type": "function"
    },
    {
      "inputs": [
        {
          "internalType": "uint256",
          "name": "tokenId",
          "type": "uint256"
        },
        {
          "internalType": "address",
          "name": "account",
          "type": "address"
        },
        {
          "internalType": "uint256",
          "name": "amount",
          "type": "uint256"
        }
      ],
      "name": "emitDeposit",
      "outputs": [],
      "stateMutability": "nonpayable",
      "type": "function"
    },
    {
      "inputs": [
        {
          "internalType": "uint256",
          "name": "tokenId",
          "type": "uint256"
        },
        {
          "internalType": "address",
          "name": "account",
          "type": "address"
        },
        {
          "internalType": "uint256",
          "name": "amount",
          "type": "uint256"
        }
      ],
      "name": "emitWithdraw",
      "outputs": [],
      "stateMutability": "nonpayable",
      "type": "function"
    }
  ],
  "bytecode": "0x608060405234801561001057600080fd5b50610169806100206000396000f3fe608060405234801561001057600080fd5b50600436106100575760003560e01c8063411b1f771461005c57806363453ae114610070578063698473e31461005c578063a61c713a14610081578063ea94ee4414610081575b600080fd5b61006e61006a3660046100b0565b5050565b005b61006e61007e3660046100dc565b50565b61006e61008f3660046100fe565b505050565b80356001600160a01b03811681146100ab57600080fd5b919050565b600080604083850312156100c357600080fd5b823591506100d360208401610094565b90509250929050565b6000602082840312156100ee57600080fd5b6100f782610094565b9392505050565b60008060006060848603121561011357600080fd5b8335925061012360208501610094565b915060408401359050925092509256fea26469706673582212200cfa6b78f43943c2d7112522cd07bf9f21021f8aaea440a105c52a475b4c1d0464736f6c634300080b0033",
  "linkReferences": {},
  "deployedLinkReferences": {}
}