{
  "_format": "hh-sol-artifact-1",
  "contractName": "BribeFactory",
  "sourceName": "contracts/base/reward/BribeFactory.sol",
  "abi": [
    {
      "anonymous": false,
      "inputs": [
        {
          "indexed": false,
          "internalType": "address",
          "name": "value",
          "type": "address"
        }
      ],
      "name": "BribeCreated",
      "type": "event"
    },
    {
      "inputs": [
        {
          "internalType": "address[]",
          "name": "_allowedRewardTokens",
          "type": "address[]"
        }
      ],
      "name": "createBribe",
      "outputs": [
        {
          "internalType": "address",
          "name": "",
          "type": "address"
        }
      ],
      "stateMutability": "nonpayable",
      "type": "function"
    },
    {
      "inputs": [],
      "name": "lastGauge",
      "outputs": [
        {
          "internalType": "address",
          "name": "",
          "type": "address"
        }
      ],
      "stateMutability": "view",
      "type": "function"
    }
  ],
  "bytecode": "0x608060405234801561001057600080fd5b50612f45806100206000396000f3fe608060405234801561001057600080fd5b50600436106100365760003560e01c8063897cd6b31461003b578063b46d34651461006a575b600080fd5b61004e61004936600461014f565b61007d565b6040516001600160a01b03909116815260200160405180910390f35b60005461004e906001600160a01b031681565b600080338360405161008e90610110565b610099929190610214565b604051809103906000f0801580156100b5573d6000803e3d6000fd5b50600080546001600160a01b0319166001600160a01b0383169081179091556040519081529091507fe7f31a5ff9b31d4ba882657f1def4432f7380c765ad2c85aaa7e725814b55e0a9060200160405180910390a192915050565b612c9f8061027183390190565b634e487b7160e01b600052604160045260246000fd5b80356001600160a01b038116811461014a57600080fd5b919050565b6000602080838503121561016257600080fd5b823567ffffffffffffffff8082111561017a57600080fd5b818501915085601f83011261018e57600080fd5b8135818111156101a0576101a061011d565b8060051b604051601f19603f830116810181811085821117156101c5576101c561011d565b6040529182528482019250838101850191888311156101e357600080fd5b938501935b82851015610208576101f985610133565b845293850193928501926101e8565b98975050505050505050565b6001600160a01b038381168252604060208084018290528451918401829052600092858201929091906060860190855b81811015610262578551851683529483019491830191600101610244565b50909897505050505050505056fe608060405260016000553480156200001657600080fd5b5060405162002c9f38038062002c9f8339810160408190526200003991620002e9565b600280546001600160a01b0319908116909155600180549091166001600160a01b03841617905560008282825b8151811015620000e95760006001600160a01b0316828281518110620000905762000090620003d2565b60200260200101516001600160a01b031614620000d457620000d4828281518110620000c057620000c0620003d2565b60200260200101516200019860201b60201c565b80620000e081620003e8565b91505062000066565b5050601580546001600160a01b0319166001600160a01b03861690811790915560408051630fc2838b60e11b81529051919350631f85071692506004808201926020929091908290030181865afa15801562000149573d6000803e3d6000fd5b505050506040513d601f19601f820116820180604052508101906200016f919062000410565b601680546001600160a01b0319166001600160a01b039290921691909117905550620004359050565b600d54600a11620001f05760405162461bcd60e51b815260206004820152601660248201527f546f6f206d616e792072657761726420746f6b656e730000000000000000000060448201526064015b60405180910390fd5b6001600160a01b0381166000908152600e602052604090205460ff1615620002505760405162461bcd60e51b8152602060048201526012602482015271105b1c9958591e481c9959da5cdd195c995960721b6044820152606401620001e7565b6001600160a01b03166000818152600e60205260408120805460ff19166001908117909155600d805491820181559091527fd7b6990105719101dabeb77144f2a3385c8033acd3af97e9423a695e81ad1eb50180546001600160a01b0319169091179055565b80516001600160a01b0381168114620002ce57600080fd5b919050565b634e487b7160e01b600052604160045260246000fd5b60008060408385031215620002fd57600080fd5b6200030883620002b6565b602084810151919350906001600160401b03808211156200032857600080fd5b818601915086601f8301126200033d57600080fd5b815181811115620003525762000352620002d3565b8060051b604051601f19603f830116810181811085821117156200037a576200037a620002d3565b6040529182528482019250838101850191898311156200039957600080fd5b938501935b82851015620003c257620003b285620002b6565b845293850193928501926200039e565b8096505050505050509250929050565b634e487b7160e01b600052603260045260246000fd5b6000600182016200040957634e487b7160e01b600052601160045260246000fd5b5060010190565b6000602082840312156200042357600080fd5b6200042e82620002b6565b9392505050565b61285a80620004456000396000f3fe608060405234801561001057600080fd5b50600436106102485760003560e01c80637bb7bed11161013b578063d35e2544116100b8578063f12297771161007c578063f1229777146105f5578063f320772314610608578063f5f8d3651461061b578063f7412baf1461062e578063fd3140981461065557600080fd5b8063d35e25441461059d578063d7da4bb0146105b0578063da09d19d146105b9578063e46dbc98146105d9578063e8111a12146105ec57600080fd5b8063a7852afa116100ff578063a7852afa1461051c578063aa4796521461052f578063b5fd73f81461054f578063b66503cf14610582578063bf199e621461059557600080fd5b80637bb7bed11461049857806399bcc052146104ab5780639ce43f90146104be5780639e2bf22c146104de578063a495e5b5146104f157600080fd5b80633d509c97116101c957806368fcee1a1161018d57806368fcee1a1461041f5780636f307dc3146104325780636fcfff451461044557806370a082311461046557806376f4be361461048557600080fd5b80633d509c97146103b157806346c96aac146103c6578063570ca735146103d957806363fb415b146103ec5780636511bf2e1461040c57600080fd5b80631f850716116102105780631f85071614610320578063211dc32d14610333578063221ca18c146103465780632ce9aead146103665780633ca068b61461038657600080fd5b806301316ddf1461024d57806308bb76a5146102995780630cdfebfa146102c4578063115c6f39146102f657806318160ddd14610317575b600080fd5b61027f61025b3660046124b3565b60136020908152600092835260408084209091529082529020805460019091015482565b604080519283526020830191909152015b60405180910390f35b6102ac6102a73660046124df565b610668565b6040516001600160a01b039091168152602001610290565b61027f6102d23660046124b3565b600f6020908152600092835260408084209091529082529020805460019091015482565b6103096103043660046124b3565b610679565b604051908152602001610290565b610309600b5481565b6016546102ac906001600160a01b031681565b6103096103413660046124f8565b61068c565b610309610354366004612531565b60056020526000908152604090205481565b610309610374366004612531565b60076020526000908152604090205481565b6103096103943660046124f8565b600a60209081526000928352604080842090915290825290205481565b6103c46103bf366004612531565b610698565b005b6015546102ac906001600160a01b031681565b6001546102ac906001600160a01b031681565b6103096103fa366004612531565b60046020526000908152604090205481565b61030961041a366004612531565b610978565b6103c461042d3660046124b3565b610989565b6002546102ac906001600160a01b031681565b610309610453366004612531565b60106020526000908152604090205481565b610309610473366004612531565b600c6020526000908152604090205481565b6103096104933660046124df565b6109c3565b6102ac6104a63660046124df565b6109ce565b6103096104b9366004612531565b6109f8565b6103096104cc366004612531565b60086020526000908152604090205481565b6103c46104ec36600461254e565b610a7d565b6103096104ff3660046124f8565b600960209081526000928352604080842090915290825290205481565b6103c461052a366004612586565b610b26565b61030961053d366004612531565b60146020526000908152604090205481565b61057261055d366004612531565b600e6020526000908152604090205460ff1681565b6040519015158152602001610290565b6103c46105903660046124b3565b610bd8565b600d54610309565b6103096105ab366004612531565b610be6565b61030960035481565b6103096105c7366004612531565b60066020526000908152604090205481565b6103c46105e7366004612531565b610c04565b61030960125481565b610309610603366004612531565b610c59565b6103c461061636600461254e565b610c64565b6103c4610629366004612586565b610d00565b61027f61063c3660046124df565b6011602052600090815260409020805460019091015482565b61027f6106633660046124b3565b610dc4565b600061067382610ddd565b92915050565b60006106858383610e28565b9392505050565b60006106858383610e7d565b6001546001600160a01b031633146106e65760405162461bcd60e51b815260206004820152600c60248201526b2737ba1037b832b930ba37b960a11b60448201526064015b60405180910390fd5b6001600160a01b03811660009081526006602052604090205442116107415760405162461bcd60e51b815260206004820152601160248201527014995dd85c991cc81b9bdd08195b991959607a1b60448201526064016106dd565b6001600160a01b0381166000908152600e602052604090205460ff1661079c5760405162461bcd60e51b815260206004820152601060248201526f2737ba103932bbb0b932103a37b5b2b760811b60448201526064016106dd565b6001600160a01b0381166000908152600e60205260409020805460ff19169055600d546003811161081b5760405162461bcd60e51b8152602060048201526024808201527f4669727374203320746f6b656e732073686f756c64206e6f742062652072656d6044820152631bdd995960e21b60648201526084016106dd565b600360005b8282101561087b576000600d838154811061083d5761083d612657565b6000918252602090912001546001600160a01b0390811691508516810361086857600191505061087b565b508161087381612683565b925050610820565b806108c85760405162461bcd60e51b815260206004820181905260248201527f466972737420746f6b656e7320666f7262696464656e20746f2072656d6f766560448201526064016106dd565b600d6108d560018561269c565b815481106108e5576108e5612657565b600091825260209091200154600d80546001600160a01b03909216918490811061091157610911612657565b9060005260206000200160006101000a8154816001600160a01b0302191690836001600160a01b03160217905550600d805480610950576109506126b3565b600082815260209020810160001990810180546001600160a01b031916905501905550505050565b60006001600160a01b038216610673565b610995828260006110fe565b6001600160a01b03909316600090815260086020908152604080832060079092529091209390935590915550565b6000610673826112ee565b600d81815481106109de57600080fd5b6000918252602090912001546001600160a01b0316905081565b6001600160a01b0381166000908152600660205260408120544210610a1f57506000919050565b6001600160a01b038216600090815260066020526040812054610a4390429061269c565b6001600160a01b038416600090815260056020526040902054909150670de0b6b3a764000090610a7390836126c9565b61068591906126e8565b6015546001600160a01b03163314610aa75760405162461bcd60e51b81526004016106dd9061270a565b60008211610ac75760405162461bcd60e51b81526004016106dd9061272d565b6000610ad282610ddd565b9050610ade8184611310565b806001600160a01b03167f884edad9ce6fa2440d8a54cc123490eb96d2768479d49ff9c7366125a942436484604051610b1991815260200190565b60405180910390a2505050565b6015546001600160a01b03163314610b505760405162461bcd60e51b81526004016106dd9061270a565b6016546040516331a9108f60e11b8152600481018490526000916001600160a01b031690636352211e90602401602060405180830381865afa158015610b9a573d6000803e3d6000fd5b505050506040513d601f19601f82011682018060405250810190610bbe9190612752565b9050610bd3610bcc84610ddd565b8383611366565b505050565b610be28282611660565b5050565b6001600160a01b0381166000908152600c6020526040812054610673565b6001546001600160a01b03163314610c4d5760405162461bcd60e51b815260206004820152600c60248201526b2737ba1037b832b930ba37b960a11b60448201526064016106dd565b610c56816119d4565b50565b600061067382611ae3565b6015546001600160a01b03163314610c8e5760405162461bcd60e51b81526004016106dd9061270a565b60008211610cae5760405162461bcd60e51b81526004016106dd9061272d565b6000610cb982610ddd565b9050610cc58184611b8e565b806001600160a01b03167fe1fffcc4923d04b559f4d29a8bfc6cda04eb5b0d3c460751c2402c5c5cc9109c84604051610b1991815260200190565b60165460405163430c208160e01b8152336004820152602481018490526001600160a01b039091169063430c208190604401602060405180830381865afa158015610d4f573d6000803e3d6000fd5b505050506040513d601f19601f82011682018060405250810190610d73919061276f565b610db15760405162461bcd60e51b815260206004820152600f60248201526e2737ba103a37b5b2b71037bbb732b960891b60448201526064016106dd565b610be2610dbd83610ddd565b8233611366565b600080610dd18484611bd5565b915091505b9250929050565b600081806001600160a01b038116146106735760405162461bcd60e51b815260206004820152600d60248201526c15dc9bdb99c818dbdb9d995c9d609a1b60448201526064016106dd565b6001600160a01b038216600090815260106020526040812054808203610e52576000915050610673565b6001600160a01b0384166000908152600f60205260409020610e75908285611c5f565b949350505050565b6001600160a01b0381166000908152601060205260408120548103610ea457506000610673565b6001600160a01b03808416600081815260096020908152604080832094871683529381528382205492825260138152838220828052905291822054610ee99190611da5565b90506000610ef78483610e28565b6001600160a01b03851660009081526010602052604081205491925090610f209060019061269c565b90506000811561103257825b610f3760018461269c565b8111611030576001600160a01b0387166000818152600f602081815260408084208685528083528185208251808401909352805483526001908101548385015295855292909152928290610f8c908690612791565b81526020019081526020016000206040518060400160405290816000820154815260200160018201548152505090506000610fcb8b8460000151611bd5565b5090506000610fde8c8460000151611bd5565b509050670de0b6b3a7640000610ff4838361269c565b856020015161100391906126c9565b61100d91906126e8565b6110179087612791565b955050505050808061102890612683565b915050610f2c565b505b6001600160a01b0386166000908152600f6020908152604080832085845282528083208151808301909252805480835260019091015492820192909252919061107c908a90611bd5565b506001600160a01b03808b166000908152600a60209081526040808320938d1683529290522054909150670de0b6b3a7640000906110bb908390611da5565b6110c48b611ae3565b6110ce919061269c565b83602001516110dd91906126c9565b6110e791906126e8565b6110f19084612791565b9998505050505050505050565b6001600160a01b038316600090815260076020908152604080832054600890925282205460125483929190830361113857925090506112e6565b6001600160a01b03871660009081526005602052604081205490036111635792504291506112e69050565b600061116e836112ee565b9050600061118a6001601254611184919061269c565b89611dbc565b9050801561126357815b61119f60018361269c565b811161126157600081815260116020908152604091829020825180840190935280548352600101549082018190521561124e5760006011816111e2856001612791565b815260200190815260200160002060405180604001604052908160008201548152602001600182015481525050905060008061122d8e8460000151866000015187602001518d611dcb565b909250905061123c8289612791565b97506112498e8983611e4f565b975050505b508061125981612683565b915050611194565b505b86156112dd5760008181526011602090815260409182902082518084019093528054835260010154908201819052156112db5760006112bc8b6112a58d611f58565b84516112b1908a611da5565b85602001518a611dcb565b5090506112c98186612791565b94506112d68b8642611e4f565b429550505b505b50909350909150505b935093915050565b6012546000908082036113045750600092915050565b61068560118285611c5f565b611318611f7c565b80600b600082825461132a919061269c565b90915550506001600160a01b0382166000908152600c60205260408120805483929061135790849061269c565b90915550610be2905082612000565b6000546001146113a95760405162461bcd60e51b815260206004820152600e60248201526d1499595b9d1c985b9d0818d85b1b60921b60448201526064016106dd565b600260009081555b825181101561164c576113e18382815181106113cf576113cf612657565b602002602001015160001960016110fe565b600860008685815181106113f7576113f7612657565b60200260200101516001600160a01b03166001600160a01b0316815260200190815260200160002060006007600088878151811061143757611437612657565b60200260200101516001600160a01b03166001600160a01b031681526020019081526020016000206000849190505583919050555050600061149284838151811061148457611484612657565b602002602001015186610e7d565b905042600960008685815181106114ab576114ab612657565b60200260200101516001600160a01b03166001600160a01b031681526020019081526020016000206000876001600160a01b03166001600160a01b03168152602001908152602001600020819055506008600085848151811061151057611510612657565b60200260200101516001600160a01b03166001600160a01b0316815260200190815260200160002054600a600086858151811061154f5761154f612657565b6020908102919091018101516001600160a01b0390811683528282019390935260409182016000908120938a16815292905290205580156115c1576115c183828685815181106115a1576115a1612657565b60200260200101516001600160a01b03166120839092919063ffffffff16565b8382815181106115d3576115d3612657565b60200260200101516001600160a01b0316336001600160a01b03167fe4394b3c25e336e9d6b7fcefab7e3234f1c6b373f13655dc3920664b080b098d83866040516116319291909182526001600160a01b0316602082015260400190565b60405180910390a3508061164481612683565b9150506113b1565b5061165683612000565b5050600160005550565b6000546001146116a35760405162461bcd60e51b815260206004820152600e60248201526d1499595b9d1c985b9d0818d85b1b60921b60448201526064016106dd565b60026000819055546001600160a01b03908116908316036117065760405162461bcd60e51b815260206004820152601760248201527f57726f6e6720746f6b656e20666f72207265776172647300000000000000000060448201526064016106dd565b600081116117265760405162461bcd60e51b81526004016106dd9061272d565b6001600160a01b0382166000908152600e602052604090205460ff166117825760405162461bcd60e51b8152602060048201526011602482015270151bdad95b881b9bdd08185b1b1bddd959607a1b60448201526064016106dd565b6001600160a01b03821660009081526005602052604081205490036117ad576117ad82600042611e4f565b6117bb8260001960016110fe565b6001600160a01b0384166000908152600860209081526040808320600783528184209490945593909255600690915220544210611845576118076001600160a01b0383163330846120e6565b62093a8061181d670de0b6b3a7640000836126c9565b61182791906126e8565b6001600160a01b038316600090815260056020526040902055611965565b6001600160a01b03821660009081526006602052604081205461186990429061269c565b6001600160a01b0384166000908152600560205260408120549192509061189090836126c9565b90506118a4670de0b6b3a7640000826126e8565b83116119095760405162461bcd60e51b815260206004820152602e60248201527f416d6f756e742073686f756c6420626520686967686572207468616e2072656d60448201526d61696e696e67207265776172647360901b60648201526084016106dd565b61191e6001600160a01b0385163330866120e6565b62093a8081611935670de0b6b3a7640000866126c9565b61193f9190612791565b61194991906126e8565b6001600160a01b03851660009081526005602052604090205550505b61197262093a8042612791565b6001600160a01b0383166000818152600660205260409081902092909255905133907ff70d5c697de7ea828df48e5c4573cb2194c659f1901f70110c52b066dcf50826906119c39085815260200190565b60405180910390a350506001600055565b600d54600a11611a1f5760405162461bcd60e51b8152602060048201526016602482015275546f6f206d616e792072657761726420746f6b656e7360501b60448201526064016106dd565b6001600160a01b0381166000908152600e602052604090205460ff1615611a7d5760405162461bcd60e51b8152602060048201526012602482015271105b1c9958591e481c9959da5cdd195c995960721b60448201526064016106dd565b6001600160a01b03166000818152600e60205260408120805460ff19166001908117909155600d805491820181559091527fd7b6990105719101dabeb77144f2a3385c8033acd3af97e9423a695e81ad1eb50180546001600160a01b0319169091179055565b6000600354600003611b0b57506001600160a01b031660009081526008602052604090205490565b6003546001600160a01b03831660009081526005602090815260408083205460078352818420546006909352922054611b449190611dbc565b611b4d85611f58565b611b57919061269c565b611b6191906126c9565b611b6b91906126e8565b6001600160a01b0383166000908152600860205260409020546106739190612791565b611b96611f7c565b80600b6000828254611ba89190612791565b90915550506001600160a01b0382166000908152600c602052604081208054839290611357908490612791565b6001600160a01b0382166000908152601460205260408120548190808203611c04576000809250925050610dd6565b6001600160a01b038516600090815260136020526040812090611c28828488611c5f565b6000908152602092835260409081902081518083019092528054808352600190910154919093018190529791965090945050505050565b600082600003611ca55760405162461bcd60e51b8152602060048201526011602482015270456d70747920636865636b706f696e747360781b60448201526064016106dd565b81846000611cb460018761269c565b81526020019081526020016000206000015411611cdd57611cd660018461269c565b9050610685565b600080805260208590526040902054821015611cfb57506000610685565b600080611d0960018661269c565b90505b81811115611d9c5760006002611d22848461269c565b611d2c91906126e8565b611d36908361269c565b60008181526020898152604091829020825180840190935280548084526001909101549183019190915291925090869003611d7657509250610685915050565b8051861115611d8757819350611d95565b611d9260018361269c565b92505b5050611d0c565b50949350505050565b600081831015611db55781610685565b5090919050565b6000818310611db55781610685565b6000806000611dda8785611da5565b6001600160a01b038916600090815260066020908152604080832054600590925290912054919250908690611e18611e128a89611da5565b84611dbc565b611e228585611dbc565b611e2c919061269c565b611e3691906126c9565b611e4091906126e8565b99919850909650505050505050565b6001600160a01b0383166000908152601460205260409020548015801590611eab57506001600160a01b03841660009081526013602052604081208391611e9760018561269c565b815260200190815260200160002060000154145b15611eee576001600160a01b03841660009081526013602052604081208491611ed560018561269c565b8152602081019190915260400160002060010155611f52565b60408051808201825283815260208082018681526001600160a01b038816600090815260138352848120868252909252929020905181559051600191820155611f38908290612791565b6001600160a01b0385166000908152601460205260409020555b50505050565b6001600160a01b038116600090815260066020526040812054610673904290611dbc565b600d5460005b81811015610be2576000600d8281548110611f9f57611f9f612657565b6000918252602090912001546001600160a01b03169050611fc48160001960016110fe565b6001600160a01b039092166000908152600860209081526040808320600790925290912092909255905580611ff881612683565b915050611f82565b6001600160a01b038116600090815260046020526040812054600380549192839261202c90849061269c565b9091555050506001600160a01b0381166000908152600c602090815260408083205460049092528220819055600380549192839261206b908490612791565b9091555061207b9050828261211e565b610be261220f565b6040516001600160a01b038316602482015260448101829052610bd390849063a9059cbb60e01b906064015b60408051601f198184030181529190526020810180516001600160e01b03166001600160e01b0319909316929092179091526122b3565b6040516001600160a01b0380851660248301528316604482015260648101829052611f529085906323b872dd60e01b906084016120af565b6001600160a01b0382166000908152601060205260409020544290801580159061217c57506001600160a01b0384166000908152600f60205260408120839161216860018561269c565b815260200190815260200160002060000154145b156121a6576001600160a01b0384166000908152600f602052604081208491611ed560018561269c565b60408051808201825283815260208082018681526001600160a01b0388166000908152600f83528481208682529092529290209051815590516001918201556121f0908290612791565b6001600160a01b03851660009081526010602052604090205550505050565b6012544281158015906122415750806011600061222d60018661269c565b815260200190815260200160002060000154145b15612270576003546011600061225860018661269c565b81526020810191909152604001600020600101555050565b604080518082018252828152600354602080830191825260008681526011909152929092209051815590516001918201556122ac908390612791565b6012555050565b6000612308826040518060400160405280602081526020017f5361666545524332303a206c6f772d6c6576656c2063616c6c206661696c6564815250856001600160a01b03166123859092919063ffffffff16565b805190915015610bd35780806020019051810190612326919061276f565b610bd35760405162461bcd60e51b815260206004820152602a60248201527f5361666545524332303a204552433230206f7065726174696f6e20646964206e6044820152691bdd081cdd58d8d9595960b21b60648201526084016106dd565b60606001600160a01b0384163b6123de5760405162461bcd60e51b815260206004820152601d60248201527f416464726573733a2063616c6c20746f206e6f6e2d636f6e747261637400000060448201526064016106dd565b600080856001600160a01b0316856040516123f991906127d5565b6000604051808303816000865af19150503d8060008114612436576040519150601f19603f3d011682016040523d82523d6000602084013e61243b565b606091505b509150915061244b828286612455565b9695505050505050565b60608315612464575081610685565b8251156124745782518084602001fd5b8160405162461bcd60e51b81526004016106dd91906127f1565b6001600160a01b0381168114610c5657600080fd5b80356124ae8161248e565b919050565b600080604083850312156124c657600080fd5b82356124d18161248e565b946020939093013593505050565b6000602082840312156124f157600080fd5b5035919050565b6000806040838503121561250b57600080fd5b82356125168161248e565b915060208301356125268161248e565b809150509250929050565b60006020828403121561254357600080fd5b81356106858161248e565b6000806040838503121561256157600080fd5b50508035926020909101359150565b634e487b7160e01b600052604160045260246000fd5b6000806040838503121561259957600080fd5b8235915060208084013567ffffffffffffffff808211156125b957600080fd5b818601915086601f8301126125cd57600080fd5b8135818111156125df576125df612570565b8060051b604051601f19603f8301168101818110858211171561260457612604612570565b60405291825284820192508381018501918983111561262257600080fd5b938501935b8285101561264757612638856124a3565b84529385019392850192612627565b8096505050505050509250929050565b634e487b7160e01b600052603260045260246000fd5b634e487b7160e01b600052601160045260246000fd5b6000600182016126955761269561266d565b5060010190565b6000828210156126ae576126ae61266d565b500390565b634e487b7160e01b600052603160045260246000fd5b60008160001904831182151516156126e3576126e361266d565b500290565b60008261270557634e487b7160e01b600052601260045260246000fd5b500490565b6020808252600990820152682737ba103b37ba32b960b91b604082015260600190565b6020808252600b908201526a16995c9bc8185b5bdd5b9d60aa1b604082015260600190565b60006020828403121561276457600080fd5b81516106858161248e565b60006020828403121561278157600080fd5b8151801515811461068557600080fd5b600082198211156127a4576127a461266d565b500190565b60005b838110156127c45781810151838201526020016127ac565b83811115611f525750506000910152565b600082516127e78184602087016127a9565b9190910192915050565b60208152600082518060208401526128108160408501602087016127a9565b601f01601f1916919091016040019291505056fea2646970667358221220c39f497d5baa085061f8b078cc11e6b390bcf15e43d2012430f70bd3139eeb2c64736f6c634300080d0033a264697066735822122067d3e12a854bcf7fc064c40fafb2b3faac7b07ea6286ce15f13dd6ca68a1857364736f6c634300080d0033",
  "linkReferences": {},
  "deployedLinkReferences": {}
}