{
  "_format": "hh-sol-artifact-1",
  "contractName": "ve_test",
  "sourceName": "contracts/test/ve_test.sol",
  "abi": [
    {
      "inputs": [
        {
          "internalType": "address",
          "name": "_token",
          "type": "address"
        }
      ],
      "stateMutability": "nonpayable",
      "type": "constructor"
    },
    {
      "inputs": [
        {
          "internalType": "uint256",
          "name": "tokenId",
          "type": "uint256"
        }
      ],
      "name": "balanceOfNFT",
      "outputs": [
        {
          "internalType": "uint256",
          "name": "",
          "type": "uint256"
        }
      ],
      "stateMutability": "view",
      "type": "function"
    },
    {
      "inputs": [
        {
          "internalType": "uint256",
          "name": "amount",
          "type": "uint256"
        },
        {
          "internalType": "uint256",
          "name": "duration",
          "type": "uint256"
        }
      ],
      "name": "create_lock",
      "outputs": [],
      "stateMutability": "nonpayable",
      "type": "function"
    },
    {
      "inputs": [
        {
          "internalType": "address",
          "name": "owner",
          "type": "address"
        },
        {
          "internalType": "uint256",
          "name": "_tokenId",
          "type": "uint256"
        }
      ],
      "name": "isApprovedOrOwner",
      "outputs": [
        {
          "internalType": "bool",
          "name": "",
          "type": "bool"
        }
      ],
      "stateMutability": "view",
      "type": "function"
    },
    {
      "inputs": [],
      "name": "owner",
      "outputs": [
        {
          "internalType": "address",
          "name": "",
          "type": "address"
        }
      ],
      "stateMutability": "view",
      "type": "function"
    },
    {
      "inputs": [
        {
          "internalType": "uint256",
          "name": "",
          "type": "uint256"
        }
      ],
      "name": "ownerOf",
      "outputs": [
        {
          "internalType": "address",
          "name": "",
          "type": "address"
        }
      ],
      "stateMutability": "view",
      "type": "function"
    },
    {
      "inputs": [],
      "name": "token",
      "outputs": [
        {
          "internalType": "address",
          "name": "",
          "type": "address"
        }
      ],
      "stateMutability": "view",
      "type": "function"
    },
    {
      "inputs": [],
      "name": "totalSupply",
      "outputs": [
        {
          "internalType": "uint256",
          "name": "",
          "type": "uint256"
        }
      ],
      "stateMutability": "view",
      "type": "function"
    }
  ],
  "bytecode": "0x60c060405260008055600060035534801561001957600080fd5b5060405161037a38038061037a8339810160408190526100389161004d565b6001600160a01b03166080523360a05261007d565b60006020828403121561005f57600080fd5b81516001600160a01b038116811461007657600080fd5b9392505050565b60805160a0516102d86100a2600039600061011f0152600061015b01526102d86000f3fe608060405234801561001057600080fd5b506004361061007d5760003560e01c806365fc38731161005b57806365fc3873146101055780638da5cb5b1461011a578063e7e242d414610141578063fc0c546a1461015657600080fd5b806318160ddd14610082578063430c20811461009e5780636352211e146100c4575b600080fd5b61008b60005481565b6040519081526020015b60405180910390f35b6100b46100ac3660046101e6565b600192915050565b6040519015158152602001610095565b6100ed6100d236600461021e565b6002602052600090815260409020546001600160a01b031681565b6040516001600160a01b039091168152602001610095565b610118610113366004610237565b61017d565b005b6100ed7f000000000000000000000000000000000000000000000000000000000000000081565b61008b61014f36600461021e565b5060005490565b6100ed7f000000000000000000000000000000000000000000000000000000000000000081565b81600160006003600081546101919061026f565b91829055508152602080820192909252604090810160009081209390935560035483526002909152812080546001600160a01b03191633179055805483919081906101dd90849061028a565b90915550505050565b600080604083850312156101f957600080fd5b82356001600160a01b038116811461021057600080fd5b946020939093013593505050565b60006020828403121561023057600080fd5b5035919050565b6000806040838503121561024a57600080fd5b50508035926020909101359150565b634e487b7160e01b600052601160045260246000fd5b600060001982141561028357610283610259565b5060010190565b6000821982111561029d5761029d610259565b50019056fea264697066735822122017d8ebbcba3d592f4e3ba2a6dde26e7e007b686fe7d7aaeecd9ee355b11f04b564736f6c634300080b0033",
  "linkReferences": {},
  "deployedLinkReferences": {}
}