{
  "_format": "hh-sol-artifact-1",
  "contractName": "PairFees",
  "sourceName": "contracts/base/core/PairFees.sol",
  "abi": [
    {
      "inputs": [
        {
          "internalType": "address",
          "name": "_token0",
          "type": "address"
        },
        {
          "internalType": "address",
          "name": "_token1",
          "type": "address"
        }
      ],
      "stateMutability": "nonpayable",
      "type": "constructor"
    },
    {
      "inputs": [
        {
          "internalType": "address",
          "name": "recipient",
          "type": "address"
        },
        {
          "internalType": "uint256",
          "name": "amount0",
          "type": "uint256"
        },
        {
          "internalType": "uint256",
          "name": "amount1",
          "type": "uint256"
        }
      ],
      "name": "claimFeesFor",
      "outputs": [],
      "stateMutability": "nonpayable",
      "type": "function"
    }
  ],
  "bytecode": "0x608060405234801561001057600080fd5b506040516104c73803806104c783398101604081905261002f91610087565b600080546001600160a01b03199081163317909155600180546001600160a01b03948516908316179055600280549290931691161790556100ba565b80516001600160a01b038116811461008257600080fd5b919050565b6000806040838503121561009a57600080fd5b6100a38361006b565b91506100b16020840161006b565b90509250929050565b6103fe806100c96000396000f3fe608060405234801561001057600080fd5b506004361061002b5760003560e01c8063533cf5ce14610030575b600080fd5b61004361003e3660046102e6565b610045565b005b6000546001600160a01b0316331461008f5760405162461bcd60e51b81526020600482015260086024820152672737ba103830b4b960c11b60448201526064015b60405180910390fd5b81156100ac576001546100ac906001600160a01b031684846100ce565b80156100c9576002546100c9906001600160a01b031684836100ce565b505050565b604080516001600160a01b03848116602483015260448083018590528351808403909101815260649092018352602080830180516001600160e01b031663a9059cbb60e01b17905283518085019094528084527f5361666545524332303a206c6f772d6c6576656c2063616c6c206661696c6564908401526100c99286929160009161015e9185169084906101db565b8051909150156100c9578080602001905181019061017c9190610327565b6100c95760405162461bcd60e51b815260206004820152602a60248201527f5361666545524332303a204552433230206f7065726174696f6e20646964206e6044820152691bdd081cdd58d8d9595960b21b6064820152608401610086565b60606001600160a01b0384163b6102345760405162461bcd60e51b815260206004820152601d60248201527f416464726573733a2063616c6c20746f206e6f6e2d636f6e74726163740000006044820152606401610086565b600080856001600160a01b03168560405161024f9190610379565b6000604051808303816000865af19150503d806000811461028c576040519150601f19603f3d011682016040523d82523d6000602084013e610291565b606091505b50915091506102a18282866102ad565b925050505b9392505050565b606083156102bc5750816102a6565b8251156102cc5782518084602001fd5b8160405162461bcd60e51b81526004016100869190610395565b6000806000606084860312156102fb57600080fd5b83356001600160a01b038116811461031257600080fd5b95602085013595506040909401359392505050565b60006020828403121561033957600080fd5b815180151581146102a657600080fd5b60005b8381101561036457818101518382015260200161034c565b83811115610373576000848401525b50505050565b6000825161038b818460208701610349565b9190910192915050565b60208152600082518060208401526103b4816040850160208701610349565b601f01601f1916919091016040019291505056fea2646970667358221220d743dbc945051555bf0c2674ea19ab74dd26c673460e07c65de147639c7b3ff964736f6c634300080d0033",
  "linkReferences": {},
  "deployedLinkReferences": {}
}