{
  "address": "0xF11b121ecE714a006CdDBb6167f3DA048183EE5e",
  "abi": [
    {
      "anonymous": false,
      "inputs": [
        {
          "indexed": true,
          "internalType": "bytes32",
          "name": "role",
          "type": "bytes32"
        },
        {
          "indexed": true,
          "internalType": "address",
          "name": "account",
          "type": "address"
        },
        {
          "indexed": true,
          "internalType": "address",
          "name": "sender",
          "type": "address"
        }
      ],
      "name": "RoleGranted",
      "type": "event"
    },
    {
      "anonymous": false,
      "inputs": [
        {
          "indexed": true,
          "internalType": "bytes32",
          "name": "role",
          "type": "bytes32"
        },
        {
          "indexed": true,
          "internalType": "address",
          "name": "account",
          "type": "address"
        },
        {
          "indexed": true,
          "internalType": "address",
          "name": "sender",
          "type": "address"
        }
      ],
      "name": "RoleRevoked",
      "type": "event"
    },
    {
      "anonymous": false,
      "inputs": [
        {
          "indexed": true,
          "internalType": "address",
          "name": "sender",
          "type": "address"
        },
        {
          "indexed": false,
          "internalType": "uint256",
          "name": "veDistAmount",
          "type": "uint256"
        },
        {
          "indexed": false,
          "internalType": "uint256",
          "name": "voterAmount",
          "type": "uint256"
        }
      ],
      "name": "Send",
      "type": "event"
    },
    {
      "inputs": [],
      "name": "DEFAULT_ADMIN_ROLE",
      "outputs": [
        {
          "internalType": "bytes32",
          "name": "",
          "type": "bytes32"
        }
      ],
      "stateMutability": "view",
      "type": "function"
    },
    {
      "inputs": [],
      "name": "VE_DIST_RATIO_MAX",
      "outputs": [
        {
          "internalType": "uint256",
          "name": "",
          "type": "uint256"
        }
      ],
      "stateMutability": "view",
      "type": "function"
    },
    {
      "inputs": [],
      "name": "_token",
      "outputs": [
        {
          "internalType": "contract IERC20",
          "name": "",
          "type": "address"
        }
      ],
      "stateMutability": "view",
      "type": "function"
    },
    {
      "inputs": [],
      "name": "_ve",
      "outputs": [
        {
          "internalType": "contract IVe",
          "name": "",
          "type": "address"
        }
      ],
      "stateMutability": "view",
      "type": "function"
    },
    {
      "inputs": [],
      "name": "activeperiod",
      "outputs": [
        {
          "internalType": "uint256",
          "name": "",
          "type": "uint256"
        }
      ],
      "stateMutability": "view",
      "type": "function"
    },
    {
      "inputs": [
        {
          "internalType": "uint256",
          "name": "_veDistRatio",
          "type": "uint256"
        }
      ],
      "name": "adminSetVeRatio",
      "outputs": [],
      "stateMutability": "nonpayable",
      "type": "function"
    },
    {
      "inputs": [],
      "name": "controller",
      "outputs": [
        {
          "internalType": "address",
          "name": "",
          "type": "address"
        }
      ],
      "stateMutability": "view",
      "type": "function"
    },
    {
      "inputs": [
        {
          "internalType": "bytes32",
          "name": "role",
          "type": "bytes32"
        }
      ],
      "name": "getRoleAdmin",
      "outputs": [
        {
          "internalType": "bytes32",
          "name": "",
          "type": "bytes32"
        }
      ],
      "stateMutability": "view",
      "type": "function"
    },
    {
      "inputs": [
        {
          "internalType": "bytes32",
          "name": "role",
          "type": "bytes32"
        },
        {
          "internalType": "uint256",
          "name": "index",
          "type": "uint256"
        }
      ],
      "name": "getRoleMember",
      "outputs": [
        {
          "internalType": "address",
          "name": "",
          "type": "address"
        }
      ],
      "stateMutability": "view",
      "type": "function"
    },
    {
      "inputs": [
        {
          "internalType": "bytes32",
          "name": "role",
          "type": "bytes32"
        }
      ],
      "name": "getRoleMemberCount",
      "outputs": [
        {
          "internalType": "uint256",
          "name": "",
          "type": "uint256"
        }
      ],
      "stateMutability": "view",
      "type": "function"
    },
    {
      "inputs": [
        {
          "internalType": "bytes32",
          "name": "role",
          "type": "bytes32"
        },
        {
          "internalType": "address",
          "name": "account",
          "type": "address"
        }
      ],
      "name": "getRoleMemberIndex",
      "outputs": [
        {
          "internalType": "uint256",
          "name": "",
          "type": "uint256"
        }
      ],
      "stateMutability": "view",
      "type": "function"
    },
    {
      "inputs": [
        {
          "internalType": "bytes32",
          "name": "role",
          "type": "bytes32"
        },
        {
          "internalType": "address",
          "name": "account",
          "type": "address"
        }
      ],
      "name": "grantRole",
      "outputs": [],
      "stateMutability": "nonpayable",
      "type": "function"
    },
    {
      "inputs": [
        {
          "internalType": "bytes32",
          "name": "role",
          "type": "bytes32"
        },
        {
          "internalType": "address",
          "name": "account",
          "type": "address"
        }
      ],
      "name": "hasRole",
      "outputs": [
        {
          "internalType": "bool",
          "name": "",
          "type": "bool"
        }
      ],
      "stateMutability": "view",
      "type": "function"
    },
    {
      "inputs": [
        {
          "internalType": "address",
          "name": "__ve",
          "type": "address"
        },
        {
          "internalType": "address",
          "name": "__controller",
          "type": "address"
        },
        {
          "internalType": "address",
          "name": "admin",
          "type": "address"
        }
      ],
      "name": "initialize",
      "outputs": [],
      "stateMutability": "nonpayable",
      "type": "function"
    },
    {
      "inputs": [
        {
          "internalType": "bytes32",
          "name": "role",
          "type": "bytes32"
        },
        {
          "internalType": "address",
          "name": "account",
          "type": "address"
        }
      ],
      "name": "renounceRole",
      "outputs": [],
      "stateMutability": "nonpayable",
      "type": "function"
    },
    {
      "inputs": [
        {
          "internalType": "bytes32",
          "name": "role",
          "type": "bytes32"
        },
        {
          "internalType": "address",
          "name": "account",
          "type": "address"
        }
      ],
      "name": "revokeRole",
      "outputs": [],
      "stateMutability": "nonpayable",
      "type": "function"
    },
    {
      "inputs": [
        {
          "internalType": "uint256",
          "name": "_activeperiod",
          "type": "uint256"
        }
      ],
      "name": "setActiveperiod",
      "outputs": [],
      "stateMutability": "nonpayable",
      "type": "function"
    },
    {
      "inputs": [],
      "name": "updatePeriod",
      "outputs": [
        {
          "internalType": "uint256",
          "name": "",
          "type": "uint256"
        }
      ],
      "stateMutability": "nonpayable",
      "type": "function"
    },
    {
      "inputs": [],
      "name": "veDistRatio",
      "outputs": [
        {
          "internalType": "uint256",
          "name": "",
          "type": "uint256"
        }
      ],
      "stateMutability": "view",
      "type": "function"
    }
  ],
  "transactionHash": "0x3ab1c4b3408530d5078a8a3ae2937504872235c4109ccf63adf94ffe343c9140",
  "args": [],
  "numDeployments": 1,
  "solcInputHash": "3b3b283a31496f0704cc082007acea88",
  "bytecode": "0x608060405234801561001057600080fd5b50610fa2806100206000396000f3fe608060405234801561001057600080fd5b50600436106101215760003560e01c806391d14854116100ad578063ca15c87311610071578063ca15c87314610249578063d547741f1461025c578063e81a06241461026f578063ecd0c0c314610282578063f77c47911461029557600080fd5b806391d14854146101f0578063a217fddf14610213578063a83627de1461021b578063af9c894d14610223578063c0c53b8b1461023657600080fd5b80634e0df3f6116100f45780634e0df3f61461018d578063713efc99146101a057806385ec4b25146101a95780638dd598fb146101b25780639010d07c146101dd57600080fd5b80630f2e908d14610126578063248a9ca3146101425780632f2ff15d1461016557806336568abe1461017a575b600080fd5b61012f60025481565b6040519081526020015b60405180910390f35b61012f610150366004610d71565b60009081526020819052604090206002015490565b610178610173366004610da2565b6102a8565b005b610178610188366004610da2565b61033b565b61012f61019b366004610da2565b6103b5565b61012f60065481565b61012f61271081565b6004546101c5906001600160a01b031681565b6040516001600160a01b039091168152602001610139565b6101c56101eb366004610dd2565b6103e0565b6102036101fe366004610da2565b6103ff565b6040519015158152602001610139565b61012f600081565b61012f610417565b610178610231366004610d71565b6107ca565b610178610244366004610df4565b6107f6565b61012f610257366004610d71565b610975565b61017861026a366004610da2565b61098c565b61017861027d366004610d71565b610a0d565b6003546101c5906001600160a01b031681565b6005546101c5906001600160a01b031681565b6000828152602081905260409020600201546102c490336103ff565b61032d5760405162461bcd60e51b815260206004820152602f60248201527f416363657373436f6e74726f6c3a2073656e646572206d75737420626520616e60448201526e0818591b5a5b881d1bc819dc985b9d608a1b60648201526084015b60405180910390fd5b6103378282610a39565b5050565b6001600160a01b03811633146103ab5760405162461bcd60e51b815260206004820152602f60248201527f416363657373436f6e74726f6c3a2063616e206f6e6c792072656e6f756e636560448201526e103937b632b9903337b91039b2b63360891b6064820152608401610324565b6103378282610a92565b6000828152602081815260408083206001600160a01b03851684526001019091529020545b92915050565b60008281526020819052604081206103f89083610aeb565b9392505050565b60008281526020819052604081206103f89083610af7565b600061042381336103ff565b61043f5760405162461bcd60e51b815260040161032490610e3f565b60065461044f6224ea0082610e78565b42106107c5576224ea006104638142610e90565b61046d9190610eb2565b60068190556003546040516370a0823160e01b81523060048201529192506000916001600160a01b03909116906370a0823190602401602060405180830381865afa1580156104c0573d6000803e3d6000fd5b505050506040513d601f19601f820116820180604052508101906104e49190610ed1565b90506000612710600254836104f99190610eb2565b6105039190610e90565b6003549091506001600160a01b031663a9059cbb61051f610b19565b6040516001600160e01b031960e084901b1681526001600160a01b039091166004820152602481018490526044016020604051808303816000875af115801561056c573d6000803e3d6000fd5b505050506040513d601f19601f820116820180604052508101906105909190610eea565b6105cc5760405162461bcd60e51b815260206004820152600d60248201526c151c985b9cd9995c8811985a5b609a1b6044820152606401610324565b6105d4610b19565b6001600160a01b031663bee5dc326040518163ffffffff1660e01b8152600401600060405180830381600087803b15801561060e57600080fd5b505af1158015610622573d6000803e3d6000fd5b5050505061062e610b19565b6001600160a01b031663326a94076040518163ffffffff1660e01b8152600401600060405180830381600087803b15801561066857600080fd5b505af115801561067c573d6000803e3d6000fd5b505050506000818361068e9190610f0c565b6003549091506001600160a01b031663095ea7b36106aa610b87565b6040516001600160e01b031960e084901b1681526001600160a01b039091166004820152602481018490526044016020604051808303816000875af11580156106f7573d6000803e3d6000fd5b505050506040513d601f19601f8201168201806040525081019061071b9190610eea565b50610724610b87565b6001600160a01b0316633c6b16ab826040518263ffffffff1660e01b815260040161075191815260200190565b600060405180830381600087803b15801561076b57600080fd5b505af115801561077f573d6000803e3d6000fd5b505060025460408051918252602082018690523393507fb3a7f4e19ac1e31fc41d825d7a63c4af7b79cda95d9abfb66c36e6987706bf9792500160405180910390a25050505b905090565b6107d56000336103ff565b6107f15760405162461bcd60e51b815260040161032490610e3f565b600255565b600154610100900460ff166108115760015460ff1615610815565b303b155b6108785760405162461bcd60e51b815260206004820152602e60248201527f496e697469616c697a61626c653a20636f6e747261637420697320616c72656160448201526d191e481a5b9a5d1a585b1a5e995960921b6064820152608401610324565b600154610100900460ff1615801561089a576001805461ffff19166101011790555b836001600160a01b031663fc0c546a6040518163ffffffff1660e01b8152600401602060405180830381865afa1580156108d8573d6000803e3d6000fd5b505050506040513d601f19601f820116820180604052508101906108fc9190610f23565b600380546001600160a01b03199081166001600160a01b0393841617909155600480548216878416179055600580549091169185169190911790556224ea006109458142610e90565b61094f9190610eb2565b60065561095d60008361032d565b801561096f576001805461ff00191690555b50505050565b60008181526020819052604081206103da90610bd1565b6000828152602081905260409020600201546109a890336103ff565b6103ab5760405162461bcd60e51b815260206004820152603060248201527f416363657373436f6e74726f6c3a2073656e646572206d75737420626520616e60448201526f2061646d696e20746f207265766f6b6560801b6064820152608401610324565b610a186000336103ff565b610a345760405162461bcd60e51b815260040161032490610e3f565b600655565b6000828152602081905260409020610a519082610bdb565b156103375760405133906001600160a01b0383169084907f2f8788117e7eff1d82e926ec794901d17c78024a50270940304540a733656f0d90600090a45050565b6000828152602081905260409020610aaa9082610bf0565b156103375760405133906001600160a01b0383169084907ff6391f5c32d9c69d2a47ea670b442974b53935d1edc7fd64eb21e047a839171b90600090a45050565b60006103f88383610c05565b6001600160a01b038116600090815260018301602052604081205415156103f8565b6005546040805163c13270f160e01b815290516000926001600160a01b03169163c13270f19160048083019260209291908290030181865afa158015610b63573d6000803e3d6000fd5b505050506040513d601f19601f820116820180604052508101906107c59190610f23565b600554604080516311b25aab60e21b815290516000926001600160a01b0316916346c96aac9160048083019260209291908290030181865afa158015610b63573d6000803e3d6000fd5b60006103da825490565b60006103f8836001600160a01b038416610c2f565b60006103f8836001600160a01b038416610c7e565b6000826000018281548110610c1c57610c1c610f40565b9060005260206000200154905092915050565b6000818152600183016020526040812054610c76575081546001818101845560008481526020808220909301849055845484825282860190935260409020919091556103da565b5060006103da565b60008181526001830160205260408120548015610d67576000610ca2600183610f0c565b8554909150600090610cb690600190610f0c565b9050818114610d1b576000866000018281548110610cd657610cd6610f40565b9060005260206000200154905080876000018481548110610cf957610cf9610f40565b6000918252602080832090910192909255918252600188019052604090208390555b8554869080610d2c57610d2c610f56565b6001900381819060005260206000200160009055905585600101600086815260200190815260200160002060009055600193505050506103da565b60009150506103da565b600060208284031215610d8357600080fd5b5035919050565b6001600160a01b0381168114610d9f57600080fd5b50565b60008060408385031215610db557600080fd5b823591506020830135610dc781610d8a565b809150509250929050565b60008060408385031215610de557600080fd5b50508035926020909101359150565b600080600060608486031215610e0957600080fd5b8335610e1481610d8a565b92506020840135610e2481610d8a565b91506040840135610e3481610d8a565b809150509250925092565b6020808252600990820152683337b93134b23232b760b91b604082015260600190565b634e487b7160e01b600052601160045260246000fd5b60008219821115610e8b57610e8b610e62565b500190565b600082610ead57634e487b7160e01b600052601260045260246000fd5b500490565b6000816000190483118215151615610ecc57610ecc610e62565b500290565b600060208284031215610ee357600080fd5b5051919050565b600060208284031215610efc57600080fd5b815180151581146103f857600080fd5b600082821015610f1e57610f1e610e62565b500390565b600060208284031215610f3557600080fd5b81516103f881610d8a565b634e487b7160e01b600052603260045260246000fd5b634e487b7160e01b600052603160045260246000fdfea2646970667358221220c3039e298519300259b074fcb671fa839dde0dd9cc70170207affc94066affae64736f6c634300080d0033",
  "devdoc": {
    "kind": "dev",
    "methods": {
      "getRoleAdmin(bytes32)": {
        "details": "Returns the admin role that controls `role`. See {grantRole} and {revokeRole}. To change a role's admin, use {_setRoleAdmin}."
      },
      "getRoleMember(bytes32,uint256)": {
        "details": "Returns one of the accounts that have `role`. `index` must be a value between 0 and {getRoleMemberCount}, non-inclusive. Role bearers are not sorted in any particular way, and their ordering may change at any point. WARNING: When using {getRoleMember} and {getRoleMemberCount}, make sure you perform all queries on the same block. See the following https://forum.openzeppelin.com/t/iterating-over-elements-on-enumerableset-in-openzeppelin-contracts/2296[forum post] for more information."
      },
      "getRoleMemberCount(bytes32)": {
        "details": "Returns the number of accounts that have `role`. Can be used together with {getRoleMember} to enumerate all bearers of a role."
      },
      "getRoleMemberIndex(bytes32,address)": {
        "details": "Returns the index of the account that have `role`."
      },
      "grantRole(bytes32,address)": {
        "details": "Grants `role` to `account`. If `account` had not been already granted `role`, emits a {RoleGranted} event. Requirements: - the caller must have ``role``'s admin role."
      },
      "hasRole(bytes32,address)": {
        "details": "Returns `true` if `account` has been granted `role`."
      },
      "renounceRole(bytes32,address)": {
        "details": "Revokes `role` from the calling account. Roles are often managed via {grantRole} and {revokeRole}: this function's purpose is to provide a mechanism for accounts to lose their privileges if they are compromised (such as when a trusted device is misplaced). If the calling account had been granted `role`, emits a {RoleRevoked} event. Requirements: - the caller must be `account`."
      },
      "revokeRole(bytes32,address)": {
        "details": "Revokes `role` from `account`. If `account` had been granted `role`, emits a {RoleRevoked} event. Requirements: - the caller must have ``role``'s admin role."
      }
    },
    "version": 1
  },
  "userdoc": {
    "kind": "user",
    "methods": {},
    "version": 1
  },
  "storageLayout": {
    "storage": [
      {
        "astId": 25324,
        "contract": "contracts/base/token/MinterUpgradeable.sol:MinterUpgradeable",
        "label": "_roles",
        "offset": 0,
        "slot": "0",
        "type": "t_mapping(t_bytes32,t_struct(RoleData)25319_storage)"
      },
      {
        "astId": 26510,
        "contract": "contracts/base/token/MinterUpgradeable.sol:MinterUpgradeable",
        "label": "_initialized",
        "offset": 0,
        "slot": "1",
        "type": "t_bool"
      },
      {
        "astId": 26513,
        "contract": "contracts/base/token/MinterUpgradeable.sol:MinterUpgradeable",
        "label": "_initializing",
        "offset": 1,
        "slot": "1",
        "type": "t_bool"
      },
      {
        "astId": 10019,
        "contract": "contracts/base/token/MinterUpgradeable.sol:MinterUpgradeable",
        "label": "veDistRatio",
        "offset": 0,
        "slot": "2",
        "type": "t_uint256"
      },
      {
        "astId": 10025,
        "contract": "contracts/base/token/MinterUpgradeable.sol:MinterUpgradeable",
        "label": "_token",
        "offset": 0,
        "slot": "3",
        "type": "t_contract(IERC20)23598"
      },
      {
        "astId": 10028,
        "contract": "contracts/base/token/MinterUpgradeable.sol:MinterUpgradeable",
        "label": "_ve",
        "offset": 0,
        "slot": "4",
        "type": "t_contract(IVe)25166"
      },
      {
        "astId": 10030,
        "contract": "contracts/base/token/MinterUpgradeable.sol:MinterUpgradeable",
        "label": "controller",
        "offset": 0,
        "slot": "5",
        "type": "t_address"
      },
      {
        "astId": 10032,
        "contract": "contracts/base/token/MinterUpgradeable.sol:MinterUpgradeable",
        "label": "activeperiod",
        "offset": 0,
        "slot": "6",
        "type": "t_uint256"
      }
    ],
    "types": {
      "t_address": {
        "encoding": "inplace",
        "label": "address",
        "numberOfBytes": "20"
      },
      "t_array(t_bytes32)dyn_storage": {
        "base": "t_bytes32",
        "encoding": "dynamic_array",
        "label": "bytes32[]",
        "numberOfBytes": "32"
      },
      "t_bool": {
        "encoding": "inplace",
        "label": "bool",
        "numberOfBytes": "1"
      },
      "t_bytes32": {
        "encoding": "inplace",
        "label": "bytes32",
        "numberOfBytes": "32"
      },
      "t_contract(IERC20)23598": {
        "encoding": "inplace",
        "label": "contract IERC20",
        "numberOfBytes": "20"
      },
      "t_contract(IVe)25166": {
        "encoding": "inplace",
        "label": "contract IVe",
        "numberOfBytes": "20"
      },
      "t_mapping(t_bytes32,t_struct(RoleData)25319_storage)": {
        "encoding": "mapping",
        "key": "t_bytes32",
        "label": "mapping(bytes32 => struct AccessControl.RoleData)",
        "numberOfBytes": "32",
        "value": "t_struct(RoleData)25319_storage"
      },
      "t_mapping(t_bytes32,t_uint256)": {
        "encoding": "mapping",
        "key": "t_bytes32",
        "label": "mapping(bytes32 => uint256)",
        "numberOfBytes": "32",
        "value": "t_uint256"
      },
      "t_struct(AddressSet)26216_storage": {
        "encoding": "inplace",
        "label": "struct EnumerableSet.AddressSet",
        "members": [
          {
            "astId": 26215,
            "contract": "contracts/base/token/MinterUpgradeable.sol:MinterUpgradeable",
            "label": "_inner",
            "offset": 0,
            "slot": "0",
            "type": "t_struct(Set)25915_storage"
          }
        ],
        "numberOfBytes": "64"
      },
      "t_struct(RoleData)25319_storage": {
        "encoding": "inplace",
        "label": "struct AccessControl.RoleData",
        "members": [
          {
            "astId": 25316,
            "contract": "contracts/base/token/MinterUpgradeable.sol:MinterUpgradeable",
            "label": "members",
            "offset": 0,
            "slot": "0",
            "type": "t_struct(AddressSet)26216_storage"
          },
          {
            "astId": 25318,
            "contract": "contracts/base/token/MinterUpgradeable.sol:MinterUpgradeable",
            "label": "adminRole",
            "offset": 0,
            "slot": "2",
            "type": "t_bytes32"
          }
        ],
        "numberOfBytes": "96"
      },
      "t_struct(Set)25915_storage": {
        "encoding": "inplace",
        "label": "struct EnumerableSet.Set",
        "members": [
          {
            "astId": 25910,
            "contract": "contracts/base/token/MinterUpgradeable.sol:MinterUpgradeable",
            "label": "_values",
            "offset": 0,
            "slot": "0",
            "type": "t_array(t_bytes32)dyn_storage"
          },
          {
            "astId": 25914,
            "contract": "contracts/base/token/MinterUpgradeable.sol:MinterUpgradeable",
            "label": "_indexes",
            "offset": 0,
            "slot": "1",
            "type": "t_mapping(t_bytes32,t_uint256)"
          }
        ],
        "numberOfBytes": "64"
      },
      "t_uint256": {
        "encoding": "inplace",
        "label": "uint256",
        "numberOfBytes": "32"
      }
    }
  }
}