{
  "_format": "hh-sol-artifact-1",
  "contractName": "UniswapV2Pair",
  "sourceName": "contracts/test/UniswapV2Pair.sol",
  "abi": [
    {
      "inputs": [],
      "stateMutability": "nonpayable",
      "type": "constructor"
    },
    {
      "anonymous": false,
      "inputs": [
        {
          "indexed": true,
          "internalType": "address",
          "name": "owner",
          "type": "address"
        },
        {
          "indexed": true,
          "internalType": "address",
          "name": "spender",
          "type": "address"
        },
        {
          "indexed": false,
          "internalType": "uint256",
          "name": "value",
          "type": "uint256"
        }
      ],
      "name": "Approval",
      "type": "event"
    },
    {
      "anonymous": false,
      "inputs": [
        {
          "indexed": true,
          "internalType": "address",
          "name": "sender",
          "type": "address"
        },
        {
          "indexed": false,
          "internalType": "uint256",
          "name": "amount0",
          "type": "uint256"
        },
        {
          "indexed": false,
          "internalType": "uint256",
          "name": "amount1",
          "type": "uint256"
        },
        {
          "indexed": true,
          "internalType": "address",
          "name": "to",
          "type": "address"
        }
      ],
      "name": "Burn",
      "type": "event"
    },
    {
      "anonymous": false,
      "inputs": [
        {
          "indexed": true,
          "internalType": "address",
          "name": "sender",
          "type": "address"
        },
        {
          "indexed": false,
          "internalType": "uint256",
          "name": "amount0",
          "type": "uint256"
        },
        {
          "indexed": false,
          "internalType": "uint256",
          "name": "amount1",
          "type": "uint256"
        }
      ],
      "name": "Mint",
      "type": "event"
    },
    {
      "anonymous": false,
      "inputs": [
        {
          "indexed": true,
          "internalType": "address",
          "name": "sender",
          "type": "address"
        },
        {
          "indexed": false,
          "internalType": "uint256",
          "name": "amount0In",
          "type": "uint256"
        },
        {
          "indexed": false,
          "internalType": "uint256",
          "name": "amount1In",
          "type": "uint256"
        },
        {
          "indexed": false,
          "internalType": "uint256",
          "name": "amount0Out",
          "type": "uint256"
        },
        {
          "indexed": false,
          "internalType": "uint256",
          "name": "amount1Out",
          "type": "uint256"
        },
        {
          "indexed": true,
          "internalType": "address",
          "name": "to",
          "type": "address"
        }
      ],
      "name": "Swap",
      "type": "event"
    },
    {
      "anonymous": false,
      "inputs": [
        {
          "indexed": false,
          "internalType": "uint112",
          "name": "reserve0",
          "type": "uint112"
        },
        {
          "indexed": false,
          "internalType": "uint112",
          "name": "reserve1",
          "type": "uint112"
        }
      ],
      "name": "Sync",
      "type": "event"
    },
    {
      "anonymous": false,
      "inputs": [
        {
          "indexed": true,
          "internalType": "address",
          "name": "from",
          "type": "address"
        },
        {
          "indexed": true,
          "internalType": "address",
          "name": "to",
          "type": "address"
        },
        {
          "indexed": false,
          "internalType": "uint256",
          "name": "value",
          "type": "uint256"
        }
      ],
      "name": "Transfer",
      "type": "event"
    },
    {
      "inputs": [],
      "name": "DOMAIN_SEPARATOR",
      "outputs": [
        {
          "internalType": "bytes32",
          "name": "",
          "type": "bytes32"
        }
      ],
      "stateMutability": "view",
      "type": "function"
    },
    {
      "inputs": [],
      "name": "MINIMUM_LIQUIDITY",
      "outputs": [
        {
          "internalType": "uint256",
          "name": "",
          "type": "uint256"
        }
      ],
      "stateMutability": "view",
      "type": "function"
    },
    {
      "inputs": [],
      "name": "PERMIT_TYPEHASH",
      "outputs": [
        {
          "internalType": "bytes32",
          "name": "",
          "type": "bytes32"
        }
      ],
      "stateMutability": "view",
      "type": "function"
    },
    {
      "inputs": [
        {
          "internalType": "address",
          "name": "",
          "type": "address"
        },
        {
          "internalType": "address",
          "name": "",
          "type": "address"
        }
      ],
      "name": "allowance",
      "outputs": [
        {
          "internalType": "uint256",
          "name": "",
          "type": "uint256"
        }
      ],
      "stateMutability": "view",
      "type": "function"
    },
    {
      "inputs": [
        {
          "internalType": "address",
          "name": "spender",
          "type": "address"
        },
        {
          "internalType": "uint256",
          "name": "value",
          "type": "uint256"
        }
      ],
      "name": "approve",
      "outputs": [
        {
          "internalType": "bool",
          "name": "",
          "type": "bool"
        }
      ],
      "stateMutability": "nonpayable",
      "type": "function"
    },
    {
      "inputs": [
        {
          "internalType": "address",
          "name": "",
          "type": "address"
        }
      ],
      "name": "balanceOf",
      "outputs": [
        {
          "internalType": "uint256",
          "name": "",
          "type": "uint256"
        }
      ],
      "stateMutability": "view",
      "type": "function"
    },
    {
      "inputs": [
        {
          "internalType": "address",
          "name": "to",
          "type": "address"
        }
      ],
      "name": "burn",
      "outputs": [
        {
          "internalType": "uint256",
          "name": "amount0",
          "type": "uint256"
        },
        {
          "internalType": "uint256",
          "name": "amount1",
          "type": "uint256"
        }
      ],
      "stateMutability": "nonpayable",
      "type": "function"
    },
    {
      "inputs": [],
      "name": "chainId",
      "outputs": [
        {
          "internalType": "uint256",
          "name": "",
          "type": "uint256"
        }
      ],
      "stateMutability": "view",
      "type": "function"
    },
    {
      "inputs": [],
      "name": "decimals",
      "outputs": [
        {
          "internalType": "uint8",
          "name": "",
          "type": "uint8"
        }
      ],
      "stateMutability": "view",
      "type": "function"
    },
    {
      "inputs": [],
      "name": "factory",
      "outputs": [
        {
          "internalType": "address",
          "name": "",
          "type": "address"
        }
      ],
      "stateMutability": "view",
      "type": "function"
    },
    {
      "inputs": [],
      "name": "getReserves",
      "outputs": [
        {
          "internalType": "uint112",
          "name": "_reserve0",
          "type": "uint112"
        },
        {
          "internalType": "uint112",
          "name": "_reserve1",
          "type": "uint112"
        },
        {
          "internalType": "uint32",
          "name": "_blockTimestampLast",
          "type": "uint32"
        }
      ],
      "stateMutability": "view",
      "type": "function"
    },
    {
      "inputs": [
        {
          "internalType": "address",
          "name": "_token0",
          "type": "address"
        },
        {
          "internalType": "address",
          "name": "_token1",
          "type": "address"
        }
      ],
      "name": "initialize",
      "outputs": [],
      "stateMutability": "nonpayable",
      "type": "function"
    },
    {
      "inputs": [],
      "name": "kLast",
      "outputs": [
        {
          "internalType": "uint256",
          "name": "",
          "type": "uint256"
        }
      ],
      "stateMutability": "view",
      "type": "function"
    },
    {
      "inputs": [
        {
          "internalType": "address",
          "name": "to",
          "type": "address"
        }
      ],
      "name": "mint",
      "outputs": [
        {
          "internalType": "uint256",
          "name": "liquidity",
          "type": "uint256"
        }
      ],
      "stateMutability": "nonpayable",
      "type": "function"
    },
    {
      "inputs": [],
      "name": "name",
      "outputs": [
        {
          "internalType": "string",
          "name": "",
          "type": "string"
        }
      ],
      "stateMutability": "view",
      "type": "function"
    },
    {
      "inputs": [
        {
          "internalType": "address",
          "name": "",
          "type": "address"
        }
      ],
      "name": "nonces",
      "outputs": [
        {
          "internalType": "uint256",
          "name": "",
          "type": "uint256"
        }
      ],
      "stateMutability": "view",
      "type": "function"
    },
    {
      "inputs": [
        {
          "internalType": "address",
          "name": "owner",
          "type": "address"
        },
        {
          "internalType": "address",
          "name": "spender",
          "type": "address"
        },
        {
          "internalType": "uint256",
          "name": "value",
          "type": "uint256"
        },
        {
          "internalType": "uint256",
          "name": "deadline",
          "type": "uint256"
        },
        {
          "internalType": "uint8",
          "name": "v",
          "type": "uint8"
        },
        {
          "internalType": "bytes32",
          "name": "r",
          "type": "bytes32"
        },
        {
          "internalType": "bytes32",
          "name": "s",
          "type": "bytes32"
        }
      ],
      "name": "permit",
      "outputs": [],
      "stateMutability": "nonpayable",
      "type": "function"
    },
    {
      "inputs": [],
      "name": "price0CumulativeLast",
      "outputs": [
        {
          "internalType": "uint256",
          "name": "",
          "type": "uint256"
        }
      ],
      "stateMutability": "view",
      "type": "function"
    },
    {
      "inputs": [],
      "name": "price1CumulativeLast",
      "outputs": [
        {
          "internalType": "uint256",
          "name": "",
          "type": "uint256"
        }
      ],
      "stateMutability": "view",
      "type": "function"
    },
    {
      "inputs": [
        {
          "internalType": "address",
          "name": "to",
          "type": "address"
        }
      ],
      "name": "skim",
      "outputs": [],
      "stateMutability": "nonpayable",
      "type": "function"
    },
    {
      "inputs": [
        {
          "internalType": "uint256",
          "name": "amount0Out",
          "type": "uint256"
        },
        {
          "internalType": "uint256",
          "name": "amount1Out",
          "type": "uint256"
        },
        {
          "internalType": "address",
          "name": "to",
          "type": "address"
        },
        {
          "internalType": "bytes",
          "name": "",
          "type": "bytes"
        }
      ],
      "name": "swap",
      "outputs": [],
      "stateMutability": "nonpayable",
      "type": "function"
    },
    {
      "inputs": [],
      "name": "symbol",
      "outputs": [
        {
          "internalType": "string",
          "name": "",
          "type": "string"
        }
      ],
      "stateMutability": "view",
      "type": "function"
    },
    {
      "inputs": [],
      "name": "sync",
      "outputs": [],
      "stateMutability": "nonpayable",
      "type": "function"
    },
    {
      "inputs": [],
      "name": "token0",
      "outputs": [
        {
          "internalType": "address",
          "name": "",
          "type": "address"
        }
      ],
      "stateMutability": "view",
      "type": "function"
    },
    {
      "inputs": [],
      "name": "token1",
      "outputs": [
        {
          "internalType": "address",
          "name": "",
          "type": "address"
        }
      ],
      "stateMutability": "view",
      "type": "function"
    },
    {
      "inputs": [],
      "name": "totalSupply",
      "outputs": [
        {
          "internalType": "uint256",
          "name": "",
          "type": "uint256"
        }
      ],
      "stateMutability": "view",
      "type": "function"
    },
    {
      "inputs": [
        {
          "internalType": "address",
          "name": "to",
          "type": "address"
        },
        {
          "internalType": "uint256",
          "name": "value",
          "type": "uint256"
        }
      ],
      "name": "transfer",
      "outputs": [
        {
          "internalType": "bool",
          "name": "",
          "type": "bool"
        }
      ],
      "stateMutability": "nonpayable",
      "type": "function"
    },
    {
      "inputs": [
        {
          "internalType": "address",
          "name": "from",
          "type": "address"
        },
        {
          "internalType": "address",
          "name": "to",
          "type": "address"
        },
        {
          "internalType": "uint256",
          "name": "value",
          "type": "uint256"
        }
      ],
      "name": "transferFrom",
      "outputs": [
        {
          "internalType": "bool",
          "name": "",
          "type": "bool"
        }
      ],
      "stateMutability": "nonpayable",
      "type": "function"
    }
  ],
  "bytecode": "0x60806040526001600d5534801561001557600080fd5b50604080518082018252600a8152692ab734b9bbb0b8102b1960b11b6020918201528151808301835260018152603160f81b9082015281517f8b73c3c69bb8fe3d512ecc4cf759cc79239f7b179b0ffacaa9a75d522b39400f818301527fbfcc8ef98ffbf7b6c3fec7bf5185b566b9863e35a9d83acd49ad6824b5969738818401527fc89efdaa54c0f20c7adf612882df0950f5a951637e0307cdcb4c672f298b8bc6606082015246608082018190523060a0808401919091528451808403909101815260c09092019093528051910120600355600555600680546001600160a01b031916331790556120578061010d6000396000f3fe608060405234801561001057600080fd5b50600436106101c45760003560e01c806370a08231116100f9578063ba9a7a5611610097578063d21220a711610071578063d21220a71461042c578063d505accf1461043f578063dd62ed3e14610452578063fff6cae91461047d57600080fd5b8063ba9a7a56146103fd578063bc25cf7714610406578063c45a01551461041957600080fd5b806389afcb44116100d357806389afcb441461039457806395d89b41146103bc5780639a8a0592146103e1578063a9059cbb146103ea57600080fd5b806370a082311461034b5780637464fc3d1461036b5780637ecebe001461037457600080fd5b806330adf81f11610166578063485cc95511610140578063485cc955146103135780635909c0d5146103265780635a3d54931461032f5780636a6278421461033857600080fd5b806330adf81f146102c9578063313ce567146102f05780633644e5151461030a57600080fd5b8063095ea7b3116101a2578063095ea7b3146102515780630dfe16811461027457806318160ddd1461029f57806323b872dd146102b657600080fd5b8063022c0d9f146101c957806306fdde03146101de5780630902f1ac1461021d575b600080fd5b6101dc6101d7366004611c4c565b610485565b005b6102076040518060400160405280600a8152602001692ab734b9bbb0b8102b1960b11b81525081565b6040516102149190611d10565b60405180910390f35b61022561091e565b604080516001600160701b03948516815293909216602084015263ffffffff1690820152606001610214565b61026461025f366004611d43565b610948565b6040519015158152602001610214565b600754610287906001600160a01b031681565b6040516001600160a01b039091168152602001610214565b6102a860005481565b604051908152602001610214565b6102646102c4366004611d6d565b61095f565b6102a87f6e71edae12b1b97f4d1f60370fef10105fa2faae0126114a169c64845d6126c981565b6102f8601281565b60405160ff9091168152602001610214565b6102a860035481565b6101dc610321366004611da9565b6109f3565b6102a8600a5481565b6102a8600b5481565b6102a8610346366004611ddc565b610a72565b6102a8610359366004611ddc565b60016020526000908152604090205481565b6102a8600c5481565b6102a8610382366004611ddc565b60046020526000908152604090205481565b6103a76103a2366004611ddc565b610d3a565b60408051928352602083019190915201610214565b610207604051806040016040528060068152602001652aa72496ab1960d11b81525081565b6102a860055481565b6102646103f8366004611d43565b6110a0565b6102a86103e881565b6101dc610414366004611ddc565b6110ad565b600654610287906001600160a01b031681565b600854610287906001600160a01b031681565b6101dc61044d366004611df7565b6111c1565b6102a8610460366004611da9565b600260209081526000928352604080842090915290825290205481565b6101dc6113d5565b600d546001146104b05760405162461bcd60e51b81526004016104a790611e6a565b60405180910390fd5b6000600d55841515806104c35750600084115b61051d5760405162461bcd60e51b815260206004820152602560248201527f556e697377617056323a20494e53554646494349454e545f4f55545055545f416044820152641353d5539560da1b60648201526084016104a7565b60008061052861091e565b5091509150816001600160701b03168710801561054d5750806001600160701b031686105b6105a35760405162461bcd60e51b815260206004820152602160248201527f556e697377617056323a20494e53554646494349454e545f4c495155494449546044820152605960f81b60648201526084016104a7565b60075460085460009182916001600160a01b039182169190811690891682148015906105e15750806001600160a01b0316896001600160a01b031614155b6106255760405162461bcd60e51b8152602060048201526015602482015274556e697377617056323a20494e56414c49445f544f60581b60448201526064016104a7565b8a1561063657610636828a8d6114f9565b891561064757610647818a8c6114f9565b6040516370a0823160e01b81523060048201526001600160a01b038316906370a0823190602401602060405180830381865afa15801561068b573d6000803e3d6000fd5b505050506040513d601f19601f820116820180604052508101906106af9190611e95565b6040516370a0823160e01b81523060048201529094506001600160a01b038216906370a0823190602401602060405180830381865afa1580156106f6573d6000803e3d6000fd5b505050506040513d601f19601f8201168201806040525081019061071a9190611e95565b92505050600089856001600160701b03166107359190611ec4565b831161074257600061075f565b6107558a6001600160701b038716611ec4565b61075f9084611ec4565b905060006107768a6001600160701b038716611ec4565b83116107835760006107a0565b6107968a6001600160701b038716611ec4565b6107a09084611ec4565b905060008211806107b15750600081115b6108095760405162461bcd60e51b8152602060048201526024808201527f556e697377617056323a20494e53554646494349454e545f494e5055545f414d60448201526313d5539560e21b60648201526084016104a7565b600061082b610819846003611644565b610825876103e8611644565b906116ab565b9050600061083d610819846003611644565b9050610862620f424061085c6001600160701b038b8116908b16611644565b90611644565b61086c8383611644565b10156108a95760405162461bcd60e51b815260206004820152600c60248201526b556e697377617056323a204b60a01b60448201526064016104a7565b50506108b784848888611701565b60408051838152602081018390529081018c9052606081018b90526001600160a01b038a169033907fd78ad95fa46c994b6551d0da85fc275fe613ce37657fb8d5e3d130840159d8229060800160405180910390a350506001600d55505050505050505050565b6009546001600160701b0380821692600160701b830490911691600160e01b900463ffffffff1690565b60006109553384846118ed565b5060015b92915050565b6001600160a01b0383166000908152600260209081526040808320338452909152812054600019146109de576001600160a01b03841660009081526002602090815260408083203384529091529020546109b990836116ab565b6001600160a01b03851660009081526002602090815260408083203384529091529020555b6109e984848461194f565b5060019392505050565b6006546001600160a01b03163314610a445760405162461bcd60e51b81526020600482015260146024820152732ab734b9bbb0b82b191d102327a92124a22222a760611b60448201526064016104a7565b600780546001600160a01b039384166001600160a01b03199182161790915560088054929093169116179055565b6000600d54600114610a965760405162461bcd60e51b81526004016104a790611e6a565b6000600d81905580610aa661091e565b506007546040516370a0823160e01b81523060048201529294509092506000916001600160a01b03909116906370a0823190602401602060405180830381865afa158015610af8573d6000803e3d6000fd5b505050506040513d601f19601f82011682018060405250810190610b1c9190611e95565b6008546040516370a0823160e01b81523060048201529192506000916001600160a01b03909116906370a0823190602401602060405180830381865afa158015610b6a573d6000803e3d6000fd5b505050506040513d601f19601f82011682018060405250810190610b8e9190611e95565b90506000610ba5836001600160701b0387166116ab565b90506000610bbc836001600160701b0387166116ab565b90506000610bca87876119f5565b60008054919250819003610c0457610bf06103e8610825610beb8787611644565b611a11565b9850610bff60006103e8611a81565b610c4b565b610c486001600160701b038916610c1b8684611644565b610c259190611ef1565b6001600160701b038916610c398685611644565b610c439190611ef1565b611b10565b98505b60008911610cac5760405162461bcd60e51b815260206004820152602860248201527f556e697377617056323a20494e53554646494349454e545f4c495155494449546044820152671657d3525395115160c21b60648201526084016104a7565b610cb68a8a611a81565b610cc286868a8a611701565b8115610cec57600954610ce8906001600160701b0380821691600160701b900416611644565b600c555b604080518581526020810185905233917f4c209b5fc8ad50758f13e2e1088ba56a560dff690a1c6fef26394f4c03821c4f910160405180910390a250506001600d5550949695505050505050565b600080600d54600114610d5f5760405162461bcd60e51b81526004016104a790611e6a565b6000600d81905580610d6f61091e565b506007546008546040516370a0823160e01b81523060048201529395509193506001600160a01b039081169291169060009083906370a0823190602401602060405180830381865afa158015610dc9573d6000803e3d6000fd5b505050506040513d601f19601f82011682018060405250810190610ded9190611e95565b6040516370a0823160e01b81523060048201529091506000906001600160a01b038416906370a0823190602401602060405180830381865afa158015610e37573d6000803e3d6000fd5b505050506040513d601f19601f82011682018060405250810190610e5b9190611e95565b30600090815260016020526040812054919250610e7888886119f5565b60005490915080610e898487611644565b610e939190611ef1565b9a5080610ea08486611644565b610eaa9190611ef1565b995060008b118015610ebc575060008a115b610f195760405162461bcd60e51b815260206004820152602860248201527f556e697377617056323a20494e53554646494349454e545f4c495155494449546044820152671657d0955493915160c21b60648201526084016104a7565b610f233084611b28565b610f2e878d8d6114f9565b610f39868d8c6114f9565b6040516370a0823160e01b81523060048201526001600160a01b038816906370a0823190602401602060405180830381865afa158015610f7d573d6000803e3d6000fd5b505050506040513d601f19601f82011682018060405250810190610fa19190611e95565b6040516370a0823160e01b81523060048201529095506001600160a01b038716906370a0823190602401602060405180830381865afa158015610fe8573d6000803e3d6000fd5b505050506040513d601f19601f8201168201806040525081019061100c9190611e95565b935061101a85858b8b611701565b811561104457600954611040906001600160701b0380821691600160701b900416611644565b600c555b604080518c8152602081018c90526001600160a01b038e169133917fdccd412f0b1252819cb1fd330b93224ca42612892bb3f4f789976e6d81936496910160405180910390a35050505050505050506001600d81905550915091565b600061095533848461194f565b600d546001146110cf5760405162461bcd60e51b81526004016104a790611e6a565b6000600d556007546008546009546040516370a0823160e01b81523060048201526001600160a01b03938416939092169161116a9184918691611165916001600160701b039091169084906370a08231906024015b602060405180830381865afa158015611141573d6000803e3d6000fd5b505050506040513d601f19601f820116820180604052508101906108259190611e95565b6114f9565b6009546040516370a0823160e01b81523060048201526111b7918391869161116591600160701b9091046001600160701b0316906001600160a01b038516906370a0823190602401611124565b50506001600d5550565b428410156112065760405162461bcd60e51b8152602060048201526012602482015271155b9a5cddd85c158c8e881156141254915160721b60448201526064016104a7565b6003546001600160a01b038816600090815260046020526040812080549192917f6e71edae12b1b97f4d1f60370fef10105fa2faae0126114a169c64845d6126c9918b918b918b91908761125983611f05565b909155506040805160208101969096526001600160a01b0394851690860152929091166060840152608083015260a082015260c0810187905260e001604051602081830303815290604052805190602001206040516020016112d292919061190160f01b81526002810192909252602282015260420190565b60408051601f198184030181528282528051602091820120600080855291840180845281905260ff88169284019290925260608301869052608083018590529092509060019060a0016020604051602081039080840390855afa15801561133d573d6000803e3d6000fd5b5050604051601f1901519150506001600160a01b038116158015906113735750886001600160a01b0316816001600160a01b0316145b6113bf5760405162461bcd60e51b815260206004820152601c60248201527f556e697377617056323a20494e56414c49445f5349474e41545552450000000060448201526064016104a7565b6113ca8989896118ed565b505050505050505050565b600d546001146113f75760405162461bcd60e51b81526004016104a790611e6a565b6000600d556007546040516370a0823160e01b81523060048201526114f2916001600160a01b0316906370a0823190602401602060405180830381865afa158015611446573d6000803e3d6000fd5b505050506040513d601f19601f8201168201806040525081019061146a9190611e95565b6008546040516370a0823160e01b81523060048201526001600160a01b03909116906370a0823190602401602060405180830381865afa1580156114b2573d6000803e3d6000fd5b505050506040513d601f19601f820116820180604052508101906114d69190611e95565b6009546001600160701b0380821691600160701b900416611701565b6001600d55565b604080518082018252601981527f7472616e7366657228616464726573732c75696e74323536290000000000000060209182015281516001600160a01b0385811660248301526044808301869052845180840390910181526064909201845291810180516001600160e01b031663a9059cbb60e01b179052915160009283928716916115859190611f1e565b6000604051808303816000865af19150503d80600081146115c2576040519150601f19603f3d011682016040523d82523d6000602084013e6115c7565b606091505b50915091508180156115f15750805115806115f15750808060200190518101906115f19190611f3a565b61163d5760405162461bcd60e51b815260206004820152601a60248201527f556e697377617056323a205452414e534645525f4641494c454400000000000060448201526064016104a7565b5050505050565b60008115806116685750828261165a8183611f5c565b92506116669083611ef1565b145b6109595760405162461bcd60e51b815260206004820152601460248201527364732d6d6174682d6d756c2d6f766572666c6f7760601b60448201526064016104a7565b6000826116b88382611ec4565b91508111156109595760405162461bcd60e51b815260206004820152601560248201527464732d6d6174682d7375622d756e646572666c6f7760581b60448201526064016104a7565b6001600160701b03841180159061171f57506001600160701b038311155b6117615760405162461bcd60e51b8152602060048201526013602482015272556e697377617056323a204f564552464c4f5760681b60448201526064016104a7565b600061177264010000000042611f7b565b60095490915060009061179290600160e01b900463ffffffff1683611f8f565b905060008163ffffffff161180156117b257506001600160701b03841615155b80156117c657506001600160701b03831615155b15611855578063ffffffff166117ee856117df86611bb2565b6001600160e01b031690611bcb565b6001600160e01b03166118019190611f5c565b600a60008282546118129190611fb4565b909155505063ffffffff811661182b846117df87611bb2565b6001600160e01b031661183e9190611f5c565b600b600082825461184f9190611fb4565b90915550505b6009805463ffffffff8416600160e01b026001600160e01b036001600160701b03898116600160701b9081026001600160e01b03199095168c83161794909417918216831794859055604080519382169282169290921783529290930490911660208201527f1c411e9a96e071241c2f21f7726b17ae89e3cab4c78be50e062b03a9fffbbad1910160405180910390a1505050505050565b6001600160a01b0383811660008181526002602090815260408083209487168084529482529182902085905590518481527f8c5be1e5ebec7d5bd14f71427d1e84f3dd0314c0f7b2291e5b200ac8c7c3b92591015b60405180910390a3505050565b6001600160a01b03831660009081526001602052604090205461197290826116ab565b6001600160a01b0380851660009081526001602052604080822093909355908416815220546119a19082611be0565b6001600160a01b0380841660008181526001602052604090819020939093559151908516907fddf252ad1be2c89b69c2b068fc378daa952ba7f163c4a11628f55a4df523b3ef906119429085815260200190565b600c5460009081908015611a09576000600c555b505092915050565b60006003821115611a725750806000611a2b600283611ef1565b611a36906001611fb4565b90505b81811015611a6c57905080600281611a518186611ef1565b611a5b9190611fb4565b611a659190611ef1565b9050611a39565b50919050565b8115611a7c575060015b919050565b600054611a8e9082611be0565b60009081556001600160a01b038316815260016020526040902054611ab39082611be0565b6001600160a01b0383166000818152600160205260408082209390935591519091907fddf252ad1be2c89b69c2b068fc378daa952ba7f163c4a11628f55a4df523b3ef90611b049085815260200190565b60405180910390a35050565b6000818310611b1f5781611b21565b825b9392505050565b6001600160a01b038216600090815260016020526040902054611b4b90826116ab565b6001600160a01b03831660009081526001602052604081209190915554611b7290826116ab565b60009081556040518281526001600160a01b038416907fddf252ad1be2c89b69c2b068fc378daa952ba7f163c4a11628f55a4df523b3ef90602001611b04565b6000610959600160701b6001600160701b038416611fcc565b6000611b216001600160701b03831684611ffb565b600082611bed8382611fb4565b91508110156109595760405162461bcd60e51b815260206004820152601460248201527364732d6d6174682d6164642d6f766572666c6f7760601b60448201526064016104a7565b80356001600160a01b0381168114611a7c57600080fd5b600080600080600060808688031215611c6457600080fd5b8535945060208601359350611c7b60408701611c35565b9250606086013567ffffffffffffffff80821115611c9857600080fd5b818801915088601f830112611cac57600080fd5b813581811115611cbb57600080fd5b896020828501011115611ccd57600080fd5b9699959850939650602001949392505050565b60005b83811015611cfb578181015183820152602001611ce3565b83811115611d0a576000848401525b50505050565b6020815260008251806020840152611d2f816040850160208701611ce0565b601f01601f19169190910160400192915050565b60008060408385031215611d5657600080fd5b611d5f83611c35565b946020939093013593505050565b600080600060608486031215611d8257600080fd5b611d8b84611c35565b9250611d9960208501611c35565b9150604084013590509250925092565b60008060408385031215611dbc57600080fd5b611dc583611c35565b9150611dd360208401611c35565b90509250929050565b600060208284031215611dee57600080fd5b611b2182611c35565b600080600080600080600060e0888a031215611e1257600080fd5b611e1b88611c35565b9650611e2960208901611c35565b95506040880135945060608801359350608088013560ff81168114611e4d57600080fd5b9699959850939692959460a0840135945060c09093013592915050565b602080825260119082015270155b9a5cddd85c158c8e881313d0d2d151607a1b604082015260600190565b600060208284031215611ea757600080fd5b5051919050565b634e487b7160e01b600052601160045260246000fd5b600082821015611ed657611ed6611eae565b500390565b634e487b7160e01b600052601260045260246000fd5b600082611f0057611f00611edb565b500490565b600060018201611f1757611f17611eae565b5060010190565b60008251611f30818460208701611ce0565b9190910192915050565b600060208284031215611f4c57600080fd5b81518015158114611b2157600080fd5b6000816000190483118215151615611f7657611f76611eae565b500290565b600082611f8a57611f8a611edb565b500690565b600063ffffffff83811690831681811015611fac57611fac611eae565b039392505050565b60008219821115611fc757611fc7611eae565b500190565b60006001600160e01b0382811684821681151582840482111615611ff257611ff2611eae565b02949350505050565b60006001600160e01b038381168061201557612015611edb565b9216919091049291505056fea2646970667358221220bad513c331f646a17419f1eabee54aa6c939c53527e8c78d2f85848dd858270264736f6c634300080d0033",
  "linkReferences": {},
  "deployedLinkReferences": {}
}