{
  "address": "0x217D13AB20580e09F4361b621905787DCAa619e5",
  "abi": [
    {
      "anonymous": false,
      "inputs": [
        {
          "indexed": false,
          "internalType": "address",
          "name": "value",
          "type": "address"
        }
      ],
      "name": "GaugeCreated",
      "type": "event"
    },
    {
      "inputs": [
        {
          "internalType": "address",
          "name": "_pool",
          "type": "address"
        },
        {
          "internalType": "address",
          "name": "_bribe",
          "type": "address"
        },
        {
          "internalType": "address",
          "name": "_ve",
          "type": "address"
        },
        {
          "internalType": "address[]",
          "name": "_allowedRewardTokens",
          "type": "address[]"
        }
      ],
      "name": "createGauge",
      "outputs": [
        {
          "internalType": "address",
          "name": "",
          "type": "address"
        }
      ],
      "stateMutability": "nonpayable",
      "type": "function"
    },
    {
      "inputs": [
        {
          "internalType": "address",
          "name": "_pool",
          "type": "address"
        },
        {
          "internalType": "address",
          "name": "_bribe",
          "type": "address"
        },
        {
          "internalType": "address",
          "name": "_ve",
          "type": "address"
        },
        {
          "internalType": "address",
          "name": "_voter",
          "type": "address"
        },
        {
          "internalType": "address[]",
          "name": "_allowedRewardTokens",
          "type": "address[]"
        }
      ],
      "name": "createGaugeSingle",
      "outputs": [
        {
          "internalType": "address",
          "name": "",
          "type": "address"
        }
      ],
      "stateMutability": "nonpayable",
      "type": "function"
    },
    {
      "inputs": [],
      "name": "lastGauge",
      "outputs": [
        {
          "internalType": "address",
          "name": "",
          "type": "address"
        }
      ],
      "stateMutability": "view",
      "type": "function"
    }
  ],
  "transactionHash": "0xd296f30bde008acee964d8cf4bd3d206792f5e5d647a18a045163040bcb0d1ec",
  "args": [],
  "numDeployments": 1,
  "solcInputHash": "eac3708b31671a6a986dce840e2f0a34",
  "bytecode": "0x608060405234801561001057600080fd5b50613b2c806100206000396000f3fe608060405234801561001057600080fd5b50600436106100415760003560e01c8063559a9c0a1461004657806358c14b6514610075578063b46d346514610088575b600080fd5b6100596100543660046102b6565b61009b565b6040516001600160a01b03909116815260200160405180910390f35b610059610083366004610336565b610138565b600054610059906001600160a01b031681565b60008086868686866040516100af906101d4565b6100bd9594939291906103a5565b604051809103906000f0801580156100d9573d6000803e3d6000fd5b50600080546001600160a01b0319166001600160a01b0383169081179091556040519081529091507faa98436d09d130af48de49867af8b723bbbebb0d737638b5fe8f1bf31bbb71c09060200160405180910390a19695505050505050565b600080858585338660405161014c906101d4565b61015a9594939291906103a5565b604051809103906000f080158015610176573d6000803e3d6000fd5b50600080546001600160a01b0319166001600160a01b0383169081179091556040519081529091507faa98436d09d130af48de49867af8b723bbbebb0d737638b5fe8f1bf31bbb71c09060200160405180910390a195945050505050565b6136dc806200041b83390190565b80356001600160a01b03811681146101f957600080fd5b919050565b634e487b7160e01b600052604160045260246000fd5b600082601f83011261022557600080fd5b8135602067ffffffffffffffff80831115610242576102426101fe565b8260051b604051601f19603f83011681018181108482111715610267576102676101fe565b60405293845285810183019383810192508785111561028557600080fd5b83870191505b848210156102ab5761029c826101e2565b8352918301919083019061028b565b979650505050505050565b600080600080600060a086880312156102ce57600080fd5b6102d7866101e2565b94506102e5602087016101e2565b93506102f3604087016101e2565b9250610301606087016101e2565b9150608086013567ffffffffffffffff81111561031d57600080fd5b61032988828901610214565b9150509295509295909350565b6000806000806080858703121561034c57600080fd5b610355856101e2565b9350610363602086016101e2565b9250610371604086016101e2565b9150606085013567ffffffffffffffff81111561038d57600080fd5b61039987828801610214565b91505092959194509250565b600060a0820160018060a01b0380891684526020818916818601528188166040860152818716606086015260a0608086015282865180855260c087019150828801945060005b818110156104095785518516835294830194918301916001016103eb565b50909b9a505050505050505050505056fe608060405260016000553480156200001657600080fd5b50604051620036dc380380620036dc83398101604081905262000039916200028d565b600280546001600160a01b038088166001600160a01b031992831617909255600180549285169290911691909117905584828260005b8151811015620000f25760006001600160a01b0316828281518110620000995762000099620003ad565b60200260200101516001600160a01b031614620000dd57620000dd828281518110620000c957620000c9620003ad565b60200260200101516200013c60201b60201c565b80620000e981620003c3565b9150506200006f565b5050601680546001600160a01b03199081166001600160a01b0398891617909155601580548216968816969096179095555050601780549093169190931617905550620003eb9050565b600d54600a11620001945760405162461bcd60e51b815260206004820152601660248201527f546f6f206d616e792072657761726420746f6b656e730000000000000000000060448201526064015b60405180910390fd5b6001600160a01b0381166000908152600e602052604090205460ff1615620001f45760405162461bcd60e51b8152602060048201526012602482015271105b1c9958591e481c9959da5cdd195c995960721b60448201526064016200018b565b6001600160a01b03166000818152600e60205260408120805460ff19166001908117909155600d805491820181559091527fd7b6990105719101dabeb77144f2a3385c8033acd3af97e9423a695e81ad1eb50180546001600160a01b0319169091179055565b80516001600160a01b03811681146200027257600080fd5b919050565b634e487b7160e01b600052604160045260246000fd5b600080600080600060a08688031215620002a657600080fd5b620002b1866200025a565b94506020620002c28188016200025a565b9450620002d2604088016200025a565b9350620002e2606088016200025a565b60808801519093506001600160401b03808211156200030057600080fd5b818901915089601f8301126200031557600080fd5b8151818111156200032a576200032a62000277565b8060051b604051601f19603f8301168101818110858211171562000352576200035262000277565b60405291825284820192508381018501918c8311156200037157600080fd5b938501935b828510156200039a576200038a856200025a565b8452938501939285019262000376565b8096505050505050509295509295909350565b634e487b7160e01b600052603260045260246000fd5b600060018201620003e457634e487b7160e01b600052601160045260246000fd5b5060010190565b6132e180620003fb6000396000f3fe608060405234801561001057600080fd5b506004361061027f5760003560e01c80637bb7bed11161015c578063d294f093116100ce578063e8111a1211610087578063e8111a1214610658578063f122977714610661578063f7412baf14610674578063fc97a3031461069b578063fd314098146106bb578063fdb483c7146106ce57600080fd5b8063d294f093146105ee578063d35e2544146105f6578063d7da4bb014610609578063da09d19d14610612578063e2bbb15814610632578063e46dbc981461064557600080fd5b8063a495e5b511610120578063a495e5b514610542578063aa4796521461056d578063b5fd73f81461058d578063b66503cf146105c0578063bf199e62146105d3578063c6f678bd146105db57600080fd5b80637bb7bed1146104eb578063853828b6146104fe57806393f1c4421461050657806399bcc0521461050f5780639ce43f901461052257600080fd5b80633ca068b6116101f557806363fb415b116101b957806363fb415b1461045257806368fcee1a146104725780636f307dc3146104855780636fcfff451461049857806370a08231146104b857806376f4be36146104d857600080fd5b80633ca068b6146103e55780633d509c971461041057806346c96aac146104235780634c02a21c14610436578063570ca7351461043f57600080fd5b8063211dc32d11610247578063211dc32d14610357578063221ca18c1461036a5780632ce9aead1461038a5780632e1a7d4d146103aa57806331279d3d146103bf57806337d0208c146103d257600080fd5b806301316ddf146102845780630cdfebfa146102d0578063115c6f391461030257806318160ddd146103235780631f8507161461032c575b600080fd5b6102b6610292366004612ee5565b60136020908152600092835260408084209091529082529020805460019091015482565b604080519283526020830191909152015b60405180910390f35b6102b66102de366004612ee5565b600f6020908152600092835260408084209091529082529020805460019091015482565b610315610310366004612ee5565b6106e1565b6040519081526020016102c7565b610315600b5481565b60155461033f906001600160a01b031681565b6040516001600160a01b0390911681526020016102c7565b610315610365366004612f11565b6106f6565b610315610378366004612f4a565b60056020526000908152604090205481565b610315610398366004612f4a565b60076020526000908152604090205481565b6103bd6103b8366004612f67565b610702565b005b6103bd6103cd366004612f96565b6107a4565b60165461033f906001600160a01b031681565b6103156103f3366004612f11565b600a60209081526000928352604080842090915290825290205481565b6103bd61041e366004612f4a565b61086e565b60175461033f906001600160a01b031681565b610315601a5481565b60015461033f906001600160a01b031681565b610315610460366004612f4a565b60046020526000908152604090205481565b6103bd610480366004612ee5565b610b49565b60025461033f906001600160a01b031681565b6103156104a6366004612f4a565b60106020526000908152604090205481565b6103156104c6366004612f4a565b600c6020526000908152604090205481565b6103156104e6366004612f67565b610b83565b61033f6104f9366004612f67565b610b8e565b6103bd610bb8565b61031560195481565b61031561051d366004612f4a565b610bd3565b610315610530366004612f4a565b60086020526000908152604090205481565b610315610550366004612f11565b600960209081526000928352604080842090915290825290205481565b61031561057b366004612f4a565b60146020526000908152604090205481565b6105b061059b366004612f4a565b600e6020526000908152604090205460ff1681565b60405190151581526020016102c7565b6103bd6105ce366004612ee5565b610c5f565b600d54610315565b6103bd6105e9366004612f67565b610c73565b6102b6610cea565b610315610604366004612f4a565b610d29565b61031560035481565b610315610620366004612f4a565b60066020526000908152604090205481565b6103bd610640366004613070565b610d34565b6103bd610653366004612f4a565b610d8b565b61031560125481565b61031561066f366004612f4a565b610ddd565b6102b6610682366004612f67565b6011602052600090815260409020805460019091015482565b6103156106a9366004612f4a565b60186020526000908152604090205481565b6102b66106c9366004612ee5565b610de8565b6103bd6106dc366004613070565b610e01565b60006106ed8383610e1a565b90505b92915050565b60006106ed8383610e6f565b336000908152600c6020526040812054820361072a5750336000908152601860205260409020545b6107348282610e01565b601754604051633aa53b9160e21b815260048101839052336024820152604481018490526001600160a01b039091169063ea94ee44906064015b600060405180830381600087803b15801561078857600080fd5b505af115801561079c573d6000803e3d6000fd5b505050505050565b336001600160a01b03831614806107c557506017546001600160a01b031633145b6108025760405162461bcd60e51b81526020600482015260096024820152682337b93134b23232b760b91b60448201526064015b60405180910390fd5b6017546040516363453ae160e01b81523060048201526001600160a01b03909116906363453ae190602401600060405180830381600087803b15801561084757600080fd5b505af115801561085b573d6000803e3d6000fd5b5050505061086a8282846110f0565b5050565b6001546001600160a01b031633146108b75760405162461bcd60e51b815260206004820152600c60248201526b2737ba1037b832b930ba37b960a11b60448201526064016107f9565b6001600160a01b03811660009081526006602052604090205442116109125760405162461bcd60e51b815260206004820152601160248201527014995dd85c991cc81b9bdd08195b991959607a1b60448201526064016107f9565b6001600160a01b0381166000908152600e602052604090205460ff1661096d5760405162461bcd60e51b815260206004820152601060248201526f2737ba103932bbb0b932103a37b5b2b760811b60448201526064016107f9565b6001600160a01b0381166000908152600e60205260409020805460ff19169055600d54600381116109ec5760405162461bcd60e51b8152602060048201526024808201527f4669727374203320746f6b656e732073686f756c64206e6f742062652072656d6044820152631bdd995960e21b60648201526084016107f9565b600360005b82821015610a4c576000600d8381548110610a0e57610a0e613092565b6000918252602090912001546001600160a01b03908116915085168103610a39576001915050610a4c565b5081610a44816130be565b9250506109f1565b80610a995760405162461bcd60e51b815260206004820181905260248201527f466972737420746f6b656e7320666f7262696464656e20746f2072656d6f766560448201526064016107f9565b600d610aa66001856130d7565b81548110610ab657610ab6613092565b600091825260209091200154600d80546001600160a01b039092169184908110610ae257610ae2613092565b9060005260206000200160006101000a8154816001600160a01b0302191690836001600160a01b03160217905550600d805480610b2157610b216130ee565b600082815260209020810160001990810180546001600160a01b031916905501905550505050565b610b55828260006113c9565b6001600160a01b03909316600090815260086020908152604080832060079092529091209390935590915550565b60006106f0826115b9565b600d8181548110610b9e57600080fd5b6000918252602090912001546001600160a01b0316905081565b336000908152600c6020526040902054610bd190610702565b565b6001600160a01b0381166000908152600660205260408120544210610bfa57506000919050565b6001600160a01b038216600090815260066020526040812054610c1e9042906130d7565b6001600160a01b038416600090815260056020526040902054909150670de0b6b3a764000090610c4e9083613104565b610c589190613123565b9392505050565b610c676115db565b505061086a8282611944565b6002546040516370a0823160e01b8152336004820152610ce7916001600160a01b0316906370a0823190602401602060405180830381865afa158015610cbd573d6000803e3d6000fd5b505050506040513d601f19601f82011682018060405250810190610ce19190613145565b82610d34565b50565b600080600054600114610d0f5760405162461bcd60e51b81526004016107f99061315e565b6002600055610d1c6115db565b9150915060016000559091565b60006106f082611cb5565b8015610d4457610d443382611ebf565b610d4d826120b0565b60175460405163530e389d60e11b815260048101839052336024820152604481018490526001600160a01b039091169063a61c713a9060640161076e565b6001546001600160a01b03163314610dd45760405162461bcd60e51b815260206004820152600c60248201526b2737ba1037b832b930ba37b960a11b60448201526064016107f9565b610ce781612172565b60006106f082612281565b600080610df5848461232c565b915091505b9250929050565b8015610e1157610e1133826123b6565b61086a826124c1565b6001600160a01b038216600090815260106020526040812054808203610e445760009150506106f0565b6001600160a01b0384166000908152600f60205260409020610e6790828561253b565b949350505050565b6001600160a01b0381166000908152601060205260408120548103610e96575060006106f0565b6001600160a01b03808416600081815260096020908152604080832094871683529381528382205492825260138152838220828052905291822054610edb9190612681565b90506000610ee98483610e1a565b6001600160a01b03851660009081526010602052604081205491925090610f12906001906130d7565b90506000811561102457825b610f296001846130d7565b8111611022576001600160a01b0387166000818152600f602081815260408084208685528083528185208251808401909352805483526001908101548385015295855292909152928290610f7e908690613186565b81526020019081526020016000206040518060400160405290816000820154815260200160018201548152505090506000610fbd8b846000015161232c565b5090506000610fd08c846000015161232c565b509050670de0b6b3a7640000610fe683836130d7565b8560200151610ff59190613104565b610fff9190613123565b6110099087613186565b955050505050808061101a906130be565b915050610f1e565b505b6001600160a01b0386166000908152600f6020908152604080832085845282528083208151808301909252805480835260019091015492820192909252919061106e908a9061232c565b506001600160a01b03808b166000908152600a60209081526040808320938d1683529290522054909150670de0b6b3a7640000906110ad908390612681565b6110b68b612281565b6110c091906130d7565b83602001516110cf9190613104565b6110d99190613123565b6110e39084613186565b9998505050505050505050565b6000546001146111125760405162461bcd60e51b81526004016107f99061315e565b600260009081555b82518110156113b55761114a83828151811061113857611138613092565b602002602001015160001960016113c9565b6008600086858151811061116057611160613092565b60200260200101516001600160a01b03166001600160a01b031681526020019081526020016000206000600760008887815181106111a0576111a0613092565b60200260200101516001600160a01b03166001600160a01b03168152602001908152602001600020600084919050558391905055505060006111fb8483815181106111ed576111ed613092565b602002602001015186610e6f565b9050426009600086858151811061121457611214613092565b60200260200101516001600160a01b03166001600160a01b031681526020019081526020016000206000876001600160a01b03166001600160a01b03168152602001908152602001600020819055506008600085848151811061127957611279613092565b60200260200101516001600160a01b03166001600160a01b0316815260200190815260200160002054600a60008685815181106112b8576112b8613092565b6020908102919091018101516001600160a01b0390811683528282019390935260409182016000908120938a168152929052902055801561132a5761132a838286858151811061130a5761130a613092565b60200260200101516001600160a01b03166126989092919063ffffffff16565b83828151811061133c5761133c613092565b60200260200101516001600160a01b0316336001600160a01b03167fe4394b3c25e336e9d6b7fcefab7e3234f1c6b373f13655dc3920664b080b098d838660405161139a9291909182526001600160a01b0316602082015260400190565b60405180910390a350806113ad816130be565b91505061111a565b506113bf83612700565b5050600160005550565b6001600160a01b038316600090815260076020908152604080832054600890925282205460125483929190830361140357925090506115b1565b6001600160a01b038716600090815260056020526040812054900361142e5792504291506115b19050565b6000611439836115b9565b90506000611455600160125461144f91906130d7565b89612785565b9050801561152e57815b61146a6001836130d7565b811161152c5760008181526011602090815260409182902082518084019093528054835260010154908201819052156115195760006011816114ad856001613186565b81526020019081526020016000206040518060400160405290816000820154815260200160018201548152505090506000806114f88e8460000151866000015187602001518d612794565b90925090506115078289613186565b97506115148e8983612818565b975050505b5080611524816130be565b91505061145f565b505b86156115a85760008181526011602090815260409182902082518084019093528054835260010154908201819052156115a65760006115878b6115708d612921565b845161157c908a612681565b85602001518a612794565b5090506115948186613186565b94506115a18b8642612818565b429550505b505b50909350909150505b935093915050565b6012546000908082036115cf5750600092915050565b610c586011828561253b565b6002546040805163d294f09360e01b8152815160009384936001600160a01b0390911692839263d294f09392600480840193919291829003018188875af115801561162a573d6000803e3d6000fd5b505050506040513d601f19601f8201168201806040525081019061164e919061319e565b9093509150821515806116615750600082115b1561193f576000836019546116769190613186565b9050600083601a546116889190613186565b9050600080846001600160a01b0316639d63848a6040518163ffffffff1660e01b81526004016040805180830381865afa1580156116ca573d6000803e3d6000fd5b505050506040513d601f19601f820116820180604052508101906116ee91906131c2565b601654604051634cde602960e11b81526001600160a01b03808516600483015293955091935091909116906399bcc05290602401602060405180830381865afa15801561173f573d6000803e3d6000fd5b505050506040513d601f19601f820116820180604052508101906117639190613145565b8411156117f4576000601955601654611789906001600160a01b03848116911686612945565b60165460405163b66503cf60e01b81526001600160a01b038481166004830152602482018790529091169063b66503cf90604401600060405180830381600087803b1580156117d757600080fd5b505af11580156117eb573d6000803e3d6000fd5b505050506117fa565b60198490555b601654604051634cde602960e11b81526001600160a01b038381166004830152909116906399bcc05290602401602060405180830381865afa158015611844573d6000803e3d6000fd5b505050506040513d601f19601f820116820180604052508101906118689190613145565b8311156118f9576000601a5560165461188e906001600160a01b03838116911685612945565b60165460405163b66503cf60e01b81526001600160a01b038381166004830152602482018690529091169063b66503cf90604401600060405180830381600087803b1580156118dc57600080fd5b505af11580156118f0573d6000803e3d6000fd5b505050506118ff565b601a8390555b604080518881526020810188905233917fbc567d6cbad26368064baa0ab5a757be46aae4d70f707f9203d9d9b6c8ccbfa3910160405180910390a2505050505b509091565b6000546001146119665760405162461bcd60e51b81526004016107f99061315e565b60026000819055546001600160a01b03908116908316036119c95760405162461bcd60e51b815260206004820152601760248201527f57726f6e6720746f6b656e20666f72207265776172647300000000000000000060448201526064016107f9565b60008111611a075760405162461bcd60e51b815260206004820152600b60248201526a16995c9bc8185b5bdd5b9d60aa1b60448201526064016107f9565b6001600160a01b0382166000908152600e602052604090205460ff16611a635760405162461bcd60e51b8152602060048201526011602482015270151bdad95b881b9bdd08185b1b1bddd959607a1b60448201526064016107f9565b6001600160a01b0382166000908152600560205260408120549003611a8e57611a8e82600042612818565b611a9c8260001960016113c9565b6001600160a01b0384166000908152600860209081526040808320600783528184209490945593909255600690915220544210611b2657611ae86001600160a01b0383163330846129f7565b62093a80611afe670de0b6b3a764000083613104565b611b089190613123565b6001600160a01b038316600090815260056020526040902055611c46565b6001600160a01b038216600090815260066020526040812054611b4a9042906130d7565b6001600160a01b03841660009081526005602052604081205491925090611b719083613104565b9050611b85670de0b6b3a764000082613123565b8311611bea5760405162461bcd60e51b815260206004820152602e60248201527f416d6f756e742073686f756c6420626520686967686572207468616e2072656d60448201526d61696e696e67207265776172647360901b60648201526084016107f9565b611bff6001600160a01b0385163330866129f7565b62093a8081611c16670de0b6b3a764000086613104565b611c209190613186565b611c2a9190613123565b6001600160a01b03851660009081526005602052604090205550505b611c5362093a8042613186565b6001600160a01b0383166000818152600660205260409081902092909255905133907ff70d5c697de7ea828df48e5c4573cb2194c659f1901f70110c52b066dcf5082690611ca49085815260200190565b60405180910390a350506001600055565b6001600160a01b038116600090815260186020908152604080832054600c909252822054826064611ce7836028613104565b611cf19190613123565b9050600080601560009054906101000a90046001600160a01b03166001600160a01b03166318160ddd6040518163ffffffff1660e01b8152600401602060405180830381865afa158015611d49573d6000803e3d6000fd5b505050506040513d601f19601f82011682018060405250810190611d6d9190613145565b6015546040516331a9108f60e11b8152600481018890529192506001600160a01b031690636352211e90602401602060405180830381865afa158015611db7573d6000803e3d6000fd5b505050506040513d601f19601f82011682018060405250810190611ddb91906131f1565b6001600160a01b0316876001600160a01b0316148015611dfb5750600081115b15611ea1576015546040516339f890b560e21b81526004810187905260649183916001600160a01b039091169063e7e242d490602401602060405180830381865afa158015611e4e573d6000803e3d6000fd5b505050506040513d601f19601f82011682018060405250810190611e729190613145565b600b54611e7f9190613104565b611e899190613123565b611e9490603c613104565b611e9e9190613123565b91505b611eb4611eae8385613186565b85612785565b979650505050505050565b6015546040516331a9108f60e11b8152600481018390526001600160a01b03848116921690636352211e90602401602060405180830381865afa158015611f0a573d6000803e3d6000fd5b505050506040513d601f19601f82011682018060405250810190611f2e91906131f1565b6001600160a01b031614611f795760405162461bcd60e51b81526020600482015260126024820152712737ba103b32903a37b5b2b71037bbb732b960711b60448201526064016107f9565b6001600160a01b0382166000908152601860205260408120549003612014576001600160a01b0382811660008181526018602052604090819020849055601754905163698473e360e01b81526004810185905260248101929092529091169063698473e390604401600060405180830381600087803b158015611ffb57600080fd5b505af115801561200f573d6000803e3d6000fd5b505050505b6001600160a01b03821660009081526018602052604090205481146120695760405162461bcd60e51b815260206004820152600b60248201526a2bb937b733903a37b5b2b760a91b60448201526064016107f9565b816001600160a01b03167fa88ad287ee039276852a62661add3a03e736aca1a2987ceaebcf4ecfd018ae3f826040516120a491815260200190565b60405180910390a25050565b6000546001146120d25760405162461bcd60e51b81526004016107f99061315e565b6002600055806121125760405162461bcd60e51b815260206004820152600b60248201526a16995c9bc8185b5bdd5b9d60aa1b60448201526064016107f9565b61211c3382612a2f565b600254612134906001600160a01b03163330846129f7565b60405181815233907fe1fffcc4923d04b559f4d29a8bfc6cda04eb5b0d3c460751c2402c5c5cc9109c906020015b60405180910390a2506001600055565b600d54600a116121bd5760405162461bcd60e51b8152602060048201526016602482015275546f6f206d616e792072657761726420746f6b656e7360501b60448201526064016107f9565b6001600160a01b0381166000908152600e602052604090205460ff161561221b5760405162461bcd60e51b8152602060048201526012602482015271105b1c9958591e481c9959da5cdd195c995960721b60448201526064016107f9565b6001600160a01b03166000818152600e60205260408120805460ff19166001908117909155600d805491820181559091527fd7b6990105719101dabeb77144f2a3385c8033acd3af97e9423a695e81ad1eb50180546001600160a01b0319169091179055565b60006003546000036122a957506001600160a01b031660009081526008602052604090205490565b6003546001600160a01b038316600090815260056020908152604080832054600783528184205460069093529220546122e29190612785565b6122eb85612921565b6122f591906130d7565b6122ff9190613104565b6123099190613123565b6001600160a01b0383166000908152600860205260409020546106f09190613186565b6001600160a01b038216600090815260146020526040812054819080820361235b576000809250925050610dfa565b6001600160a01b03851660009081526013602052604081209061237f82848861253b565b6000908152602092835260409081902081518083019092528054808352600190910154919093018190529791965090945050505050565b6001600160a01b038216600090815260186020526040902054811461240b5760405162461bcd60e51b815260206004820152600b60248201526a2bb937b733903a37b5b2b760a91b60448201526064016107f9565b6001600160a01b0382811660008181526018602052604080822091909155601754905163411b1f7760e01b81526004810185905260248101929092529091169063411b1f7790604401600060405180830381600087803b15801561246e57600080fd5b505af1158015612482573d6000803e3d6000fd5b50505050816001600160a01b03167f25842dad107a4bb4efa3824996f6140a5f6f3de5197debed6d780dc08bb0a0a0826040516120a491815260200190565b6000546001146124e35760405162461bcd60e51b81526004016107f99061315e565b60026000556124f23382612a85565b600254612509906001600160a01b03163383612698565b60405181815233907f884edad9ce6fa2440d8a54cc123490eb96d2768479d49ff9c7366125a942436490602001612162565b6000826000036125815760405162461bcd60e51b8152602060048201526011602482015270456d70747920636865636b706f696e747360781b60448201526064016107f9565b818460006125906001876130d7565b815260200190815260200160002060000154116125b9576125b26001846130d7565b9050610c58565b6000808052602085905260409020548210156125d757506000610c58565b6000806125e56001866130d7565b90505b8181111561267857600060026125fe84846130d7565b6126089190613123565b61261290836130d7565b6000818152602089815260409182902082518084019093528054808452600190910154918301919091529192509086900361265257509250610c58915050565b805186111561266357819350612671565b61266e6001836130d7565b92505b50506125e8565b50949350505050565b60008183101561269157816106ed565b5090919050565b6040516001600160a01b0383166024820152604481018290526126fb90849063a9059cbb60e01b906064015b60408051601f198184030181529190526020810180516001600160e01b03166001600160e01b031990931692909217909152612acc565b505050565b6001600160a01b038116600090815260046020526040812054600380549192839261272c9084906130d7565b9091555061273b905082611cb5565b6001600160a01b038316600090815260046020526040812082905560038054929350839290919061276d908490613186565b9091555061277d90508282612b9e565b61086a612c8f565b600081831061269157816106ed565b60008060006127a38785612681565b6001600160a01b0389166000908152600660209081526040808320546005909252909120549192509086906127e16127db8a89612681565b84612785565b6127eb8585612785565b6127f591906130d7565b6127ff9190613104565b6128099190613123565b99919850909650505050505050565b6001600160a01b038316600090815260146020526040902054801580159061287457506001600160a01b038416600090815260136020526040812083916128606001856130d7565b815260200190815260200160002060000154145b156128b7576001600160a01b0384166000908152601360205260408120849161289e6001856130d7565b815260208101919091526040016000206001015561291b565b60408051808201825283815260208082018681526001600160a01b038816600090815260138352848120868252909252929020905181559051600191820155612901908290613186565b6001600160a01b0385166000908152601460205260409020555b50505050565b6001600160a01b0381166000908152600660205260408120546106f0904290612785565b604051636eb1769f60e11b81523060048201526001600160a01b038381166024830152600091839186169063dd62ed3e90604401602060405180830381865afa158015612996573d6000803e3d6000fd5b505050506040513d601f19601f820116820180604052508101906129ba9190613145565b6129c49190613186565b6040516001600160a01b03851660248201526044810182905290915061291b90859063095ea7b360e01b906064016126c4565b6040516001600160a01b038085166024830152831660448201526064810182905261291b9085906323b872dd60e01b906084016126c4565b612a37612d33565b80600b6000828254612a499190613186565b90915550506001600160a01b0382166000908152600c602052604081208054839290612a76908490613186565b9091555061086a905082612700565b612a8d612d33565b80600b6000828254612a9f91906130d7565b90915550506001600160a01b0382166000908152600c602052604081208054839290612a769084906130d7565b6000612b21826040518060400160405280602081526020017f5361666545524332303a206c6f772d6c6576656c2063616c6c206661696c6564815250856001600160a01b0316612db79092919063ffffffff16565b8051909150156126fb5780806020019051810190612b3f919061320e565b6126fb5760405162461bcd60e51b815260206004820152602a60248201527f5361666545524332303a204552433230206f7065726174696f6e20646964206e6044820152691bdd081cdd58d8d9595960b21b60648201526084016107f9565b6001600160a01b03821660009081526010602052604090205442908015801590612bfc57506001600160a01b0384166000908152600f602052604081208391612be86001856130d7565b815260200190815260200160002060000154145b15612c26576001600160a01b0384166000908152600f60205260408120849161289e6001856130d7565b60408051808201825283815260208082018681526001600160a01b0388166000908152600f8352848120868252909252929020905181559051600191820155612c70908290613186565b6001600160a01b03851660009081526010602052604090205550505050565b601254428115801590612cc157508060116000612cad6001866130d7565b815260200190815260200160002060000154145b15612cf05760035460116000612cd86001866130d7565b81526020810191909152604001600020600101555050565b60408051808201825282815260035460208083019182526000868152601190915292909220905181559051600191820155612d2c908390613186565b6012555050565b600d5460005b8181101561086a576000600d8281548110612d5657612d56613092565b6000918252602090912001546001600160a01b03169050612d7b8160001960016113c9565b6001600160a01b039092166000908152600860209081526040808320600790925290912092909255905580612daf816130be565b915050612d39565b60606001600160a01b0384163b612e105760405162461bcd60e51b815260206004820152601d60248201527f416464726573733a2063616c6c20746f206e6f6e2d636f6e747261637400000060448201526064016107f9565b600080856001600160a01b031685604051612e2b919061325c565b6000604051808303816000865af19150503d8060008114612e68576040519150601f19603f3d011682016040523d82523d6000602084013e612e6d565b606091505b5091509150612e7d828286612e87565b9695505050505050565b60608315612e96575081610c58565b825115612ea65782518084602001fd5b8160405162461bcd60e51b81526004016107f99190613278565b6001600160a01b0381168114610ce757600080fd5b8035612ee081612ec0565b919050565b60008060408385031215612ef857600080fd5b8235612f0381612ec0565b946020939093013593505050565b60008060408385031215612f2457600080fd5b8235612f2f81612ec0565b91506020830135612f3f81612ec0565b809150509250929050565b600060208284031215612f5c57600080fd5b8135610c5881612ec0565b600060208284031215612f7957600080fd5b5035919050565b634e487b7160e01b600052604160045260246000fd5b60008060408385031215612fa957600080fd5b8235612fb481612ec0565b915060208381013567ffffffffffffffff80821115612fd257600080fd5b818601915086601f830112612fe657600080fd5b813581811115612ff857612ff8612f80565b8060051b604051601f19603f8301168101818110858211171561301d5761301d612f80565b60405291825284820192508381018501918983111561303b57600080fd5b938501935b828510156130605761305185612ed5565b84529385019392850192613040565b8096505050505050509250929050565b6000806040838503121561308357600080fd5b50508035926020909101359150565b634e487b7160e01b600052603260045260246000fd5b634e487b7160e01b600052601160045260246000fd5b6000600182016130d0576130d06130a8565b5060010190565b6000828210156130e9576130e96130a8565b500390565b634e487b7160e01b600052603160045260246000fd5b600081600019048311821515161561311e5761311e6130a8565b500290565b60008261314057634e487b7160e01b600052601260045260246000fd5b500490565b60006020828403121561315757600080fd5b5051919050565b6020808252600e908201526d1499595b9d1c985b9d0818d85b1b60921b604082015260600190565b60008219821115613199576131996130a8565b500190565b600080604083850312156131b157600080fd5b505080516020909101519092909150565b600080604083850312156131d557600080fd5b82516131e081612ec0565b6020840151909250612f3f81612ec0565b60006020828403121561320357600080fd5b8151610c5881612ec0565b60006020828403121561322057600080fd5b81518015158114610c5857600080fd5b60005b8381101561324b578181015183820152602001613233565b8381111561291b5750506000910152565b6000825161326e818460208701613230565b9190910192915050565b6020815260008251806020840152613297816040850160208701613230565b601f01601f1916919091016040019291505056fea26469706673582212202f9d4406429dd9bc5e274c5fb097b66866c3c337982429113b2e546ac410d22264736f6c634300080d0033a264697066735822122086ed771932ebc53fcc8094b7780d644d42720dba51aa7b859276ddb674467e8164736f6c634300080d0033",
  "devdoc": {
    "kind": "dev",
    "methods": {},
    "version": 1
  },
  "userdoc": {
    "kind": "user",
    "methods": {},
    "version": 1
  },
  "storageLayout": {
    "storage": [
      {
        "astId": 7101,
        "contract": "contracts/base/reward/GaugeFactory.sol:GaugeFactory",
        "label": "lastGauge",
        "offset": 0,
        "slot": "0",
        "type": "t_address"
      }
    ],
    "types": {
      "t_address": {
        "encoding": "inplace",
        "label": "address",
        "numberOfBytes": "20"
      }
    }
  }
}