{
  "address": "0x44b86f6B183f61fc5C33289994bff302e23a6282",
  "abi": [
    {
      "inputs": [
        {
          "internalType": "address",
          "name": "__ve",
          "type": "address"
        },
        {
          "internalType": "address",
          "name": "__controller",
          "type": "address"
        }
      ],
      "stateMutability": "nonpayable",
      "type": "constructor"
    },
    {
      "anonymous": false,
      "inputs": [
        {
          "indexed": true,
          "internalType": "bytes32",
          "name": "role",
          "type": "bytes32"
        },
        {
          "indexed": true,
          "internalType": "address",
          "name": "account",
          "type": "address"
        },
        {
          "indexed": true,
          "internalType": "address",
          "name": "sender",
          "type": "address"
        }
      ],
      "name": "RoleGranted",
      "type": "event"
    },
    {
      "anonymous": false,
      "inputs": [
        {
          "indexed": true,
          "internalType": "bytes32",
          "name": "role",
          "type": "bytes32"
        },
        {
          "indexed": true,
          "internalType": "address",
          "name": "account",
          "type": "address"
        },
        {
          "indexed": true,
          "internalType": "address",
          "name": "sender",
          "type": "address"
        }
      ],
      "name": "RoleRevoked",
      "type": "event"
    },
    {
      "anonymous": false,
      "inputs": [
        {
          "indexed": true,
          "internalType": "address",
          "name": "sender",
          "type": "address"
        },
        {
          "indexed": false,
          "internalType": "uint256",
          "name": "veDistAmount",
          "type": "uint256"
        },
        {
          "indexed": false,
          "internalType": "uint256",
          "name": "voterAmount",
          "type": "uint256"
        }
      ],
      "name": "Send",
      "type": "event"
    },
    {
      "inputs": [],
      "name": "DEFAULT_ADMIN_ROLE",
      "outputs": [
        {
          "internalType": "bytes32",
          "name": "",
          "type": "bytes32"
        }
      ],
      "stateMutability": "view",
      "type": "function"
    },
    {
      "inputs": [],
      "name": "VE_DIST_RATIO_MAX",
      "outputs": [
        {
          "internalType": "uint256",
          "name": "",
          "type": "uint256"
        }
      ],
      "stateMutability": "view",
      "type": "function"
    },
    {
      "inputs": [],
      "name": "_token",
      "outputs": [
        {
          "internalType": "contract IERC20",
          "name": "",
          "type": "address"
        }
      ],
      "stateMutability": "view",
      "type": "function"
    },
    {
      "inputs": [],
      "name": "_ve",
      "outputs": [
        {
          "internalType": "contract IVe",
          "name": "",
          "type": "address"
        }
      ],
      "stateMutability": "view",
      "type": "function"
    },
    {
      "inputs": [],
      "name": "activeperiod",
      "outputs": [
        {
          "internalType": "uint256",
          "name": "",
          "type": "uint256"
        }
      ],
      "stateMutability": "view",
      "type": "function"
    },
    {
      "inputs": [
        {
          "internalType": "uint256",
          "name": "_veDistRatio",
          "type": "uint256"
        }
      ],
      "name": "adminSetVeRatio",
      "outputs": [],
      "stateMutability": "nonpayable",
      "type": "function"
    },
    {
      "inputs": [],
      "name": "controller",
      "outputs": [
        {
          "internalType": "address",
          "name": "",
          "type": "address"
        }
      ],
      "stateMutability": "view",
      "type": "function"
    },
    {
      "inputs": [
        {
          "internalType": "bytes32",
          "name": "role",
          "type": "bytes32"
        }
      ],
      "name": "getRoleAdmin",
      "outputs": [
        {
          "internalType": "bytes32",
          "name": "",
          "type": "bytes32"
        }
      ],
      "stateMutability": "view",
      "type": "function"
    },
    {
      "inputs": [
        {
          "internalType": "bytes32",
          "name": "role",
          "type": "bytes32"
        },
        {
          "internalType": "uint256",
          "name": "index",
          "type": "uint256"
        }
      ],
      "name": "getRoleMember",
      "outputs": [
        {
          "internalType": "address",
          "name": "",
          "type": "address"
        }
      ],
      "stateMutability": "view",
      "type": "function"
    },
    {
      "inputs": [
        {
          "internalType": "bytes32",
          "name": "role",
          "type": "bytes32"
        }
      ],
      "name": "getRoleMemberCount",
      "outputs": [
        {
          "internalType": "uint256",
          "name": "",
          "type": "uint256"
        }
      ],
      "stateMutability": "view",
      "type": "function"
    },
    {
      "inputs": [
        {
          "internalType": "bytes32",
          "name": "role",
          "type": "bytes32"
        },
        {
          "internalType": "address",
          "name": "account",
          "type": "address"
        }
      ],
      "name": "getRoleMemberIndex",
      "outputs": [
        {
          "internalType": "uint256",
          "name": "",
          "type": "uint256"
        }
      ],
      "stateMutability": "view",
      "type": "function"
    },
    {
      "inputs": [
        {
          "internalType": "bytes32",
          "name": "role",
          "type": "bytes32"
        },
        {
          "internalType": "address",
          "name": "account",
          "type": "address"
        }
      ],
      "name": "grantRole",
      "outputs": [],
      "stateMutability": "nonpayable",
      "type": "function"
    },
    {
      "inputs": [
        {
          "internalType": "bytes32",
          "name": "role",
          "type": "bytes32"
        },
        {
          "internalType": "address",
          "name": "account",
          "type": "address"
        }
      ],
      "name": "hasRole",
      "outputs": [
        {
          "internalType": "bool",
          "name": "",
          "type": "bool"
        }
      ],
      "stateMutability": "view",
      "type": "function"
    },
    {
      "inputs": [
        {
          "internalType": "bytes32",
          "name": "role",
          "type": "bytes32"
        },
        {
          "internalType": "address",
          "name": "account",
          "type": "address"
        }
      ],
      "name": "renounceRole",
      "outputs": [],
      "stateMutability": "nonpayable",
      "type": "function"
    },
    {
      "inputs": [
        {
          "internalType": "bytes32",
          "name": "role",
          "type": "bytes32"
        },
        {
          "internalType": "address",
          "name": "account",
          "type": "address"
        }
      ],
      "name": "revokeRole",
      "outputs": [],
      "stateMutability": "nonpayable",
      "type": "function"
    },
    {
      "inputs": [],
      "name": "updatePeriod",
      "outputs": [
        {
          "internalType": "uint256",
          "name": "",
          "type": "uint256"
        }
      ],
      "stateMutability": "nonpayable",
      "type": "function"
    },
    {
      "inputs": [],
      "name": "veDistRatio",
      "outputs": [
        {
          "internalType": "uint256",
          "name": "",
          "type": "uint256"
        }
      ],
      "stateMutability": "view",
      "type": "function"
    }
  ],
  "transactionHash": "0x1ef9ed5d00843ed89484dc45166193af1ecfaf82d84217b4ad94bdc1a6398362",
  "args": [
    "0xc397b6E1Ec697c6396D84c6a0c81313f65d9AA29",
    "0xa39aC2B882f250182a4a725793176951a723F9DE"
  ],
  "numDeployments": 1,
  "solcInputHash": "f670656e97b2663e52c8e055a678a800",
  "bytecode": "0x60e06040523480156200001157600080fd5b5060405162001129380380620011298339810160408190526200003491620001ec565b816001600160a01b031663fc0c546a6040518163ffffffff1660e01b8152600401602060405180830381865afa15801562000073573d6000803e3d6000fd5b505050506040513d601f19601f8201168201806040525081019062000099919062000224565b6001600160a01b0390811660805282811660a052811660c0526224ea00620000c2814262000242565b620000ce919062000265565b600255620000de600033620000e6565b505062000293565b620000f28282620000f6565b5050565b6000828152602081815260409091206200011b9183906200091c6200015d821b17901c565b15620000f25760405133906001600160a01b0383169084907f2f8788117e7eff1d82e926ec794901d17c78024a50270940304540a733656f0d90600090a45050565b600062000174836001600160a01b0384166200017d565b90505b92915050565b6000818152600183016020526040812054620001c65750815460018181018455600084815260208082209093018490558454848252828601909352604090209190915562000177565b50600062000177565b80516001600160a01b0381168114620001e757600080fd5b919050565b600080604083850312156200020057600080fd5b6200020b83620001cf565b91506200021b60208401620001cf565b90509250929050565b6000602082840312156200023757600080fd5b6200017482620001cf565b6000826200026057634e487b7160e01b600052601260045260246000fd5b500490565b60008160001904831182151516156200028e57634e487b7160e01b600052601160045260246000fd5b500290565b60805160a05160c051610e43620002e66000396000818161028601528181610a150152610a99015260006101a101526000818161025f015281816104a90152818161053f01526106e70152610e436000f3fe608060405234801561001057600080fd5b506004361061010b5760003560e01c80639010d07c116100a2578063af9c894d11610071578063af9c894d14610221578063ca15c87314610234578063d547741f14610247578063ecd0c0c31461025a578063f77c47911461028157600080fd5b80639010d07c146101db57806391d14854146101ee578063a217fddf14610211578063a83627de1461021957600080fd5b80634e0df3f6116100de5780634e0df3f614610177578063713efc991461018a57806385ec4b25146101935780638dd598fb1461019c57600080fd5b80630f2e908d14610110578063248a9ca31461012c5780632f2ff15d1461014f57806336568abe14610164575b600080fd5b61011960015481565b6040519081526020015b60405180910390f35b61011961013a366004610c80565b60009081526020819052604090206002015490565b61016261015d366004610cb1565b6102a8565b005b610162610172366004610cb1565b61033b565b610119610185366004610cb1565b6103b5565b61011960025481565b61011961271081565b6101c37f000000000000000000000000000000000000000000000000000000000000000081565b6040516001600160a01b039091168152602001610123565b6101c36101e9366004610ce1565b6103e0565b6102016101fc366004610cb1565b6103ff565b6040519015158152602001610123565b610119600081565b610119610417565b61016261022f366004610c80565b61083c565b610119610242366004610c80565b610884565b610162610255366004610cb1565b61089b565b6101c37f000000000000000000000000000000000000000000000000000000000000000081565b6101c37f000000000000000000000000000000000000000000000000000000000000000081565b6000828152602081905260409020600201546102c490336103ff565b61032d5760405162461bcd60e51b815260206004820152602f60248201527f416363657373436f6e74726f6c3a2073656e646572206d75737420626520616e60448201526e0818591b5a5b881d1bc819dc985b9d608a1b60648201526084015b60405180910390fd5b6103378282610931565b5050565b6001600160a01b03811633146103ab5760405162461bcd60e51b815260206004820152602f60248201527f416363657373436f6e74726f6c3a2063616e206f6e6c792072656e6f756e636560448201526e103937b632b9903337b91039b2b63360891b6064820152608401610324565b610337828261098a565b6000828152602081815260408083206001600160a01b03851684526001019091529020545b92915050565b60008281526020819052604081206103f890836109e3565b9392505050565b60008281526020819052604081206103f890836109ef565b600061042381336103ff565b61045b5760405162461bcd60e51b81526020600482015260096024820152683337b93134b23232b760b91b6044820152606401610324565b60025461046b6224ea0082610d19565b4210610837576224ea0061047f8142610d31565b6104899190610d53565b60028190556040516370a0823160e01b81523060048201529091506000907f00000000000000000000000000000000000000000000000000000000000000006001600160a01b0316906370a0823190602401602060405180830381865afa1580156104f8573d6000803e3d6000fd5b505050506040513d601f19601f8201168201806040525081019061051c9190610d72565b90506000612710600154836105319190610d53565b61053b9190610d31565b90507f00000000000000000000000000000000000000000000000000000000000000006001600160a01b031663a9059cbb610574610a11565b6040516001600160e01b031960e084901b1681526001600160a01b039091166004820152602481018490526044016020604051808303816000875af11580156105c1573d6000803e3d6000fd5b505050506040513d601f19601f820116820180604052508101906105e59190610d8b565b6106215760405162461bcd60e51b815260206004820152600d60248201526c151c985b9cd9995c8811985a5b609a1b6044820152606401610324565b610629610a11565b6001600160a01b031663bee5dc326040518163ffffffff1660e01b8152600401600060405180830381600087803b15801561066357600080fd5b505af1158015610677573d6000803e3d6000fd5b50505050610683610a11565b6001600160a01b031663326a94076040518163ffffffff1660e01b8152600401600060405180830381600087803b1580156106bd57600080fd5b505af11580156106d1573d6000803e3d6000fd5b50505050600081836106e39190610dad565b90507f00000000000000000000000000000000000000000000000000000000000000006001600160a01b031663095ea7b361071c610a95565b6040516001600160e01b031960e084901b1681526001600160a01b039091166004820152602481018490526044016020604051808303816000875af1158015610769573d6000803e3d6000fd5b505050506040513d601f19601f8201168201806040525081019061078d9190610d8b565b50610796610a95565b6001600160a01b0316633c6b16ab826040518263ffffffff1660e01b81526004016107c391815260200190565b600060405180830381600087803b1580156107dd57600080fd5b505af11580156107f1573d6000803e3d6000fd5b505060015460408051918252602082018690523393507fb3a7f4e19ac1e31fc41d825d7a63c4af7b79cda95d9abfb66c36e6987706bf9792500160405180910390a25050505b905090565b6108476000336103ff565b61087f5760405162461bcd60e51b81526020600482015260096024820152683337b93134b23232b760b91b6044820152606401610324565b600155565b60008181526020819052604081206103da90610af5565b6000828152602081905260409020600201546108b790336103ff565b6103ab5760405162461bcd60e51b815260206004820152603060248201527f416363657373436f6e74726f6c3a2073656e646572206d75737420626520616e60448201526f2061646d696e20746f207265766f6b6560801b6064820152608401610324565b60006103f8836001600160a01b038416610aff565b6000828152602081905260409020610949908261091c565b156103375760405133906001600160a01b0383169084907f2f8788117e7eff1d82e926ec794901d17c78024a50270940304540a733656f0d90600090a45050565b60008281526020819052604090206109a29082610b4e565b156103375760405133906001600160a01b0383169084907ff6391f5c32d9c69d2a47ea670b442974b53935d1edc7fd64eb21e047a839171b90600090a45050565b60006103f88383610b63565b6001600160a01b038116600090815260018301602052604081205415156103f8565b60007f00000000000000000000000000000000000000000000000000000000000000006001600160a01b031663c13270f16040518163ffffffff1660e01b8152600401602060405180830381865afa158015610a71573d6000803e3d6000fd5b505050506040513d601f19601f820116820180604052508101906108379190610dc4565b60007f00000000000000000000000000000000000000000000000000000000000000006001600160a01b03166346c96aac6040518163ffffffff1660e01b8152600401602060405180830381865afa158015610a71573d6000803e3d6000fd5b60006103da825490565b6000818152600183016020526040812054610b46575081546001818101845560008481526020808220909301849055845484825282860190935260409020919091556103da565b5060006103da565b60006103f8836001600160a01b038416610b8d565b6000826000018281548110610b7a57610b7a610de1565b9060005260206000200154905092915050565b60008181526001830160205260408120548015610c76576000610bb1600183610dad565b8554909150600090610bc590600190610dad565b9050818114610c2a576000866000018281548110610be557610be5610de1565b9060005260206000200154905080876000018481548110610c0857610c08610de1565b6000918252602080832090910192909255918252600188019052604090208390555b8554869080610c3b57610c3b610df7565b6001900381819060005260206000200160009055905585600101600086815260200190815260200160002060009055600193505050506103da565b60009150506103da565b600060208284031215610c9257600080fd5b5035919050565b6001600160a01b0381168114610cae57600080fd5b50565b60008060408385031215610cc457600080fd5b823591506020830135610cd681610c99565b809150509250929050565b60008060408385031215610cf457600080fd5b50508035926020909101359150565b634e487b7160e01b600052601160045260246000fd5b60008219821115610d2c57610d2c610d03565b500190565b600082610d4e57634e487b7160e01b600052601260045260246000fd5b500490565b6000816000190483118215151615610d6d57610d6d610d03565b500290565b600060208284031215610d8457600080fd5b5051919050565b600060208284031215610d9d57600080fd5b815180151581146103f857600080fd5b600082821015610dbf57610dbf610d03565b500390565b600060208284031215610dd657600080fd5b81516103f881610c99565b634e487b7160e01b600052603260045260246000fd5b634e487b7160e01b600052603160045260246000fdfea2646970667358221220c4f505950ae16466808e0e7dcd2b5704addc93c778c385a6dedbb40d9c60d31f64736f6c634300080d0033",
  "devdoc": {
    "kind": "dev",
    "methods": {
      "getRoleAdmin(bytes32)": {
        "details": "Returns the admin role that controls `role`. See {grantRole} and {revokeRole}. To change a role's admin, use {_setRoleAdmin}."
      },
      "getRoleMember(bytes32,uint256)": {
        "details": "Returns one of the accounts that have `role`. `index` must be a value between 0 and {getRoleMemberCount}, non-inclusive. Role bearers are not sorted in any particular way, and their ordering may change at any point. WARNING: When using {getRoleMember} and {getRoleMemberCount}, make sure you perform all queries on the same block. See the following https://forum.openzeppelin.com/t/iterating-over-elements-on-enumerableset-in-openzeppelin-contracts/2296[forum post] for more information."
      },
      "getRoleMemberCount(bytes32)": {
        "details": "Returns the number of accounts that have `role`. Can be used together with {getRoleMember} to enumerate all bearers of a role."
      },
      "getRoleMemberIndex(bytes32,address)": {
        "details": "Returns the index of the account that have `role`."
      },
      "grantRole(bytes32,address)": {
        "details": "Grants `role` to `account`. If `account` had not been already granted `role`, emits a {RoleGranted} event. Requirements: - the caller must have ``role``'s admin role."
      },
      "hasRole(bytes32,address)": {
        "details": "Returns `true` if `account` has been granted `role`."
      },
      "renounceRole(bytes32,address)": {
        "details": "Revokes `role` from the calling account. Roles are often managed via {grantRole} and {revokeRole}: this function's purpose is to provide a mechanism for accounts to lose their privileges if they are compromised (such as when a trusted device is misplaced). If the calling account had been granted `role`, emits a {RoleRevoked} event. Requirements: - the caller must be `account`."
      },
      "revokeRole(bytes32,address)": {
        "details": "Revokes `role` from `account`. If `account` had been granted `role`, emits a {RoleRevoked} event. Requirements: - the caller must have ``role``'s admin role."
      }
    },
    "version": 1
  },
  "userdoc": {
    "kind": "user",
    "methods": {},
    "version": 1
  },
  "storageLayout": {
    "storage": [
      {
        "astId": 18483,
        "contract": "contracts/base/token/Minter.sol:Minter",
        "label": "_roles",
        "offset": 0,
        "slot": "0",
        "type": "t_mapping(t_bytes32,t_struct(RoleData)18478_storage)"
      },
      {
        "astId": 9652,
        "contract": "contracts/base/token/Minter.sol:Minter",
        "label": "veDistRatio",
        "offset": 0,
        "slot": "1",
        "type": "t_uint256"
      },
      {
        "astId": 9665,
        "contract": "contracts/base/token/Minter.sol:Minter",
        "label": "activeperiod",
        "offset": 0,
        "slot": "2",
        "type": "t_uint256"
      }
    ],
    "types": {
      "t_array(t_bytes32)dyn_storage": {
        "base": "t_bytes32",
        "encoding": "dynamic_array",
        "label": "bytes32[]",
        "numberOfBytes": "32"
      },
      "t_bytes32": {
        "encoding": "inplace",
        "label": "bytes32",
        "numberOfBytes": "32"
      },
      "t_mapping(t_bytes32,t_struct(RoleData)18478_storage)": {
        "encoding": "mapping",
        "key": "t_bytes32",
        "label": "mapping(bytes32 => struct AccessControl.RoleData)",
        "numberOfBytes": "32",
        "value": "t_struct(RoleData)18478_storage"
      },
      "t_mapping(t_bytes32,t_uint256)": {
        "encoding": "mapping",
        "key": "t_bytes32",
        "label": "mapping(bytes32 => uint256)",
        "numberOfBytes": "32",
        "value": "t_uint256"
      },
      "t_struct(AddressSet)19323_storage": {
        "encoding": "inplace",
        "label": "struct EnumerableSet.AddressSet",
        "members": [
          {
            "astId": 19322,
            "contract": "contracts/base/token/Minter.sol:Minter",
            "label": "_inner",
            "offset": 0,
            "slot": "0",
            "type": "t_struct(Set)19022_storage"
          }
        ],
        "numberOfBytes": "64"
      },
      "t_struct(RoleData)18478_storage": {
        "encoding": "inplace",
        "label": "struct AccessControl.RoleData",
        "members": [
          {
            "astId": 18475,
            "contract": "contracts/base/token/Minter.sol:Minter",
            "label": "members",
            "offset": 0,
            "slot": "0",
            "type": "t_struct(AddressSet)19323_storage"
          },
          {
            "astId": 18477,
            "contract": "contracts/base/token/Minter.sol:Minter",
            "label": "adminRole",
            "offset": 0,
            "slot": "2",
            "type": "t_bytes32"
          }
        ],
        "numberOfBytes": "96"
      },
      "t_struct(Set)19022_storage": {
        "encoding": "inplace",
        "label": "struct EnumerableSet.Set",
        "members": [
          {
            "astId": 19017,
            "contract": "contracts/base/token/Minter.sol:Minter",
            "label": "_values",
            "offset": 0,
            "slot": "0",
            "type": "t_array(t_bytes32)dyn_storage"
          },
          {
            "astId": 19021,
            "contract": "contracts/base/token/Minter.sol:Minter",
            "label": "_indexes",
            "offset": 0,
            "slot": "1",
            "type": "t_mapping(t_bytes32,t_uint256)"
          }
        ],
        "numberOfBytes": "64"
      },
      "t_uint256": {
        "encoding": "inplace",
        "label": "uint256",
        "numberOfBytes": "32"
      }
    }
  }
}