{
  "address": "0x2678e9643926d2c52481C7e273d8f2e1269cc7Bf",
  "abi": [
    {
      "anonymous": false,
      "inputs": [
        {
          "indexed": false,
          "internalType": "uint256",
          "name": "time",
          "type": "uint256"
        },
        {
          "indexed": false,
          "internalType": "uint256",
          "name": "tokens",
          "type": "uint256"
        }
      ],
      "name": "CheckpointToken",
      "type": "event"
    },
    {
      "anonymous": false,
      "inputs": [
        {
          "indexed": false,
          "internalType": "uint256",
          "name": "tokenId",
          "type": "uint256"
        },
        {
          "indexed": false,
          "internalType": "uint256",
          "name": "amount",
          "type": "uint256"
        },
        {
          "indexed": false,
          "internalType": "uint256",
          "name": "claimEpoch",
          "type": "uint256"
        },
        {
          "indexed": false,
          "internalType": "uint256",
          "name": "maxEpoch",
          "type": "uint256"
        }
      ],
      "name": "Claimed",
      "type": "event"
    },
    {
      "inputs": [],
      "name": "WEEK",
      "outputs": [
        {
          "internalType": "uint256",
          "name": "",
          "type": "uint256"
        }
      ],
      "stateMutability": "view",
      "type": "function"
    },
    {
      "inputs": [
        {
          "internalType": "uint256",
          "name": "toDistribute",
          "type": "uint256"
        },
        {
          "internalType": "uint256",
          "name": "t0",
          "type": "uint256"
        },
        {
          "internalType": "uint256",
          "name": "t1",
          "type": "uint256"
        },
        {
          "internalType": "uint256",
          "name": "sinceLastCall",
          "type": "uint256"
        }
      ],
      "name": "adjustToDistribute",
      "outputs": [
        {
          "internalType": "uint256",
          "name": "",
          "type": "uint256"
        }
      ],
      "stateMutability": "pure",
      "type": "function"
    },
    {
      "inputs": [
        {
          "internalType": "uint256",
          "name": "t",
          "type": "uint256"
        },
        {
          "internalType": "uint256",
          "name": "ptTs",
          "type": "uint256"
        },
        {
          "internalType": "int128",
          "name": "ptBias",
          "type": "int128"
        },
        {
          "internalType": "int128",
          "name": "ptSlope",
          "type": "int128"
        }
      ],
      "name": "adjustVeSupply",
      "outputs": [
        {
          "internalType": "uint256",
          "name": "",
          "type": "uint256"
        }
      ],
      "stateMutability": "pure",
      "type": "function"
    },
    {
      "inputs": [],
      "name": "checkpointToken",
      "outputs": [],
      "stateMutability": "nonpayable",
      "type": "function"
    },
    {
      "inputs": [],
      "name": "checkpointTotalSupply",
      "outputs": [],
      "stateMutability": "nonpayable",
      "type": "function"
    },
    {
      "inputs": [
        {
          "internalType": "uint256",
          "name": "_tokenId",
          "type": "uint256"
        }
      ],
      "name": "claim",
      "outputs": [
        {
          "internalType": "uint256",
          "name": "",
          "type": "uint256"
        }
      ],
      "stateMutability": "nonpayable",
      "type": "function"
    },
    {
      "inputs": [
        {
          "internalType": "uint256[]",
          "name": "_tokenIds",
          "type": "uint256[]"
        }
      ],
      "name": "claimMany",
      "outputs": [
        {
          "internalType": "bool",
          "name": "",
          "type": "bool"
        }
      ],
      "stateMutability": "nonpayable",
      "type": "function"
    },
    {
      "inputs": [
        {
          "internalType": "uint256",
          "name": "_tokenId",
          "type": "uint256"
        }
      ],
      "name": "claimable",
      "outputs": [
        {
          "internalType": "uint256",
          "name": "",
          "type": "uint256"
        }
      ],
      "stateMutability": "view",
      "type": "function"
    },
    {
      "inputs": [],
      "name": "depositor",
      "outputs": [
        {
          "internalType": "address",
          "name": "",
          "type": "address"
        }
      ],
      "stateMutability": "view",
      "type": "function"
    },
    {
      "inputs": [
        {
          "internalType": "address",
          "name": "ve",
          "type": "address"
        },
        {
          "internalType": "uint256",
          "name": "tokenId",
          "type": "uint256"
        },
        {
          "internalType": "uint256",
          "name": "_timestamp",
          "type": "uint256"
        },
        {
          "internalType": "uint256",
          "name": "maxUserEpoch",
          "type": "uint256"
        }
      ],
      "name": "findTimestampUserEpoch",
      "outputs": [
        {
          "internalType": "uint256",
          "name": "",
          "type": "uint256"
        }
      ],
      "stateMutability": "view",
      "type": "function"
    },
    {
      "inputs": [
        {
          "internalType": "address",
          "name": "_votingEscrow",
          "type": "address"
        },
        {
          "internalType": "address",
          "name": "_depositor",
          "type": "address"
        }
      ],
      "name": "initialize",
      "outputs": [],
      "stateMutability": "nonpayable",
      "type": "function"
    },
    {
      "inputs": [],
      "name": "lastTokenTime",
      "outputs": [
        {
          "internalType": "uint256",
          "name": "",
          "type": "uint256"
        }
      ],
      "stateMutability": "view",
      "type": "function"
    },
    {
      "inputs": [
        {
          "internalType": "address",
          "name": "_depositor",
          "type": "address"
        }
      ],
      "name": "setDepositor",
      "outputs": [],
      "stateMutability": "nonpayable",
      "type": "function"
    },
    {
      "inputs": [],
      "name": "startTime",
      "outputs": [
        {
          "internalType": "uint256",
          "name": "",
          "type": "uint256"
        }
      ],
      "stateMutability": "view",
      "type": "function"
    },
    {
      "inputs": [],
      "name": "timeCursor",
      "outputs": [
        {
          "internalType": "uint256",
          "name": "",
          "type": "uint256"
        }
      ],
      "stateMutability": "view",
      "type": "function"
    },
    {
      "inputs": [
        {
          "internalType": "uint256",
          "name": "",
          "type": "uint256"
        }
      ],
      "name": "timeCursorOf",
      "outputs": [
        {
          "internalType": "uint256",
          "name": "",
          "type": "uint256"
        }
      ],
      "stateMutability": "view",
      "type": "function"
    },
    {
      "inputs": [],
      "name": "timestamp",
      "outputs": [
        {
          "internalType": "uint256",
          "name": "",
          "type": "uint256"
        }
      ],
      "stateMutability": "view",
      "type": "function"
    },
    {
      "inputs": [],
      "name": "token",
      "outputs": [
        {
          "internalType": "address",
          "name": "",
          "type": "address"
        }
      ],
      "stateMutability": "view",
      "type": "function"
    },
    {
      "inputs": [],
      "name": "tokenLastBalance",
      "outputs": [
        {
          "internalType": "uint256",
          "name": "",
          "type": "uint256"
        }
      ],
      "stateMutability": "view",
      "type": "function"
    },
    {
      "inputs": [
        {
          "internalType": "uint256",
          "name": "",
          "type": "uint256"
        }
      ],
      "name": "tokensPerWeek",
      "outputs": [
        {
          "internalType": "uint256",
          "name": "",
          "type": "uint256"
        }
      ],
      "stateMutability": "view",
      "type": "function"
    },
    {
      "inputs": [
        {
          "internalType": "uint256",
          "name": "",
          "type": "uint256"
        }
      ],
      "name": "userEpochOf",
      "outputs": [
        {
          "internalType": "uint256",
          "name": "",
          "type": "uint256"
        }
      ],
      "stateMutability": "view",
      "type": "function"
    },
    {
      "inputs": [
        {
          "internalType": "uint256",
          "name": "_tokenId",
          "type": "uint256"
        },
        {
          "internalType": "uint256",
          "name": "_timestamp",
          "type": "uint256"
        }
      ],
      "name": "veForAt",
      "outputs": [
        {
          "internalType": "uint256",
          "name": "",
          "type": "uint256"
        }
      ],
      "stateMutability": "view",
      "type": "function"
    },
    {
      "inputs": [
        {
          "internalType": "uint256",
          "name": "",
          "type": "uint256"
        }
      ],
      "name": "veSupply",
      "outputs": [
        {
          "internalType": "uint256",
          "name": "",
          "type": "uint256"
        }
      ],
      "stateMutability": "view",
      "type": "function"
    },
    {
      "inputs": [],
      "name": "votingEscrow",
      "outputs": [
        {
          "internalType": "address",
          "name": "",
          "type": "address"
        }
      ],
      "stateMutability": "view",
      "type": "function"
    }
  ],
  "transactionHash": "0xd45177523784e72cfe5d56f81d5c4474d29a3a12448e4d43635ff0e1214ea80b",
  "args": [],
  "numDeployments": 1,
  "solcInputHash": "3b3b283a31496f0704cc082007acea88",
  "bytecode": "0x608060405234801561001057600080fd5b50611db5806100206000396000f3fe608060405234801561001057600080fd5b50600436106101585760003560e01c8063939ea66b116100c3578063c9e14ed21161007c578063c9e14ed2146102c6578063d1d58b25146102d9578063e32890c4146102ec578063f2c098b71461030c578063f4359ce51461031f578063fc0c546a1461032957600080fd5b8063939ea66b1461026e57806398bdfdee146102775780639abd185c1461028a578063b80777ea1461029d578063bee5dc32146102a5578063c7c4ff46146102ad57600080fd5b80634f2bfe5b116101155780634f2bfe5b146101e657806378e97925146102175780638736659b14610220578063899519be146102295780638ec8468a1461023c578063925489a81461024b57600080fd5b80630f6592ef1461015d578063326a940714610183578063379607f51461018d5780633935c802146101a05780634607bf60146101b3578063485cc955146101d3575b600080fd5b61017061016b366004611838565b610342565b6040519081526020015b60405180910390f35b61018b610365565b005b61017061019b366004611838565b61036f565b6101706101ae366004611869565b610459565b6101706101c1366004611838565b60036020526000908152604090205481565b61018b6101e13660046118a4565b610472565b66038d7ea4c68006546101ff906001600160a01b031681565b6040516001600160a01b03909116815260200161017a565b61017060015481565b61017060025481565b610170610237366004611838565b610626565b61017066038d7ea4c680085481565b61025e610259366004611924565b61063c565b604051901515815260200161017a565b61017060055481565b6101706102853660046119ca565b610782565b6101706102983660046119fc565b610790565b6101706108d1565b61018b6108f0565b66071afd498d0009546101ff906001600160a01b031681565b6101706102d4366004611a2d565b610945565b6101706102e7366004611838565b610953565b6101706102fa366004611838565b60046020526000908152604090205481565b61018b61031a366004611a77565b61099f565b61017062093a8081565b66038d7ea4c68007546101ff906001600160a01b031681565b66038d7ea4c680098166038d7ea4c68000811061035e57600080fd5b0154905081565b61036d610a14565b565b6000600254421061038257610382610a14565b60055462093a806103938183611aaa565b61039d9190611acc565b66038d7ea4c68006549091506000906103c19085906001600160a01b031684610b8f565b905080156104525766038d7ea4c680065460405163076426ed60e11b815260048101869052602481018390526001600160a01b0390911690630ec84dda90604401600060405180830381600087803b15801561041c57600080fd5b505af1158015610430573d6000803e3d6000fd5b505050508066038d7ea4c68008600082825461044c9190611aeb565b90915550505b9392505050565b600061046785858585610c22565b90505b949350505050565b600054610100900460ff1661048d5760005460ff1615610491565b303b155b6104f95760405162461bcd60e51b815260206004820152602e60248201527f496e697469616c697a61626c653a20636f6e747261637420697320616c72656160448201526d191e481a5b9a5d1a585b1a5e995960921b60648201526084015b60405180910390fd5b600054610100900460ff1615801561051b576000805461ffff19166101011790555b600062093a8061052b8142611aaa565b6105359190611acc565b90508060018190555080600581905550806002819055506000846001600160a01b031663fc0c546a6040518163ffffffff1660e01b8152600401602060405180830381865afa15801561058c573d6000803e3d6000fd5b505050506040513d601f19601f820116820180604052508101906105b09190611b02565b66038d7ea4c6800780546001600160a01b038084166001600160a01b0319928316811790935566038d7ea4c6800680548a831690841617905566071afd498d000980549189169190921617905590915061060d9086600019610d16565b50508015610621576000805461ff00191690555b505050565b60068166038d7ea4c68000811061035e57600080fd5b6000600254421061064f5761064f610a14565b60055462093a806106608183611aaa565b61066a9190611acc565b66038d7ea4c68006549091506001600160a01b03166000805b85518110156107525760008682815181106106a0576106a0611b1f565b60200260200101519050806000036106b85750610752565b60006106c5828688610b8f565b9050801561073d5760405163076426ed60e11b815260048101839052602481018290526001600160a01b03861690630ec84dda90604401600060405180830381600087803b15801561071657600080fd5b505af115801561072a573d6000803e3d6000fd5b50505050808461073a9190611b35565b93505b5050808061074a90611b4d565b915050610683565b508015610777578066038d7ea4c6800860008282546107719190611aeb565b90915550505b506001949350505050565b600061046785858585610df0565b66038d7ea4c680065460405163e58f594760e01b8152600481018490526000916001600160a01b0316908290829063e58f594790602401602060405180830381865afa1580156107e4573d6000803e3d6000fd5b505050506040513d601f19601f820116820180604052508101906108089190611b66565b9050600061081883878785610c22565b6040516322565a1560e11b815260048101889052602481018290529091506000906001600160a01b038516906344acb42a90604401608060405180830381865afa15801561086a573d6000803e3d6000fd5b505050506040513d601f19601f8201168201806040525081019061088e9190611b7f565b90506108c38160400151876108a39190611aeb565b82602001516108b29190611bf4565b82516108be9190611c92565b610e3c565b600f0b979650505050505050565b600062093a806108e18142611aaa565b6108eb9190611acc565b905090565b66071afd498d0009546001600160a01b0316331461093d5760405162461bcd60e51b815260206004820152600a60248201526910b232b837b9b4ba37b960b11b60448201526064016104f0565b61036d610e57565b60006104678585858561101a565b60008062093a80806005546109689190611aaa565b6109729190611acc565b66038d7ea4c68006549091506000906109969085906001600160a01b03168461107f565b51949350505050565b66071afd498d0009546001600160a01b031633146109ec5760405162461bcd60e51b815260206004820152600a60248201526910b232b837b9b4ba37b960b11b60448201526064016104f0565b66071afd498d000980546001600160a01b0319166001600160a01b0392909216919091179055565b66038d7ea4c68006546002546001600160a01b0390911690600062093a80610a3c8142611aaa565b610a469190611acc565b9050826001600160a01b031663c2c4c5c16040518163ffffffff1660e01b8152600401600060405180830381600087803b158015610a8357600080fd5b505af1158015610a97573d6000803e3d6000fd5b5050505060005b6014811015610b8757818311610b87576000610aba85856114f2565b604051638ad4c44760e01b8152600481018290529091506000906001600160a01b03871690638ad4c44790602401608060405180830381865afa158015610b05573d6000803e3d6000fd5b505050506040513d601f19601f82011682018060405250810190610b299190611b7f565b9050610b438582604001518360000151846020015161101a565b66038d7ea4c680098666038d7ea4c680008110610b6257610b62611b1f565b01555050610b7362093a8084611b35565b925080610b7f81611b4d565b915050610a9e565b505060025550565b600080610b9d85858561107f565b90508060800151156109965760208181018051600088815260048452604080822092909255818501516003855290829020558351915160608086015183518b815295860194909452918401528201527fcae2990aa9af8eb1c64713b7eddb3a80bf18e49a94a13fe0d0002b5d61d58f009060800160405180910390a151949350505050565b60008082815b6080811015610d0a5781831015610d0a5760006002610c478486611b35565b610c52906002611b35565b610c5c9190611aaa565b6040516322565a1560e11b8152600481018a9052602481018290529091506000906001600160a01b038b16906344acb42a90604401608060405180830381865afa158015610cae573d6000803e3d6000fd5b505050506040513d601f19601f82011682018060405250810190610cd29190611b7f565b905087816040015111610ce757819450610cf5565b610cf2600183611aeb565b93505b50508080610d0290611b4d565b915050610c28565b50909695505050505050565b604051636eb1769f60e11b81523060048201526001600160a01b038381166024830152600091839186169063dd62ed3e90604401602060405180830381865afa158015610d67573d6000803e3d6000fd5b505050506040513d601f19601f82011682018060405250810190610d8b9190611b66565b610d959190611b35565b604080516001600160a01b038616602482015260448082018490528251808303909101815260649091019091526020810180516001600160e01b031663095ea7b360e01b179052909150610dea908590611647565b50505050565b60008284111580610e085750610e068385611aeb565b155b80610e11575081155b15610e1d57508361046a565b81610e288486611aeb565b610e329087611acc565b6104679190611aaa565b60008082600f0b12610e4e5781610e51565b60005b92915050565b66038d7ea4c68007546040516370a0823160e01b81523060048201526000916001600160a01b0316906370a0823190602401602060405180830381865afa158015610ea6573d6000803e3d6000fd5b505050506040513d601f19601f82011682018060405250810190610eca9190611b66565b9050600066038d7ea4c680085482610ee29190611aeb565b66038d7ea4c680088390556005549091506000610eff8242611aeb565b426005559050600062093a80610f158185611aaa565b610f1f9190611acc565b90506000805b6014811015610fd857610f3b62093a8084611b35565b915081421015610f8557610f5186428787610df0565b60068466038d7ea4c680008110610f6a57610f6a611b1f565b016000828254610f7a9190611b35565b90915550610fd89050565b610f9186838787610df0565b60068466038d7ea4c680008110610faa57610faa611b1f565b016000828254610fba9190611b35565b90915550508194508192508080610fd090611b4d565b915050610f25565b5060408051428152602081018790527fce749457b74e10f393f2c6b1ce4261b78791376db5a3f501477a809f03f500d6910160405180910390a1505050505050565b60008385101561102c5750600061046a565b60006110388587611aeb565b90506110448184611bf4565b600f0b84600f0b121561105b57600091505061046a565b6110726110688285611bf4565b6108be9086611c92565b600f0b9695505050505050565b6110b36040518060a00160405280600081526020016000815260200160008152602001600081526020016000151581525090565b6000806000856001600160a01b031663e58f5947886040518263ffffffff1660e01b81526004016110e691815260200190565b602060405180830381865afa158015611103573d6000803e3d6000fd5b505050506040513d601f19601f820116820180604052508101906111279190611b66565b600154909150600082900361116f576040518060a001604052806000815260200160008152602001600081526020016000815260200160001515815250945050505050610452565b6000888152600360205260408120549081900361119957611192888a8486610c22565b94506111ab565b60008981526004602052604090205494505b846000036111b857600194505b6040516322565a1560e11b8152600481018a9052602481018690526000906001600160a01b038a16906344acb42a90604401608060405180830381865afa158015611207573d6000803e3d6000fd5b505050506040513d601f19601f8201168201806040525081019061122b9190611b7f565b9050816000036112705762093a8080600162093a80846040015161124f9190611b35565b6112599190611aeb565b6112639190611aaa565b61126d9190611acc565b91505b60055482106112b4576040518060a0016040528060008152602001600081526020016000815260200160008152602001600015158152509650505050505050610452565b828210156112c0578291505b6040805160808101825260008082526020820181905291810182905260608101829052905b60328110156114a357898410156114a3578260400151841015801561130a5750858811155b156113d05761131a600189611b35565b9750829150858811156113595760405180608001604052806000600f0b81526020016000600f0b81526020016000815260200160008152509250611491565b6040516322565a1560e11b8152600481018d9052602481018990526001600160a01b038c16906344acb42a90604401608060405180830381865afa1580156113a5573d6000803e3d6000fd5b505050506040513d601f19601f820116820180604052508101906113c99190611b7f565b9250611491565b60008260400151856113e29190611aeb565b905060006114058460200151836113f99190611bf4565b85516108be9190611c92565b600f0b9050801580156114175750878a115b156114235750506114a3565b66038d7ea4c680098666038d7ea4c68000811061144257611442611b1f565b015460068766038d7ea4c68000811061145d5761145d611b1f565b01546114699083611acc565b6114739190611aaa565b61147d908a611b35565b985061148c62093a8087611b35565b955050505b8061149b81611b4d565b9150506112e5565b506040518060a001604052808781526020016114cb8760018b6114c69190611aeb565b611719565b81526020810194909452604084019590955250506001606090910152509695505050505050565b600080600090506000846001600160a01b031663900cf0cf6040518163ffffffff1660e01b8152600401602060405180830381865afa158015611539573d6000803e3d6000fd5b505050506040513d601f19601f8201168201806040525081019061155d9190611b66565b905060005b608081101561163d578183101561163d57600060026115818486611b35565b61158c906002611b35565b6115969190611aaa565b604051638ad4c44760e01b8152600481018290529091506000906001600160a01b03891690638ad4c44790602401608060405180830381865afa1580156115e1573d6000803e3d6000fd5b505050506040513d601f19601f820116820180604052508101906116059190611b7f565b90508681604001511161161a57819450611628565b611625600183611aeb565b93505b5050808061163590611b4d565b915050611562565b5090949350505050565b600061169c826040518060400160405280602081526020017f5361666545524332303a206c6f772d6c6576656c2063616c6c206661696c6564815250856001600160a01b031661172f9092919063ffffffff16565b80519091501561062157808060200190518101906116ba9190611ce2565b6106215760405162461bcd60e51b815260206004820152602a60248201527f5361666545524332303a204552433230206f7065726174696f6e20646964206e6044820152691bdd081cdd58d8d9595960b21b60648201526084016104f0565b60008183106117285781610452565b5090919050565b60606001600160a01b0384163b6117885760405162461bcd60e51b815260206004820152601d60248201527f416464726573733a2063616c6c20746f206e6f6e2d636f6e747261637400000060448201526064016104f0565b600080856001600160a01b0316856040516117a39190611d30565b6000604051808303816000865af19150503d80600081146117e0576040519150601f19603f3d011682016040523d82523d6000602084013e6117e5565b606091505b50915091506117f58282866117ff565b9695505050505050565b6060831561180e575081610452565b82511561181e5782518084602001fd5b8160405162461bcd60e51b81526004016104f09190611d4c565b60006020828403121561184a57600080fd5b5035919050565b6001600160a01b038116811461186657600080fd5b50565b6000806000806080858703121561187f57600080fd5b843561188a81611851565b966020860135965060408601359560600135945092505050565b600080604083850312156118b757600080fd5b82356118c281611851565b915060208301356118d281611851565b809150509250929050565b634e487b7160e01b600052604160045260246000fd5b604051601f8201601f1916810167ffffffffffffffff8111828210171561191c5761191c6118dd565b604052919050565b6000602080838503121561193757600080fd5b823567ffffffffffffffff8082111561194f57600080fd5b818501915085601f83011261196357600080fd5b813581811115611975576119756118dd565b8060051b91506119868483016118f3565b81815291830184019184810190888411156119a057600080fd5b938501935b838510156119be578435825293850193908501906119a5565b98975050505050505050565b600080600080608085870312156119e057600080fd5b5050823594602084013594506040840135936060013592509050565b60008060408385031215611a0f57600080fd5b50508035926020909101359150565b80600f0b811461186657600080fd5b60008060008060808587031215611a4357600080fd5b84359350602085013592506040850135611a5c81611a1e565b91506060850135611a6c81611a1e565b939692955090935050565b600060208284031215611a8957600080fd5b813561045281611851565b634e487b7160e01b600052601160045260246000fd5b600082611ac757634e487b7160e01b600052601260045260246000fd5b500490565b6000816000190483118215151615611ae657611ae6611a94565b500290565b600082821015611afd57611afd611a94565b500390565b600060208284031215611b1457600080fd5b815161045281611851565b634e487b7160e01b600052603260045260246000fd5b60008219821115611b4857611b48611a94565b500190565b600060018201611b5f57611b5f611a94565b5060010190565b600060208284031215611b7857600080fd5b5051919050565b600060808284031215611b9157600080fd5b6040516080810181811067ffffffffffffffff82111715611bb457611bb46118dd565b6040528251611bc281611a1e565b81526020830151611bd281611a1e565b6020820152604083810151908201526060928301519281019290925250919050565b600081600f0b83600f0b60016001607f1b03600082136000841383830485118282161615611c2457611c24611a94565b6f7fffffffffffffffffffffffffffffff196000851282811687830587121615611c5057611c50611a94565b60008712925085820587128484161615611c6c57611c6c611a94565b85850587128184161615611c8257611c82611a94565b5050509290910295945050505050565b600081600f0b83600f0b600081128160016001607f1b031901831281151615611cbd57611cbd611a94565b8160016001607f1b03018313811615611cd857611cd8611a94565b5090039392505050565b600060208284031215611cf457600080fd5b8151801515811461045257600080fd5b60005b83811015611d1f578181015183820152602001611d07565b83811115610dea5750506000910152565b60008251611d42818460208701611d04565b9190910192915050565b6020815260008251806020840152611d6b816040850160208701611d04565b601f01601f1916919091016040019291505056fea2646970667358221220050d9285747ad8e6931be8501a6931b18d81561ff6d79c4b1c5e958ffda2d58d64736f6c634300080d0033",
  "devdoc": {
    "kind": "dev",
    "methods": {
      "adjustToDistribute(uint256,uint256,uint256,uint256)": {
        "details": "For testing purposes."
      }
    },
    "version": 1
  },
  "userdoc": {
    "kind": "user",
    "methods": {},
    "version": 1
  },
  "storageLayout": {
    "storage": [
      {
        "astId": 26510,
        "contract": "contracts/base/vote/VeDistUpgradeable.sol:VeDistUpgradeable",
        "label": "_initialized",
        "offset": 0,
        "slot": "0",
        "type": "t_bool"
      },
      {
        "astId": 26513,
        "contract": "contracts/base/vote/VeDistUpgradeable.sol:VeDistUpgradeable",
        "label": "_initializing",
        "offset": 1,
        "slot": "0",
        "type": "t_bool"
      },
      {
        "astId": 15250,
        "contract": "contracts/base/vote/VeDistUpgradeable.sol:VeDistUpgradeable",
        "label": "startTime",
        "offset": 0,
        "slot": "1",
        "type": "t_uint256"
      },
      {
        "astId": 15252,
        "contract": "contracts/base/vote/VeDistUpgradeable.sol:VeDistUpgradeable",
        "label": "timeCursor",
        "offset": 0,
        "slot": "2",
        "type": "t_uint256"
      },
      {
        "astId": 15256,
        "contract": "contracts/base/vote/VeDistUpgradeable.sol:VeDistUpgradeable",
        "label": "timeCursorOf",
        "offset": 0,
        "slot": "3",
        "type": "t_mapping(t_uint256,t_uint256)"
      },
      {
        "astId": 15260,
        "contract": "contracts/base/vote/VeDistUpgradeable.sol:VeDistUpgradeable",
        "label": "userEpochOf",
        "offset": 0,
        "slot": "4",
        "type": "t_mapping(t_uint256,t_uint256)"
      },
      {
        "astId": 15262,
        "contract": "contracts/base/vote/VeDistUpgradeable.sol:VeDistUpgradeable",
        "label": "lastTokenTime",
        "offset": 0,
        "slot": "5",
        "type": "t_uint256"
      },
      {
        "astId": 15266,
        "contract": "contracts/base/vote/VeDistUpgradeable.sol:VeDistUpgradeable",
        "label": "tokensPerWeek",
        "offset": 0,
        "slot": "6",
        "type": "t_array(t_uint256)1000000000000000_storage"
      },
      {
        "astId": 15268,
        "contract": "contracts/base/vote/VeDistUpgradeable.sol:VeDistUpgradeable",
        "label": "votingEscrow",
        "offset": 0,
        "slot": "1000000000000006",
        "type": "t_address"
      },
      {
        "astId": 15270,
        "contract": "contracts/base/vote/VeDistUpgradeable.sol:VeDistUpgradeable",
        "label": "token",
        "offset": 0,
        "slot": "1000000000000007",
        "type": "t_address"
      },
      {
        "astId": 15272,
        "contract": "contracts/base/vote/VeDistUpgradeable.sol:VeDistUpgradeable",
        "label": "tokenLastBalance",
        "offset": 0,
        "slot": "1000000000000008",
        "type": "t_uint256"
      },
      {
        "astId": 15276,
        "contract": "contracts/base/vote/VeDistUpgradeable.sol:VeDistUpgradeable",
        "label": "veSupply",
        "offset": 0,
        "slot": "1000000000000009",
        "type": "t_array(t_uint256)1000000000000000_storage"
      },
      {
        "astId": 15278,
        "contract": "contracts/base/vote/VeDistUpgradeable.sol:VeDistUpgradeable",
        "label": "depositor",
        "offset": 0,
        "slot": "2000000000000009",
        "type": "t_address"
      }
    ],
    "types": {
      "t_address": {
        "encoding": "inplace",
        "label": "address",
        "numberOfBytes": "20"
      },
      "t_array(t_uint256)1000000000000000_storage": {
        "base": "t_uint256",
        "encoding": "inplace",
        "label": "uint256[1000000000000000]",
        "numberOfBytes": "32000000000000000"
      },
      "t_bool": {
        "encoding": "inplace",
        "label": "bool",
        "numberOfBytes": "1"
      },
      "t_mapping(t_uint256,t_uint256)": {
        "encoding": "mapping",
        "key": "t_uint256",
        "label": "mapping(uint256 => uint256)",
        "numberOfBytes": "32",
        "value": "t_uint256"
      },
      "t_uint256": {
        "encoding": "inplace",
        "label": "uint256",
        "numberOfBytes": "32"
      }
    }
  }
}