{
  "address": "0x8d4DD14022Bcb0452ed058f97C6B122434CE5Cec",
  "abi": [
    {
      "inputs": [
        {
          "internalType": "address",
          "name": "_votingEscrow",
          "type": "address"
        }
      ],
      "stateMutability": "nonpayable",
      "type": "constructor"
    },
    {
      "anonymous": false,
      "inputs": [
        {
          "indexed": false,
          "internalType": "uint256",
          "name": "time",
          "type": "uint256"
        },
        {
          "indexed": false,
          "internalType": "uint256",
          "name": "tokens",
          "type": "uint256"
        }
      ],
      "name": "CheckpointToken",
      "type": "event"
    },
    {
      "anonymous": false,
      "inputs": [
        {
          "indexed": false,
          "internalType": "uint256",
          "name": "tokenId",
          "type": "uint256"
        },
        {
          "indexed": false,
          "internalType": "uint256",
          "name": "amount",
          "type": "uint256"
        },
        {
          "indexed": false,
          "internalType": "uint256",
          "name": "claimEpoch",
          "type": "uint256"
        },
        {
          "indexed": false,
          "internalType": "uint256",
          "name": "maxEpoch",
          "type": "uint256"
        }
      ],
      "name": "Claimed",
      "type": "event"
    },
    {
      "inputs": [
        {
          "internalType": "uint256",
          "name": "toDistribute",
          "type": "uint256"
        },
        {
          "internalType": "uint256",
          "name": "t0",
          "type": "uint256"
        },
        {
          "internalType": "uint256",
          "name": "t1",
          "type": "uint256"
        },
        {
          "internalType": "uint256",
          "name": "sinceLastCall",
          "type": "uint256"
        }
      ],
      "name": "adjustToDistribute",
      "outputs": [
        {
          "internalType": "uint256",
          "name": "",
          "type": "uint256"
        }
      ],
      "stateMutability": "pure",
      "type": "function"
    },
    {
      "inputs": [
        {
          "internalType": "uint256",
          "name": "t",
          "type": "uint256"
        },
        {
          "internalType": "uint256",
          "name": "ptTs",
          "type": "uint256"
        },
        {
          "internalType": "int128",
          "name": "ptBias",
          "type": "int128"
        },
        {
          "internalType": "int128",
          "name": "ptSlope",
          "type": "int128"
        }
      ],
      "name": "adjustVeSupply",
      "outputs": [
        {
          "internalType": "uint256",
          "name": "",
          "type": "uint256"
        }
      ],
      "stateMutability": "pure",
      "type": "function"
    },
    {
      "inputs": [],
      "name": "checkpointToken",
      "outputs": [],
      "stateMutability": "nonpayable",
      "type": "function"
    },
    {
      "inputs": [],
      "name": "checkpointTotalSupply",
      "outputs": [],
      "stateMutability": "nonpayable",
      "type": "function"
    },
    {
      "inputs": [
        {
          "internalType": "uint256",
          "name": "_tokenId",
          "type": "uint256"
        }
      ],
      "name": "claim",
      "outputs": [
        {
          "internalType": "uint256",
          "name": "",
          "type": "uint256"
        }
      ],
      "stateMutability": "nonpayable",
      "type": "function"
    },
    {
      "inputs": [
        {
          "internalType": "uint256[]",
          "name": "_tokenIds",
          "type": "uint256[]"
        }
      ],
      "name": "claimMany",
      "outputs": [
        {
          "internalType": "bool",
          "name": "",
          "type": "bool"
        }
      ],
      "stateMutability": "nonpayable",
      "type": "function"
    },
    {
      "inputs": [
        {
          "internalType": "uint256",
          "name": "_tokenId",
          "type": "uint256"
        }
      ],
      "name": "claimable",
      "outputs": [
        {
          "internalType": "uint256",
          "name": "",
          "type": "uint256"
        }
      ],
      "stateMutability": "view",
      "type": "function"
    },
    {
      "inputs": [],
      "name": "depositor",
      "outputs": [
        {
          "internalType": "address",
          "name": "",
          "type": "address"
        }
      ],
      "stateMutability": "view",
      "type": "function"
    },
    {
      "inputs": [
        {
          "internalType": "address",
          "name": "ve",
          "type": "address"
        },
        {
          "internalType": "uint256",
          "name": "tokenId",
          "type": "uint256"
        },
        {
          "internalType": "uint256",
          "name": "_timestamp",
          "type": "uint256"
        },
        {
          "internalType": "uint256",
          "name": "maxUserEpoch",
          "type": "uint256"
        }
      ],
      "name": "findTimestampUserEpoch",
      "outputs": [
        {
          "internalType": "uint256",
          "name": "",
          "type": "uint256"
        }
      ],
      "stateMutability": "view",
      "type": "function"
    },
    {
      "inputs": [],
      "name": "lastTokenTime",
      "outputs": [
        {
          "internalType": "uint256",
          "name": "",
          "type": "uint256"
        }
      ],
      "stateMutability": "view",
      "type": "function"
    },
    {
      "inputs": [
        {
          "internalType": "address",
          "name": "_depositor",
          "type": "address"
        }
      ],
      "name": "setDepositor",
      "outputs": [],
      "stateMutability": "nonpayable",
      "type": "function"
    },
    {
      "inputs": [],
      "name": "startTime",
      "outputs": [
        {
          "internalType": "uint256",
          "name": "",
          "type": "uint256"
        }
      ],
      "stateMutability": "view",
      "type": "function"
    },
    {
      "inputs": [],
      "name": "timeCursor",
      "outputs": [
        {
          "internalType": "uint256",
          "name": "",
          "type": "uint256"
        }
      ],
      "stateMutability": "view",
      "type": "function"
    },
    {
      "inputs": [
        {
          "internalType": "uint256",
          "name": "",
          "type": "uint256"
        }
      ],
      "name": "timeCursorOf",
      "outputs": [
        {
          "internalType": "uint256",
          "name": "",
          "type": "uint256"
        }
      ],
      "stateMutability": "view",
      "type": "function"
    },
    {
      "inputs": [],
      "name": "timestamp",
      "outputs": [
        {
          "internalType": "uint256",
          "name": "",
          "type": "uint256"
        }
      ],
      "stateMutability": "view",
      "type": "function"
    },
    {
      "inputs": [],
      "name": "token",
      "outputs": [
        {
          "internalType": "address",
          "name": "",
          "type": "address"
        }
      ],
      "stateMutability": "view",
      "type": "function"
    },
    {
      "inputs": [],
      "name": "tokenLastBalance",
      "outputs": [
        {
          "internalType": "uint256",
          "name": "",
          "type": "uint256"
        }
      ],
      "stateMutability": "view",
      "type": "function"
    },
    {
      "inputs": [
        {
          "internalType": "uint256",
          "name": "",
          "type": "uint256"
        }
      ],
      "name": "tokensPerWeek",
      "outputs": [
        {
          "internalType": "uint256",
          "name": "",
          "type": "uint256"
        }
      ],
      "stateMutability": "view",
      "type": "function"
    },
    {
      "inputs": [
        {
          "internalType": "uint256",
          "name": "",
          "type": "uint256"
        }
      ],
      "name": "userEpochOf",
      "outputs": [
        {
          "internalType": "uint256",
          "name": "",
          "type": "uint256"
        }
      ],
      "stateMutability": "view",
      "type": "function"
    },
    {
      "inputs": [
        {
          "internalType": "uint256",
          "name": "_tokenId",
          "type": "uint256"
        },
        {
          "internalType": "uint256",
          "name": "_timestamp",
          "type": "uint256"
        }
      ],
      "name": "veForAt",
      "outputs": [
        {
          "internalType": "uint256",
          "name": "",
          "type": "uint256"
        }
      ],
      "stateMutability": "view",
      "type": "function"
    },
    {
      "inputs": [
        {
          "internalType": "uint256",
          "name": "",
          "type": "uint256"
        }
      ],
      "name": "veSupply",
      "outputs": [
        {
          "internalType": "uint256",
          "name": "",
          "type": "uint256"
        }
      ],
      "stateMutability": "view",
      "type": "function"
    },
    {
      "inputs": [],
      "name": "votingEscrow",
      "outputs": [
        {
          "internalType": "address",
          "name": "",
          "type": "address"
        }
      ],
      "stateMutability": "view",
      "type": "function"
    }
  ],
  "transactionHash": "0x80e71ba64a340e117d52fb4c7954a5b1a45d9d5768d761e8857fbc6c6cf9e0c0",
  "args": [
    "0xDe74728549985A17C88975Dbda726eA03206353d"
  ],
  "numDeployments": 1,
  "solcInputHash": "eac3708b31671a6a986dce840e2f0a34",
  "bytecode": "0x60806040523480156200001157600080fd5b50604051620021223803806200212283398101604081905262000034916200042d565b600062093a806200004681426200046e565b62000052919062000491565b90508060008190555080600481905550806001819055506000826001600160a01b031663fc0c546a6040518163ffffffff1660e01b8152600401602060405180830381865afa158015620000aa573d6000803e3d6000fd5b505050506040513d601f19601f82011682018060405250810190620000d091906200042d565b66038d7ea4c6800680546001600160a01b038084166001600160a01b0319928316811790935566038d7ea4c68005805491881691831691909117905566071afd498d00088054909116331790559091506200013e90846000196200083262000147602090811b91909117901c565b5050506200058e565b604051636eb1769f60e11b81523060048201526001600160a01b038381166024830152600091839186169063dd62ed3e90604401602060405180830381865afa15801562000199573d6000803e3d6000fd5b505050506040513d601f19601f82011682018060405250810190620001bf9190620004b3565b620001cb9190620004cd565b604080516001600160a01b038616602482015260448082018490528251808303909101815260649091019091526020810180516001600160e01b0390811663095ea7b360e01b1790915291925062000227918691906200022d16565b50505050565b600062000289826040518060400160405280602081526020017f5361666545524332303a206c6f772d6c6576656c2063616c6c206661696c6564815250856001600160a01b03166200031460201b6200090c179092919060201c565b8051909150156200030f5780806020019051810190620002aa9190620004e8565b6200030f5760405162461bcd60e51b815260206004820152602a60248201527f5361666545524332303a204552433230206f7065726174696f6e20646964206e6044820152691bdd081cdd58d8d9595960b21b60648201526084015b60405180910390fd5b505050565b60606001600160a01b0384163b6200036f5760405162461bcd60e51b815260206004820152601d60248201527f416464726573733a2063616c6c20746f206e6f6e2d636f6e7472616374000000604482015260640162000306565b600080856001600160a01b0316856040516200038c91906200053b565b6000604051808303816000865af19150503d8060008114620003cb576040519150601f19603f3d011682016040523d82523d6000602084013e620003d0565b606091505b509092509050620003e3828286620003ef565b925050505b9392505050565b6060831562000400575081620003e8565b825115620004115782518084602001fd5b8160405162461bcd60e51b815260040162000306919062000559565b6000602082840312156200044057600080fd5b81516001600160a01b0381168114620003e857600080fd5b634e487b7160e01b600052601160045260246000fd5b6000826200048c57634e487b7160e01b600052601260045260246000fd5b500490565b6000816000190483118215151615620004ae57620004ae62000458565b500290565b600060208284031215620004c657600080fd5b5051919050565b60008219821115620004e357620004e362000458565b500190565b600060208284031215620004fb57600080fd5b81518015158114620003e857600080fd5b60005b83811015620005295781810151838201526020016200050f565b83811115620002275750506000910152565b600082516200054f8184602087016200050c565b9190910192915050565b60208152600082518060208401526200057a8160408501602087016200050c565b601f01601f19169190910160400192915050565b611b84806200059e6000396000f3fe608060405234801561001057600080fd5b50600436106101425760003560e01c8063939ea66b116100b8578063c7c4ff461161007c578063c7c4ff4614610284578063c9e14ed21461029d578063d1d58b25146102b0578063e32890c4146102c3578063f2c098b7146102e3578063fc0c546a146102f657600080fd5b8063939ea66b1461024557806398bdfdee1461024e5780639abd185c14610261578063b80777ea14610274578063bee5dc321461027c57600080fd5b80634f2bfe5b1161010a5780634f2bfe5b146101bd57806378e97925146101ee5780638736659b146101f7578063899519be146102005780638ec8468a14610213578063925489a81461022257600080fd5b80630f6592ef14610147578063326a94071461016d578063379607f5146101775780633935c8021461018a5780634607bf601461019d575b600080fd5b61015a61015536600461165a565b61030f565b6040519081526020015b60405180910390f35b610175610332565b005b61015a61018536600461165a565b61033c565b61015a61019836600461168f565b610426565b61015a6101ab36600461165a565b60026020526000908152604090205481565b66038d7ea4c68005546101d6906001600160a01b031681565b6040516001600160a01b039091168152602001610164565b61015a60005481565b61015a60015481565b61015a61020e36600461165a565b61043f565b61015a66038d7ea4c680075481565b61023561023036600461170f565b610455565b6040519015158152602001610164565b61015a60045481565b61015a61025c3660046117b5565b61059b565b61015a61026f3660046117e7565b6105a9565b61015a6106ea565b610175610709565b66071afd498d0008546101d6906001600160a01b031681565b61015a6102ab36600461181b565b610763565b61015a6102be36600461165a565b610771565b61015a6102d136600461165a565b60036020526000908152604090205481565b6101756102f1366004611865565b6107bd565b66038d7ea4c68006546101d6906001600160a01b031681565b66038d7ea4c680088166038d7ea4c68000811061032b57600080fd5b0154905081565b61033a6109dc565b565b6000600154421061034f5761034f6109dc565b60045462093a806103608183611896565b61036a91906118b8565b66038d7ea4c680055490915060009061038e9085906001600160a01b031684610b57565b9050801561041f5766038d7ea4c680055460405163076426ed60e11b815260048101869052602481018390526001600160a01b0390911690630ec84dda90604401600060405180830381600087803b1580156103e957600080fd5b505af11580156103fd573d6000803e3d6000fd5b505050508066038d7ea4c68007600082825461041991906118d7565b90915550505b9392505050565b600061043485858585610bea565b90505b949350505050565b60058166038d7ea4c68000811061032b57600080fd5b60006001544210610468576104686109dc565b60045462093a806104798183611896565b61048391906118b8565b66038d7ea4c68005549091506001600160a01b03166000805b855181101561056b5760008682815181106104b9576104b96118ee565b60200260200101519050806000036104d1575061056b565b60006104de828688610b57565b905080156105565760405163076426ed60e11b815260048101839052602481018290526001600160a01b03861690630ec84dda90604401600060405180830381600087803b15801561052f57600080fd5b505af1158015610543573d6000803e3d6000fd5b5050505080846105539190611904565b93505b505080806105639061191c565b91505061049c565b508015610590578066038d7ea4c68007600082825461058a91906118d7565b90915550505b506001949350505050565b600061043485858585610cde565b66038d7ea4c680055460405163e58f594760e01b8152600481018490526000916001600160a01b0316908290829063e58f594790602401602060405180830381865afa1580156105fd573d6000803e3d6000fd5b505050506040513d601f19601f820116820180604052508101906106219190611935565b9050600061063183878785610bea565b6040516322565a1560e11b815260048101889052602481018290529091506000906001600160a01b038516906344acb42a90604401608060405180830381865afa158015610683573d6000803e3d6000fd5b505050506040513d601f19601f820116820180604052508101906106a7919061194e565b90506106dc8160400151876106bc91906118d7565b82602001516106cb91906119c3565b82516106d79190611a61565b610d2a565b600f0b979650505050505050565b600062093a806106fa8142611896565b61070491906118b8565b905090565b66071afd498d0008546001600160a01b0316331461075b5760405162461bcd60e51b815260206004820152600a60248201526910b232b837b9b4ba37b960b11b60448201526064015b60405180910390fd5b61033a610d45565b600061043485858585610f08565b60008062093a80806004546107869190611896565b61079091906118b8565b66038d7ea4c68005549091506000906107b49085906001600160a01b031684610f6d565b51949350505050565b66071afd498d0008546001600160a01b0316331461080a5760405162461bcd60e51b815260206004820152600a60248201526910b232b837b9b4ba37b960b11b6044820152606401610752565b66071afd498d000880546001600160a01b0319166001600160a01b0392909216919091179055565b604051636eb1769f60e11b81523060048201526001600160a01b038381166024830152600091839186169063dd62ed3e90604401602060405180830381865afa158015610883573d6000803e3d6000fd5b505050506040513d601f19601f820116820180604052508101906108a79190611935565b6108b19190611904565b604080516001600160a01b038616602482015260448082018490528251808303909101815260649091019091526020810180516001600160e01b031663095ea7b360e01b1790529091506109069085906113df565b50505050565b60606001600160a01b0384163b6109655760405162461bcd60e51b815260206004820152601d60248201527f416464726573733a2063616c6c20746f206e6f6e2d636f6e74726163740000006044820152606401610752565b600080856001600160a01b0316856040516109809190611add565b6000604051808303816000865af19150503d80600081146109bd576040519150601f19603f3d011682016040523d82523d6000602084013e6109c2565b606091505b50915091506109d28282866114b6565b9695505050505050565b66038d7ea4c68005546001546001600160a01b0390911690600062093a80610a048142611896565b610a0e91906118b8565b9050826001600160a01b031663c2c4c5c16040518163ffffffff1660e01b8152600401600060405180830381600087803b158015610a4b57600080fd5b505af1158015610a5f573d6000803e3d6000fd5b5050505060005b6014811015610b4f57818311610b4f576000610a8285856114ef565b604051638ad4c44760e01b8152600481018290529091506000906001600160a01b03871690638ad4c44790602401608060405180830381865afa158015610acd573d6000803e3d6000fd5b505050506040513d601f19601f82011682018060405250810190610af1919061194e565b9050610b0b85826040015183600001518460200151610f08565b66038d7ea4c680088666038d7ea4c680008110610b2a57610b2a6118ee565b01555050610b3b62093a8084611904565b925080610b478161191c565b915050610a66565b505060015550565b600080610b65858585610f6d565b90508060800151156107b45760208181018051600088815260038452604080822092909255818501516002855290829020558351915160608086015183518b815295860194909452918401528201527fcae2990aa9af8eb1c64713b7eddb3a80bf18e49a94a13fe0d0002b5d61d58f009060800160405180910390a151949350505050565b60008082815b6080811015610cd25781831015610cd25760006002610c0f8486611904565b610c1a906002611904565b610c249190611896565b6040516322565a1560e11b8152600481018a9052602481018290529091506000906001600160a01b038b16906344acb42a90604401608060405180830381865afa158015610c76573d6000803e3d6000fd5b505050506040513d601f19601f82011682018060405250810190610c9a919061194e565b905087816040015111610caf57819450610cbd565b610cba6001836118d7565b93505b50508080610cca9061191c565b915050610bf0565b50909695505050505050565b60008284111580610cf65750610cf483856118d7565b155b80610cff575081155b15610d0b575083610437565b81610d1684866118d7565b610d2090876118b8565b6104349190611896565b60008082600f0b12610d3c5781610d3f565b60005b92915050565b66038d7ea4c68006546040516370a0823160e01b81523060048201526000916001600160a01b0316906370a0823190602401602060405180830381865afa158015610d94573d6000803e3d6000fd5b505050506040513d601f19601f82011682018060405250810190610db89190611935565b9050600066038d7ea4c680075482610dd091906118d7565b66038d7ea4c680078390556004549091506000610ded82426118d7565b426004559050600062093a80610e038185611896565b610e0d91906118b8565b90506000805b6014811015610ec657610e2962093a8084611904565b915081421015610e7357610e3f86428787610cde565b60058466038d7ea4c680008110610e5857610e586118ee565b016000828254610e689190611904565b90915550610ec69050565b610e7f86838787610cde565b60058466038d7ea4c680008110610e9857610e986118ee565b016000828254610ea89190611904565b90915550508194508192508080610ebe9061191c565b915050610e13565b5060408051428152602081018790527fce749457b74e10f393f2c6b1ce4261b78791376db5a3f501477a809f03f500d6910160405180910390a1505050505050565b600083851015610f1a57506000610437565b6000610f2685876118d7565b9050610f3281846119c3565b600f0b84600f0b1215610f49576000915050610437565b610f60610f5682856119c3565b6106d79086611a61565b600f0b9695505050505050565b610fa16040518060a00160405280600081526020016000815260200160008152602001600081526020016000151581525090565b6000806000856001600160a01b031663e58f5947886040518263ffffffff1660e01b8152600401610fd491815260200190565b602060405180830381865afa158015610ff1573d6000803e3d6000fd5b505050506040513d601f19601f820116820180604052508101906110159190611935565b6000805491925082900361105c576040518060a00160405280600081526020016000815260200160008152602001600081526020016000151581525094505050505061041f565b600088815260026020526040812054908190036110865761107f888a8486610bea565b9450611098565b60008981526003602052604090205494505b846000036110a557600194505b6040516322565a1560e11b8152600481018a9052602481018690526000906001600160a01b038a16906344acb42a90604401608060405180830381865afa1580156110f4573d6000803e3d6000fd5b505050506040513d601f19601f82011682018060405250810190611118919061194e565b90508160000361115d5762093a8080600162093a80846040015161113c9190611904565b61114691906118d7565b6111509190611896565b61115a91906118b8565b91505b60045482106111a1576040518060a001604052806000815260200160008152602001600081526020016000815260200160001515815250965050505050505061041f565b828210156111ad578291505b6040805160808101825260008082526020820181905291810182905260608101829052905b6032811015611390578984101561139057826040015184101580156111f75750858811155b156112bd57611207600189611904565b9750829150858811156112465760405180608001604052806000600f0b81526020016000600f0b8152602001600081526020016000815250925061137e565b6040516322565a1560e11b8152600481018d9052602481018990526001600160a01b038c16906344acb42a90604401608060405180830381865afa158015611292573d6000803e3d6000fd5b505050506040513d601f19601f820116820180604052508101906112b6919061194e565b925061137e565b60008260400151856112cf91906118d7565b905060006112f28460200151836112e691906119c3565b85516106d79190611a61565b600f0b9050801580156113045750878a115b15611310575050611390565b66038d7ea4c680088666038d7ea4c68000811061132f5761132f6118ee565b015460058766038d7ea4c68000811061134a5761134a6118ee565b015461135690836118b8565b6113609190611896565b61136a908a611904565b985061137962093a8087611904565b955050505b806113888161191c565b9150506111d2565b506040518060a001604052808781526020016113b88760018b6113b391906118d7565b611644565b81526020810194909452604084019590955250506001606090910152509695505050505050565b6000611434826040518060400160405280602081526020017f5361666545524332303a206c6f772d6c6576656c2063616c6c206661696c6564815250856001600160a01b031661090c9092919063ffffffff16565b8051909150156114b157808060200190518101906114529190611af9565b6114b15760405162461bcd60e51b815260206004820152602a60248201527f5361666545524332303a204552433230206f7065726174696f6e20646964206e6044820152691bdd081cdd58d8d9595960b21b6064820152608401610752565b505050565b606083156114c557508161041f565b8251156114d55782518084602001fd5b8160405162461bcd60e51b81526004016107529190611b1b565b600080600090506000846001600160a01b031663900cf0cf6040518163ffffffff1660e01b8152600401602060405180830381865afa158015611536573d6000803e3d6000fd5b505050506040513d601f19601f8201168201806040525081019061155a9190611935565b905060005b608081101561163a578183101561163a576000600261157e8486611904565b611589906002611904565b6115939190611896565b604051638ad4c44760e01b8152600481018290529091506000906001600160a01b03891690638ad4c44790602401608060405180830381865afa1580156115de573d6000803e3d6000fd5b505050506040513d601f19601f82011682018060405250810190611602919061194e565b90508681604001511161161757819450611625565b6116226001836118d7565b93505b505080806116329061191c565b91505061155f565b5090949350505050565b6000818310611653578161041f565b5090919050565b60006020828403121561166c57600080fd5b5035919050565b80356001600160a01b038116811461168a57600080fd5b919050565b600080600080608085870312156116a557600080fd5b6116ae85611673565b966020860135965060408601359560600135945092505050565b634e487b7160e01b600052604160045260246000fd5b604051601f8201601f1916810167ffffffffffffffff81118282101715611707576117076116c8565b604052919050565b6000602080838503121561172257600080fd5b823567ffffffffffffffff8082111561173a57600080fd5b818501915085601f83011261174e57600080fd5b813581811115611760576117606116c8565b8060051b91506117718483016116de565b818152918301840191848101908884111561178b57600080fd5b938501935b838510156117a957843582529385019390850190611790565b98975050505050505050565b600080600080608085870312156117cb57600080fd5b5050823594602084013594506040840135936060013592509050565b600080604083850312156117fa57600080fd5b50508035926020909101359150565b80600f0b811461181857600080fd5b50565b6000806000806080858703121561183157600080fd5b8435935060208501359250604085013561184a81611809565b9150606085013561185a81611809565b939692955090935050565b60006020828403121561187757600080fd5b61041f82611673565b634e487b7160e01b600052601160045260246000fd5b6000826118b357634e487b7160e01b600052601260045260246000fd5b500490565b60008160001904831182151516156118d2576118d2611880565b500290565b6000828210156118e9576118e9611880565b500390565b634e487b7160e01b600052603260045260246000fd5b6000821982111561191757611917611880565b500190565b60006001820161192e5761192e611880565b5060010190565b60006020828403121561194757600080fd5b5051919050565b60006080828403121561196057600080fd5b6040516080810181811067ffffffffffffffff82111715611983576119836116c8565b604052825161199181611809565b815260208301516119a181611809565b6020820152604083810151908201526060928301519281019290925250919050565b600081600f0b83600f0b60016001607f1b036000821360008413838304851182821616156119f3576119f3611880565b6f7fffffffffffffffffffffffffffffff196000851282811687830587121615611a1f57611a1f611880565b60008712925085820587128484161615611a3b57611a3b611880565b85850587128184161615611a5157611a51611880565b5050509290910295945050505050565b600081600f0b83600f0b600081128160016001607f1b031901831281151615611a8c57611a8c611880565b8160016001607f1b03018313811615611aa757611aa7611880565b5090039392505050565b60005b83811015611acc578181015183820152602001611ab4565b838111156109065750506000910152565b60008251611aef818460208701611ab1565b9190910192915050565b600060208284031215611b0b57600080fd5b8151801515811461041f57600080fd5b6020815260008251806020840152611b3a816040850160208701611ab1565b601f01601f1916919091016040019291505056fea264697066735822122070efbe0bfbee39cc0c8db440b99a1e03b357907119b7b4624f4dc49eb975e7db64736f6c634300080d0033",
  "devdoc": {
    "kind": "dev",
    "methods": {
      "adjustToDistribute(uint256,uint256,uint256,uint256)": {
        "details": "For testing purposes."
      }
    },
    "version": 1
  },
  "userdoc": {
    "kind": "user",
    "methods": {},
    "version": 1
  },
  "storageLayout": {
    "storage": [
      {
        "astId": 13554,
        "contract": "contracts/base/vote/VeDist.sol:VeDist",
        "label": "startTime",
        "offset": 0,
        "slot": "0",
        "type": "t_uint256"
      },
      {
        "astId": 13556,
        "contract": "contracts/base/vote/VeDist.sol:VeDist",
        "label": "timeCursor",
        "offset": 0,
        "slot": "1",
        "type": "t_uint256"
      },
      {
        "astId": 13560,
        "contract": "contracts/base/vote/VeDist.sol:VeDist",
        "label": "timeCursorOf",
        "offset": 0,
        "slot": "2",
        "type": "t_mapping(t_uint256,t_uint256)"
      },
      {
        "astId": 13564,
        "contract": "contracts/base/vote/VeDist.sol:VeDist",
        "label": "userEpochOf",
        "offset": 0,
        "slot": "3",
        "type": "t_mapping(t_uint256,t_uint256)"
      },
      {
        "astId": 13566,
        "contract": "contracts/base/vote/VeDist.sol:VeDist",
        "label": "lastTokenTime",
        "offset": 0,
        "slot": "4",
        "type": "t_uint256"
      },
      {
        "astId": 13570,
        "contract": "contracts/base/vote/VeDist.sol:VeDist",
        "label": "tokensPerWeek",
        "offset": 0,
        "slot": "5",
        "type": "t_array(t_uint256)1000000000000000_storage"
      },
      {
        "astId": 13572,
        "contract": "contracts/base/vote/VeDist.sol:VeDist",
        "label": "votingEscrow",
        "offset": 0,
        "slot": "1000000000000005",
        "type": "t_address"
      },
      {
        "astId": 13574,
        "contract": "contracts/base/vote/VeDist.sol:VeDist",
        "label": "token",
        "offset": 0,
        "slot": "1000000000000006",
        "type": "t_address"
      },
      {
        "astId": 13576,
        "contract": "contracts/base/vote/VeDist.sol:VeDist",
        "label": "tokenLastBalance",
        "offset": 0,
        "slot": "1000000000000007",
        "type": "t_uint256"
      },
      {
        "astId": 13580,
        "contract": "contracts/base/vote/VeDist.sol:VeDist",
        "label": "veSupply",
        "offset": 0,
        "slot": "1000000000000008",
        "type": "t_array(t_uint256)1000000000000000_storage"
      },
      {
        "astId": 13582,
        "contract": "contracts/base/vote/VeDist.sol:VeDist",
        "label": "depositor",
        "offset": 0,
        "slot": "2000000000000008",
        "type": "t_address"
      }
    ],
    "types": {
      "t_address": {
        "encoding": "inplace",
        "label": "address",
        "numberOfBytes": "20"
      },
      "t_array(t_uint256)1000000000000000_storage": {
        "base": "t_uint256",
        "encoding": "inplace",
        "label": "uint256[1000000000000000]",
        "numberOfBytes": "32000000000000000"
      },
      "t_mapping(t_uint256,t_uint256)": {
        "encoding": "mapping",
        "key": "t_uint256",
        "label": "mapping(uint256 => uint256)",
        "numberOfBytes": "32",
        "value": "t_uint256"
      },
      "t_uint256": {
        "encoding": "inplace",
        "label": "uint256",
        "numberOfBytes": "32"
      }
    }
  }
}