{
  "address": "0xF4a86fAf8de375a640f53A294AF4DA34dC7959A3",
  "abi": [
    {
      "anonymous": false,
      "inputs": [
        {
          "indexed": false,
          "internalType": "uint256",
          "name": "tokenId",
          "type": "uint256"
        },
        {
          "indexed": false,
          "internalType": "int256",
          "name": "weight",
          "type": "int256"
        }
      ],
      "name": "Abstained",
      "type": "event"
    },
    {
      "anonymous": false,
      "inputs": [
        {
          "indexed": true,
          "internalType": "address",
          "name": "owner",
          "type": "address"
        },
        {
          "indexed": true,
          "internalType": "address",
          "name": "gauge",
          "type": "address"
        },
        {
          "indexed": false,
          "internalType": "uint256",
          "name": "tokenId",
          "type": "uint256"
        }
      ],
      "name": "Attach",
      "type": "event"
    },
    {
      "anonymous": false,
      "inputs": [
        {
          "indexed": true,
          "internalType": "address",
          "name": "lp",
          "type": "address"
        },
        {
          "indexed": true,
          "internalType": "address",
          "name": "gauge",
          "type": "address"
        },
        {
          "indexed": false,
          "internalType": "uint256",
          "name": "tokenId",
          "type": "uint256"
        },
        {
          "indexed": false,
          "internalType": "uint256",
          "name": "amount",
          "type": "uint256"
        }
      ],
      "name": "Deposit",
      "type": "event"
    },
    {
      "anonymous": false,
      "inputs": [
        {
          "indexed": true,
          "internalType": "address",
          "name": "owner",
          "type": "address"
        },
        {
          "indexed": true,
          "internalType": "address",
          "name": "gauge",
          "type": "address"
        },
        {
          "indexed": false,
          "internalType": "uint256",
          "name": "tokenId",
          "type": "uint256"
        }
      ],
      "name": "Detach",
      "type": "event"
    },
    {
      "anonymous": false,
      "inputs": [
        {
          "indexed": true,
          "internalType": "address",
          "name": "sender",
          "type": "address"
        },
        {
          "indexed": true,
          "internalType": "address",
          "name": "gauge",
          "type": "address"
        },
        {
          "indexed": false,
          "internalType": "uint256",
          "name": "amount",
          "type": "uint256"
        }
      ],
      "name": "DistributeReward",
      "type": "event"
    },
    {
      "anonymous": false,
      "inputs": [
        {
          "indexed": true,
          "internalType": "address",
          "name": "gauge",
          "type": "address"
        },
        {
          "indexed": false,
          "internalType": "address",
          "name": "creator",
          "type": "address"
        },
        {
          "indexed": true,
          "internalType": "address",
          "name": "bribe",
          "type": "address"
        },
        {
          "indexed": true,
          "internalType": "address",
          "name": "pool",
          "type": "address"
        }
      ],
      "name": "GaugeCreated",
      "type": "event"
    },
    {
      "anonymous": false,
      "inputs": [
        {
          "indexed": true,
          "internalType": "address",
          "name": "sender",
          "type": "address"
        },
        {
          "indexed": true,
          "internalType": "address",
          "name": "reward",
          "type": "address"
        },
        {
          "indexed": false,
          "internalType": "uint256",
          "name": "amount",
          "type": "uint256"
        }
      ],
      "name": "NotifyReward",
      "type": "event"
    },
    {
      "anonymous": false,
      "inputs": [
        {
          "indexed": true,
          "internalType": "address",
          "name": "voter",
          "type": "address"
        },
        {
          "indexed": false,
          "internalType": "uint256",
          "name": "tokenId",
          "type": "uint256"
        },
        {
          "indexed": false,
          "internalType": "int256",
          "name": "weight",
          "type": "int256"
        }
      ],
      "name": "Voted",
      "type": "event"
    },
    {
      "anonymous": false,
      "inputs": [
        {
          "indexed": true,
          "internalType": "address",
          "name": "whitelister",
          "type": "address"
        },
        {
          "indexed": true,
          "internalType": "address",
          "name": "token",
          "type": "address"
        }
      ],
      "name": "Whitelisted",
      "type": "event"
    },
    {
      "anonymous": false,
      "inputs": [
        {
          "indexed": true,
          "internalType": "address",
          "name": "lp",
          "type": "address"
        },
        {
          "indexed": true,
          "internalType": "address",
          "name": "gauge",
          "type": "address"
        },
        {
          "indexed": false,
          "internalType": "uint256",
          "name": "tokenId",
          "type": "uint256"
        },
        {
          "indexed": false,
          "internalType": "uint256",
          "name": "amount",
          "type": "uint256"
        }
      ],
      "name": "Withdraw",
      "type": "event"
    },
    {
      "inputs": [
        {
          "internalType": "uint256",
          "name": "tokenId",
          "type": "uint256"
        },
        {
          "internalType": "address",
          "name": "account",
          "type": "address"
        }
      ],
      "name": "attachTokenToGauge",
      "outputs": [],
      "stateMutability": "nonpayable",
      "type": "function"
    },
    {
      "inputs": [],
      "name": "bribeFactory",
      "outputs": [
        {
          "internalType": "address",
          "name": "",
          "type": "address"
        }
      ],
      "stateMutability": "view",
      "type": "function"
    },
    {
      "inputs": [
        {
          "internalType": "address",
          "name": "",
          "type": "address"
        }
      ],
      "name": "bribes",
      "outputs": [
        {
          "internalType": "address",
          "name": "",
          "type": "address"
        }
      ],
      "stateMutability": "view",
      "type": "function"
    },
    {
      "inputs": [
        {
          "internalType": "address[]",
          "name": "_bribes",
          "type": "address[]"
        },
        {
          "internalType": "address[][]",
          "name": "_tokens",
          "type": "address[][]"
        },
        {
          "internalType": "uint256",
          "name": "_tokenId",
          "type": "uint256"
        }
      ],
      "name": "claimBribes",
      "outputs": [],
      "stateMutability": "nonpayable",
      "type": "function"
    },
    {
      "inputs": [
        {
          "internalType": "address[]",
          "name": "_bribes",
          "type": "address[]"
        },
        {
          "internalType": "address[][]",
          "name": "_tokens",
          "type": "address[][]"
        },
        {
          "internalType": "uint256",
          "name": "_tokenId",
          "type": "uint256"
        }
      ],
      "name": "claimFees",
      "outputs": [],
      "stateMutability": "nonpayable",
      "type": "function"
    },
    {
      "inputs": [
        {
          "internalType": "address[]",
          "name": "_gauges",
          "type": "address[]"
        },
        {
          "internalType": "address[][]",
          "name": "_tokens",
          "type": "address[][]"
        }
      ],
      "name": "claimRewards",
      "outputs": [],
      "stateMutability": "nonpayable",
      "type": "function"
    },
    {
      "inputs": [
        {
          "internalType": "address",
          "name": "",
          "type": "address"
        }
      ],
      "name": "claimable",
      "outputs": [
        {
          "internalType": "uint256",
          "name": "",
          "type": "uint256"
        }
      ],
      "stateMutability": "view",
      "type": "function"
    },
    {
      "inputs": [
        {
          "internalType": "address",
          "name": "_pool",
          "type": "address"
        }
      ],
      "name": "createGauge",
      "outputs": [
        {
          "internalType": "address",
          "name": "",
          "type": "address"
        }
      ],
      "stateMutability": "nonpayable",
      "type": "function"
    },
    {
      "inputs": [
        {
          "internalType": "uint256",
          "name": "tokenId",
          "type": "uint256"
        },
        {
          "internalType": "address",
          "name": "account",
          "type": "address"
        }
      ],
      "name": "detachTokenFromGauge",
      "outputs": [],
      "stateMutability": "nonpayable",
      "type": "function"
    },
    {
      "inputs": [
        {
          "internalType": "address",
          "name": "_gauge",
          "type": "address"
        }
      ],
      "name": "distribute",
      "outputs": [],
      "stateMutability": "nonpayable",
      "type": "function"
    },
    {
      "inputs": [],
      "name": "distributeAll",
      "outputs": [],
      "stateMutability": "nonpayable",
      "type": "function"
    },
    {
      "inputs": [
        {
          "internalType": "address[]",
          "name": "_gauges",
          "type": "address[]"
        }
      ],
      "name": "distributeFees",
      "outputs": [],
      "stateMutability": "nonpayable",
      "type": "function"
    },
    {
      "inputs": [
        {
          "internalType": "address[]",
          "name": "_gauges",
          "type": "address[]"
        }
      ],
      "name": "distributeForGauges",
      "outputs": [],
      "stateMutability": "nonpayable",
      "type": "function"
    },
    {
      "inputs": [
        {
          "internalType": "uint256",
          "name": "start",
          "type": "uint256"
        },
        {
          "internalType": "uint256",
          "name": "finish",
          "type": "uint256"
        }
      ],
      "name": "distributeForPoolsInRange",
      "outputs": [],
      "stateMutability": "nonpayable",
      "type": "function"
    },
    {
      "inputs": [
        {
          "internalType": "uint256",
          "name": "tokenId",
          "type": "uint256"
        },
        {
          "internalType": "address",
          "name": "account",
          "type": "address"
        },
        {
          "internalType": "uint256",
          "name": "amount",
          "type": "uint256"
        }
      ],
      "name": "emitDeposit",
      "outputs": [],
      "stateMutability": "nonpayable",
      "type": "function"
    },
    {
      "inputs": [
        {
          "internalType": "uint256",
          "name": "tokenId",
          "type": "uint256"
        },
        {
          "internalType": "address",
          "name": "account",
          "type": "address"
        },
        {
          "internalType": "uint256",
          "name": "amount",
          "type": "uint256"
        }
      ],
      "name": "emitWithdraw",
      "outputs": [],
      "stateMutability": "nonpayable",
      "type": "function"
    },
    {
      "inputs": [],
      "name": "factory",
      "outputs": [
        {
          "internalType": "address",
          "name": "",
          "type": "address"
        }
      ],
      "stateMutability": "view",
      "type": "function"
    },
    {
      "inputs": [],
      "name": "gaugeFactory",
      "outputs": [
        {
          "internalType": "address",
          "name": "",
          "type": "address"
        }
      ],
      "stateMutability": "view",
      "type": "function"
    },
    {
      "inputs": [
        {
          "internalType": "address",
          "name": "",
          "type": "address"
        }
      ],
      "name": "gauges",
      "outputs": [
        {
          "internalType": "address",
          "name": "",
          "type": "address"
        }
      ],
      "stateMutability": "view",
      "type": "function"
    },
    {
      "inputs": [],
      "name": "index",
      "outputs": [
        {
          "internalType": "uint256",
          "name": "",
          "type": "uint256"
        }
      ],
      "stateMutability": "view",
      "type": "function"
    },
    {
      "inputs": [
        {
          "internalType": "address[]",
          "name": "_tokens",
          "type": "address[]"
        },
        {
          "internalType": "address",
          "name": "_minter",
          "type": "address"
        }
      ],
      "name": "init",
      "outputs": [],
      "stateMutability": "nonpayable",
      "type": "function"
    },
    {
      "inputs": [
        {
          "internalType": "address",
          "name": "_ve",
          "type": "address"
        },
        {
          "internalType": "address",
          "name": "_factory",
          "type": "address"
        },
        {
          "internalType": "address",
          "name": "_gaugeFactory",
          "type": "address"
        },
        {
          "internalType": "address",
          "name": "_bribeFactory",
          "type": "address"
        },
        {
          "internalType": "address",
          "name": "_minter",
          "type": "address"
        }
      ],
      "name": "initialize",
      "outputs": [],
      "stateMutability": "nonpayable",
      "type": "function"
    },
    {
      "inputs": [
        {
          "internalType": "address",
          "name": "",
          "type": "address"
        }
      ],
      "name": "isGauge",
      "outputs": [
        {
          "internalType": "bool",
          "name": "",
          "type": "bool"
        }
      ],
      "stateMutability": "view",
      "type": "function"
    },
    {
      "inputs": [
        {
          "internalType": "address",
          "name": "",
          "type": "address"
        }
      ],
      "name": "isWhitelisted",
      "outputs": [
        {
          "internalType": "bool",
          "name": "",
          "type": "bool"
        }
      ],
      "stateMutability": "view",
      "type": "function"
    },
    {
      "inputs": [],
      "name": "listingFee",
      "outputs": [
        {
          "internalType": "uint256",
          "name": "",
          "type": "uint256"
        }
      ],
      "stateMutability": "view",
      "type": "function"
    },
    {
      "inputs": [],
      "name": "minter",
      "outputs": [
        {
          "internalType": "address",
          "name": "",
          "type": "address"
        }
      ],
      "stateMutability": "view",
      "type": "function"
    },
    {
      "inputs": [
        {
          "internalType": "uint256",
          "name": "amount",
          "type": "uint256"
        }
      ],
      "name": "notifyRewardAmount",
      "outputs": [],
      "stateMutability": "nonpayable",
      "type": "function"
    },
    {
      "inputs": [
        {
          "internalType": "uint256",
          "name": "_tokenId",
          "type": "uint256"
        }
      ],
      "name": "poke",
      "outputs": [],
      "stateMutability": "nonpayable",
      "type": "function"
    },
    {
      "inputs": [
        {
          "internalType": "address",
          "name": "",
          "type": "address"
        }
      ],
      "name": "poolForGauge",
      "outputs": [
        {
          "internalType": "address",
          "name": "",
          "type": "address"
        }
      ],
      "stateMutability": "view",
      "type": "function"
    },
    {
      "inputs": [
        {
          "internalType": "uint256",
          "name": "",
          "type": "uint256"
        },
        {
          "internalType": "uint256",
          "name": "",
          "type": "uint256"
        }
      ],
      "name": "poolVote",
      "outputs": [
        {
          "internalType": "address",
          "name": "",
          "type": "address"
        }
      ],
      "stateMutability": "view",
      "type": "function"
    },
    {
      "inputs": [
        {
          "internalType": "uint256",
          "name": "",
          "type": "uint256"
        }
      ],
      "name": "pools",
      "outputs": [
        {
          "internalType": "address",
          "name": "",
          "type": "address"
        }
      ],
      "stateMutability": "view",
      "type": "function"
    },
    {
      "inputs": [],
      "name": "poolsLength",
      "outputs": [
        {
          "internalType": "uint256",
          "name": "",
          "type": "uint256"
        }
      ],
      "stateMutability": "view",
      "type": "function"
    },
    {
      "inputs": [
        {
          "internalType": "address",
          "name": "_token",
          "type": "address"
        },
        {
          "internalType": "address",
          "name": "_gaugeOrBribe",
          "type": "address"
        },
        {
          "internalType": "uint256",
          "name": "_tokenId",
          "type": "uint256"
        }
      ],
      "name": "registerRewardToken",
      "outputs": [],
      "stateMutability": "nonpayable",
      "type": "function"
    },
    {
      "inputs": [
        {
          "internalType": "address",
          "name": "_token",
          "type": "address"
        },
        {
          "internalType": "address",
          "name": "_gaugeOrBribe",
          "type": "address"
        },
        {
          "internalType": "uint256",
          "name": "_tokenId",
          "type": "uint256"
        }
      ],
      "name": "removeRewardToken",
      "outputs": [],
      "stateMutability": "nonpayable",
      "type": "function"
    },
    {
      "inputs": [
        {
          "internalType": "uint256",
          "name": "_tokenId",
          "type": "uint256"
        }
      ],
      "name": "reset",
      "outputs": [],
      "stateMutability": "nonpayable",
      "type": "function"
    },
    {
      "inputs": [
        {
          "internalType": "address",
          "name": "",
          "type": "address"
        }
      ],
      "name": "supplyIndex",
      "outputs": [
        {
          "internalType": "uint256",
          "name": "",
          "type": "uint256"
        }
      ],
      "stateMutability": "view",
      "type": "function"
    },
    {
      "inputs": [],
      "name": "token",
      "outputs": [
        {
          "internalType": "address",
          "name": "",
          "type": "address"
        }
      ],
      "stateMutability": "view",
      "type": "function"
    },
    {
      "inputs": [],
      "name": "totalWeight",
      "outputs": [
        {
          "internalType": "uint256",
          "name": "",
          "type": "uint256"
        }
      ],
      "stateMutability": "view",
      "type": "function"
    },
    {
      "inputs": [],
      "name": "updateAll",
      "outputs": [],
      "stateMutability": "nonpayable",
      "type": "function"
    },
    {
      "inputs": [
        {
          "internalType": "address[]",
          "name": "_gauges",
          "type": "address[]"
        }
      ],
      "name": "updateFor",
      "outputs": [],
      "stateMutability": "nonpayable",
      "type": "function"
    },
    {
      "inputs": [
        {
          "internalType": "uint256",
          "name": "start",
          "type": "uint256"
        },
        {
          "internalType": "uint256",
          "name": "end",
          "type": "uint256"
        }
      ],
      "name": "updateForRange",
      "outputs": [],
      "stateMutability": "nonpayable",
      "type": "function"
    },
    {
      "inputs": [
        {
          "internalType": "address",
          "name": "_gauge",
          "type": "address"
        }
      ],
      "name": "updateGauge",
      "outputs": [],
      "stateMutability": "nonpayable",
      "type": "function"
    },
    {
      "inputs": [
        {
          "internalType": "uint256",
          "name": "",
          "type": "uint256"
        }
      ],
      "name": "usedWeights",
      "outputs": [
        {
          "internalType": "uint256",
          "name": "",
          "type": "uint256"
        }
      ],
      "stateMutability": "view",
      "type": "function"
    },
    {
      "inputs": [],
      "name": "ve",
      "outputs": [
        {
          "internalType": "address",
          "name": "",
          "type": "address"
        }
      ],
      "stateMutability": "view",
      "type": "function"
    },
    {
      "inputs": [
        {
          "internalType": "uint256",
          "name": "tokenId",
          "type": "uint256"
        },
        {
          "internalType": "address[]",
          "name": "_poolVote",
          "type": "address[]"
        },
        {
          "internalType": "int256[]",
          "name": "_weights",
          "type": "int256[]"
        }
      ],
      "name": "vote",
      "outputs": [],
      "stateMutability": "nonpayable",
      "type": "function"
    },
    {
      "inputs": [
        {
          "internalType": "uint256",
          "name": "",
          "type": "uint256"
        },
        {
          "internalType": "address",
          "name": "",
          "type": "address"
        }
      ],
      "name": "votes",
      "outputs": [
        {
          "internalType": "int256",
          "name": "",
          "type": "int256"
        }
      ],
      "stateMutability": "view",
      "type": "function"
    },
    {
      "inputs": [
        {
          "internalType": "address",
          "name": "",
          "type": "address"
        }
      ],
      "name": "weights",
      "outputs": [
        {
          "internalType": "int256",
          "name": "",
          "type": "int256"
        }
      ],
      "stateMutability": "view",
      "type": "function"
    },
    {
      "inputs": [
        {
          "internalType": "address",
          "name": "_token",
          "type": "address"
        },
        {
          "internalType": "uint256",
          "name": "_tokenId",
          "type": "uint256"
        }
      ],
      "name": "whitelist",
      "outputs": [],
      "stateMutability": "nonpayable",
      "type": "function"
    }
  ],
  "transactionHash": "0x113bf59aedeaae2622ea38862488f0983cf5ae3e0e93f0b9968faf8714e30d2f",
  "args": [],
  "numDeployments": 1,
  "solcInputHash": "3b3b283a31496f0704cc082007acea88",
  "bytecode": "0x6080604052600160005534801561001557600080fd5b50613842806100256000396000f3fe608060405234801561001057600080fd5b50600436106102a05760003560e01c80637715ee7511610167578063ac4afa38116100ce578063ddbe883c11610087578063ddbe883c14610663578063e380fcad14610676578063ea94ee4414610696578063eb4a78e0146106a9578063fc0c546a146106bc578063fecdad60146106cf57600080fd5b8063ac4afa38146105c3578063b9a09fd5146105d6578063c45a0155146105ff578063c527ee1f14610612578063d23254b414610625578063d560b0d71461065057600080fd5b8063a5f4301e11610120578063a5f4301e1461051e578063a61c713a14610531578063a7cac84614610544578063a86a366d14610564578063a8c5d95a14610577578063aa79979b146105a057600080fd5b80637715ee75146104a957806379e93824146104bc5780637e1ddf64146104dc57806396c82e57146104ef57806398fc55d8146104f85780639b6a9d721461050b57600080fd5b80633c6b16ab1161020b57806353f38e6b116101c457806353f38e6b1461044257806363453ae114610455578063666256aa14610468578063698473e31461047b5780636a1b7ecc1461048e5780636ecbe38a1461049657600080fd5b80633c6b16ab146103d9578063402914f5146103ec578063411b1f771461040c578063436596c41461041f5780634c6e62b61461042757806353d786931461043a57600080fd5b806320b1cb6f1161025d57806320b1cb6f146103525780632716ae66146103655780632986c0e514610377578063310bd74b1461038057806332145f90146103935780633af32abf146103a657600080fd5b806306d6a1b2146102a557806307546172146102eb5780630d52333c146102fe5780631459457a146103115780631f850716146103265780632025e9b81461033f575b600080fd5b6102ce6102b3366004612e81565b600a602052600090815260409020546001600160a01b031681565b6040516001600160a01b0390911681526020015b60405180910390f35b6006546102ce906001600160a01b031681565b6004546102ce906001600160a01b031681565b61032461031f366004612e9e565b6106e2565b005b6001546102ce906201000090046001600160a01b031681565b61032461034d366004612fee565b610890565b6103246103603660046130ab565b6108d4565b6008545b6040519081526020016102e2565b61036960125481565b61032461038e36600461310f565b61098a565b6103246103a136600461310f565b610a8d565b6103c96103b4366004612e81565b60116020526000908152604090205460ff1681565b60405190151581526020016102e2565b6103246103e736600461310f565b610bdd565b6103696103fa366004612e81565b60146020526000908152604090205481565b61032461041a366004613128565b610cfb565b610324610dd9565b610324610435366004613158565b610e43565b610324610ffd565b610324610450366004613199565b61100e565b610324610463366004612e81565b611044565b6103246104763660046131bb565b611050565b610324610489366004613128565b611195565b61036961126a565b6103246104a4366004612e81565b611279565b6103246104b73660046131bb565b611282565b6103696104ca36600461310f565b600f6020526000908152604090205481565b6103246104ea366004613228565b6113c7565b61036960075481565b61032461050636600461326f565b61146f565b610324610519366004613199565b6115d1565b6102ce61052c366004612e81565b611637565b61032461053f36600461329b565b611b25565b610369610552366004612e81565b600c6020526000908152604090205481565b6102ce610572366004613199565b611b97565b6102ce610585366004612e81565b600b602052600090815260409020546001600160a01b031681565b6103c96105ae366004612e81565b60106020526000908152604090205460ff1681565b6102ce6105d136600461310f565b611bcf565b6102ce6105e4366004612e81565b6009602052600090815260409020546001600160a01b031681565b6002546102ce906001600160a01b031681565b610324610620366004612fee565b611bf9565b610369610633366004613128565b600d60209081526000928352604080842090915290825290205481565b61032461065e366004612fee565b611c96565b610324610671366004613158565b611cd6565b610369610684366004612e81565b60136020526000908152604090205481565b6103246106a436600461329b565b611e5d565b6005546102ce906001600160a01b031681565b6003546102ce906001600160a01b031681565b6103246106dd36600461330e565b611ecf565b600154610100900460ff166106fd5760015460ff1615610701565b303b155b6107695760405162461bcd60e51b815260206004820152602e60248201527f496e697469616c697a61626c653a20636f6e747261637420697320616c72656160448201526d191e481a5b9a5d1a585b1a5e995960921b60648201526084015b60405180910390fd5b600154610100900460ff1615801561078b576001805461ffff19166101011790555b6001805462010000600160b01b031916620100006001600160a01b0389811691820292909217909255600280546001600160a01b03191691881691909117905560408051637e062a3560e11b8152905163fc0c546a916004808201926020929091908290030181865afa158015610806573d6000803e3d6000fd5b505050506040513d601f19601f8201168201806040525081019061082a9190613388565b600380546001600160a01b03199081166001600160a01b03938416179091556004805482168784161790556005805482168684161790556006805490911691841691909117905560016000558015610888576001805461ff00191690555b505050505050565b60005b81518110156108d0576108be8282815181106108b1576108b16133a5565b602002602001015161200a565b806108c8816133d1565b915050610893565b5050565b60005b8251811015610985578281815181106108f2576108f26133a5565b60200260200101516001600160a01b03166331279d3d3384848151811061091b5761091b6133a5565b60200260200101516040518363ffffffff1660e01b815260040161094092919061342e565b600060405180830381600087803b15801561095a57600080fd5b505af115801561096e573d6000803e3d6000fd5b50505050808061097d906133d1565b9150506108d7565b505050565b60015460405163430c208160e01b815233600482015260248101839052620100009091046001600160a01b03169063430c208190604401602060405180830381865afa1580156109de573d6000803e3d6000fd5b505050506040513d601f19601f82011682018060405250810190610a029190613452565b610a1e5760405162461bcd60e51b815260040161076090613474565b610a2781612236565b60015460405163c1f0fb9f60e01b815260048101839052620100009091046001600160a01b03169063c1f0fb9f90602401600060405180830381600087803b158015610a7257600080fd5b505af1158015610a86573d6000803e3d6000fd5b5050505050565b6000818152600e6020908152604080832080548251818502810185019093528083529192909190830182828015610aed57602002820191906000526020600020905b81546001600160a01b03168152600190910190602001808311610acf575b5050505050905060008151905060008167ffffffffffffffff811115610b1557610b15612f0f565b604051908082528060200260200182016040528015610b3e578160200160208202803683370190505b50905060005b82811015610bcb57600d60008681526020019081526020016000206000858381518110610b7357610b736133a5565b60200260200101516001600160a01b03166001600160a01b0316815260200190815260200160002054828281518110610bae57610bae6133a5565b602090810291909101015280610bc3816133d1565b915050610b44565b50610bd7848483612446565b50505050565b80600003610c1b5760405162461bcd60e51b815260206004820152600b60248201526a1e995c9bc8185b5bdd5b9d60aa1b6044820152606401610760565b6007546000819003610c5a5760405162461bcd60e51b8152602060048201526008602482015267217765696768747360c01b6044820152606401610760565b600354610c72906001600160a01b03163330856128ab565b600081610c8784670de0b6b3a7640000613494565b610c9191906134c9565b90508015610cb1578060126000828254610cab91906134dd565b90915550505b6003546040518481526001600160a01b039091169033907ff70d5c697de7ea828df48e5c4573cb2194c659f1901f70110c52b066dcf50826906020015b60405180910390a3505050565b3360009081526010602052604090205460ff16610d2a5760405162461bcd60e51b8152600401610760906134f5565b8115610d9457600154604051634c3c15a760e11b815260048101849052620100009091046001600160a01b0316906398782b4e90602401600060405180830381600087803b158015610d7b57600080fd5b505af1158015610d8f573d6000803e3d6000fd5b505050505b60405182815233906001600160a01b038316907fae268d9aab12f3605f58efd74fd3801fa812b03fdb44317eb70f46dff0e19e22906020015b60405180910390a35050565b60085460005b818110156108d057610e316009600060088481548110610e0157610e016133a5565b60009182526020808320909101546001600160a01b0390811684529083019390935260409091019020541661200a565b80610e3b816133d1565b915050610ddf565b60008111610e635760405162461bcd60e51b815260040161076090613515565b6001546040516331a9108f60e11b815260048101839052620100009091046001600160a01b031690636352211e90602401602060405180830381865afa158015610eb1573d6000803e3d6000fd5b505050506040513d601f19601f82011682018060405250810190610ed59190613388565b6001600160a01b0316336001600160a01b031614610f055760405162461bcd60e51b815260040161076090613474565b610f0d612916565b6001546040516339f890b560e21b815260048101849052620100009091046001600160a01b03169063e7e242d490602401602060405180830381865afa158015610f5b573d6000803e3d6000fd5b505050506040513d601f19601f82011682018060405250810190610f7f9190613535565b11610f9c5760405162461bcd60e51b81526004016107609061354e565b604051631c8db79360e31b81526001600160a01b03848116600483015283169063e46dbc98906024015b600060405180830381600087803b158015610fe057600080fd5b505af1158015610ff4573d6000803e3d6000fd5b50505050505050565b60085461100c906000906115d1565b565b815b81811015610985576110326009600060088481548110610e0157610e016133a5565b8061103c816133d1565b915050611010565b61104d8161200a565b50565b60015460405163430c208160e01b815233600482015260248101839052620100009091046001600160a01b03169063430c208190604401602060405180830381865afa1580156110a4573d6000803e3d6000fd5b505050506040513d601f19601f820116820180604052508101906110c89190613452565b6110e45760405162461bcd60e51b815260040161076090613474565b60005b8351811015610bd757838181518110611102576111026133a5565b60200260200101516001600160a01b031663a7852afa8385848151811061112b5761112b6133a5565b60200260200101516040518363ffffffff1660e01b815260040161115092919061356e565b600060405180830381600087803b15801561116a57600080fd5b505af115801561117e573d6000803e3d6000fd5b50505050808061118d906133d1565b9150506110e7565b3360009081526010602052604090205460ff166111c45760405162461bcd60e51b8152600401610760906134f5565b811561122d576001546040516246b3bd60e81b815260048101849052620100009091046001600160a01b0316906346b3bd0090602401600060405180830381600087803b15801561121457600080fd5b505af1158015611228573d6000803e3d6000fd5b505050505b60405182815233906001600160a01b038316907f60940192810a6fb3bce3fd3e2e3a13fd6ccc7605e963fb87ee971aba829989bd90602001610dcd565b6000611274612916565b905090565b61104d81612a1c565b60015460405163430c208160e01b815233600482015260248101839052620100009091046001600160a01b03169063430c208190604401602060405180830381865afa1580156112d6573d6000803e3d6000fd5b505050506040513d601f19601f820116820180604052508101906112fa9190613452565b6113165760405162461bcd60e51b815260040161076090613474565b60005b8351811015610bd757838181518110611334576113346133a5565b60200260200101516001600160a01b031663a7852afa8385848151811061135d5761135d6133a5565b60200260200101516040518363ffffffff1660e01b815260040161138292919061356e565b600060405180830381600087803b15801561139c57600080fd5b505af11580156113b0573d6000803e3d6000fd5b5050505080806113bf906133d1565b915050611319565b6006546001600160a01b0316331461140b5760405162461bcd60e51b815260206004820152600760248201526610b6b4b73a32b960c91b6044820152606401610760565b60005b825181101561144b5761143983828151811061142c5761142c6133a5565b6020026020010151612aff565b80611443816133d1565b91505061140e565b50600680546001600160a01b0319166001600160a01b039290921691909117905550565b6000811161148f5760405162461bcd60e51b815260040161076090613515565b6001546040516331a9108f60e11b815260048101839052620100009091046001600160a01b031690636352211e90602401602060405180830381865afa1580156114dd573d6000803e3d6000fd5b505050506040513d601f19601f820116820180604052508101906115019190613388565b6001600160a01b0316336001600160a01b0316146115315760405162461bcd60e51b815260040161076090613474565b611539612916565b6001546040516339f890b560e21b815260048101849052620100009091046001600160a01b03169063e7e242d490602401602060405180830381865afa158015611587573d6000803e3d6000fd5b505050506040513d601f19601f820116820180604052508101906115ab9190613535565b116115c85760405162461bcd60e51b81526004016107609061354e565b6108d082612aff565b815b818110156109855761162560096000600884815481106115f5576115f56133a5565b60009182526020808320909101546001600160a01b03908116845290830193909352604090910190205416612a1c565b8061162f816133d1565b9150506115d3565b6001600160a01b038181166000908152600960205260408120549091161561168a5760405162461bcd60e51b815260206004820152600660248201526565786973747360d01b6044820152606401610760565b60025460405163e5e31b1360e01b81526001600160a01b0384811660048301529091169063e5e31b1390602401602060405180830381865afa1580156116d4573d6000803e3d6000fd5b505050506040513d601f19601f820116820180604052508101906116f89190613452565b61172c5760405162461bcd60e51b8152602060048201526005602482015264085c1bdbdb60da1b6044820152606401610760565b600080836001600160a01b0316639d63848a6040518163ffffffff1660e01b81526004016040805180830381865afa15801561176c573d6000803e3d6000fd5b505050506040513d601f19601f820116820180604052508101906117909190613587565b6001600160a01b038216600090815260116020526040902054919350915060ff1680156117d557506001600160a01b03811660009081526011602052604090205460ff165b6118105760405162461bcd60e51b815260206004820152600c60248201526b085dda1a5d195b1a5cdd195960a21b6044820152606401610760565b60408051600380825260808201909252600091602082016060803683370190505090508281600081518110611847576118476133a5565b60200260200101906001600160a01b031690816001600160a01b031681525050818160018151811061187b5761187b6133a5565b6001600160a01b0392831660209182029290920101526003548116908416148015906118b557506003546001600160a01b03838116911614155b156118ff5760035481516001600160a01b0390911690829060029081106118de576118de6133a5565b60200260200101906001600160a01b031690816001600160a01b0316815250505b60055460405163897cd6b360e01b81526000916001600160a01b03169063897cd6b3906119309085906004016135b6565b6020604051808303816000875af115801561194f573d6000803e3d6000fd5b505050506040513d601f19601f820116820180604052508101906119739190613388565b600480546001546040516358c14b6560e01b81529394506000936001600160a01b03928316936358c14b65936119ba938d93899362010000909204909216918a91016135c9565b6020604051808303816000875af11580156119d9573d6000803e3d6000fd5b505050506040513d601f19601f820116820180604052508101906119fd9190613388565b600354909150611a19906001600160a01b031682600019612bab565b6001600160a01b038082166000818152600b6020908152604080832080548689166001600160a01b031991821617909155948c16808452600983528184208054871686179055938352600a8252808320805490951690931790935560109092529020805460ff19166001179055611a8f81612a1c565b600880546001810182556000919091527ff3f7a9fe364faab93b216da50a3214154f22a0a2b415b23a84c8169e8b636ee30180546001600160a01b0319166001600160a01b03898116918217909255604051338152909184811691908416907f48d3c521fd0d5541640f58c6d6381eed7cb2e8c9df421ae165a4f4c2d221ee0d9060200160405180910390a49695505050505050565b3360009081526010602052604090205460ff16611b545760405162461bcd60e51b8152600401610760906134f5565b604080518481526020810183905233916001600160a01b038516917fdcbc1c05240f31ff3ad067ef1ee35ce4997762752e3a095284754544f4c709d79101610cee565b600e6020528160005260406000208181548110611bb357600080fd5b6000918252602090912001546001600160a01b03169150829050565b60088181548110611bdf57600080fd5b6000918252602090912001546001600160a01b0316905081565b60005b81518110156108d057818181518110611c1757611c176133a5565b60200260200101516001600160a01b031663d294f0936040518163ffffffff1660e01b815260040160408051808303816000875af1158015611c5d573d6000803e3d6000fd5b505050506040513d601f19601f82011682018060405250810190611c819190613607565b50508080611c8e906133d1565b915050611bfc565b60005b81518110156108d057611cc4828281518110611cb757611cb76133a5565b6020026020010151612a1c565b80611cce816133d1565b915050611c99565b60008111611cf65760405162461bcd60e51b815260040161076090613515565b6001546040516331a9108f60e11b815260048101839052620100009091046001600160a01b031690636352211e90602401602060405180830381865afa158015611d44573d6000803e3d6000fd5b505050506040513d601f19601f82011682018060405250810190611d689190613388565b6001600160a01b0316336001600160a01b031614611d985760405162461bcd60e51b815260040161076090613474565b611da0612916565b6001546040516339f890b560e21b815260048101849052620100009091046001600160a01b03169063e7e242d490602401602060405180830381865afa158015611dee573d6000803e3d6000fd5b505050506040513d601f19601f82011682018060405250810190611e129190613535565b11611e2f5760405162461bcd60e51b81526004016107609061354e565b604051633d509c9760e01b81526001600160a01b038481166004830152831690633d509c9790602401610fc6565b3360009081526010602052604090205460ff16611e8c5760405162461bcd60e51b8152600401610760906134f5565b604080518481526020810183905233916001600160a01b038516917ff341246adaac6f497bc2a656f546ab9e182111d630394f0c57c710a59a2cb5679101610cee565b60015460405163430c208160e01b815233600482015260248101879052620100009091046001600160a01b03169063430c208190604401602060405180830381865afa158015611f23573d6000803e3d6000fd5b505050506040513d601f19601f82011682018060405250810190611f479190613452565b611f635760405162461bcd60e51b815260040161076090613474565b828114611f9c5760405162461bcd60e51b81526020600482015260076024820152662161727261797360c81b6044820152606401610760565b610a86858585808060200260200160405190810160405280939291908181526020018383602002808284376000920191909152505060408051602080890282810182019093528882529093508892508791829185019084908082843760009201919091525061244692505050565b60005460011461204d5760405162461bcd60e51b815260206004820152600e60248201526d1499595b9d1c985b9d0818d85b1b60921b6044820152606401610760565b6002600081905550600660009054906101000a90046001600160a01b03166001600160a01b031663a83627de6040518163ffffffff1660e01b81526004016020604051808303816000875af11580156120aa573d6000803e3d6000fd5b505050506040513d601f19601f820116820180604052508101906120ce9190613535565b506120d881612a1c565b6001600160a01b0381811660008181526014602052604090819020546003549151634cde602960e11b81529190931660048201526399bcc05290602401602060405180830381865afa158015612132573d6000803e3d6000fd5b505050506040513d601f19601f820116820180604052508101906121569190613535565b811180156121705750600061216e62093a80836134c9565b115b1561222d576001600160a01b0382811660008181526014602052604080822091909155600354905163b66503cf60e01b815292166004830152602482018390529063b66503cf90604401600060405180830381600087803b1580156121d457600080fd5b505af11580156121e8573d6000803e3d6000fd5b50506040518381526001600160a01b03851692503391507f4fa9693cae526341d334e2862ca2413b2e503f1266255f9e0869fb36e6d89b179060200160405180910390a35b50506001600055565b6000818152600e6020526040812080549091805b8281101561240a576000848281548110612266576122666133a5565b6000918252602080832090910154888352600d825260408084206001600160a01b0392831680865290845281852054600990945293205492935090916122ac9116612a1c565b6001600160a01b0382166000908152600c6020526040812080548392906122d490849061362b565b90915550506000878152600d602090815260408083206001600160a01b03861684529091528120805483929061230b90849061362b565b909155505060008113156123af576001600160a01b0382811660009081526009602090815260408083205484168352600b9091529081902054905163278afc8b60e21b815260048101849052602481018a9052911690639e2bf22c90604401600060405180830381600087803b15801561238457600080fd5b505af1158015612398573d6000803e3d6000fd5b5050505080846123a8919061366a565b93506123bc565b6123b9818561362b565b93505b60408051888152602081018390527f6b3894ce60b9bbe9d93f1a4e6fc25b6b93cd8222e73ab6348d79c596f5b51de9910160405180910390a150508080612402906133d1565b91505061224a565b50806007600082825461241d91906136ab565b90915550506000848152600f60209081526040808320839055600e9091528120610bd791612e3a565b61244f83612236565b81516001546040516339f890b560e21b8152600481018690526000916201000090046001600160a01b03169063e7e242d490602401602060405180830381865afa1580156124a1573d6000803e3d6000fd5b505050506040513d601f19601f820116820180604052508101906124c59190613535565b90506000806000805b858110156125585760008782815181106124ea576124ea6133a5565b60200260200101511361251f57868181518110612509576125096133a5565b602002602001015161251a906136c2565b61253a565b868181518110612531576125316133a5565b60200260200101515b612544908561366a565b935080612550816133d1565b9150506124ce565b5060005b8581101561280b576000888281518110612578576125786133a5565b6020908102919091018101516001600160a01b038082166000908152600990935260408320548b51929450169190879089908c90879081106125bc576125bc6133a5565b60200260200101516125ce91906136de565b6125d89190613763565b60008d8152600d602090815260408083206001600160a01b03881684529091529020549091501561263c5760405162461bcd60e51b815260206004820152600e60248201526d191d5c1b1a58d85d19481c1bdbdb60921b6044820152606401610760565b806000036126795760405162461bcd60e51b815260206004820152600a6024820152693d32b937903837bbb2b960b11b6044820152606401610760565b61268282612a1c565b60008c8152600e6020908152604080832080546001810182559084528284200180546001600160a01b0319166001600160a01b0388169081179091558352600c909152812080548392906126d790849061366a565b909155505060008c8152600d602090815260408083206001600160a01b03871684529091528120805483929061270e90849061366a565b90915550506000811315612795576001600160a01b038083166000908152600b60205260409081902054905163f320772360e01b815260048101849052602481018f905291169063f320772390604401600060405180830381600087803b15801561277857600080fd5b505af115801561278c573d6000803e3d6000fd5b505050506127a1565b61279e816136c2565b90505b6127ab818661366a565b94506127b7818761366a565b604080518e81526020810184905291975033917f1263a2295e53acd6ef8f655b8afc11fa0f2cf11925be7aa1757d741ef32a926c910160405180910390a25050508080612803906133d1565b91505061255c565b5060008113156128795760015460405163fd4a77f160e01b8152600481018a9052620100009091046001600160a01b03169063fd4a77f190602401600060405180830381600087803b15801561286057600080fd5b505af1158015612874573d6000803e3d6000fd5b505050505b816007600082825461288b91906134dd565b90915550506000978852600f602052604090972096909655505050505050565b6040516001600160a01b0380851660248301528316604482015260648101829052610bd79085906323b872dd60e01b906084015b60408051601f198184030181529190526020810180516001600160e01b03166001600160e01b031990931692909217909152612c5d565b60006005600160029054906101000a90046001600160a01b03166001600160a01b03166318160ddd6040518163ffffffff1660e01b8152600401602060405180830381865afa15801561296d573d6000803e3d6000fd5b505050506040513d601f19601f820116820180604052508101906129919190613535565b600360009054906101000a90046001600160a01b03166001600160a01b03166318160ddd6040518163ffffffff1660e01b8152600401602060405180830381865afa1580156129e4573d6000803e3d6000fd5b505050506040513d601f19601f82011682018060405250810190612a089190613535565b612a1291906136ab565b61127491906134c9565b6001600160a01b038082166000908152600a6020908152604080832054909316808352600c9091529181205490811315612ade576001600160a01b038316600090815260136020526040812080546012549182905591612a7c83836136ab565b90508015610888576000670de0b6b3a7640000612a998387613494565b612aa391906134c9565b6001600160a01b038816600090815260146020526040812080549293508392909190612ad09084906134dd565b909155505050505050505050565b6012546001600160a01b038416600090815260136020526040902055505050565b6001600160a01b03811660009081526011602052604090205460ff1615612b5e5760405162461bcd60e51b8152602060048201526013602482015272185b1c9958591e481dda1a5d195b1a5cdd1959606a1b6044820152606401610760565b6001600160a01b038116600081815260116020526040808220805460ff191660011790555133917f6661a7108aecd07864384529117d96c319c1163e3010c01390f6b704726e07de91a350565b604051636eb1769f60e11b81523060048201526001600160a01b038381166024830152600091839186169063dd62ed3e90604401602060405180830381865afa158015612bfc573d6000803e3d6000fd5b505050506040513d601f19601f82011682018060405250810190612c209190613535565b612c2a91906134dd565b6040516001600160a01b038516602482015260448101829052909150610bd790859063095ea7b360e01b906064016128df565b6000612cb2826040518060400160405280602081526020017f5361666545524332303a206c6f772d6c6576656c2063616c6c206661696c6564815250856001600160a01b0316612d2f9092919063ffffffff16565b8051909150156109855780806020019051810190612cd09190613452565b6109855760405162461bcd60e51b815260206004820152602a60248201527f5361666545524332303a204552433230206f7065726174696f6e20646964206e6044820152691bdd081cdd58d8d9595960b21b6064820152608401610760565b60606001600160a01b0384163b612d885760405162461bcd60e51b815260206004820152601d60248201527f416464726573733a2063616c6c20746f206e6f6e2d636f6e74726163740000006044820152606401610760565b600080856001600160a01b031685604051612da391906137bd565b6000604051808303816000865af19150503d8060008114612de0576040519150601f19603f3d011682016040523d82523d6000602084013e612de5565b606091505b5091509150612df5828286612e01565b925050505b9392505050565b60608315612e10575081612dfa565b825115612e205782518084602001fd5b8160405162461bcd60e51b815260040161076091906137d9565b508054600082559060005260206000209081019061104d91905b80821115612e685760008155600101612e54565b5090565b6001600160a01b038116811461104d57600080fd5b600060208284031215612e9357600080fd5b8135612dfa81612e6c565b600080600080600060a08688031215612eb657600080fd5b8535612ec181612e6c565b94506020860135612ed181612e6c565b93506040860135612ee181612e6c565b92506060860135612ef181612e6c565b91506080860135612f0181612e6c565b809150509295509295909350565b634e487b7160e01b600052604160045260246000fd5b604051601f8201601f1916810167ffffffffffffffff81118282101715612f4e57612f4e612f0f565b604052919050565b600067ffffffffffffffff821115612f7057612f70612f0f565b5060051b60200190565b600082601f830112612f8b57600080fd5b81356020612fa0612f9b83612f56565b612f25565b82815260059290921b84018101918181019086841115612fbf57600080fd5b8286015b84811015612fe3578035612fd681612e6c565b8352918301918301612fc3565b509695505050505050565b60006020828403121561300057600080fd5b813567ffffffffffffffff81111561301757600080fd5b61302384828501612f7a565b949350505050565b600082601f83011261303c57600080fd5b8135602061304c612f9b83612f56565b82815260059290921b8401810191818101908684111561306b57600080fd5b8286015b84811015612fe357803567ffffffffffffffff81111561308f5760008081fd5b61309d8986838b0101612f7a565b84525091830191830161306f565b600080604083850312156130be57600080fd5b823567ffffffffffffffff808211156130d657600080fd5b6130e286838701612f7a565b935060208501359150808211156130f857600080fd5b506131058582860161302b565b9150509250929050565b60006020828403121561312157600080fd5b5035919050565b6000806040838503121561313b57600080fd5b82359150602083013561314d81612e6c565b809150509250929050565b60008060006060848603121561316d57600080fd5b833561317881612e6c565b9250602084013561318881612e6c565b929592945050506040919091013590565b600080604083850312156131ac57600080fd5b50508035926020909101359150565b6000806000606084860312156131d057600080fd5b833567ffffffffffffffff808211156131e857600080fd5b6131f487838801612f7a565b9450602086013591508082111561320a57600080fd5b506132178682870161302b565b925050604084013590509250925092565b6000806040838503121561323b57600080fd5b823567ffffffffffffffff81111561325257600080fd5b61325e85828601612f7a565b925050602083013561314d81612e6c565b6000806040838503121561328257600080fd5b823561328d81612e6c565b946020939093013593505050565b6000806000606084860312156132b057600080fd5b83359250602084013561318881612e6c565b60008083601f8401126132d457600080fd5b50813567ffffffffffffffff8111156132ec57600080fd5b6020830191508360208260051b850101111561330757600080fd5b9250929050565b60008060008060006060868803121561332657600080fd5b85359450602086013567ffffffffffffffff8082111561334557600080fd5b61335189838a016132c2565b9096509450604088013591508082111561336a57600080fd5b50613377888289016132c2565b969995985093965092949392505050565b60006020828403121561339a57600080fd5b8151612dfa81612e6c565b634e487b7160e01b600052603260045260246000fd5b634e487b7160e01b600052601160045260246000fd5b6000600182016133e3576133e36133bb565b5060010190565b600081518084526020808501945080840160005b838110156134235781516001600160a01b0316875295820195908201906001016133fe565b509495945050505050565b6001600160a01b0383168152604060208201819052600090613023908301846133ea565b60006020828403121561346457600080fd5b81518015158114612dfa57600080fd5b60208082526006908201526510b7bbb732b960d11b604082015260600190565b60008160001904831182151516156134ae576134ae6133bb565b500290565b634e487b7160e01b600052601260045260246000fd5b6000826134d8576134d86134b3565b500490565b600082198211156134f0576134f06133bb565b500190565b60208082526006908201526521676175676560d01b604082015260600190565b60208082526006908201526510ba37b5b2b760d11b604082015260600190565b60006020828403121561354757600080fd5b5051919050565b60208082526006908201526510b837bbb2b960d11b604082015260600190565b82815260406020820152600061302360408301846133ea565b6000806040838503121561359a57600080fd5b82516135a581612e6c565b602084015190925061314d81612e6c565b602081526000612dfa60208301846133ea565b6001600160a01b0385811682528481166020830152831660408201526080606082018190526000906135fd908301846133ea565b9695505050505050565b6000806040838503121561361a57600080fd5b505080516020909101519092909150565b60008083128015600160ff1b850184121615613649576136496133bb565b6001600160ff1b0384018313811615613664576136646133bb565b50500390565b600080821280156001600160ff1b038490038513161561368c5761368c6133bb565b600160ff1b83900384128116156136a5576136a56133bb565b50500190565b6000828210156136bd576136bd6133bb565b500390565b6000600160ff1b82016136d7576136d76133bb565b5060000390565b60006001600160ff1b0381841382841380821686840486111615613704576137046133bb565b600160ff1b6000871282811687830589121615613723576137236133bb565b6000871292508782058712848416161561373f5761373f6133bb565b87850587128184161615613755576137556133bb565b505050929093029392505050565b600082613772576137726134b3565b600160ff1b82146000198414161561378c5761378c6133bb565b500590565b60005b838110156137ac578181015183820152602001613794565b83811115610bd75750506000910152565b600082516137cf818460208701613791565b9190910192915050565b60208152600082518060208401526137f8816040850160208701613791565b601f01601f1916919091016040019291505056fea2646970667358221220e53c210bf0c6323f5c4560540bac7dd80f2e5b5315b490318b3edc9472268da064736f6c634300080d0033",
  "devdoc": {
    "kind": "dev",
    "methods": {
      "attachTokenToGauge(uint256,address)": {
        "details": "A gauge should be able to attach a token for preventing transfers/withdraws."
      },
      "claimBribes(address[],address[][],uint256)": {
        "details": "Batch claim rewards from given bribe contracts for given tokenId."
      },
      "claimFees(address[],address[][],uint256)": {
        "details": "Claim fees from given bribes."
      },
      "claimRewards(address[],address[][])": {
        "details": "Batch claim rewards from given gauges."
      },
      "createGauge(address)": {
        "details": "Create gauge for given pool. Only for a pool with whitelisted tokens."
      },
      "detachTokenFromGauge(uint256,address)": {
        "details": "Detach given token."
      },
      "distribute(address)": {
        "details": "Get emission from minter and notify rewards for given gauge."
      },
      "distributeAll()": {
        "details": "Distribute rewards for all pools."
      },
      "distributeFees(address[])": {
        "details": "Move fees from deposited pools to bribes for given gauges."
      },
      "emitDeposit(uint256,address,uint256)": {
        "details": "Emit deposit event for easily handling external actions."
      },
      "emitWithdraw(uint256,address,uint256)": {
        "details": "Emit withdraw event for easily handling external actions."
      },
      "listingFee()": {
        "details": "Amount of tokens required to be hold for whitelisting."
      },
      "notifyRewardAmount(uint256)": {
        "details": "Add rewards to this contract. Usually it is VoltMinter."
      },
      "poke(uint256)": {
        "details": "Resubmit exist votes for given token. For internal purposes."
      },
      "poolsLength()": {
        "details": "Length of pools"
      },
      "registerRewardToken(address,address,uint256)": {
        "details": "Add a token to a gauge/bribe as possible reward."
      },
      "removeRewardToken(address,address,uint256)": {
        "details": "Remove a token from a gauge/bribe allowed rewards list."
      },
      "reset(uint256)": {
        "details": "Remove all votes for given tokenId."
      },
      "updateAll()": {
        "details": "Update all gauges."
      },
      "updateFor(address[])": {
        "details": "Update given gauges."
      },
      "updateForRange(uint256,uint256)": {
        "details": "Update gauges by indexes in a range."
      },
      "updateGauge(address)": {
        "details": "Update reward info for given gauge."
      },
      "vote(uint256,address[],int256[])": {
        "details": "Vote for given pools using a vote power of given tokenId. Reset previous votes."
      },
      "whitelist(address,uint256)": {
        "details": "Add token to whitelist. Only pools with whitelisted tokens can be added to gauge."
      }
    },
    "stateVariables": {
      "DURATION": {
        "details": "Rewards are released over 7 days"
      },
      "bribes": {
        "details": "gauge => bribe"
      },
      "factory": {
        "details": "VoltFactory"
      },
      "gauges": {
        "details": "pool => gauge"
      },
      "poolForGauge": {
        "details": "gauge => pool"
      },
      "poolVote": {
        "details": "nft => pools"
      },
      "pools": {
        "details": "All pools viable for incentives"
      },
      "totalWeight": {
        "details": "Total voting weight"
      },
      "usedWeights": {
        "details": "nft => total voting weight of user"
      },
      "ve": {
        "details": "The ve token that governs these contracts"
      },
      "votes": {
        "details": "nft => pool => votes"
      },
      "weights": {
        "details": "pool => weight"
      }
    },
    "version": 1
  },
  "userdoc": {
    "kind": "user",
    "methods": {},
    "version": 1
  },
  "storageLayout": {
    "storage": [
      {
        "astId": 233,
        "contract": "contracts/base/vote/VoltVoterUpgradeable.sol:VoltVoterUpgradeable",
        "label": "_unlocked",
        "offset": 0,
        "slot": "0",
        "type": "t_uint256"
      },
      {
        "astId": 26510,
        "contract": "contracts/base/vote/VoltVoterUpgradeable.sol:VoltVoterUpgradeable",
        "label": "_initialized",
        "offset": 0,
        "slot": "1",
        "type": "t_bool"
      },
      {
        "astId": 26513,
        "contract": "contracts/base/vote/VoltVoterUpgradeable.sol:VoltVoterUpgradeable",
        "label": "_initializing",
        "offset": 1,
        "slot": "1",
        "type": "t_bool"
      },
      {
        "astId": 21663,
        "contract": "contracts/base/vote/VoltVoterUpgradeable.sol:VoltVoterUpgradeable",
        "label": "ve",
        "offset": 2,
        "slot": "1",
        "type": "t_address"
      },
      {
        "astId": 21666,
        "contract": "contracts/base/vote/VoltVoterUpgradeable.sol:VoltVoterUpgradeable",
        "label": "factory",
        "offset": 0,
        "slot": "2",
        "type": "t_address"
      },
      {
        "astId": 21668,
        "contract": "contracts/base/vote/VoltVoterUpgradeable.sol:VoltVoterUpgradeable",
        "label": "token",
        "offset": 0,
        "slot": "3",
        "type": "t_address"
      },
      {
        "astId": 21670,
        "contract": "contracts/base/vote/VoltVoterUpgradeable.sol:VoltVoterUpgradeable",
        "label": "gaugeFactory",
        "offset": 0,
        "slot": "4",
        "type": "t_address"
      },
      {
        "astId": 21672,
        "contract": "contracts/base/vote/VoltVoterUpgradeable.sol:VoltVoterUpgradeable",
        "label": "bribeFactory",
        "offset": 0,
        "slot": "5",
        "type": "t_address"
      },
      {
        "astId": 21678,
        "contract": "contracts/base/vote/VoltVoterUpgradeable.sol:VoltVoterUpgradeable",
        "label": "minter",
        "offset": 0,
        "slot": "6",
        "type": "t_address"
      },
      {
        "astId": 21681,
        "contract": "contracts/base/vote/VoltVoterUpgradeable.sol:VoltVoterUpgradeable",
        "label": "totalWeight",
        "offset": 0,
        "slot": "7",
        "type": "t_uint256"
      },
      {
        "astId": 21685,
        "contract": "contracts/base/vote/VoltVoterUpgradeable.sol:VoltVoterUpgradeable",
        "label": "pools",
        "offset": 0,
        "slot": "8",
        "type": "t_array(t_address)dyn_storage"
      },
      {
        "astId": 21690,
        "contract": "contracts/base/vote/VoltVoterUpgradeable.sol:VoltVoterUpgradeable",
        "label": "gauges",
        "offset": 0,
        "slot": "9",
        "type": "t_mapping(t_address,t_address)"
      },
      {
        "astId": 21695,
        "contract": "contracts/base/vote/VoltVoterUpgradeable.sol:VoltVoterUpgradeable",
        "label": "poolForGauge",
        "offset": 0,
        "slot": "10",
        "type": "t_mapping(t_address,t_address)"
      },
      {
        "astId": 21700,
        "contract": "contracts/base/vote/VoltVoterUpgradeable.sol:VoltVoterUpgradeable",
        "label": "bribes",
        "offset": 0,
        "slot": "11",
        "type": "t_mapping(t_address,t_address)"
      },
      {
        "astId": 21705,
        "contract": "contracts/base/vote/VoltVoterUpgradeable.sol:VoltVoterUpgradeable",
        "label": "weights",
        "offset": 0,
        "slot": "12",
        "type": "t_mapping(t_address,t_int256)"
      },
      {
        "astId": 21712,
        "contract": "contracts/base/vote/VoltVoterUpgradeable.sol:VoltVoterUpgradeable",
        "label": "votes",
        "offset": 0,
        "slot": "13",
        "type": "t_mapping(t_uint256,t_mapping(t_address,t_int256))"
      },
      {
        "astId": 21718,
        "contract": "contracts/base/vote/VoltVoterUpgradeable.sol:VoltVoterUpgradeable",
        "label": "poolVote",
        "offset": 0,
        "slot": "14",
        "type": "t_mapping(t_uint256,t_array(t_address)dyn_storage)"
      },
      {
        "astId": 21723,
        "contract": "contracts/base/vote/VoltVoterUpgradeable.sol:VoltVoterUpgradeable",
        "label": "usedWeights",
        "offset": 0,
        "slot": "15",
        "type": "t_mapping(t_uint256,t_uint256)"
      },
      {
        "astId": 21727,
        "contract": "contracts/base/vote/VoltVoterUpgradeable.sol:VoltVoterUpgradeable",
        "label": "isGauge",
        "offset": 0,
        "slot": "16",
        "type": "t_mapping(t_address,t_bool)"
      },
      {
        "astId": 21731,
        "contract": "contracts/base/vote/VoltVoterUpgradeable.sol:VoltVoterUpgradeable",
        "label": "isWhitelisted",
        "offset": 0,
        "slot": "17",
        "type": "t_mapping(t_address,t_bool)"
      },
      {
        "astId": 21733,
        "contract": "contracts/base/vote/VoltVoterUpgradeable.sol:VoltVoterUpgradeable",
        "label": "index",
        "offset": 0,
        "slot": "18",
        "type": "t_uint256"
      },
      {
        "astId": 21737,
        "contract": "contracts/base/vote/VoltVoterUpgradeable.sol:VoltVoterUpgradeable",
        "label": "supplyIndex",
        "offset": 0,
        "slot": "19",
        "type": "t_mapping(t_address,t_uint256)"
      },
      {
        "astId": 21741,
        "contract": "contracts/base/vote/VoltVoterUpgradeable.sol:VoltVoterUpgradeable",
        "label": "claimable",
        "offset": 0,
        "slot": "20",
        "type": "t_mapping(t_address,t_uint256)"
      }
    ],
    "types": {
      "t_address": {
        "encoding": "inplace",
        "label": "address",
        "numberOfBytes": "20"
      },
      "t_array(t_address)dyn_storage": {
        "base": "t_address",
        "encoding": "dynamic_array",
        "label": "address[]",
        "numberOfBytes": "32"
      },
      "t_bool": {
        "encoding": "inplace",
        "label": "bool",
        "numberOfBytes": "1"
      },
      "t_int256": {
        "encoding": "inplace",
        "label": "int256",
        "numberOfBytes": "32"
      },
      "t_mapping(t_address,t_address)": {
        "encoding": "mapping",
        "key": "t_address",
        "label": "mapping(address => address)",
        "numberOfBytes": "32",
        "value": "t_address"
      },
      "t_mapping(t_address,t_bool)": {
        "encoding": "mapping",
        "key": "t_address",
        "label": "mapping(address => bool)",
        "numberOfBytes": "32",
        "value": "t_bool"
      },
      "t_mapping(t_address,t_int256)": {
        "encoding": "mapping",
        "key": "t_address",
        "label": "mapping(address => int256)",
        "numberOfBytes": "32",
        "value": "t_int256"
      },
      "t_mapping(t_address,t_uint256)": {
        "encoding": "mapping",
        "key": "t_address",
        "label": "mapping(address => uint256)",
        "numberOfBytes": "32",
        "value": "t_uint256"
      },
      "t_mapping(t_uint256,t_array(t_address)dyn_storage)": {
        "encoding": "mapping",
        "key": "t_uint256",
        "label": "mapping(uint256 => address[])",
        "numberOfBytes": "32",
        "value": "t_array(t_address)dyn_storage"
      },
      "t_mapping(t_uint256,t_mapping(t_address,t_int256))": {
        "encoding": "mapping",
        "key": "t_uint256",
        "label": "mapping(uint256 => mapping(address => int256))",
        "numberOfBytes": "32",
        "value": "t_mapping(t_address,t_int256)"
      },
      "t_mapping(t_uint256,t_uint256)": {
        "encoding": "mapping",
        "key": "t_uint256",
        "label": "mapping(uint256 => uint256)",
        "numberOfBytes": "32",
        "value": "t_uint256"
      },
      "t_uint256": {
        "encoding": "inplace",
        "label": "uint256",
        "numberOfBytes": "32"
      }
    }
  }
}