{
  "_format": "hh-sol-artifact-1",
  "contractName": "BaseV2MinterUpgradeable",
  "sourceName": "contracts/Upgradeable/BaseV2-minterUpgradeable.sol",
  "abi": [
    {
      "anonymous": false,
      "inputs": [
        {
          "indexed": true,
          "internalType": "bytes32",
          "name": "role",
          "type": "bytes32"
        },
        {
          "indexed": true,
          "internalType": "address",
          "name": "account",
          "type": "address"
        },
        {
          "indexed": true,
          "internalType": "address",
          "name": "sender",
          "type": "address"
        }
      ],
      "name": "RoleGranted",
      "type": "event"
    },
    {
      "anonymous": false,
      "inputs": [
        {
          "indexed": true,
          "internalType": "bytes32",
          "name": "role",
          "type": "bytes32"
        },
        {
          "indexed": true,
          "internalType": "address",
          "name": "account",
          "type": "address"
        },
        {
          "indexed": true,
          "internalType": "address",
          "name": "sender",
          "type": "address"
        }
      ],
      "name": "RoleRevoked",
      "type": "event"
    },
    {
      "anonymous": false,
      "inputs": [
        {
          "indexed": true,
          "internalType": "address",
          "name": "sender",
          "type": "address"
        },
        {
          "indexed": false,
          "internalType": "uint256",
          "name": "ve_dist_amount",
          "type": "uint256"
        },
        {
          "indexed": false,
          "internalType": "uint256",
          "name": "voter_amount",
          "type": "uint256"
        }
      ],
      "name": "Send",
      "type": "event"
    },
    {
      "inputs": [],
      "name": "DEFAULT_ADMIN_ROLE",
      "outputs": [
        {
          "internalType": "bytes32",
          "name": "",
          "type": "bytes32"
        }
      ],
      "stateMutability": "view",
      "type": "function"
    },
    {
      "inputs": [],
      "name": "_token",
      "outputs": [
        {
          "internalType": "contract IERC20",
          "name": "",
          "type": "address"
        }
      ],
      "stateMutability": "view",
      "type": "function"
    },
    {
      "inputs": [],
      "name": "_ve",
      "outputs": [
        {
          "internalType": "contract IVotingEscrow",
          "name": "",
          "type": "address"
        }
      ],
      "stateMutability": "view",
      "type": "function"
    },
    {
      "inputs": [],
      "name": "_ve_dist",
      "outputs": [
        {
          "internalType": "contract IVeDist",
          "name": "",
          "type": "address"
        }
      ],
      "stateMutability": "view",
      "type": "function"
    },
    {
      "inputs": [],
      "name": "_voter",
      "outputs": [
        {
          "internalType": "contract IBaseV1Voter",
          "name": "",
          "type": "address"
        }
      ],
      "stateMutability": "view",
      "type": "function"
    },
    {
      "inputs": [],
      "name": "active_period",
      "outputs": [
        {
          "internalType": "uint256",
          "name": "",
          "type": "uint256"
        }
      ],
      "stateMutability": "view",
      "type": "function"
    },
    {
      "inputs": [
        {
          "internalType": "uint256",
          "name": "_ve_dist_ratio",
          "type": "uint256"
        }
      ],
      "name": "adminSetVeRatio",
      "outputs": [],
      "stateMutability": "nonpayable",
      "type": "function"
    },
    {
      "inputs": [
        {
          "internalType": "bytes32",
          "name": "role",
          "type": "bytes32"
        }
      ],
      "name": "getRoleAdmin",
      "outputs": [
        {
          "internalType": "bytes32",
          "name": "",
          "type": "bytes32"
        }
      ],
      "stateMutability": "view",
      "type": "function"
    },
    {
      "inputs": [
        {
          "internalType": "bytes32",
          "name": "role",
          "type": "bytes32"
        },
        {
          "internalType": "uint256",
          "name": "index",
          "type": "uint256"
        }
      ],
      "name": "getRoleMember",
      "outputs": [
        {
          "internalType": "address",
          "name": "",
          "type": "address"
        }
      ],
      "stateMutability": "view",
      "type": "function"
    },
    {
      "inputs": [
        {
          "internalType": "bytes32",
          "name": "role",
          "type": "bytes32"
        }
      ],
      "name": "getRoleMemberCount",
      "outputs": [
        {
          "internalType": "uint256",
          "name": "",
          "type": "uint256"
        }
      ],
      "stateMutability": "view",
      "type": "function"
    },
    {
      "inputs": [
        {
          "internalType": "bytes32",
          "name": "role",
          "type": "bytes32"
        },
        {
          "internalType": "address",
          "name": "account",
          "type": "address"
        }
      ],
      "name": "getRoleMemberIndex",
      "outputs": [
        {
          "internalType": "uint256",
          "name": "",
          "type": "uint256"
        }
      ],
      "stateMutability": "view",
      "type": "function"
    },
    {
      "inputs": [
        {
          "internalType": "bytes32",
          "name": "role",
          "type": "bytes32"
        },
        {
          "internalType": "address",
          "name": "account",
          "type": "address"
        }
      ],
      "name": "grantRole",
      "outputs": [],
      "stateMutability": "nonpayable",
      "type": "function"
    },
    {
      "inputs": [
        {
          "internalType": "bytes32",
          "name": "role",
          "type": "bytes32"
        },
        {
          "internalType": "address",
          "name": "account",
          "type": "address"
        }
      ],
      "name": "hasRole",
      "outputs": [
        {
          "internalType": "bool",
          "name": "",
          "type": "bool"
        }
      ],
      "stateMutability": "view",
      "type": "function"
    },
    {
      "inputs": [
        {
          "internalType": "address",
          "name": "__voter",
          "type": "address"
        },
        {
          "internalType": "address",
          "name": "__ve",
          "type": "address"
        },
        {
          "internalType": "address",
          "name": "__ve_dist",
          "type": "address"
        },
        {
          "internalType": "address",
          "name": "admin",
          "type": "address"
        }
      ],
      "name": "initialize",
      "outputs": [],
      "stateMutability": "nonpayable",
      "type": "function"
    },
    {
      "inputs": [
        {
          "internalType": "bytes32",
          "name": "role",
          "type": "bytes32"
        },
        {
          "internalType": "address",
          "name": "account",
          "type": "address"
        }
      ],
      "name": "renounceRole",
      "outputs": [],
      "stateMutability": "nonpayable",
      "type": "function"
    },
    {
      "inputs": [
        {
          "internalType": "bytes32",
          "name": "role",
          "type": "bytes32"
        },
        {
          "internalType": "address",
          "name": "account",
          "type": "address"
        }
      ],
      "name": "revokeRole",
      "outputs": [],
      "stateMutability": "nonpayable",
      "type": "function"
    },
    {
      "inputs": [],
      "name": "set",
      "outputs": [],
      "stateMutability": "nonpayable",
      "type": "function"
    },
    {
      "inputs": [],
      "name": "update_period",
      "outputs": [
        {
          "internalType": "uint256",
          "name": "",
          "type": "uint256"
        }
      ],
      "stateMutability": "nonpayable",
      "type": "function"
    },
    {
      "inputs": [],
      "name": "ve_dist_ratio",
      "outputs": [
        {
          "internalType": "uint256",
          "name": "",
          "type": "uint256"
        }
      ],
      "stateMutability": "view",
      "type": "function"
    },
    {
      "inputs": [],
      "name": "ve_dist_ratio_max",
      "outputs": [
        {
          "internalType": "uint256",
          "name": "",
          "type": "uint256"
        }
      ],
      "stateMutability": "view",
      "type": "function"
    }
  ],
  "bytecode": "0x608060405234801561001057600080fd5b50610e37806100206000396000f3fe608060405234801561001057600080fd5b506004361061012c5760003560e01c8063a217fddf116100ad578063d139960811610071578063d139960814610271578063d547741f1461027a578063ecd0c0c31461028d578063ed29fc11146102a0578063f8c8765e146102a857600080fd5b8063a217fddf14610232578063af9c894d1461023a578063b8e010de1461024d578063b990868c14610255578063ca15c8731461025e57600080fd5b80634486645a116100f45780634486645a146101cd5780634e0df3f6146101d65780638dd598fb146101e95780639010d07c146101fc57806391d148541461020f57600080fd5b8063248a9ca3146101315780632c6b2f0c146101675780632f2ff15d1461019257806336568abe146101a75780633db9b42a146101ba575b600080fd5b61015461013f366004610bf5565b60009081526020819052604090206002015490565b6040519081526020015b60405180910390f35b60055461017a906001600160a01b031681565b6040516001600160a01b03909116815260200161015e565b6101a56101a0366004610c26565b6102bb565b005b6101a56101b5366004610c26565b61034e565b60035461017a906001600160a01b031681565b61015461271081565b6101546101e4366004610c26565b6103c8565b60045461017a906001600160a01b031681565b61017a61020a366004610c56565b6103f3565b61022261021d366004610c26565b610412565b604051901515815260200161015e565b610154600081565b6101a5610248366004610bf5565b61042a565b6101a5610456565b61015460015481565b61015461026c366004610bf5565b610499565b61015460065481565b6101a5610288366004610c26565b6104b0565b60025461017a906001600160a01b031681565b610154610531565b6101a56102b6366004610c78565b6108a0565b6000828152602081905260409020600201546102d79033610412565b6103405760405162461bcd60e51b815260206004820152602f60248201527f416363657373436f6e74726f6c3a2073656e646572206d75737420626520616e60448201526e0818591b5a5b881d1bc819dc985b9d608a1b60648201526084015b60405180910390fd5b61034a8282610975565b5050565b6001600160a01b03811633146103be5760405162461bcd60e51b815260206004820152602f60248201527f416363657373436f6e74726f6c3a2063616e206f6e6c792072656e6f756e636560448201526e103937b632b9903337b91039b2b63360891b6064820152608401610337565b61034a82826109ce565b6000828152602081815260408083206001600160a01b03851684526001019091529020545b92915050565b600082815260208190526040812061040b9083610a27565b9392505050565b600082815260208190526040812061040b9083610a33565b610435600033610412565b6104515760405162461bcd60e51b815260040161033790610cd4565b600155565b610461600033610412565b61047d5760405162461bcd60e51b815260040161033790610cd4565b6224ea00600660008282546104929190610d0d565b9091555050565b60008181526020819052604081206103ed90610a55565b6000828152602081905260409020600201546104cc9033610412565b6103be5760405162461bcd60e51b815260206004820152603060248201527f416363657373436f6e74726f6c3a2073656e646572206d75737420626520616e60448201526f2061646d696e20746f207265766f6b6560801b6064820152608401610337565b600061053d8133610412565b6105595760405162461bcd60e51b815260040161033790610cd4565b6006546105696224ea0082610d24565b421061089b576224ea0061057d8142610d3c565b6105879190610d5e565b60068190556002546040516370a0823160e01b81523060048201529192506000916001600160a01b03909116906370a0823190602401602060405180830381865afa1580156105da573d6000803e3d6000fd5b505050506040513d601f19601f820116820180604052508101906105fe9190610d7d565b90506000612710600154836106139190610d5e565b61061d9190610d3c565b60025460055460405163a9059cbb60e01b81526001600160a01b03918216600482015260248101849052929350169063a9059cbb906044016020604051808303816000875af1158015610674573d6000803e3d6000fd5b505050506040513d601f19601f820116820180604052508101906106989190610d96565b6106a157600080fd5b600560009054906101000a90046001600160a01b03166001600160a01b031663811a40fe6040518163ffffffff1660e01b8152600401600060405180830381600087803b1580156106f157600080fd5b505af1158015610705573d6000803e3d6000fd5b50505050600560009054906101000a90046001600160a01b03166001600160a01b031663b21ed5026040518163ffffffff1660e01b8152600401600060405180830381600087803b15801561075957600080fd5b505af115801561076d573d6000803e3d6000fd5b505050506000818361077f9190610d0d565b60025460035460405163095ea7b360e01b81526001600160a01b03918216600482015260248101849052929350169063095ea7b3906044016020604051808303816000875af11580156107d6573d6000803e3d6000fd5b505050506040513d601f19601f820116820180604052508101906107fa9190610d96565b50600354604051633c6b16ab60e01b8152600481018390526001600160a01b0390911690633c6b16ab90602401600060405180830381600087803b15801561084157600080fd5b505af1158015610855573d6000803e3d6000fd5b505060015460408051918252602082018690523393507fb3a7f4e19ac1e31fc41d825d7a63c4af7b79cda95d9abfb66c36e6987706bf9792500160405180910390a25050505b905090565b826001600160a01b031663fc0c546a6040518163ffffffff1660e01b8152600401602060405180830381865afa1580156108de573d6000803e3d6000fd5b505050506040513d601f19601f820116820180604052508101906109029190610db8565b600280546001600160a01b03199081166001600160a01b0393841617909155600380548216878416179055600480548216868416179055600580549091169184169190911790556224ea006109578142610d3c565b6109619190610d5e565b60065561096f600082610340565b50505050565b600082815260208190526040902061098d9082610a5f565b1561034a5760405133906001600160a01b0383169084907f2f8788117e7eff1d82e926ec794901d17c78024a50270940304540a733656f0d90600090a45050565b60008281526020819052604090206109e69082610a74565b1561034a5760405133906001600160a01b0383169084907ff6391f5c32d9c69d2a47ea670b442974b53935d1edc7fd64eb21e047a839171b90600090a45050565b600061040b8383610a89565b6001600160a01b0381166000908152600183016020526040812054151561040b565b60006103ed825490565b600061040b836001600160a01b038416610ab3565b600061040b836001600160a01b038416610b02565b6000826000018281548110610aa057610aa0610dd5565b9060005260206000200154905092915050565b6000818152600183016020526040812054610afa575081546001818101845560008481526020808220909301849055845484825282860190935260409020919091556103ed565b5060006103ed565b60008181526001830160205260408120548015610beb576000610b26600183610d0d565b8554909150600090610b3a90600190610d0d565b9050818114610b9f576000866000018281548110610b5a57610b5a610dd5565b9060005260206000200154905080876000018481548110610b7d57610b7d610dd5565b6000918252602080832090910192909255918252600188019052604090208390555b8554869080610bb057610bb0610deb565b6001900381819060005260206000200160009055905585600101600086815260200190815260200160002060009055600193505050506103ed565b60009150506103ed565b600060208284031215610c0757600080fd5b5035919050565b6001600160a01b0381168114610c2357600080fd5b50565b60008060408385031215610c3957600080fd5b823591506020830135610c4b81610c0e565b809150509250929050565b60008060408385031215610c6957600080fd5b50508035926020909101359150565b60008060008060808587031215610c8e57600080fd5b8435610c9981610c0e565b93506020850135610ca981610c0e565b92506040850135610cb981610c0e565b91506060850135610cc981610c0e565b939692955090935050565b6020808252600990820152683337b93134b23232b760b91b604082015260600190565b634e487b7160e01b600052601160045260246000fd5b600082821015610d1f57610d1f610cf7565b500390565b60008219821115610d3757610d37610cf7565b500190565b600082610d5957634e487b7160e01b600052601260045260246000fd5b500490565b6000816000190483118215151615610d7857610d78610cf7565b500290565b600060208284031215610d8f57600080fd5b5051919050565b600060208284031215610da857600080fd5b8151801515811461040b57600080fd5b600060208284031215610dca57600080fd5b815161040b81610c0e565b634e487b7160e01b600052603260045260246000fd5b634e487b7160e01b600052603160045260246000fdfea2646970667358221220e0f4b0eb48810b97f2847feef23b741edeb9bc1d63158727e49edfc41d4b95b864736f6c634300080b0033",
  "linkReferences": {},
  "deployedLinkReferences": {}
}