{
  "_format": "hh-sol-artifact-1",
  "contractName": "BaseV2MinterUpgradeable",
  "sourceName": "contracts/Upgradeable/BaseV2-minterUpgradeable.sol",
  "abi": [
    {
      "anonymous": false,
      "inputs": [
        {
          "indexed": true,
          "internalType": "bytes32",
          "name": "role",
          "type": "bytes32"
        },
        {
          "indexed": true,
          "internalType": "address",
          "name": "account",
          "type": "address"
        },
        {
          "indexed": true,
          "internalType": "address",
          "name": "sender",
          "type": "address"
        }
      ],
      "name": "RoleGranted",
      "type": "event"
    },
    {
      "anonymous": false,
      "inputs": [
        {
          "indexed": true,
          "internalType": "bytes32",
          "name": "role",
          "type": "bytes32"
        },
        {
          "indexed": true,
          "internalType": "address",
          "name": "account",
          "type": "address"
        },
        {
          "indexed": true,
          "internalType": "address",
          "name": "sender",
          "type": "address"
        }
      ],
      "name": "RoleRevoked",
      "type": "event"
    },
    {
      "anonymous": false,
      "inputs": [
        {
          "indexed": true,
          "internalType": "address",
          "name": "sender",
          "type": "address"
        },
        {
          "indexed": false,
          "internalType": "uint256",
          "name": "ve_dist_amount",
          "type": "uint256"
        },
        {
          "indexed": false,
          "internalType": "uint256",
          "name": "voter_amount",
          "type": "uint256"
        }
      ],
      "name": "Send",
      "type": "event"
    },
    {
      "inputs": [],
      "name": "DEFAULT_ADMIN_ROLE",
      "outputs": [
        {
          "internalType": "bytes32",
          "name": "",
          "type": "bytes32"
        }
      ],
      "stateMutability": "view",
      "type": "function"
    },
    {
      "inputs": [],
      "name": "_token",
      "outputs": [
        {
          "internalType": "contract IERC20",
          "name": "",
          "type": "address"
        }
      ],
      "stateMutability": "view",
      "type": "function"
    },
    {
      "inputs": [],
      "name": "_ve",
      "outputs": [
        {
          "internalType": "contract IVotingEscrow",
          "name": "",
          "type": "address"
        }
      ],
      "stateMutability": "view",
      "type": "function"
    },
    {
      "inputs": [],
      "name": "_ve_dist",
      "outputs": [
        {
          "internalType": "contract IVeDist",
          "name": "",
          "type": "address"
        }
      ],
      "stateMutability": "view",
      "type": "function"
    },
    {
      "inputs": [],
      "name": "_voter",
      "outputs": [
        {
          "internalType": "contract IBaseV1Voter",
          "name": "",
          "type": "address"
        }
      ],
      "stateMutability": "view",
      "type": "function"
    },
    {
      "inputs": [],
      "name": "active_period",
      "outputs": [
        {
          "internalType": "uint256",
          "name": "",
          "type": "uint256"
        }
      ],
      "stateMutability": "view",
      "type": "function"
    },
    {
      "inputs": [
        {
          "internalType": "uint256",
          "name": "_ve_dist_ratio",
          "type": "uint256"
        }
      ],
      "name": "adminSetVeRatio",
      "outputs": [],
      "stateMutability": "nonpayable",
      "type": "function"
    },
    {
      "inputs": [
        {
          "internalType": "bytes32",
          "name": "role",
          "type": "bytes32"
        }
      ],
      "name": "getRoleAdmin",
      "outputs": [
        {
          "internalType": "bytes32",
          "name": "",
          "type": "bytes32"
        }
      ],
      "stateMutability": "view",
      "type": "function"
    },
    {
      "inputs": [
        {
          "internalType": "bytes32",
          "name": "role",
          "type": "bytes32"
        },
        {
          "internalType": "uint256",
          "name": "index",
          "type": "uint256"
        }
      ],
      "name": "getRoleMember",
      "outputs": [
        {
          "internalType": "address",
          "name": "",
          "type": "address"
        }
      ],
      "stateMutability": "view",
      "type": "function"
    },
    {
      "inputs": [
        {
          "internalType": "bytes32",
          "name": "role",
          "type": "bytes32"
        }
      ],
      "name": "getRoleMemberCount",
      "outputs": [
        {
          "internalType": "uint256",
          "name": "",
          "type": "uint256"
        }
      ],
      "stateMutability": "view",
      "type": "function"
    },
    {
      "inputs": [
        {
          "internalType": "bytes32",
          "name": "role",
          "type": "bytes32"
        },
        {
          "internalType": "address",
          "name": "account",
          "type": "address"
        }
      ],
      "name": "getRoleMemberIndex",
      "outputs": [
        {
          "internalType": "uint256",
          "name": "",
          "type": "uint256"
        }
      ],
      "stateMutability": "view",
      "type": "function"
    },
    {
      "inputs": [
        {
          "internalType": "bytes32",
          "name": "role",
          "type": "bytes32"
        },
        {
          "internalType": "address",
          "name": "account",
          "type": "address"
        }
      ],
      "name": "grantRole",
      "outputs": [],
      "stateMutability": "nonpayable",
      "type": "function"
    },
    {
      "inputs": [
        {
          "internalType": "bytes32",
          "name": "role",
          "type": "bytes32"
        },
        {
          "internalType": "address",
          "name": "account",
          "type": "address"
        }
      ],
      "name": "hasRole",
      "outputs": [
        {
          "internalType": "bool",
          "name": "",
          "type": "bool"
        }
      ],
      "stateMutability": "view",
      "type": "function"
    },
    {
      "inputs": [
        {
          "internalType": "address",
          "name": "__voter",
          "type": "address"
        },
        {
          "internalType": "address",
          "name": "__ve",
          "type": "address"
        },
        {
          "internalType": "address",
          "name": "__ve_dist",
          "type": "address"
        },
        {
          "internalType": "address",
          "name": "admin",
          "type": "address"
        }
      ],
      "name": "initialize",
      "outputs": [],
      "stateMutability": "nonpayable",
      "type": "function"
    },
    {
      "inputs": [
        {
          "internalType": "bytes32",
          "name": "role",
          "type": "bytes32"
        },
        {
          "internalType": "address",
          "name": "account",
          "type": "address"
        }
      ],
      "name": "renounceRole",
      "outputs": [],
      "stateMutability": "nonpayable",
      "type": "function"
    },
    {
      "inputs": [
        {
          "internalType": "bytes32",
          "name": "role",
          "type": "bytes32"
        },
        {
          "internalType": "address",
          "name": "account",
          "type": "address"
        }
      ],
      "name": "revokeRole",
      "outputs": [],
      "stateMutability": "nonpayable",
      "type": "function"
    },
    {
      "inputs": [],
      "name": "update_period",
      "outputs": [
        {
          "internalType": "uint256",
          "name": "",
          "type": "uint256"
        }
      ],
      "stateMutability": "nonpayable",
      "type": "function"
    },
    {
      "inputs": [],
      "name": "ve_dist_ratio",
      "outputs": [
        {
          "internalType": "uint256",
          "name": "",
          "type": "uint256"
        }
      ],
      "stateMutability": "view",
      "type": "function"
    },
    {
      "inputs": [],
      "name": "ve_dist_ratio_max",
      "outputs": [
        {
          "internalType": "uint256",
          "name": "",
          "type": "uint256"
        }
      ],
      "stateMutability": "view",
      "type": "function"
    }
  ],
  "bytecode": "0x608060405234801561001057600080fd5b50610df6806100206000396000f3fe608060405234801561001057600080fd5b50600436106101215760003560e01c806391d14854116100ad578063d139960811610071578063d13996081461025e578063d547741f14610267578063ecd0c0c31461027a578063ed29fc111461028d578063f8c8765e1461029557600080fd5b806391d1485414610204578063a217fddf14610227578063af9c894d1461022f578063b990868c14610242578063ca15c8731461024b57600080fd5b80633db9b42a116100f45780633db9b42a146101af5780634486645a146101c25780634e0df3f6146101cb5780638dd598fb146101de5780639010d07c146101f157600080fd5b8063248a9ca3146101265780632c6b2f0c1461015c5780632f2ff15d1461018757806336568abe1461019c575b600080fd5b610149610134366004610bd7565b60009081526020819052604090206002015490565b6040519081526020015b60405180910390f35b60055461016f906001600160a01b031681565b6040516001600160a01b039091168152602001610153565b61019a610195366004610c08565b6102a8565b005b61019a6101aa366004610c08565b61033b565b60035461016f906001600160a01b031681565b61014961271081565b6101496101d9366004610c08565b6103b5565b60045461016f906001600160a01b031681565b61016f6101ff366004610c38565b6103e0565b610217610212366004610c08565b6103ff565b6040519015158152602001610153565b610149600081565b61019a61023d366004610bd7565b610417565b61014960015481565b610149610259366004610bd7565b61045f565b61014960065481565b61019a610275366004610c08565b610476565b60025461016f906001600160a01b031681565b6101496104f7565b61019a6102a3366004610c5a565b610882565b6000828152602081905260409020600201546102c490336103ff565b61032d5760405162461bcd60e51b815260206004820152602f60248201527f416363657373436f6e74726f6c3a2073656e646572206d75737420626520616e60448201526e0818591b5a5b881d1bc819dc985b9d608a1b60648201526084015b60405180910390fd5b6103378282610957565b5050565b6001600160a01b03811633146103ab5760405162461bcd60e51b815260206004820152602f60248201527f416363657373436f6e74726f6c3a2063616e206f6e6c792072656e6f756e636560448201526e103937b632b9903337b91039b2b63360891b6064820152608401610324565b61033782826109b0565b6000828152602081815260408083206001600160a01b03851684526001019091529020545b92915050565b60008281526020819052604081206103f89083610a09565b9392505050565b60008281526020819052604081206103f89083610a15565b6104226000336103ff565b61045a5760405162461bcd60e51b81526020600482015260096024820152683337b93134b23232b760b91b6044820152606401610324565b600155565b60008181526020819052604081206103da90610a37565b60008281526020819052604090206002015461049290336103ff565b6103ab5760405162461bcd60e51b815260206004820152603060248201527f416363657373436f6e74726f6c3a2073656e646572206d75737420626520616e60448201526f2061646d696e20746f207265766f6b6560801b6064820152608401610324565b600061050381336103ff565b61053b5760405162461bcd60e51b81526020600482015260096024820152683337b93134b23232b760b91b6044820152606401610324565b60065461054b6224ea0082610ccc565b421061087d576224ea0061055f8142610ce4565b6105699190610d06565b60068190556002546040516370a0823160e01b81523060048201529192506000916001600160a01b03909116906370a0823190602401602060405180830381865afa1580156105bc573d6000803e3d6000fd5b505050506040513d601f19601f820116820180604052508101906105e09190610d25565b90506000612710600154836105f59190610d06565b6105ff9190610ce4565b60025460055460405163a9059cbb60e01b81526001600160a01b03918216600482015260248101849052929350169063a9059cbb906044016020604051808303816000875af1158015610656573d6000803e3d6000fd5b505050506040513d601f19601f8201168201806040525081019061067a9190610d3e565b61068357600080fd5b600560009054906101000a90046001600160a01b03166001600160a01b031663811a40fe6040518163ffffffff1660e01b8152600401600060405180830381600087803b1580156106d357600080fd5b505af11580156106e7573d6000803e3d6000fd5b50505050600560009054906101000a90046001600160a01b03166001600160a01b031663b21ed5026040518163ffffffff1660e01b8152600401600060405180830381600087803b15801561073b57600080fd5b505af115801561074f573d6000803e3d6000fd5b50505050600081836107619190610d60565b60025460035460405163095ea7b360e01b81526001600160a01b03918216600482015260248101849052929350169063095ea7b3906044016020604051808303816000875af11580156107b8573d6000803e3d6000fd5b505050506040513d601f19601f820116820180604052508101906107dc9190610d3e565b50600354604051633c6b16ab60e01b8152600481018390526001600160a01b0390911690633c6b16ab90602401600060405180830381600087803b15801561082357600080fd5b505af1158015610837573d6000803e3d6000fd5b505060015460408051918252602082018690523393507fb3a7f4e19ac1e31fc41d825d7a63c4af7b79cda95d9abfb66c36e6987706bf9792500160405180910390a25050505b905090565b826001600160a01b031663fc0c546a6040518163ffffffff1660e01b8152600401602060405180830381865afa1580156108c0573d6000803e3d6000fd5b505050506040513d601f19601f820116820180604052508101906108e49190610d77565b600280546001600160a01b03199081166001600160a01b0393841617909155600380548216878416179055600480548216868416179055600580549091169184169190911790556224ea006109398142610ce4565b6109439190610d06565b60065561095160008261032d565b50505050565b600082815260208190526040902061096f9082610a41565b156103375760405133906001600160a01b0383169084907f2f8788117e7eff1d82e926ec794901d17c78024a50270940304540a733656f0d90600090a45050565b60008281526020819052604090206109c89082610a56565b156103375760405133906001600160a01b0383169084907ff6391f5c32d9c69d2a47ea670b442974b53935d1edc7fd64eb21e047a839171b90600090a45050565b60006103f88383610a6b565b6001600160a01b038116600090815260018301602052604081205415156103f8565b60006103da825490565b60006103f8836001600160a01b038416610a95565b60006103f8836001600160a01b038416610ae4565b6000826000018281548110610a8257610a82610d94565b9060005260206000200154905092915050565b6000818152600183016020526040812054610adc575081546001818101845560008481526020808220909301849055845484825282860190935260409020919091556103da565b5060006103da565b60008181526001830160205260408120548015610bcd576000610b08600183610d60565b8554909150600090610b1c90600190610d60565b9050818114610b81576000866000018281548110610b3c57610b3c610d94565b9060005260206000200154905080876000018481548110610b5f57610b5f610d94565b6000918252602080832090910192909255918252600188019052604090208390555b8554869080610b9257610b92610daa565b6001900381819060005260206000200160009055905585600101600086815260200190815260200160002060009055600193505050506103da565b60009150506103da565b600060208284031215610be957600080fd5b5035919050565b6001600160a01b0381168114610c0557600080fd5b50565b60008060408385031215610c1b57600080fd5b823591506020830135610c2d81610bf0565b809150509250929050565b60008060408385031215610c4b57600080fd5b50508035926020909101359150565b60008060008060808587031215610c7057600080fd5b8435610c7b81610bf0565b93506020850135610c8b81610bf0565b92506040850135610c9b81610bf0565b91506060850135610cab81610bf0565b939692955090935050565b634e487b7160e01b600052601160045260246000fd5b60008219821115610cdf57610cdf610cb6565b500190565b600082610d0157634e487b7160e01b600052601260045260246000fd5b500490565b6000816000190483118215151615610d2057610d20610cb6565b500290565b600060208284031215610d3757600080fd5b5051919050565b600060208284031215610d5057600080fd5b815180151581146103f857600080fd5b600082821015610d7257610d72610cb6565b500390565b600060208284031215610d8957600080fd5b81516103f881610bf0565b634e487b7160e01b600052603260045260246000fd5b634e487b7160e01b600052603160045260246000fdfea26469706673582212205610de43f7e9f2086fad7d52a0aada71c0bd84171aa4fef6e9ab9c30b342cbf464736f6c634300080b0033",
  "linkReferences": {},
  "deployedLinkReferences": {}
}