{
  "_format": "hh-sol-artifact-1",
  "contractName": "GaugeFactory",
  "sourceName": "contracts/base/reward/GaugeFactory.sol",
  "abi": [
    {
      "anonymous": false,
      "inputs": [
        {
          "indexed": false,
          "internalType": "address",
          "name": "value",
          "type": "address"
        }
      ],
      "name": "GaugeCreated",
      "type": "event"
    },
    {
      "inputs": [
        {
          "internalType": "address",
          "name": "_pool",
          "type": "address"
        },
        {
          "internalType": "address",
          "name": "_bribe",
          "type": "address"
        },
        {
          "internalType": "address",
          "name": "_ve",
          "type": "address"
        },
        {
          "internalType": "address[]",
          "name": "_allowedRewardTokens",
          "type": "address[]"
        }
      ],
      "name": "createGauge",
      "outputs": [
        {
          "internalType": "address",
          "name": "",
          "type": "address"
        }
      ],
      "stateMutability": "nonpayable",
      "type": "function"
    },
    {
      "inputs": [
        {
          "internalType": "address",
          "name": "_pool",
          "type": "address"
        },
        {
          "internalType": "address",
          "name": "_bribe",
          "type": "address"
        },
        {
          "internalType": "address",
          "name": "_ve",
          "type": "address"
        },
        {
          "internalType": "address",
          "name": "_voter",
          "type": "address"
        },
        {
          "internalType": "address[]",
          "name": "_allowedRewardTokens",
          "type": "address[]"
        }
      ],
      "name": "createGaugeSingle",
      "outputs": [
        {
          "internalType": "address",
          "name": "",
          "type": "address"
        }
      ],
      "stateMutability": "nonpayable",
      "type": "function"
    },
    {
      "inputs": [],
      "name": "lastGauge",
      "outputs": [
        {
          "internalType": "address",
          "name": "",
          "type": "address"
        }
      ],
      "stateMutability": "view",
      "type": "function"
    }
  ],
  "bytecode": "0x608060405234801561001057600080fd5b50613e56806100206000396000f3fe608060405234801561001057600080fd5b50600436106100415760003560e01c8063559a9c0a1461004657806358c14b6514610075578063b46d346514610088575b600080fd5b6100596100543660046102b6565b61009b565b6040516001600160a01b03909116815260200160405180910390f35b610059610083366004610336565b610138565b600054610059906001600160a01b031681565b60008086868686866040516100af906101d4565b6100bd9594939291906103a5565b604051809103906000f0801580156100d9573d6000803e3d6000fd5b50600080546001600160a01b0319166001600160a01b0383169081179091556040519081529091507faa98436d09d130af48de49867af8b723bbbebb0d737638b5fe8f1bf31bbb71c09060200160405180910390a19695505050505050565b600080858585338660405161014c906101d4565b61015a9594939291906103a5565b604051809103906000f080158015610176573d6000803e3d6000fd5b50600080546001600160a01b0319166001600160a01b0383169081179091556040519081529091507faa98436d09d130af48de49867af8b723bbbebb0d737638b5fe8f1bf31bbb71c09060200160405180910390a195945050505050565b613a06806200041b83390190565b80356001600160a01b03811681146101f957600080fd5b919050565b634e487b7160e01b600052604160045260246000fd5b600082601f83011261022557600080fd5b8135602067ffffffffffffffff80831115610242576102426101fe565b8260051b604051601f19603f83011681018181108482111715610267576102676101fe565b60405293845285810183019383810192508785111561028557600080fd5b83870191505b848210156102ab5761029c826101e2565b8352918301919083019061028b565b979650505050505050565b600080600080600060a086880312156102ce57600080fd5b6102d7866101e2565b94506102e5602087016101e2565b93506102f3604087016101e2565b9250610301606087016101e2565b9150608086013567ffffffffffffffff81111561031d57600080fd5b61032988828901610214565b9150509295509295909350565b6000806000806080858703121561034c57600080fd5b610355856101e2565b9350610363602086016101e2565b9250610371604086016101e2565b9150606085013567ffffffffffffffff81111561038d57600080fd5b61039987828801610214565b91505092959194509250565b600060a0820160018060a01b0380891684526020818916818601528188166040860152818716606086015260a0608086015282865180855260c087019150828801945060005b818110156104095785518516835294830194918301916001016103eb565b50909b9a505050505050505050505056fe61010060405260016000553480156200001757600080fd5b5060405162003a0638038062003a068339810160408190526200003a916200025d565b6001600160a01b03858116608052600180546001600160a01b03191691841691909117905584828260005b8151811015620000e85760006001600160a01b03168282815181106200008f576200008f6200037d565b60200260200101516001600160a01b031614620000d357620000d3828281518110620000bf57620000bf6200037d565b60200260200101516200010c60201b60201c565b80620000df8162000393565b91505062000065565b5050506001600160a01b0394851660c052505090821660a0521660e05250620003bb565b600c54600a11620001645760405162461bcd60e51b815260206004820152601660248201527f546f6f206d616e792072657761726420746f6b656e730000000000000000000060448201526064015b60405180910390fd5b6001600160a01b0381166000908152600d602052604090205460ff1615620001c45760405162461bcd60e51b8152602060048201526012602482015271105b1c9958591e481c9959da5cdd195c995960721b60448201526064016200015b565b6001600160a01b03166000818152600d60205260408120805460ff19166001908117909155600c805491820181559091527fdf6966c971051c3d54ec59162606531493a51404a002842f56009d7e5cf4a8c70180546001600160a01b0319169091179055565b80516001600160a01b03811681146200024257600080fd5b919050565b634e487b7160e01b600052604160045260246000fd5b600080600080600060a086880312156200027657600080fd5b62000281866200022a565b94506020620002928188016200022a565b9450620002a2604088016200022a565b9350620002b2606088016200022a565b60808801519093506001600160401b0380821115620002d057600080fd5b818901915089601f830112620002e557600080fd5b815181811115620002fa57620002fa62000247565b8060051b604051601f19603f8301168101818110858211171562000322576200032262000247565b60405291825284820192508381018501918c8311156200034157600080fd5b938501935b828510156200036a576200035a856200022a565b8452938501939285019262000346565b8096505050505050509295509295909350565b634e487b7160e01b600052603260045260246000fd5b600060018201620003b457634e487b7160e01b600052601160045260246000fd5b5060010190565b60805160a05160c05160e05161357e6200048860003960008181610450015281816107a70152818161082d015281816108a101528181610e34015281816121fb01526126a80152600081816103eb0152818161180b01528181611893015281816118de01528181611964015281816119ea0152611a3501526000818161033101528181611eb201528181611f4b0152818161200601526120ca0152600081816104c601528181610d32015281816116c201528181611b120152818161236f015261277f015261357e6000f3fe608060405234801561001057600080fd5b506004361061027f5760003560e01c80637bb7bed11161015c578063d294f093116100ce578063e8111a1211610087578063e8111a12146106a8578063f1229777146106b1578063f7412baf146106c4578063fc97a303146106eb578063fd3140981461070b578063fdb483c71461071e57600080fd5b8063d294f0931461063e578063d35e254414610646578063d7da4bb014610659578063da09d19d14610662578063e2bbb15814610682578063e46dbc981461069557600080fd5b8063a495e5b511610120578063a495e5b514610592578063aa479652146105bd578063b5fd73f8146105dd578063b66503cf14610610578063bf199e6214610623578063c6f678bd1461062b57600080fd5b80637bb7bed11461053b578063853828b61461054e57806393f1c4421461055657806399bcc0521461055f5780639ce43f901461057257600080fd5b80633ca068b6116101f557806363fb415b116101b957806363fb415b1461048e57806368fcee1a146104ae5780636f307dc3146104c15780636fcfff45146104e857806370a082311461050857806376f4be361461052857600080fd5b80633ca068b61461040d5780633d509c971461043857806346c96aac1461044b5780634c02a21c14610472578063570ca7351461047b57600080fd5b8063211dc32d11610247578063211dc32d1461036b578063221ca18c1461037e5780632ce9aead1461039e5780632e1a7d4d146103be57806331279d3d146103d357806337d0208c146103e657600080fd5b806301316ddf146102845780630cdfebfa146102d0578063115c6f391461030257806318160ddd146103235780631f8507161461032c575b600080fd5b6102b6610292366004613182565b60126020908152600092835260408084209091529082529020805460019091015482565b604080519283526020830191909152015b60405180910390f35b6102b66102de366004613182565b600e6020908152600092835260408084209091529082529020805460019091015482565b610315610310366004613182565b610731565b6040519081526020016102c7565b610315600a5481565b6103537f000000000000000000000000000000000000000000000000000000000000000081565b6040516001600160a01b0390911681526020016102c7565b6103156103793660046131ae565b610746565b61031561038c3660046131e7565b60046020526000908152604090205481565b6103156103ac3660046131e7565b60066020526000908152604090205481565b6103d16103cc366004613204565b610752565b005b6103d16103e1366004613233565b610810565b6103537f000000000000000000000000000000000000000000000000000000000000000081565b61031561041b3660046131ae565b600960209081526000928352604080842090915290825290205481565b6103d16104463660046131e7565b610914565b6103537f000000000000000000000000000000000000000000000000000000000000000081565b61031560165481565b600154610353906001600160a01b031681565b61031561049c3660046131e7565b60036020526000908152604090205481565b6103d16104bc366004613182565b610bef565b6103537f000000000000000000000000000000000000000000000000000000000000000081565b6103156104f63660046131e7565b600f6020526000908152604090205481565b6103156105163660046131e7565b600b6020526000908152604090205481565b610315610536366004613204565b610c29565b610353610549366004613204565b610c34565b6103d1610c5e565b61031560155481565b61031561056d3660046131e7565b610c79565b6103156105803660046131e7565b60076020526000908152604090205481565b6103156105a03660046131ae565b600860209081526000928352604080842090915290825290205481565b6103156105cb3660046131e7565b60136020526000908152604090205481565b6106006105eb3660046131e7565b600d6020526000908152604090205460ff1681565b60405190151581526020016102c7565b6103d161061e366004613182565b610d05565b600c54610315565b6103d1610639366004613204565b610d19565b6102b6610dae565b6103156106543660046131e7565b610ded565b61031560025481565b6103156106703660046131e7565b60056020526000908152604090205481565b6103d161069036600461330d565b610df8565b6103d16106a33660046131e7565b610e6b565b61031560115481565b6103156106bf3660046131e7565b610ebd565b6102b66106d2366004613204565b6010602052600090815260409020805460019091015482565b6103156106f93660046131e7565b60146020526000908152604090205481565b6102b6610719366004613182565b610ec8565b6103d161072c36600461330d565b610ee1565b600061073d8383610efa565b90505b92915050565b600061073d8383610f4f565b336000908152600b6020526040812054820361077a5750336000908152601460205260409020545b6107848282610ee1565b604051633aa53b9160e21b815260048101829052336024820152604481018390527f00000000000000000000000000000000000000000000000000000000000000006001600160a01b03169063ea94ee44906064015b600060405180830381600087803b1580156107f457600080fd5b505af1158015610808573d6000803e3d6000fd5b505050505050565b336001600160a01b038316148061084f5750336001600160a01b037f000000000000000000000000000000000000000000000000000000000000000016145b61088c5760405162461bcd60e51b81526020600482015260096024820152682337b93134b23232b760b91b60448201526064015b60405180910390fd5b6040516363453ae160e01b81523060048201527f00000000000000000000000000000000000000000000000000000000000000006001600160a01b0316906363453ae190602401600060405180830381600087803b1580156108ed57600080fd5b505af1158015610901573d6000803e3d6000fd5b505050506109108282846111d0565b5050565b6001546001600160a01b0316331461095d5760405162461bcd60e51b815260206004820152600c60248201526b2737ba1037b832b930ba37b960a11b6044820152606401610883565b6001600160a01b03811660009081526005602052604090205442116109b85760405162461bcd60e51b815260206004820152601160248201527014995dd85c991cc81b9bdd08195b991959607a1b6044820152606401610883565b6001600160a01b0381166000908152600d602052604090205460ff16610a135760405162461bcd60e51b815260206004820152601060248201526f2737ba103932bbb0b932103a37b5b2b760811b6044820152606401610883565b6001600160a01b0381166000908152600d60205260409020805460ff19169055600c5460038111610a925760405162461bcd60e51b8152602060048201526024808201527f4669727374203320746f6b656e732073686f756c64206e6f742062652072656d6044820152631bdd995960e21b6064820152608401610883565b600360005b82821015610af2576000600c8381548110610ab457610ab461332f565b6000918252602090912001546001600160a01b03908116915085168103610adf576001915050610af2565b5081610aea8161335b565b925050610a97565b80610b3f5760405162461bcd60e51b815260206004820181905260248201527f466972737420746f6b656e7320666f7262696464656e20746f2072656d6f76656044820152606401610883565b600c610b4c600185613374565b81548110610b5c57610b5c61332f565b600091825260209091200154600c80546001600160a01b039092169184908110610b8857610b8861332f565b9060005260206000200160006101000a8154816001600160a01b0302191690836001600160a01b03160217905550600c805480610bc757610bc761338b565b600082815260209020810160001990810180546001600160a01b031916905501905550505050565b610bfb828260006114a9565b6001600160a01b03909316600090815260076020908152604080832060069092529091209390935590915550565b600061074082611699565b600c8181548110610c4457600080fd5b6000918252602090912001546001600160a01b0316905081565b336000908152600b6020526040902054610c7790610752565b565b6001600160a01b0381166000908152600560205260408120544210610ca057506000919050565b6001600160a01b038216600090815260056020526040812054610cc4904290613374565b6001600160a01b038416600090815260046020526040902054909150670de0b6b3a764000090610cf490836133a1565b610cfe91906133c0565b9392505050565b610d0d6116bb565b50506109108282611ae1565b6040516370a0823160e01b8152336004820152610dab907f00000000000000000000000000000000000000000000000000000000000000006001600160a01b0316906370a0823190602401602060405180830381865afa158015610d81573d6000803e3d6000fd5b505050506040513d601f19601f82011682018060405250810190610da591906133e2565b82610df8565b50565b600080600054600114610dd35760405162461bcd60e51b8152600401610883906133fb565b6002600055610de06116bb565b9150915060016000559091565b600061074082611e6f565b8015610e0857610e0833826120be565b610e11826122f6565b60405163530e389d60e11b815260048101829052336024820152604481018390527f00000000000000000000000000000000000000000000000000000000000000006001600160a01b03169063a61c713a906064016107da565b6001546001600160a01b03163314610eb45760405162461bcd60e51b815260206004820152600c60248201526b2737ba1037b832b930ba37b960a11b6044820152606401610883565b610dab816123d5565b6000610740826124e4565b600080610ed5848461258f565b915091505b9250929050565b8015610ef157610ef13382612619565b61091082612741565b6001600160a01b0382166000908152600f6020526040812054808203610f24576000915050610740565b6001600160a01b0384166000908152600e60205260409020610f479082856127d8565b949350505050565b6001600160a01b0381166000908152600f60205260408120548103610f7657506000610740565b6001600160a01b03808416600081815260086020908152604080832094871683529381528382205492825260128152838220828052905291822054610fbb919061291e565b90506000610fc98483610efa565b6001600160a01b0385166000908152600f602052604081205491925090610ff290600190613374565b90506000811561110457825b611009600184613374565b8111611102576001600160a01b0387166000818152600e60208181526040808420868552808352818520825180840190935280548352600190810154838501529585529290915292829061105e908690613423565b8152602001908152602001600020604051806040016040529081600082015481526020016001820154815250509050600061109d8b846000015161258f565b50905060006110b08c846000015161258f565b509050670de0b6b3a76400006110c68383613374565b85602001516110d591906133a1565b6110df91906133c0565b6110e99087613423565b95505050505080806110fa9061335b565b915050610ffe565b505b6001600160a01b0386166000908152600e6020908152604080832085845282528083208151808301909252805480835260019091015492820192909252919061114e908a9061258f565b506001600160a01b03808b166000908152600960209081526040808320938d1683529290522054909150670de0b6b3a76400009061118d90839061291e565b6111968b6124e4565b6111a09190613374565b83602001516111af91906133a1565b6111b991906133c0565b6111c39084613423565b9998505050505050505050565b6000546001146111f25760405162461bcd60e51b8152600401610883906133fb565b600260009081555b82518110156114955761122a8382815181106112185761121861332f565b602002602001015160001960016114a9565b600760008685815181106112405761124061332f565b60200260200101516001600160a01b03166001600160a01b031681526020019081526020016000206000600660008887815181106112805761128061332f565b60200260200101516001600160a01b03166001600160a01b03168152602001908152602001600020600084919050558391905055505060006112db8483815181106112cd576112cd61332f565b602002602001015186610f4f565b905042600860008685815181106112f4576112f461332f565b60200260200101516001600160a01b03166001600160a01b031681526020019081526020016000206000876001600160a01b03166001600160a01b0316815260200190815260200160002081905550600760008584815181106113595761135961332f565b60200260200101516001600160a01b03166001600160a01b0316815260200190815260200160002054600960008685815181106113985761139861332f565b6020908102919091018101516001600160a01b0390811683528282019390935260409182016000908120938a168152929052902055801561140a5761140a83828685815181106113ea576113ea61332f565b60200260200101516001600160a01b03166129359092919063ffffffff16565b83828151811061141c5761141c61332f565b60200260200101516001600160a01b0316336001600160a01b03167fe4394b3c25e336e9d6b7fcefab7e3234f1c6b373f13655dc3920664b080b098d838660405161147a9291909182526001600160a01b0316602082015260400190565b60405180910390a3508061148d8161335b565b9150506111fa565b5061149f8361299d565b5050600160005550565b6001600160a01b03831660009081526006602090815260408083205460079092528220546011548392919083036114e35792509050611691565b6001600160a01b038716600090815260046020526040812054900361150e5792504291506116919050565b600061151983611699565b90506000611535600160115461152f9190613374565b89612a22565b9050801561160e57815b61154a600183613374565b811161160c5760008181526010602090815260409182902082518084019093528054835260010154908201819052156115f957600060108161158d856001613423565b81526020019081526020016000206040518060400160405290816000820154815260200160018201548152505090506000806115d88e8460000151866000015187602001518d612a31565b90925090506115e78289613423565b97506115f48e8983612ab5565b975050505b50806116048161335b565b91505061153f565b505b86156116885760008181526010602090815260409182902082518084019093528054835260010154908201819052156116865760006116678b6116508d612bbe565b845161165c908a61291e565b85602001518a612a31565b5090506116748186613423565b94506116818b8642612ab5565b429550505b505b50909350909150505b935093915050565b6011546000908082036116af5750600092915050565b610cfe601082856127d8565b60008060007f00000000000000000000000000000000000000000000000000000000000000009050806001600160a01b031663d294f0936040518163ffffffff1660e01b815260040160408051808303816000875af1158015611722573d6000803e3d6000fd5b505050506040513d601f19601f82011682018060405250810190611746919061343b565b9093509150821515806117595750600082115b15611adc5760008360155461176e9190613423565b90506000836016546117809190613423565b9050600080846001600160a01b0316639d63848a6040518163ffffffff1660e01b81526004016040805180830381865afa1580156117c2573d6000803e3d6000fd5b505050506040513d601f19601f820116820180604052508101906117e6919061345f565b604051634cde602960e11b81526001600160a01b0380841660048301529294509092507f0000000000000000000000000000000000000000000000000000000000000000909116906399bcc05290602401602060405180830381865afa158015611854573d6000803e3d6000fd5b505050506040513d601f19601f8201168201806040525081019061187891906133e2565b84111561193f5760006015556118b86001600160a01b0383167f000000000000000000000000000000000000000000000000000000000000000086612be2565b60405163b66503cf60e01b81526001600160a01b038381166004830152602482018690527f0000000000000000000000000000000000000000000000000000000000000000169063b66503cf90604401600060405180830381600087803b15801561192257600080fd5b505af1158015611936573d6000803e3d6000fd5b50505050611945565b60158490555b604051634cde602960e11b81526001600160a01b0382811660048301527f000000000000000000000000000000000000000000000000000000000000000016906399bcc05290602401602060405180830381865afa1580156119ab573d6000803e3d6000fd5b505050506040513d601f19601f820116820180604052508101906119cf91906133e2565b831115611a96576000601655611a0f6001600160a01b0382167f000000000000000000000000000000000000000000000000000000000000000085612be2565b60405163b66503cf60e01b81526001600160a01b038281166004830152602482018590527f0000000000000000000000000000000000000000000000000000000000000000169063b66503cf90604401600060405180830381600087803b158015611a7957600080fd5b505af1158015611a8d573d6000803e3d6000fd5b50505050611a9c565b60168390555b604080518881526020810188905233917fbc567d6cbad26368064baa0ab5a757be46aae4d70f707f9203d9d9b6c8ccbfa3910160405180910390a2505050505b509091565b600054600114611b035760405162461bcd60e51b8152600401610883906133fb565b60026000556001600160a01b037f0000000000000000000000000000000000000000000000000000000000000000811690831603611b835760405162461bcd60e51b815260206004820152601760248201527f57726f6e6720746f6b656e20666f7220726577617264730000000000000000006044820152606401610883565b60008111611bc15760405162461bcd60e51b815260206004820152600b60248201526a16995c9bc8185b5bdd5b9d60aa1b6044820152606401610883565b6001600160a01b0382166000908152600d602052604090205460ff16611c1d5760405162461bcd60e51b8152602060048201526011602482015270151bdad95b881b9bdd08185b1b1bddd959607a1b6044820152606401610883565b6001600160a01b0382166000908152600460205260408120549003611c4857611c4882600042612ab5565b611c568260001960016114a9565b6001600160a01b0384166000908152600760209081526040808320600683528184209490945593909255600590915220544210611ce057611ca26001600160a01b038316333084612c94565b62093a80611cb8670de0b6b3a7640000836133a1565b611cc291906133c0565b6001600160a01b038316600090815260046020526040902055611e00565b6001600160a01b038216600090815260056020526040812054611d04904290613374565b6001600160a01b03841660009081526004602052604081205491925090611d2b90836133a1565b9050611d3f670de0b6b3a7640000826133c0565b8311611da45760405162461bcd60e51b815260206004820152602e60248201527f416d6f756e742073686f756c6420626520686967686572207468616e2072656d60448201526d61696e696e67207265776172647360901b6064820152608401610883565b611db96001600160a01b038516333086612c94565b62093a8081611dd0670de0b6b3a7640000866133a1565b611dda9190613423565b611de491906133c0565b6001600160a01b03851660009081526004602052604090205550505b611e0d62093a8042613423565b6001600160a01b0383166000818152600560205260409081902092909255905133907ff70d5c697de7ea828df48e5c4573cb2194c659f1901f70110c52b066dcf5082690611e5e9085815260200190565b60405180910390a350506001600055565b6001600160a01b038116600090815260146020908152604080832054600b909252822054826064611ea18360286133a1565b611eab91906133c0565b90506000807f00000000000000000000000000000000000000000000000000000000000000006001600160a01b03166318160ddd6040518163ffffffff1660e01b8152600401602060405180830381865afa158015611f0e573d6000803e3d6000fd5b505050506040513d601f19601f82011682018060405250810190611f3291906133e2565b6040516331a9108f60e11b8152600481018790529091507f00000000000000000000000000000000000000000000000000000000000000006001600160a01b031690636352211e90602401602060405180830381865afa158015611f9a573d6000803e3d6000fd5b505050506040513d601f19601f82011682018060405250810190611fbe919061348e565b6001600160a01b0316876001600160a01b0316148015611fde5750600081115b156120a0576040516339f890b560e21b81526004810186905260649082906001600160a01b037f0000000000000000000000000000000000000000000000000000000000000000169063e7e242d490602401602060405180830381865afa15801561204d573d6000803e3d6000fd5b505050506040513d601f19601f8201168201806040525081019061207191906133e2565b600a5461207e91906133a1565b61208891906133c0565b61209390603c6133a1565b61209d91906133c0565b91505b6120b36120ad8385613423565b85612a22565b979650505050505050565b816001600160a01b03167f00000000000000000000000000000000000000000000000000000000000000006001600160a01b0316636352211e836040518263ffffffff1660e01b815260040161211691815260200190565b602060405180830381865afa158015612133573d6000803e3d6000fd5b505050506040513d601f19601f82011682018060405250810190612157919061348e565b6001600160a01b0316146121a25760405162461bcd60e51b81526020600482015260126024820152712737ba103b32903a37b5b2b71037bbb732b960711b6044820152606401610883565b6001600160a01b038216600090815260146020526040812054900361225a576001600160a01b03828116600081815260146020526040908190208490555163698473e360e01b81526004810184905260248101919091527f00000000000000000000000000000000000000000000000000000000000000009091169063698473e390604401600060405180830381600087803b15801561224157600080fd5b505af1158015612255573d6000803e3d6000fd5b505050505b6001600160a01b03821660009081526014602052604090205481146122af5760405162461bcd60e51b815260206004820152600b60248201526a2bb937b733903a37b5b2b760a91b6044820152606401610883565b816001600160a01b03167fa88ad287ee039276852a62661add3a03e736aca1a2987ceaebcf4ecfd018ae3f826040516122ea91815260200190565b60405180910390a25050565b6000546001146123185760405162461bcd60e51b8152600401610883906133fb565b6002600055806123585760405162461bcd60e51b815260206004820152600b60248201526a16995c9bc8185b5bdd5b9d60aa1b6044820152606401610883565b6123623382612ccc565b6123976001600160a01b037f000000000000000000000000000000000000000000000000000000000000000016333084612c94565b60405181815233907fe1fffcc4923d04b559f4d29a8bfc6cda04eb5b0d3c460751c2402c5c5cc9109c906020015b60405180910390a2506001600055565b600c54600a116124205760405162461bcd60e51b8152602060048201526016602482015275546f6f206d616e792072657761726420746f6b656e7360501b6044820152606401610883565b6001600160a01b0381166000908152600d602052604090205460ff161561247e5760405162461bcd60e51b8152602060048201526012602482015271105b1c9958591e481c9959da5cdd195c995960721b6044820152606401610883565b6001600160a01b03166000818152600d60205260408120805460ff19166001908117909155600c805491820181559091527fdf6966c971051c3d54ec59162606531493a51404a002842f56009d7e5cf4a8c70180546001600160a01b0319169091179055565b600060025460000361250c57506001600160a01b031660009081526007602052604090205490565b6002546001600160a01b038316600090815260046020908152604080832054600683528184205460059093529220546125459190612a22565b61254e85612bbe565b6125589190613374565b61256291906133a1565b61256c91906133c0565b6001600160a01b0383166000908152600760205260409020546107409190613423565b6001600160a01b03821660009081526013602052604081205481908082036125be576000809250925050610eda565b6001600160a01b0385166000908152601260205260408120906125e28284886127d8565b6000908152602092835260409081902081518083019092528054808352600190910154919093018190529791965090945050505050565b6001600160a01b038216600090815260146020526040902054811461266e5760405162461bcd60e51b815260206004820152600b60248201526a2bb937b733903a37b5b2b760a91b6044820152606401610883565b6001600160a01b03828116600081815260146020526040808220919091555163411b1f7760e01b81526004810184905260248101919091527f00000000000000000000000000000000000000000000000000000000000000009091169063411b1f7790604401600060405180830381600087803b1580156126ee57600080fd5b505af1158015612702573d6000803e3d6000fd5b50505050816001600160a01b03167f25842dad107a4bb4efa3824996f6140a5f6f3de5197debed6d780dc08bb0a0a0826040516122ea91815260200190565b6000546001146127635760405162461bcd60e51b8152600401610883906133fb565b60026000556127723382612d22565b6127a66001600160a01b037f0000000000000000000000000000000000000000000000000000000000000000163383612935565b60405181815233907f884edad9ce6fa2440d8a54cc123490eb96d2768479d49ff9c7366125a9424364906020016123c5565b60008260000361281e5760405162461bcd60e51b8152602060048201526011602482015270456d70747920636865636b706f696e747360781b6044820152606401610883565b8184600061282d600187613374565b815260200190815260200160002060000154116128565761284f600184613374565b9050610cfe565b60008080526020859052604090205482101561287457506000610cfe565b600080612882600186613374565b90505b81811115612915576000600261289b8484613374565b6128a591906133c0565b6128af9083613374565b600081815260208981526040918290208251808401909352805480845260019091015491830191909152919250908690036128ef57509250610cfe915050565b80518611156129005781935061290e565b61290b600183613374565b92505b5050612885565b50949350505050565b60008183101561292e578161073d565b5090919050565b6040516001600160a01b03831660248201526044810182905261299890849063a9059cbb60e01b906064015b60408051601f198184030181529190526020810180516001600160e01b03166001600160e01b031990931692909217909152612d69565b505050565b6001600160a01b03811660009081526003602052604081205460028054919283926129c9908490613374565b909155506129d8905082611e6f565b6001600160a01b0383166000908152600360205260408120829055600280549293508392909190612a0a908490613423565b90915550612a1a90508282612e3b565b610910612f2c565b600081831061292e578161073d565b6000806000612a40878561291e565b6001600160a01b038916600090815260056020908152604080832054600490925290912054919250908690612a7e612a788a8961291e565b84612a22565b612a888585612a22565b612a929190613374565b612a9c91906133a1565b612aa691906133c0565b99919850909650505050505050565b6001600160a01b0383166000908152601360205260409020548015801590612b1157506001600160a01b03841660009081526012602052604081208391612afd600185613374565b815260200190815260200160002060000154145b15612b54576001600160a01b03841660009081526012602052604081208491612b3b600185613374565b8152602081019190915260400160002060010155612bb8565b60408051808201825283815260208082018681526001600160a01b038816600090815260128352848120868252909252929020905181559051600191820155612b9e908290613423565b6001600160a01b0385166000908152601360205260409020555b50505050565b6001600160a01b038116600090815260056020526040812054610740904290612a22565b604051636eb1769f60e11b81523060048201526001600160a01b038381166024830152600091839186169063dd62ed3e90604401602060405180830381865afa158015612c33573d6000803e3d6000fd5b505050506040513d601f19601f82011682018060405250810190612c5791906133e2565b612c619190613423565b6040516001600160a01b038516602482015260448101829052909150612bb890859063095ea7b360e01b90606401612961565b6040516001600160a01b0380851660248301528316604482015260648101829052612bb89085906323b872dd60e01b90608401612961565b612cd4612fd0565b80600a6000828254612ce69190613423565b90915550506001600160a01b0382166000908152600b602052604081208054839290612d13908490613423565b9091555061091090508261299d565b612d2a612fd0565b80600a6000828254612d3c9190613374565b90915550506001600160a01b0382166000908152600b602052604081208054839290612d13908490613374565b6000612dbe826040518060400160405280602081526020017f5361666545524332303a206c6f772d6c6576656c2063616c6c206661696c6564815250856001600160a01b03166130549092919063ffffffff16565b8051909150156129985780806020019051810190612ddc91906134ab565b6129985760405162461bcd60e51b815260206004820152602a60248201527f5361666545524332303a204552433230206f7065726174696f6e20646964206e6044820152691bdd081cdd58d8d9595960b21b6064820152608401610883565b6001600160a01b0382166000908152600f602052604090205442908015801590612e9957506001600160a01b0384166000908152600e602052604081208391612e85600185613374565b815260200190815260200160002060000154145b15612ec3576001600160a01b0384166000908152600e602052604081208491612b3b600185613374565b60408051808201825283815260208082018681526001600160a01b0388166000908152600e8352848120868252909252929020905181559051600191820155612f0d908290613423565b6001600160a01b0385166000908152600f602052604090205550505050565b601154428115801590612f5e57508060106000612f4a600186613374565b815260200190815260200160002060000154145b15612f8d5760025460106000612f75600186613374565b81526020810191909152604001600020600101555050565b60408051808201825282815260025460208083019182526000868152601090915292909220905181559051600191820155612fc9908390613423565b6011555050565b600c5460005b81811015610910576000600c8281548110612ff357612ff361332f565b6000918252602090912001546001600160a01b031690506130188160001960016114a9565b6001600160a01b03909216600090815260076020908152604080832060069092529091209290925590558061304c8161335b565b915050612fd6565b60606001600160a01b0384163b6130ad5760405162461bcd60e51b815260206004820152601d60248201527f416464726573733a2063616c6c20746f206e6f6e2d636f6e74726163740000006044820152606401610883565b600080856001600160a01b0316856040516130c891906134f9565b6000604051808303816000865af19150503d8060008114613105576040519150601f19603f3d011682016040523d82523d6000602084013e61310a565b606091505b509150915061311a828286613124565b9695505050505050565b60608315613133575081610cfe565b8251156131435782518084602001fd5b8160405162461bcd60e51b81526004016108839190613515565b6001600160a01b0381168114610dab57600080fd5b803561317d8161315d565b919050565b6000806040838503121561319557600080fd5b82356131a08161315d565b946020939093013593505050565b600080604083850312156131c157600080fd5b82356131cc8161315d565b915060208301356131dc8161315d565b809150509250929050565b6000602082840312156131f957600080fd5b8135610cfe8161315d565b60006020828403121561321657600080fd5b5035919050565b634e487b7160e01b600052604160045260246000fd5b6000806040838503121561324657600080fd5b82356132518161315d565b915060208381013567ffffffffffffffff8082111561326f57600080fd5b818601915086601f83011261328357600080fd5b8135818111156132955761329561321d565b8060051b604051601f19603f830116810181811085821117156132ba576132ba61321d565b6040529182528482019250838101850191898311156132d857600080fd5b938501935b828510156132fd576132ee85613172565b845293850193928501926132dd565b8096505050505050509250929050565b6000806040838503121561332057600080fd5b50508035926020909101359150565b634e487b7160e01b600052603260045260246000fd5b634e487b7160e01b600052601160045260246000fd5b60006001820161336d5761336d613345565b5060010190565b60008282101561338657613386613345565b500390565b634e487b7160e01b600052603160045260246000fd5b60008160001904831182151516156133bb576133bb613345565b500290565b6000826133dd57634e487b7160e01b600052601260045260246000fd5b500490565b6000602082840312156133f457600080fd5b5051919050565b6020808252600e908201526d1499595b9d1c985b9d0818d85b1b60921b604082015260600190565b6000821982111561343657613436613345565b500190565b6000806040838503121561344e57600080fd5b505080516020909101519092909150565b6000806040838503121561347257600080fd5b825161347d8161315d565b60208401519092506131dc8161315d565b6000602082840312156134a057600080fd5b8151610cfe8161315d565b6000602082840312156134bd57600080fd5b81518015158114610cfe57600080fd5b60005b838110156134e85781810151838201526020016134d0565b83811115612bb85750506000910152565b6000825161350b8184602087016134cd565b9190910192915050565b60208152600082518060208401526135348160408501602087016134cd565b601f01601f1916919091016040019291505056fea2646970667358221220f1f7b57260340898b5641956443de8c954b596ebb6b2983605fcaf884cb157f264736f6c634300080d0033a26469706673582212201fd168ad808aabc95ce04804697524bfb729c939e028fcae0cf60e9dbf414ee064736f6c634300080d0033",
  "linkReferences": {},
  "deployedLinkReferences": {}
}