{
  "_format": "hh-sol-artifact-1",
  "contractName": "BrokenToken",
  "sourceName": "contracts/test/BrokenToken.sol",
  "abi": [
    {
      "inputs": [],
      "name": "testBrokenTransfer",
      "outputs": [],
      "stateMutability": "nonpayable",
      "type": "function"
    },
    {
      "inputs": [
        {
          "internalType": "address",
          "name": "_to",
          "type": "address"
        },
        {
          "internalType": "uint256",
          "name": "_value",
          "type": "uint256"
        }
      ],
      "name": "transfer",
      "outputs": [],
      "stateMutability": "pure",
      "type": "function"
    }
  ],
  "bytecode": "0x608060405234801561001057600080fd5b506103ad806100206000396000f3fe608060405234801561001057600080fd5b50600436106100365760003560e01c80630d67f81a1461003b578063a9059cbb14610045575b600080fd5b610043610057565b005b61004361005336600461029e565b5050565b61006330306001610065565b565b604080516001600160a01b038416602482015260448082018490528251808303909101815260649091019091526020810180516001600160e01b031663a9059cbb60e01b1790526100b79084906100bc565b505050565b6000610111826040518060400160405280602081526020017f5361666545524332303a206c6f772d6c6576656c2063616c6c206661696c6564815250856001600160a01b03166101939092919063ffffffff16565b8051909150156100b7578080602001905181019061012f91906102d6565b6100b75760405162461bcd60e51b815260206004820152602a60248201527f5361666545524332303a204552433230206f7065726174696f6e20646964206e6044820152691bdd081cdd58d8d9595960b21b60648201526084015b60405180910390fd5b60606001600160a01b0384163b6101ec5760405162461bcd60e51b815260206004820152601d60248201527f416464726573733a2063616c6c20746f206e6f6e2d636f6e7472616374000000604482015260640161018a565b600080856001600160a01b0316856040516102079190610328565b6000604051808303816000865af19150503d8060008114610244576040519150601f19603f3d011682016040523d82523d6000602084013e610249565b606091505b5091509150610259828286610265565b925050505b9392505050565b6060831561027457508161025e565b8251156102845782518084602001fd5b8160405162461bcd60e51b815260040161018a9190610344565b600080604083850312156102b157600080fd5b82356001600160a01b03811681146102c857600080fd5b946020939093013593505050565b6000602082840312156102e857600080fd5b8151801515811461025e57600080fd5b60005b838110156103135781810151838201526020016102fb565b83811115610322576000848401525b50505050565b6000825161033a8184602087016102f8565b9190910192915050565b60208152600082518060208401526103638160408501602087016102f8565b601f01601f1916919091016040019291505056fea2646970667358221220135ab871b8168c91513dc23f73a0b0352daa94ceb3925f8e3041ccb71e0df3e864736f6c634300080d0033",
  "linkReferences": {},
  "deployedLinkReferences": {}
}