{
  "_format": "hh-sol-artifact-1",
  "contractName": "ve_dist_test",
  "sourceName": "contracts/test/ve_dist_test.sol",
  "abi": [
    {
      "inputs": [],
      "name": "checkpoint_token",
      "outputs": [],
      "stateMutability": "nonpayable",
      "type": "function"
    },
    {
      "inputs": [],
      "name": "checkpoint_total_supply",
      "outputs": [],
      "stateMutability": "nonpayable",
      "type": "function"
    }
  ],
  "bytecode": "0x6080604052348015600f57600080fd5b50606f80601d6000396000f3fe6080604052348015600f57600080fd5b506004361060325760003560e01c8063811a40fe146037578063b21ed502146037575b600080fd5b00fea26469706673582212202b7085cbac36be262acfe680f2762e51e374a1bfd7a79ba96eb53c9787ff060364736f6c634300080b0033",
  "linkReferences": {},
  "deployedLinkReferences": {}
}