{
  "_format": "hh-sol-artifact-1",
  "contractName": "ContractTestHelper",
  "sourceName": "contracts/test/ContractTestHelper.sol",
  "abi": [
    {
      "inputs": [
        {
          "internalType": "uint256",
          "name": "a",
          "type": "uint256"
        },
        {
          "internalType": "uint256",
          "name": "b",
          "type": "uint256"
        },
        {
          "internalType": "uint256",
          "name": "target",
          "type": "uint256"
        }
      ],
      "name": "closeTo",
      "outputs": [
        {
          "internalType": "bool",
          "name": "",
          "type": "bool"
        }
      ],
      "stateMutability": "pure",
      "type": "function"
    },
    {
      "inputs": [
        {
          "internalType": "uint256",
          "name": "amountIn",
          "type": "uint256"
        },
        {
          "internalType": "uint256",
          "name": "reserveIn",
          "type": "uint256"
        },
        {
          "internalType": "uint256",
          "name": "reserveOut",
          "type": "uint256"
        }
      ],
      "name": "getAmountOut",
      "outputs": [
        {
          "internalType": "uint256",
          "name": "amountOut",
          "type": "uint256"
        }
      ],
      "stateMutability": "pure",
      "type": "function"
    },
    {
      "inputs": [
        {
          "internalType": "address",
          "name": "",
          "type": "address"
        },
        {
          "internalType": "uint256",
          "name": "amount0",
          "type": "uint256"
        },
        {
          "internalType": "uint256",
          "name": "amount1",
          "type": "uint256"
        },
        {
          "internalType": "bytes",
          "name": "data",
          "type": "bytes"
        }
      ],
      "name": "hook",
      "outputs": [],
      "stateMutability": "nonpayable",
      "type": "function"
    },
    {
      "inputs": [
        {
          "internalType": "address",
          "name": "veDist",
          "type": "address"
        }
      ],
      "name": "multipleVeDistCheckpoints",
      "outputs": [],
      "stateMutability": "nonpayable",
      "type": "function"
    },
    {
      "inputs": [
        {
          "internalType": "address",
          "name": "",
          "type": "address"
        },
        {
          "internalType": "address",
          "name": "",
          "type": "address"
        },
        {
          "internalType": "uint256",
          "name": "",
          "type": "uint256"
        },
        {
          "internalType": "bytes",
          "name": "",
          "type": "bytes"
        }
      ],
      "name": "onERC721Received",
      "outputs": [
        {
          "internalType": "bytes4",
          "name": "",
          "type": "bytes4"
        }
      ],
      "stateMutability": "pure",
      "type": "function"
    },
    {
      "inputs": [
        {
          "internalType": "address",
          "name": "pair",
          "type": "address"
        },
        {
          "internalType": "address",
          "name": "tokenIn",
          "type": "address"
        },
        {
          "internalType": "uint256",
          "name": "amountIn",
          "type": "uint256"
        }
      ],
      "name": "pairCurrentTwice",
      "outputs": [
        {
          "internalType": "uint256",
          "name": "",
          "type": "uint256"
        },
        {
          "internalType": "uint256",
          "name": "",
          "type": "uint256"
        }
      ],
      "stateMutability": "nonpayable",
      "type": "function"
    },
    {
      "inputs": [
        {
          "internalType": "address",
          "name": "ve",
          "type": "address"
        },
        {
          "internalType": "uint256",
          "name": "tokenId",
          "type": "uint256"
        }
      ],
      "name": "veFlashTransfer",
      "outputs": [],
      "stateMutability": "nonpayable",
      "type": "function"
    }
  ],
  "bytecode": "0x608060405234801561001057600080fd5b50611061806100206000396000f3fe608060405234801561001057600080fd5b506004361061007d5760003560e01c80638f5419891161005b5780638f541989146100f55780639a7bff7914610118578063c72438d71461012b578063c8bc5b571461015357600080fd5b8063054d50d414610082578063150b7a02146100a85780634a260613146100e0575b600080fd5b610095610090366004610c22565b610166565b6040519081526020015b60405180910390f35b6100c76100b6366004610caf565b630a85bd0160e11b95945050505050565b6040516001600160e01b0319909116815260200161009f565b6100f36100ee366004610d22565b6101b5565b005b610108610103366004610c22565b610304565b604051901515815260200161009f565b6100f3610126366004610d3f565b61031b565b61013e610139366004610d8c565b6103d3565b6040805192835260208301919091520161009f565b6100f3610161366004610dcd565b610523565b600080610175856103e8610e0f565b905060006101838483610e0f565b9050600082610194876103e8610e0f565b61019e9190610e2e565b90506101aa8183610e46565b979650505050505050565b806001600160a01b031663bee5dc326040518163ffffffff1660e01b8152600401600060405180830381600087803b1580156101f057600080fd5b505af1158015610204573d6000803e3d6000fd5b50505050806001600160a01b031663bee5dc326040518163ffffffff1660e01b8152600401600060405180830381600087803b15801561024357600080fd5b505af1158015610257573d6000803e3d6000fd5b50505050806001600160a01b031663326a94076040518163ffffffff1660e01b8152600401600060405180830381600087803b15801561029657600080fd5b505af11580156102aa573d6000803e3d6000fd5b50505050806001600160a01b031663326a94076040518163ffffffff1660e01b8152600401600060405180830381600087803b1580156102e957600080fd5b505af11580156102fd573d6000803e3d6000fd5b5050505050565b60006103118484846109a7565b90505b9392505050565b600061032982840184610d22565b9050600080826001600160a01b0316639d63848a6040518163ffffffff1660e01b81526004016040805180830381865afa15801561036b573d6000803e3d6000fd5b505050506040513d601f19601f8201168201806040525081019061038f9190610e68565b91509150866000146103af576103af6001600160a01b03831684896109f0565b85156103c9576103c96001600160a01b03821684886109f0565b5050505050505050565b6040516328bd9fc160e11b81526001600160a01b03838116600483015260248201839052600091829182919087169063517b3f8290604401602060405180830381865afa158015610428573d6000803e3d6000fd5b505050506040513d601f19601f8201168201806040525081019061044c9190610ea2565b9050856001600160a01b031663fff6cae96040518163ffffffff1660e01b8152600401600060405180830381600087803b15801561048957600080fd5b505af115801561049d573d6000803e3d6000fd5b50506040516328bd9fc160e11b81526001600160a01b03888116600483015260248201889052600093508916915063517b3f8290604401602060405180830381865afa1580156104f1573d6000803e3d6000fd5b505050506040513d601f19601f820116820180604052508101906105159190610ea2565b919791965090945050505050565b604051632142170760e11b8152336004820152306024820152604481018290526001600160a01b038316906342842e0e90606401600060405180830381600087803b15801561057157600080fd5b505af1158015610585573d6000803e3d6000fd5b50506040516339f890b560e21b8152600481018490526001600160a01b038516925063e7e242d49150602401602060405180830381865afa1580156105ce573d6000803e3d6000fd5b505050506040513d601f19601f820116820180604052508101906105f29190610ea2565b156106375760405162461bcd60e51b815260206004820152601060248201526f6e6f74207a65726f2062616c616e636560801b60448201526064015b60405180910390fd5b60405163c87b56dd60e01b8152600481018290526001600160a01b0383169063c87b56dd90602401600060405180830381865afa15801561067c573d6000803e3d6000fd5b505050506040513d6000823e601f3d908101601f191682016040526106a49190810190610f01565b50604051630981b24d60e41b81524360048201526001600160a01b0383169063981b24d090602401602060405180830381865afa1580156106e9573d6000803e3d6000fd5b505050506040513d601f19601f8201168201806040525081019061070d9190610ea2565b50816001600160a01b031663c2c4c5c16040518163ffffffff1660e01b8152600401600060405180830381600087803b15801561074957600080fd5b505af115801561075d573d6000803e3d6000fd5b50505050816001600160a01b031663c2c4c5c16040518163ffffffff1660e01b8152600401600060405180830381600087803b15801561079c57600080fd5b505af11580156107b0573d6000803e3d6000fd5b50505050816001600160a01b031663c2c4c5c16040518163ffffffff1660e01b8152600401600060405180830381600087803b1580156107ef57600080fd5b505af1158015610803573d6000803e3d6000fd5b50505050816001600160a01b031663c2c4c5c16040518163ffffffff1660e01b8152600401600060405180830381600087803b15801561084257600080fd5b505af1158015610856573d6000803e3d6000fd5b5050604051630981b24d60e41b81524360048201526001600160a01b038516925063981b24d09150602401602060405180830381865afa15801561089e573d6000803e3d6000fd5b505050506040513d601f19601f820116820180604052508101906108c29190610ea2565b506001600160a01b03821663981b24d06108dd600143610fa3565b6040518263ffffffff1660e01b81526004016108fb91815260200190565b602060405180830381865afa158015610918573d6000803e3d6000fd5b505050506040513d601f19601f8201168201806040525081019061093c9190610ea2565b50604051632142170760e11b8152306004820152336024820152604481018290526001600160a01b038316906342842e0e90606401600060405180830381600087803b15801561098b57600080fd5b505af115801561099f573d6000803e3d6000fd5b505050505050565b6000828411156109ce57816109bc8486610fa3565b116109c957506001610314565b6109e6565b816109d98585610fa3565b116109e657506001610314565b5060009392505050565b604080516001600160a01b038416602482015260448082018490528251808303909101815260649091019091526020810180516001600160e01b031663a9059cbb60e01b179052610a42908490610a47565b505050565b6000610a9c826040518060400160405280602081526020017f5361666545524332303a206c6f772d6c6576656c2063616c6c206661696c6564815250856001600160a01b0316610b199092919063ffffffff16565b805190915015610a425780806020019051810190610aba9190610fba565b610a425760405162461bcd60e51b815260206004820152602a60248201527f5361666545524332303a204552433230206f7065726174696f6e20646964206e6044820152691bdd081cdd58d8d9595960b21b606482015260840161062e565b60606001600160a01b0384163b610b725760405162461bcd60e51b815260206004820152601d60248201527f416464726573733a2063616c6c20746f206e6f6e2d636f6e7472616374000000604482015260640161062e565b600080856001600160a01b031685604051610b8d9190610fdc565b6000604051808303816000865af19150503d8060008114610bca576040519150601f19603f3d011682016040523d82523d6000602084013e610bcf565b606091505b5091509150610bdf828286610be9565b9695505050505050565b60608315610bf8575081610314565b825115610c085782518084602001fd5b8160405162461bcd60e51b815260040161062e9190610ff8565b600080600060608486031215610c3757600080fd5b505081359360208301359350604090920135919050565b6001600160a01b0381168114610c6357600080fd5b50565b60008083601f840112610c7857600080fd5b50813567ffffffffffffffff811115610c9057600080fd5b602083019150836020828501011115610ca857600080fd5b9250929050565b600080600080600060808688031215610cc757600080fd5b8535610cd281610c4e565b94506020860135610ce281610c4e565b935060408601359250606086013567ffffffffffffffff811115610d0557600080fd5b610d1188828901610c66565b969995985093965092949392505050565b600060208284031215610d3457600080fd5b813561031481610c4e565b600080600080600060808688031215610d5757600080fd5b8535610d6281610c4e565b94506020860135935060408601359250606086013567ffffffffffffffff811115610d0557600080fd5b600080600060608486031215610da157600080fd5b8335610dac81610c4e565b92506020840135610dbc81610c4e565b929592945050506040919091013590565b60008060408385031215610de057600080fd5b8235610deb81610c4e565b946020939093013593505050565b634e487b7160e01b600052601160045260246000fd5b6000816000190483118215151615610e2957610e29610df9565b500290565b60008219821115610e4157610e41610df9565b500190565b600082610e6357634e487b7160e01b600052601260045260246000fd5b500490565b60008060408385031215610e7b57600080fd5b8251610e8681610c4e565b6020840151909250610e9781610c4e565b809150509250929050565b600060208284031215610eb457600080fd5b5051919050565b634e487b7160e01b600052604160045260246000fd5b60005b83811015610eec578181015183820152602001610ed4565b83811115610efb576000848401525b50505050565b600060208284031215610f1357600080fd5b815167ffffffffffffffff80821115610f2b57600080fd5b818401915084601f830112610f3f57600080fd5b815181811115610f5157610f51610ebb565b604051601f8201601f19908116603f01168101908382118183101715610f7957610f79610ebb565b81604052828152876020848701011115610f9257600080fd5b6101aa836020830160208801610ed1565b600082821015610fb557610fb5610df9565b500390565b600060208284031215610fcc57600080fd5b8151801515811461031457600080fd5b60008251610fee818460208701610ed1565b9190910192915050565b6020815260008251806020840152611017816040850160208701610ed1565b601f01601f1916919091016040019291505056fea264697066735822122074cbf07d8cc2d062ec7f4e26ea2c198b0774d2be36cca7fbc5dd2c55d3bd3f6864736f6c634300080d0033",
  "linkReferences": {},
  "deployedLinkReferences": {}
}